{
  "contractName": "UCAuth",
  "abi": [
    {
      "constant": false,
      "inputs": [
        {
          "name": "_owner",
          "type": "address"
        }
      ],
      "name": "setOwner",
      "outputs": [],
      "payable": false,
      "stateMutability": "nonpayable",
      "type": "function"
    },
    {
      "constant": false,
      "inputs": [
        {
          "name": "_path",
          "type": "address"
        }
      ],
      "name": "setPath",
      "outputs": [],
      "payable": false,
      "stateMutability": "nonpayable",
      "type": "function"
    },
    {
      "constant": false,
      "inputs": [
        {
          "name": "pathName",
          "type": "string"
        },
        {
          "name": "pathAddress",
          "type": "address"
        }
      ],
      "name": "updatePath",
      "outputs": [],
      "payable": false,
      "stateMutability": "nonpayable",
      "type": "function"
    },
    {
      "constant": true,
      "inputs": [],
      "name": "owner",
      "outputs": [
        {
          "name": "",
          "type": "address"
        }
      ],
      "payable": false,
      "stateMutability": "view",
      "type": "function"
    },
    {
      "constant": true,
      "inputs": [],
      "name": "ucPath",
      "outputs": [
        {
          "name": "",
          "type": "address"
        }
      ],
      "payable": false,
      "stateMutability": "view",
      "type": "function"
    },
    {
      "inputs": [
        {
          "name": "pathAddress",
          "type": "address"
        }
      ],
      "payable": false,
      "stateMutability": "nonpayable",
      "type": "constructor"
    },
    {
      "anonymous": false,
      "inputs": [
        {
          "indexed": false,
          "name": "owner",
          "type": "address"
        }
      ],
      "name": "NewOwner",
      "type": "event"
    },
    {
      "anonymous": false,
      "inputs": [
        {
          "indexed": false,
          "name": "pathAddress",
          "type": "address"
        }
      ],
      "name": "NewPath",
      "type": "event"
    },
    {
      "anonymous": false,
      "inputs": [
        {
          "indexed": false,
          "name": "pathName",
          "type": "string"
        },
        {
          "indexed": false,
          "name": "pathAddress",
          "type": "address"
        }
      ],
      "name": "PathUpdated",
      "type": "event"
    }
  ],
  "bytecode": "0x608060405234801561001057600080fd5b50604051602080610a928339810180604052602081101561003057600080fd5b8101908080519060200190929190505050806040518060400160405280600681526020017f5543417574680000000000000000000000000000000000000000000000000000815250336000806101000a81548173ffffffffffffffffffffffffffffffffffffffff021916908373ffffffffffffffffffffffffffffffffffffffff1602179055507f3edd90e7770f06fafde38004653b33870066c33bfc923ff6102acd601f85dfbc33604051808273ffffffffffffffffffffffffffffffffffffffff1673ffffffffffffffffffffffffffffffffffffffff16815260200191505060405180910390a160405180807f554350617468000000000000000000000000000000000000000000000000000081525060060190506040518091039020818051906020012014156101a55730600160006101000a81548173ffffffffffffffffffffffffffffffffffffffff021916908373ffffffffffffffffffffffffffffffffffffffff1602179055506101e7565b81600160006101000a81548173ffffffffffffffffffffffffffffffffffffffff021916908373ffffffffffffffffffffffffffffffffffffffff1602179055505b505050610899806101f96000396000f3fe608060405234801561001057600080fd5b50600436106100575760003560e01c806313af40351461005c5780633b955177146100a0578063599b4fbc146100e45780638da5cb5b146101bf578063deae3b1e14610209575b600080fd5b61009e6004803603602081101561007257600080fd5b81019080803573ffffffffffffffffffffffffffffffffffffffff169060200190929190505050610253565b005b6100e2600480360360208110156100b657600080fd5b81019080803573ffffffffffffffffffffffffffffffffffffffff169060200190929190505050610374565b005b6101bd600480360360408110156100fa57600080fd5b810190808035906020019064010000000081111561011757600080fd5b82018360208201111561012957600080fd5b8035906020019184600183028401116401000000008311171561014b57600080fd5b91908080601f016020809104026020016040519081016040528093929190818152602001838380828437600081840152601f19601f820116905080830192505050505050509192919290803573ffffffffffffffffffffffffffffffffffffffff169060200190929190505050610496565b005b6101c76105e5565b604051808273ffffffffffffffffffffffffffffffffffffffff1673ffffffffffffffffffffffffffffffffffffffff16815260200191505060405180910390f35b61021161060a565b604051808273ffffffffffffffffffffffffffffffffffffffff1673ffffffffffffffffffffffffffffffffffffffff16815260200191505060405180910390f35b61025c33610630565b6102ce576040517f08c379a000000000000000000000000000000000000000000000000000000000815260040180806020018281038252600e8152602001807f4e6f7420617574686f72697a656400000000000000000000000000000000000081525060200191505060405180910390fd5b806000806101000a81548173ffffffffffffffffffffffffffffffffffffffff021916908373ffffffffffffffffffffffffffffffffffffffff1602179055507f3edd90e7770f06fafde38004653b33870066c33bfc923ff6102acd601f85dfbc81604051808273ffffffffffffffffffffffffffffffffffffffff1673ffffffffffffffffffffffffffffffffffffffff16815260200191505060405180910390a150565b61037d33610630565b6103ef576040517f08c379a000000000000000000000000000000000000000000000000000000000815260040180806020018281038252600e8152602001807f4e6f7420617574686f72697a656400000000000000000000000000000000000081525060200191505060405180910390fd5b80600160006101000a81548173ffffffffffffffffffffffffffffffffffffffff021916908373ffffffffffffffffffffffffffffffffffffffff1602179055507f06996b58b8ff542ff91d7a929369bb5d93940639f7849f15d0f95923d1d1705181604051808273ffffffffffffffffffffffffffffffffffffffff1673ffffffffffffffffffffffffffffffffffffffff16815260200191505060405180910390a150565b61049f33610630565b610511576040517f08c379a000000000000000000000000000000000000000000000000000000000815260040180806020018281038252600e8152602001807f4e6f7420617574686f72697a656400000000000000000000000000000000000081525060200191505060405180910390fd5b7f0bf1be166f5b263d06191a42d6ab01a3333b6da101cf1cc7bba6f07a70dd2ff5828260405180806020018373ffffffffffffffffffffffffffffffffffffffff1673ffffffffffffffffffffffffffffffffffffffff168152602001828103825284818151815260200191508051906020019080838360005b838110156105a657808201518184015260208101905061058b565b50505050905090810190601f1680156105d35780820380516001836020036101000a031916815260200191505b50935050505060405180910390a15050565b6000809054906101000a900473ffffffffffffffffffffffffffffffffffffffff1681565b600160009054906101000a900473ffffffffffffffffffffffffffffffffffffffff1681565b60003073ffffffffffffffffffffffffffffffffffffffff168273ffffffffffffffffffffffffffffffffffffffff16141561066f576001905061081d565b6000809054906101000a900473ffffffffffffffffffffffffffffffffffffffff1673ffffffffffffffffffffffffffffffffffffffff168273ffffffffffffffffffffffffffffffffffffffff1614156106cd576001905061081d565b6106d682610822565b1561081c57600073ffffffffffffffffffffffffffffffffffffffff16600160009054906101000a900473ffffffffffffffffffffffffffffffffffffffff1673ffffffffffffffffffffffffffffffffffffffff16141561073b576000905061081d565b600160009054906101000a900473ffffffffffffffffffffffffffffffffffffffff1673ffffffffffffffffffffffffffffffffffffffff16638b1b925f836040518263ffffffff1660e01b8152600401808273ffffffffffffffffffffffffffffffffffffffff1673ffffffffffffffffffffffffffffffffffffffff16815260200191505060206040518083038186803b1580156107da57600080fd5b505afa1580156107ee573d6000803e3d6000fd5b505050506040513d602081101561080457600080fd5b8101908080519060200190929190505050905061081d565b5b919050565b6000807fc5d2460186f7233c927e7db2dcc703c0e500b653ca82273b7bfad8045d85a47060001b90506000833f90506000801b81141580156108645750818114155b9250505091905056fea165627a7a7230582087b3c29573291124c4edff01dbd1e19a2bbd70b46f3ab395856c9cdb38b0d6bb0029",
  "source": "pragma solidity >=0.4.21 <0.6.5;\r\n\r\nimport \"./libraries/UnorderedKeySet.sol\";\r\nimport \"./UCPath.sol\";\r\nimport \"./UCChangeable.sol\";\r\n\r\ncontract UCAuth is UCChangeable {\r\n\r\n    /// Public Mappings\r\n    //mapping(address=>bool) public admins;\r\n\r\n    /// Private lists\r\n    UnorderedAddressSetLib.Set admins; // list of admins\r\n    //UnorderedAddressSetLib.Set ucContracts; // list of active contracts (both current and replaced)\r\n\r\n    constructor(address pathAddress) UCChangeable(pathAddress, \"UCAuth\") public {\r\n\r\n    }\r\n\r\n    /// Public Methods\r\n\r\n\r\n}",
  "sourcePath": "E:\\JCL\\Webmaster\\GitHub\\UCToken\\UCToken\\contracts\\UCAuth.sol",
  "compiler": {
    "name": "solc",
    "version": "0.5.7+commit.6da8b019.Emscripten.clang"
  },
  "schemaVersion": "3.0.23",
  "updatedAt": "2020-05-04T02:01:07.309Z",
  "devdoc": {
    "methods": {}
  },
  "userdoc": {
    "methods": {
      "setOwner(address)": {
        "notice": "Public Methods"
      },
      "updatePath(string,address)": {
        "notice": "Public Auth Mehods"
      }
    }
  }
}