{
  "contractName": "UCAuth",
  "abi": [
    {
      "constant": false,
      "inputs": [
        {
          "name": "_owner",
          "type": "address"
        }
      ],
      "name": "setOwner",
      "outputs": [],
      "payable": false,
      "stateMutability": "nonpayable",
      "type": "function"
    },
    {
      "constant": false,
      "inputs": [
        {
          "name": "_path",
          "type": "address"
        }
      ],
      "name": "setPath",
      "outputs": [],
      "payable": false,
      "stateMutability": "nonpayable",
      "type": "function"
    },
    {
      "constant": false,
      "inputs": [
        {
          "name": "pathName",
          "type": "string"
        },
        {
          "name": "pathAddress",
          "type": "address"
        }
      ],
      "name": "updatePath",
      "outputs": [],
      "payable": false,
      "stateMutability": "nonpayable",
      "type": "function"
    },
    {
      "constant": true,
      "inputs": [],
      "name": "owner",
      "outputs": [
        {
          "name": "",
          "type": "address"
        }
      ],
      "payable": false,
      "stateMutability": "view",
      "type": "function"
    },
    {
      "constant": true,
      "inputs": [],
      "name": "ucPath",
      "outputs": [
        {
          "name": "",
          "type": "address"
        }
      ],
      "payable": false,
      "stateMutability": "view",
      "type": "function"
    },
    {
      "inputs": [
        {
          "name": "pathAddress",
          "type": "address"
        }
      ],
      "payable": false,
      "stateMutability": "nonpayable",
      "type": "constructor"
    },
    {
      "anonymous": false,
      "inputs": [
        {
          "indexed": false,
          "name": "owner",
          "type": "address"
        }
      ],
      "name": "NewOwner",
      "type": "event"
    },
    {
      "anonymous": false,
      "inputs": [
        {
          "indexed": false,
          "name": "pathAddress",
          "type": "address"
        }
      ],
      "name": "NewPath",
      "type": "event"
    },
    {
      "anonymous": false,
      "inputs": [
        {
          "indexed": false,
          "name": "pathName",
          "type": "string"
        },
        {
          "indexed": false,
          "name": "pathAddress",
          "type": "address"
        }
      ],
      "name": "PathUpdated",
      "type": "event"
    }
  ],
  "bytecode": "0x608060405234801561001057600080fd5b50604051602080610dac8339810180604052602081101561003057600080fd5b8101908080519060200190929190505050806040805190810160405280600681526020017f5543417574680000000000000000000000000000000000000000000000000000815250336000806101000a81548173ffffffffffffffffffffffffffffffffffffffff021916908373ffffffffffffffffffffffffffffffffffffffff1602179055507f3edd90e7770f06fafde38004653b33870066c33bfc923ff6102acd601f85dfbc33604051808273ffffffffffffffffffffffffffffffffffffffff1673ffffffffffffffffffffffffffffffffffffffff16815260200191505060405180910390a160405180807f554350617468000000000000000000000000000000000000000000000000000081525060060190506040518091039020818051906020012014156101a55730600160006101000a81548173ffffffffffffffffffffffffffffffffffffffff021916908373ffffffffffffffffffffffffffffffffffffffff1602179055506101e7565b81600160006101000a81548173ffffffffffffffffffffffffffffffffffffffff021916908373ffffffffffffffffffffffffffffffffffffffff1602179055505b600073ffffffffffffffffffffffffffffffffffffffff16600160009054906101000a900473ffffffffffffffffffffffffffffffffffffffff1673ffffffffffffffffffffffffffffffffffffffff1663af61c6a6836040518263ffffffff167c01000000000000000000000000000000000000000000000000000000000281526004018080602001828103825283818151815260200191508051906020019080838360005b838110156102a957808201518184015260208101905061028e565b50505050905090810190601f1680156102d65780820380516001836020036101000a031916815260200191505b509250505060206040518083038186803b1580156102f357600080fd5b505afa158015610307573d6000803e3d6000fd5b505050506040513d602081101561031d57600080fd5b810190808051906020019092919050505073ffffffffffffffffffffffffffffffffffffffff16141561048d57600160009054906101000a900473ffffffffffffffffffffffffffffffffffffffff1673ffffffffffffffffffffffffffffffffffffffff1663f309959430836040518363ffffffff167c0100000000000000000000000000000000000000000000000000000000028152600401808373ffffffffffffffffffffffffffffffffffffffff1673ffffffffffffffffffffffffffffffffffffffff16815260200180602001828103825283818151815260200191508051906020019080838360005b8381101561042757808201518184015260208101905061040c565b50505050905090810190601f1680156104545780820380516001836020036101000a031916815260200191505b509350505050600060405180830381600087803b15801561047457600080fd5b505af1158015610488573d6000803e3d6000fd5b505050505b50505061090d8061049f6000396000f3fe608060405260043610610067576000357c01000000000000000000000000000000000000000000000000000000009004806313af40351461006c5780633b955177146100bd578063599b4fbc1461010e5780638da5cb5b146101f6578063deae3b1e1461024d575b600080fd5b34801561007857600080fd5b506100bb6004803603602081101561008f57600080fd5b81019080803573ffffffffffffffffffffffffffffffffffffffff1690602001909291905050506102a4565b005b3480156100c957600080fd5b5061010c600480360360208110156100e057600080fd5b81019080803573ffffffffffffffffffffffffffffffffffffffff1690602001909291905050506103c7565b005b34801561011a57600080fd5b506101f46004803603604081101561013157600080fd5b810190808035906020019064010000000081111561014e57600080fd5b82018360208201111561016057600080fd5b8035906020019184600183028401116401000000008311171561018257600080fd5b91908080601f016020809104026020016040519081016040528093929190818152602001838380828437600081840152601f19601f820116905080830192505050505050509192919290803573ffffffffffffffffffffffffffffffffffffffff1690602001909291905050506104eb565b005b34801561020257600080fd5b5061020b61063c565b604051808273ffffffffffffffffffffffffffffffffffffffff1673ffffffffffffffffffffffffffffffffffffffff16815260200191505060405180910390f35b34801561025957600080fd5b50610262610661565b604051808273ffffffffffffffffffffffffffffffffffffffff1673ffffffffffffffffffffffffffffffffffffffff16815260200191505060405180910390f35b6102ad33610687565b1515610321576040517f08c379a000000000000000000000000000000000000000000000000000000000815260040180806020018281038252600e8152602001807f4e6f7420417574686f72697a656400000000000000000000000000000000000081525060200191505060405180910390fd5b806000806101000a81548173ffffffffffffffffffffffffffffffffffffffff021916908373ffffffffffffffffffffffffffffffffffffffff1602179055507f3edd90e7770f06fafde38004653b33870066c33bfc923ff6102acd601f85dfbc81604051808273ffffffffffffffffffffffffffffffffffffffff1673ffffffffffffffffffffffffffffffffffffffff16815260200191505060405180910390a150565b6103d033610687565b1515610444576040517f08c379a000000000000000000000000000000000000000000000000000000000815260040180806020018281038252600e8152602001807f4e6f7420417574686f72697a656400000000000000000000000000000000000081525060200191505060405180910390fd5b80600160006101000a81548173ffffffffffffffffffffffffffffffffffffffff021916908373ffffffffffffffffffffffffffffffffffffffff1602179055507f06996b58b8ff542ff91d7a929369bb5d93940639f7849f15d0f95923d1d1705181604051808273ffffffffffffffffffffffffffffffffffffffff1673ffffffffffffffffffffffffffffffffffffffff16815260200191505060405180910390a150565b6104f433610687565b1515610568576040517f08c379a000000000000000000000000000000000000000000000000000000000815260040180806020018281038252600e8152602001807f4e6f7420417574686f72697a656400000000000000000000000000000000000081525060200191505060405180910390fd5b7f0bf1be166f5b263d06191a42d6ab01a3333b6da101cf1cc7bba6f07a70dd2ff5828260405180806020018373ffffffffffffffffffffffffffffffffffffffff1673ffffffffffffffffffffffffffffffffffffffff168152602001828103825284818151815260200191508051906020019080838360005b838110156105fd5780820151818401526020810190506105e2565b50505050905090810190601f16801561062a5780820380516001836020036101000a031916815260200191505b50935050505060405180910390a15050565b6000809054906101000a900473ffffffffffffffffffffffffffffffffffffffff1681565b600160009054906101000a900473ffffffffffffffffffffffffffffffffffffffff1681565b60003073ffffffffffffffffffffffffffffffffffffffff168273ffffffffffffffffffffffffffffffffffffffff1614156106c65760019050610890565b6000809054906101000a900473ffffffffffffffffffffffffffffffffffffffff1673ffffffffffffffffffffffffffffffffffffffff168273ffffffffffffffffffffffffffffffffffffffff1614156107245760019050610890565b61072d82610895565b1561088f57600073ffffffffffffffffffffffffffffffffffffffff16600160009054906101000a900473ffffffffffffffffffffffffffffffffffffffff1673ffffffffffffffffffffffffffffffffffffffff1614156107925760009050610890565b600160009054906101000a900473ffffffffffffffffffffffffffffffffffffffff1673ffffffffffffffffffffffffffffffffffffffff16638b1b925f836040518263ffffffff167c0100000000000000000000000000000000000000000000000000000000028152600401808273ffffffffffffffffffffffffffffffffffffffff1673ffffffffffffffffffffffffffffffffffffffff16815260200191505060206040518083038186803b15801561084d57600080fd5b505afa158015610861573d6000803e3d6000fd5b505050506040513d602081101561087757600080fd5b81019080805190602001909291905050509050610890565b5b919050565b6000807fc5d2460186f7233c927e7db2dcc703c0e500b653ca82273b7bfad8045d85a47060010290506000833f9050600060010281141580156108d85750818114155b9250505091905056fea165627a7a723058203a4b65cbf6038f603a3f85bab4605f5985d5ae4a1527b5bd72e9d359dfbe1bd40029",
  "source": "pragma solidity >=0.4.21 <0.6.5;\r\n\r\nimport \"./libraries/UnorderedKeySet.sol\";\r\nimport \"./UCPath.sol\";\r\nimport \"./UCChangeable.sol\";\r\n\r\ncontract UCAuth is UCChangeable {\r\n\r\n    /// Public Mappings\r\n    //mapping(address=>bool) public admins;\r\n\r\n    /// Private lists\r\n    UnorderedAddressSetLib.Set admins; // list of admins\r\n    //UnorderedAddressSetLib.Set ucContracts; // list of active contracts (both current and replaced)\r\n\r\n    constructor(address pathAddress) UCChangeable(pathAddress, \"UCAuth\") public {\r\n\r\n    }\r\n\r\n    /// Public Methods\r\n\r\n\r\n}",
  "sourcePath": "E:/JCL/Webmaster/GitHub/UCToken/UCToken/contracts/UCAuth.sol",
  "compiler": {
    "name": "solc",
    "version": "0.5.1+commit.c8a2cb62.Emscripten.clang"
  },
  "schemaVersion": "3.0.19",
  "updatedAt": "2020-04-07T16:02:02.957Z",
  "devdoc": {
    "methods": {}
  },
  "userdoc": {
    "methods": {
      "setOwner(address)": {
        "notice": "Public Methods"
      },
      "updatePath(string,address)": {
        "notice": "Public Auth Mehods"
      }
    }
  }
}