{
  "contractName": "UCCrawlingBand",
  "abi": [
    {
      "constant": true,
      "inputs": [],
      "name": "latestFloorPrice",
      "outputs": [
        {
          "name": "",
          "type": "uint256"
        }
      ],
      "payable": false,
      "stateMutability": "view",
      "type": "function"
    },
    {
      "constant": true,
      "inputs": [],
      "name": "latestCeilingPrice",
      "outputs": [
        {
          "name": "",
          "type": "uint256"
        }
      ],
      "payable": false,
      "stateMutability": "view",
      "type": "function"
    },
    {
      "constant": true,
      "inputs": [],
      "name": "getCurrentCeilingPrice",
      "outputs": [
        {
          "name": "",
          "type": "uint256"
        }
      ],
      "payable": false,
      "stateMutability": "view",
      "type": "function"
    },
    {
      "constant": true,
      "inputs": [],
      "name": "getCurrentFloorPrice",
      "outputs": [
        {
          "name": "",
          "type": "uint256"
        }
      ],
      "payable": false,
      "stateMutability": "view",
      "type": "function"
    }
  ],
  "bytecode": "0x6080604052629896806000556289544060015534801561001e57600080fd5b506101578061002e6000396000f3fe60806040526004361061005c576000357c0100000000000000000000000000000000000000000000000000000000900480631e4330d6146100615780632271e82a1461008c5780636a05b6fb146100b7578063d23deb18146100e2575b600080fd5b34801561006d57600080fd5b5061007661010d565b6040518082815260200191505060405180910390f35b34801561009857600080fd5b506100a1610113565b6040518082815260200191505060405180910390f35b3480156100c357600080fd5b506100cc61011c565b6040518082815260200191505060405180910390f35b3480156100ee57600080fd5b506100f7610125565b6040518082815260200191505060405180910390f35b60015481565b60008054905090565b60008054905090565b6000548156fea165627a7a72305820dc1c82eaa51ce6ad581ca024daae792f3e21d0ca1e9cb812153d8f2f3214ef830029",
  "source": "pragma solidity >=0.4.21 <0.6.0;\r\n\r\n\r\n/**\r\n * @title UCCrawlingBand\r\n * @dev Business logic for the UC price crawling band target in US Dollars.\r\n */\r\ncontract UCCrawlingBand {\r\n\r\n    uint256 public latestCeilingPrice = 10000000; // lastest updated CeilingPrice in US Dollar / 10000000 (7 decimals)\r\n    uint256 public latestFloorPrice = 9000000; // lastest updated FloorPrice in US Dollar / 10000000 (7 decimals)\r\n\r\n    /**\r\n     * @dev Returns the current target UC ceiling price in US Dollar.\r\n     * Note that...\r\n     * TODO: implement pause modifier\r\n     * @return UC Ceiling Price in US Dollar\r\n     */\r\n    function getCurrentCeilingPrice() public view returns (uint256) {\r\n        // uint256 elapsedTime = block.timestamp.sub(openingTime());\r\n        // uint256 timeRange = closingTime().sub(openingTime());\r\n        // uint256 rateRange = _initialRate.sub(_finalRate);\r\n        // return _initialRate.sub(elapsedTime.mul(rateRange).div(timeRange));\r\n        \r\n        // for testing purpose\r\n        return latestCeilingPrice;\r\n    }\r\n    /**\r\n     * @dev Returns the current target UC floor price in US Dollar / 10000000.\r\n     * Note that...\r\n     * TODO: implement pause modifier\r\n     * @return UC Floor Price in US Dollar in US Dollar / 10000000\r\n     */\r\n    function getCurrentFloorPrice() public view returns (uint256) {\r\n        // uint256 elapsedTime = block.timestamp.sub(openingTime());\r\n        // uint256 timeRange = closingTime().sub(openingTime());\r\n        // uint256 rateRange = _initialRate.sub(_finalRate);\r\n        // return _initialRate.sub(elapsedTime.mul(rateRange).div(timeRange));\r\n        \r\n        // for testing purpose\r\n        return latestCeilingPrice;\r\n    }\r\n\r\n}",
  "sourcePath": "E:\\jcl\\webmaster\\github\\uctoken\\uctoken\\contracts\\UCCrawlingBand.sol",
  "compiler": {
    "name": "solc",
    "version": "0.5.1+commit.c8a2cb62.Emscripten.clang"
  },
  "schemaVersion": "3.0.19",
  "updatedAt": "2019-11-22T01:36:12.548Z",
  "networkType": "ethereum",
  "devdoc": {
    "details": "Business logic for the UC price crawling band target in US Dollars.\r",
    "methods": {
      "getCurrentCeilingPrice()": {
        "details": "Returns the current target UC ceiling price in US Dollar.\r Note that...\r TODO: implement pause modifier\r",
        "return": "UC Ceiling Price in US Dollar\r"
      },
      "getCurrentFloorPrice()": {
        "details": "Returns the current target UC floor price in US Dollar / 10000000.\r Note that...\r TODO: implement pause modifier\r",
        "return": "UC Floor Price in US Dollar in US Dollar / 10000000\r"
      }
    },
    "title": "UCCrawlingBand\r"
  },
  "userdoc": {
    "methods": {}
  }
}