{
  "contractName": "UCCrawlingBand",
  "abi": [
    {
      "constant": true,
      "inputs": [],
      "name": "band",
      "outputs": [
        {
          "name": "",
          "type": "uint256"
        }
      ],
      "payable": false,
      "stateMutability": "view",
      "type": "function"
    },
    {
      "constant": true,
      "inputs": [],
      "name": "crawlingRate",
      "outputs": [
        {
          "name": "",
          "type": "uint256"
        }
      ],
      "payable": false,
      "stateMutability": "view",
      "type": "function"
    },
    {
      "constant": false,
      "inputs": [
        {
          "name": "_owner",
          "type": "address"
        }
      ],
      "name": "setOwner",
      "outputs": [],
      "payable": false,
      "stateMutability": "nonpayable",
      "type": "function"
    },
    {
      "constant": true,
      "inputs": [],
      "name": "latestFloorPrice",
      "outputs": [
        {
          "name": "",
          "type": "uint256"
        }
      ],
      "payable": false,
      "stateMutability": "view",
      "type": "function"
    },
    {
      "constant": false,
      "inputs": [
        {
          "name": "_path",
          "type": "address"
        }
      ],
      "name": "setPath",
      "outputs": [],
      "payable": false,
      "stateMutability": "nonpayable",
      "type": "function"
    },
    {
      "constant": true,
      "inputs": [],
      "name": "detachRate",
      "outputs": [
        {
          "name": "",
          "type": "uint256"
        }
      ],
      "payable": false,
      "stateMutability": "view",
      "type": "function"
    },
    {
      "constant": false,
      "inputs": [
        {
          "name": "pathName",
          "type": "string"
        },
        {
          "name": "pathAddress",
          "type": "address"
        }
      ],
      "name": "updatePath",
      "outputs": [],
      "payable": false,
      "stateMutability": "nonpayable",
      "type": "function"
    },
    {
      "constant": true,
      "inputs": [],
      "name": "owner",
      "outputs": [
        {
          "name": "",
          "type": "address"
        }
      ],
      "payable": false,
      "stateMutability": "view",
      "type": "function"
    },
    {
      "constant": true,
      "inputs": [],
      "name": "latestCeilingTime",
      "outputs": [
        {
          "name": "",
          "type": "uint256"
        }
      ],
      "payable": false,
      "stateMutability": "view",
      "type": "function"
    },
    {
      "constant": true,
      "inputs": [],
      "name": "latestCeilingPrice",
      "outputs": [
        {
          "name": "",
          "type": "uint256"
        }
      ],
      "payable": false,
      "stateMutability": "view",
      "type": "function"
    },
    {
      "constant": true,
      "inputs": [],
      "name": "ucPath",
      "outputs": [
        {
          "name": "",
          "type": "address"
        }
      ],
      "payable": false,
      "stateMutability": "view",
      "type": "function"
    },
    {
      "constant": true,
      "inputs": [],
      "name": "latestFloorTime",
      "outputs": [
        {
          "name": "",
          "type": "uint256"
        }
      ],
      "payable": false,
      "stateMutability": "view",
      "type": "function"
    },
    {
      "inputs": [
        {
          "name": "_band",
          "type": "uint256"
        },
        {
          "name": "_crawlingRate",
          "type": "uint256"
        },
        {
          "name": "pathAddress",
          "type": "address"
        }
      ],
      "payable": false,
      "stateMutability": "nonpayable",
      "type": "constructor"
    },
    {
      "anonymous": false,
      "inputs": [
        {
          "indexed": false,
          "name": "previousBand",
          "type": "uint256"
        },
        {
          "indexed": false,
          "name": "newBand",
          "type": "uint256"
        }
      ],
      "name": "BandChanged",
      "type": "event"
    },
    {
      "anonymous": false,
      "inputs": [
        {
          "indexed": false,
          "name": "previousRate",
          "type": "uint256"
        },
        {
          "indexed": false,
          "name": "newRate",
          "type": "uint256"
        }
      ],
      "name": "CrawlingRateChanged",
      "type": "event"
    },
    {
      "anonymous": false,
      "inputs": [
        {
          "indexed": false,
          "name": "previousRate",
          "type": "uint256"
        },
        {
          "indexed": false,
          "name": "newRate",
          "type": "uint256"
        }
      ],
      "name": "DetachRateChanged",
      "type": "event"
    },
    {
      "anonymous": false,
      "inputs": [
        {
          "indexed": false,
          "name": "owner",
          "type": "address"
        }
      ],
      "name": "NewOwner",
      "type": "event"
    },
    {
      "anonymous": false,
      "inputs": [
        {
          "indexed": false,
          "name": "pathAddress",
          "type": "address"
        }
      ],
      "name": "NewPath",
      "type": "event"
    },
    {
      "anonymous": false,
      "inputs": [
        {
          "indexed": false,
          "name": "pathName",
          "type": "string"
        },
        {
          "indexed": false,
          "name": "pathAddress",
          "type": "address"
        }
      ],
      "name": "PathUpdated",
      "type": "event"
    },
    {
      "constant": false,
      "inputs": [],
      "name": "init",
      "outputs": [],
      "payable": false,
      "stateMutability": "nonpayable",
      "type": "function"
    },
    {
      "constant": true,
      "inputs": [],
      "name": "getEstimatedCeilingPrice",
      "outputs": [
        {
          "name": "",
          "type": "uint256"
        }
      ],
      "payable": false,
      "stateMutability": "view",
      "type": "function"
    },
    {
      "constant": true,
      "inputs": [],
      "name": "getEstimatedFloorPrice",
      "outputs": [
        {
          "name": "",
          "type": "uint256"
        }
      ],
      "payable": false,
      "stateMutability": "view",
      "type": "function"
    },
    {
      "constant": false,
      "inputs": [],
      "name": "getCurrentCeilingPrice",
      "outputs": [
        {
          "name": "",
          "type": "uint256"
        }
      ],
      "payable": false,
      "stateMutability": "nonpayable",
      "type": "function"
    },
    {
      "constant": false,
      "inputs": [],
      "name": "getCurrentFloorPrice",
      "outputs": [
        {
          "name": "",
          "type": "uint256"
        }
      ],
      "payable": false,
      "stateMutability": "nonpayable",
      "type": "function"
    }
  ],
  "bytecode": "0x608060405234801561001057600080fd5b506040516060806119888339810180604052606081101561003057600080fd5b81019080805190602001909291908051906020019092919080519060200190929190505050806040518060400160405280600e81526020017f5543437261776c696e6742616e64000000000000000000000000000000000000815250336000806101000a81548173ffffffffffffffffffffffffffffffffffffffff021916908373ffffffffffffffffffffffffffffffffffffffff1602179055507f3edd90e7770f06fafde38004653b33870066c33bfc923ff6102acd601f85dfbc33604051808273ffffffffffffffffffffffffffffffffffffffff1673ffffffffffffffffffffffffffffffffffffffff16815260200191505060405180910390a160405180807f554350617468000000000000000000000000000000000000000000000000000081525060060190506040518091039020818051906020012014156101b95730600160006101000a81548173ffffffffffffffffffffffffffffffffffffffff021916908373ffffffffffffffffffffffffffffffffffffffff1602179055506101fb565b81600160006101000a81548173ffffffffffffffffffffffffffffffffffffffff021916908373ffffffffffffffffffffffffffffffffffffffff1602179055505b50508260068190555081600781905550600160009054906101000a900473ffffffffffffffffffffffffffffffffffffffff1673ffffffffffffffffffffffffffffffffffffffff1663af61c6a66040518163ffffffff1660e01b81526004018080602001828103825260078152602001807f5543546f6b656e0000000000000000000000000000000000000000000000000081525060200191505060206040518083038186803b1580156102af57600080fd5b505afa1580156102c3573d6000803e3d6000fd5b505050506040513d60208110156102d957600080fd5b8101908080519060200190929190505050600960006101000a81548173ffffffffffffffffffffffffffffffffffffffff021916908373ffffffffffffffffffffffffffffffffffffffff1602179055506064600881905550505050611644806103446000396000f3fe608060405234801561001057600080fd5b506004361061010b5760003560e01c806366d21c1c116100a2578063ced786e211610071578063ced786e2146103ad578063d23deb18146103cb578063deae3b1e146103e9578063e1c7392a14610433578063eb8773631461043d5761010b565b806366d21c1c146103095780636a05b6fb14610327578063703f030c146103455780638da5cb5b146103635761010b565b80632271e82a116100de5780632271e82a146101ae5780633b955177146101cc5780633e22435814610210578063599b4fbc1461022e5761010b565b806310ea891a146101105780631357ed9f1461012e57806313af40351461014c5780631e4330d614610190575b600080fd5b61011861045b565b6040518082815260200191505060405180910390f35b610136610461565b6040518082815260200191505060405180910390f35b61018e6004803603602081101561016257600080fd5b81019080803573ffffffffffffffffffffffffffffffffffffffff169060200190929190505050610467565b005b610198610588565b6040518082815260200191505060405180910390f35b6101b661058e565b6040518082815260200191505060405180910390f35b61020e600480360360208110156101e257600080fd5b81019080803573ffffffffffffffffffffffffffffffffffffffff169060200190929190505050610638565b005b61021861075a565b6040518082815260200191505060405180910390f35b6103076004803603604081101561024457600080fd5b810190808035906020019064010000000081111561026157600080fd5b82018360208201111561027357600080fd5b8035906020019184600183028401116401000000008311171561029557600080fd5b91908080601f016020809104026020016040519081016040528093929190818152602001838380828437600081840152601f19601f820116905080830192505050505050509192919290803573ffffffffffffffffffffffffffffffffffffffff169060200190929190505050610760565b005b6103116108af565b6040518082815260200191505060405180910390f35b61032f6109f6565b6040518082815260200191505060405180910390f35b61034d610aa0565b6040518082815260200191505060405180910390f35b61036b610d7c565b604051808273ffffffffffffffffffffffffffffffffffffffff1673ffffffffffffffffffffffffffffffffffffffff16815260200191505060405180910390f35b6103b5610da1565b6040518082815260200191505060405180910390f35b6103d3610da7565b6040518082815260200191505060405180910390f35b6103f1610dad565b604051808273ffffffffffffffffffffffffffffffffffffffff1673ffffffffffffffffffffffffffffffffffffffff16815260200191505060405180910390f35b61043b610dd3565b005b610445610fb8565b6040518082815260200191505060405180910390f35b60065481565b60075481565b61047033610fbe565b6104e2576040517f08c379a000000000000000000000000000000000000000000000000000000000815260040180806020018281038252600e8152602001807f4e6f7420617574686f72697a656400000000000000000000000000000000000081525060200191505060405180910390fd5b806000806101000a81548173ffffffffffffffffffffffffffffffffffffffff021916908373ffffffffffffffffffffffffffffffffffffffff1602179055507f3edd90e7770f06fafde38004653b33870066c33bfc923ff6102acd601f85dfbc81604051808273ffffffffffffffffffffffffffffffffffffffff1673ffffffffffffffffffffffffffffffffffffffff16815260200191505060405180910390a150565b60035481565b600061059933610fbe565b61060b576040517f08c379a000000000000000000000000000000000000000000000000000000000815260040180806020018281038252600e8152602001807f4e6f7420617574686f72697a656400000000000000000000000000000000000081525060200191505060405180910390fd5b6000610615610aa0565b905042600581905550600354811461062f57806003819055505b60035491505090565b61064133610fbe565b6106b3576040517f08c379a000000000000000000000000000000000000000000000000000000000815260040180806020018281038252600e8152602001807f4e6f7420617574686f72697a656400000000000000000000000000000000000081525060200191505060405180910390fd5b80600160006101000a81548173ffffffffffffffffffffffffffffffffffffffff021916908373ffffffffffffffffffffffffffffffffffffffff1602179055507f06996b58b8ff542ff91d7a929369bb5d93940639f7849f15d0f95923d1d1705181604051808273ffffffffffffffffffffffffffffffffffffffff1673ffffffffffffffffffffffffffffffffffffffff16815260200191505060405180910390a150565b60085481565b61076933610fbe565b6107db576040517f08c379a000000000000000000000000000000000000000000000000000000000815260040180806020018281038252600e8152602001807f4e6f7420617574686f72697a656400000000000000000000000000000000000081525060200191505060405180910390fd5b7f0bf1be166f5b263d06191a42d6ab01a3333b6da101cf1cc7bba6f07a70dd2ff5828260405180806020018373ffffffffffffffffffffffffffffffffffffffff1673ffffffffffffffffffffffffffffffffffffffff168152602001828103825284818151815260200191508051906020019080838360005b83811015610870578082015181840152602081019050610855565b50505050905090810190601f16801561089d5780820380516001836020036101000a031916815260200191505b50935050505060405180910390a15050565b60008060045414156108c657620f424090506109f3565b60006108f1610e106108e3600454426111b090919063ffffffff16565b6111fa90919063ffffffff16565b9050600061091e61090d8360075461124490919063ffffffff16565b6002546112ca90919063ffffffff16565b9050600254811161097a576040517f08c379a00000000000000000000000000000000000000000000000000000000081526004018080602001828103825260498152602001806115636049913960600191505060405180910390fd5b6000610984610aa0565b9050806003541061099c5760025493505050506109f3565b60006109c660646109b86006548561124490919063ffffffff16565b6111fa90919063ffffffff16565b90508083106109d3578092505b6002548310156109eb576002549450505050506109f3565b829450505050505b90565b6000610a0133610fbe565b610a73576040517f08c379a000000000000000000000000000000000000000000000000000000000815260040180806020018281038252600e8152602001807f4e6f7420617574686f72697a656400000000000000000000000000000000000081525060200191505060405180910390fd5b6000610a7d6108af565b9050426004819055506002548114610a9757806002819055505b60025491505090565b6000806005541415610ab757620dbba09050610d79565b6000610ae36064610ad560085460075461124490919063ffffffff16565b6111fa90919063ffffffff16565b9050600754811115610b40576040517f08c379a000000000000000000000000000000000000000000000000000000000815260040180806020018281038252604c8152602001806115cd604c913960600191505060405180910390fd5b6000610b6b610e10610b5d600554426111b090919063ffffffff16565b6111fa90919063ffffffff16565b90506000610b96610b85838561124490919063ffffffff16565b6003546112ca90919063ffffffff16565b90506003548111610bf2576040517f08c379a000000000000000000000000000000000000000000000000000000000815260040180806020018281038252603f815260200180611524603f913960400191505060405180910390fd5b6000600a60009054906101000a900473ffffffffffffffffffffffffffffffffffffffff1673ffffffffffffffffffffffffffffffffffffffff16636e19b8056040518163ffffffff1660e01b815260040160206040518083038186803b158015610c5c57600080fd5b505afa158015610c70573d6000803e3d6000fd5b505050506040513d6020811015610c8657600080fd5b810190808051906020019092919050505090506000600960009054906101000a900473ffffffffffffffffffffffffffffffffffffffff1673ffffffffffffffffffffffffffffffffffffffff166318160ddd6040518163ffffffff1660e01b815260040160206040518083038186803b158015610d0357600080fd5b505afa158015610d17573d6000803e3d6000fd5b505050506040513d6020811015610d2d57600080fd5b81019080805190602001909291905050509050610d53818461124490919063ffffffff16565b821015610d7057610d6d81836111fa90919063ffffffff16565b92505b82955050505050505b90565b6000809054906101000a900473ffffffffffffffffffffffffffffffffffffffff1681565b60045481565b60025481565b600160009054906101000a900473ffffffffffffffffffffffffffffffffffffffff1681565b600073ffffffffffffffffffffffffffffffffffffffff16600a60009054906101000a900473ffffffffffffffffffffffffffffffffffffffff1673ffffffffffffffffffffffffffffffffffffffff1614610e97576040517f08c379a00000000000000000000000000000000000000000000000000000000081526004018080602001828103825260138152602001807f416c726561647920696e697469616c697a65640000000000000000000000000081525060200191505060405180910390fd5b600160009054906101000a900473ffffffffffffffffffffffffffffffffffffffff1673ffffffffffffffffffffffffffffffffffffffff1663af61c6a66040518163ffffffff1660e01b815260040180806020018281038252600d8152602001807f55434d61726b6574706c6163650000000000000000000000000000000000000081525060200191505060206040518083038186803b158015610f3b57600080fd5b505afa158015610f4f573d6000803e3d6000fd5b505050506040513d6020811015610f6557600080fd5b8101908080519060200190929190505050600a60006101000a81548173ffffffffffffffffffffffffffffffffffffffff021916908373ffffffffffffffffffffffffffffffffffffffff160217905550565b60055481565b60003073ffffffffffffffffffffffffffffffffffffffff168273ffffffffffffffffffffffffffffffffffffffff161415610ffd57600190506111ab565b6000809054906101000a900473ffffffffffffffffffffffffffffffffffffffff1673ffffffffffffffffffffffffffffffffffffffff168273ffffffffffffffffffffffffffffffffffffffff16141561105b57600190506111ab565b61106482611352565b156111aa57600073ffffffffffffffffffffffffffffffffffffffff16600160009054906101000a900473ffffffffffffffffffffffffffffffffffffffff1673ffffffffffffffffffffffffffffffffffffffff1614156110c957600090506111ab565b600160009054906101000a900473ffffffffffffffffffffffffffffffffffffffff1673ffffffffffffffffffffffffffffffffffffffff16638b1b925f836040518263ffffffff1660e01b8152600401808273ffffffffffffffffffffffffffffffffffffffff1673ffffffffffffffffffffffffffffffffffffffff16815260200191505060206040518083038186803b15801561116857600080fd5b505afa15801561117c573d6000803e3d6000fd5b505050506040513d602081101561119257600080fd5b810190808051906020019092919050505090506111ab565b5b919050565b60006111f283836040518060400160405280601e81526020017f536166654d6174683a207375627472616374696f6e206f766572666c6f77000081525061139d565b905092915050565b600061123c83836040518060400160405280601a81526020017f536166654d6174683a206469766973696f6e206279207a65726f00000000000081525061145d565b905092915050565b60008083141561125757600090506112c4565b600082840290508284828161126857fe5b04146112bf576040517f08c379a00000000000000000000000000000000000000000000000000000000081526004018080602001828103825260218152602001806115ac6021913960400191505060405180910390fd5b809150505b92915050565b600080828401905083811015611348576040517f08c379a000000000000000000000000000000000000000000000000000000000815260040180806020018281038252601b8152602001807f536166654d6174683a206164646974696f6e206f766572666c6f77000000000081525060200191505060405180910390fd5b8091505092915050565b6000807fc5d2460186f7233c927e7db2dcc703c0e500b653ca82273b7bfad8045d85a47060001b90506000833f90506000801b81141580156113945750818114155b92505050919050565b600083831115829061144a576040517f08c379a00000000000000000000000000000000000000000000000000000000081526004018080602001828103825283818151815260200191508051906020019080838360005b8381101561140f5780820151818401526020810190506113f4565b50505050905090810190601f16801561143c5780820380516001836020036101000a031916815260200191505b509250505060405180910390fd5b5060008385039050809150509392505050565b60008083118290611509576040517f08c379a00000000000000000000000000000000000000000000000000000000081526004018080602001828103825283818151815260200191508051906020019080838360005b838110156114ce5780820151818401526020810190506114b3565b50505050905090810190601f1680156114fb5780820380516001836020036101000a031916815260200191505b509250505060405180910390fd5b50600083858161151557fe5b04905080915050939250505056fe43616c63756c617465642070726f706f736564207072696365206d75737420626520686967686572207468616e206c6174657374466c6f6f7250726963652e4572726f722063616c63756c6174696e672070726f706f7365642070726963653a206d75737420626520686967686572207468616e206c61746573744365696c696e6750726963652e536166654d6174683a206d756c7469706c69636174696f6e206f766572666c6f774572726f722063616c63756c6174696e6720666c6f6f725072696365437261776c696e67526174653a2063616e742062652067726561746572207468616e20437261776c696e67526174652ea165627a7a7230582026f3cc5f49f6a1479ebe3e7887212a1b989b8bc074830ead7a8158fb06765d560029",
  "source": "pragma solidity >=0.4.21 <0.6.0;\r\n\r\nimport \"@openzeppelin/contracts/math/SafeMath.sol\";\r\nimport \"./UCToken.sol\";\r\nimport \"./UCChangeable.sol\";\r\nimport \"./UCMarketplace.sol\";\r\n\r\n/**\r\n * @title UCCrawlingBand\r\n * @dev Business logic for the UC price crawling band target in US Dollars.\r\n */\r\ncontract UCCrawlingBand is UCChangeable {\r\n    using SafeMath for uint256;\r\n\r\n    /// Public Properties\r\n    uint256 public latestCeilingPrice; // last used CeilingPrice in US Dollar / 100000 (6 decimals)\r\n    uint256 public latestFloorPrice; // last used FloorPrice in US Dollar / 100000 (6 decimals)\r\n    uint256 public latestCeilingTime; // time of latest change in ceiling price\r\n    uint256 public latestFloorTime; // time of latest change in floor price\r\n    uint256 public band; // in % (10 means 10%)\r\n    uint256 public crawlingRate; // price increase per hour (11 = 0,000011 = 0,1/(365*24))\r\n    uint256 public detachRate; // number between 1 and 100: % of crawling Rate (100 means equal crawling rate)\r\n\r\n    /// Contract Navigation Properties\r\n    UCToken ucToken;\r\n    UCMarketplace ucMarketplace;\r\n\r\n\r\n    constructor(uint256 _band, uint256 _crawlingRate, address pathAddress) UCChangeable(pathAddress, \"UCCrawlingBand\") public {\r\n        band = _band;\r\n        crawlingRate = _crawlingRate;\r\n        ucToken = UCToken(ucPath.getPath(\"UCToken\"));\r\n        detachRate = 100;\r\n    }\r\n\r\n    /// Public Methods\r\n    function init() public {\r\n        require(address(ucMarketplace) == address(0), \"Already initialized\");\r\n        ucMarketplace = UCMarketplace(ucPath.getPath(\"UCMarketplace\"));\r\n    }\r\n    function getEstimatedCeilingPrice() public view returns (uint256) {\r\n        if(latestCeilingTime == 0) {\r\n            return 1000000;\r\n        }\r\n        uint256 elapsedHours = (now.sub(latestCeilingTime)).div(3600);\r\n        uint256 proposedPrice = latestCeilingPrice.add(crawlingRate.mul(elapsedHours));\r\n        require(proposedPrice > latestCeilingPrice, \"Error calculating proposed price: must be higher than latestCeilingPrice.\");\r\n        uint256 estimatedFloorPrice = getEstimatedFloorPrice();\r\n        // check if there can be an increase on floorPrice, otherwise do not increase CeilingPrice\r\n        if(latestFloorPrice >= estimatedFloorPrice) {\r\n            return latestCeilingPrice;\r\n        }\r\n        // Check if proposed price is within price band\r\n        uint256 priceBandLimit = (estimatedFloorPrice.mul(band)).div(100);\r\n        if(proposedPrice >= priceBandLimit)\r\n        {\r\n            proposedPrice = priceBandLimit;\r\n        }\r\n        // Check of proposed price is higher than latestPrice (requirement?)\r\n        if(proposedPrice < latestCeilingPrice) {\r\n            return latestCeilingPrice;\r\n        }\r\n        return proposedPrice;\r\n    }\r\n    function getEstimatedFloorPrice() public view returns (uint256) {\r\n        if(latestFloorTime == 0) {\r\n            return 900000;\r\n        }\r\n\r\n        // adjust crawling rate to include increase in spread (when ceiling price grows faster than floor price, detaching from reserves)\r\n        uint256 floorPriceCrawlingRate = (crawlingRate.mul(detachRate)).div(100);\r\n        require(floorPriceCrawlingRate <= crawlingRate, \"Error calculating floorPriceCrawlingRate: cant be greater than CrawlingRate.\");\r\n\r\n        uint256 elapsedHours = (now.sub(latestFloorTime)).div(3600);\r\n        uint256 proposedPrice = latestFloorPrice.add(floorPriceCrawlingRate.mul(elapsedHours));\r\n        require(proposedPrice > latestFloorPrice, \"Calculated proposed price must be higher than latestFloorPrice.\");\r\n\r\n        // check if there can be an increase on floorPrice based on reserves\r\n        uint256 totalReserves = ucMarketplace.getReservesBalance();\r\n        uint256 totalSupply = ucToken.totalSupply();\r\n        if(totalReserves < proposedPrice.mul(totalSupply)) {\r\n            proposedPrice = totalReserves.div(totalSupply);\r\n        }\r\n        // Check if proposed price is within price band ???\r\n\r\n        return proposedPrice;\r\n    }\r\n\r\n    /// Public Authorization Methods\r\n    /**\r\n     * @dev Returns the current target UC ceiling price in US Dollar.\r\n     * Note that...\r\n     * TODO: implement pause modifier\r\n     * @return UC Ceiling Price in US Dollar\r\n     */\r\n    function getCurrentCeilingPrice() public auth returns (uint256) {\r\n        // latestTime = now;\r\n        // if(latestCeilingPrice == 0) {\r\n        //     latestCeilingPrice = 1000000;\r\n        //     return latestCeilingPrice;\r\n        // }\r\n        // uint256 elapsedHours = (now.sub(latestTime)).div(3600);\r\n        // uint256 proposedPrice = latestCeilingPrice.add(crawlingRate.mul(elapsedHours));\r\n        // require(proposedPrice > latestCeilingPrice, \"Calculated proposed price must be higher than latestCeilingPrice.\");\r\n        // uint256 estimatedFloorPrice = getEstimatedFloorPrice();\r\n        // // check if there can be an increase on floorPrice, otherwise do not increase CeilingPrice\r\n        // if(latestFloorPrice >= estimatedFloorPrice) {\r\n        //     return latestCeilingPrice;\r\n        // }\r\n        // // Check if proposed price is within price band\r\n        // uint256 priceBandLimit = (estimatedFloorPrice.mul(band)).div(100);\r\n        // if(proposedPrice >= priceBandLimit)\r\n        // {\r\n        //     proposedPrice = priceBandLimit;\r\n        // }\r\n\r\n        // latestCeilingPrice = proposedPrice;\r\n        // return latestCeilingPrice;\r\n\r\n        uint256 calculatedCeilingPrice = getEstimatedCeilingPrice();\r\n        latestCeilingTime = now; // maybe check if now > latestTime?\r\n        if(calculatedCeilingPrice != latestCeilingPrice) {\r\n            latestCeilingPrice = calculatedCeilingPrice;\r\n        }\r\n        return latestCeilingPrice;\r\n    }\r\n    /**\r\n     * @dev Returns the current target UC floor price in US Dollar / 10000000.\r\n     * Note that...\r\n     * TODO: implement pause modifier\r\n     * @return UC Floor Price in US Dollar in US Dollar / 10000000\r\n     */\r\n    function getCurrentFloorPrice() public auth returns (uint256) {\r\n        uint256 calculatedFloorPrice = getEstimatedFloorPrice();\r\n        latestFloorTime = now;\r\n        if(calculatedFloorPrice != latestFloorPrice) {\r\n            latestFloorPrice = calculatedFloorPrice;\r\n        }\r\n        return latestFloorPrice;\r\n    }\r\n\r\n    /// Events\r\n\r\n    event BandChanged(uint256 previousBand, uint256 newBand);\r\n    event CrawlingRateChanged(uint256 previousRate, uint256 newRate);\r\n    event DetachRateChanged(uint256 previousRate, uint256 newRate);\r\n\r\n}",
  "sourcePath": "E:\\JCL\\Webmaster\\GitHub\\UCToken\\UCToken\\contracts\\UCCrawlingBand.sol",
  "compiler": {
    "name": "solc",
    "version": "0.5.7+commit.6da8b019.Emscripten.clang"
  },
  "schemaVersion": "3.0.23",
  "updatedAt": "2020-04-11T17:13:34.365Z",
  "networkType": "ethereum",
  "devdoc": {
    "details": "Business logic for the UC price crawling band target in US Dollars.\r",
    "methods": {
      "getCurrentCeilingPrice()": {
        "details": "Returns the current target UC ceiling price in US Dollar.\r Note that...\r TODO: implement pause modifier\r",
        "return": "UC Ceiling Price in US Dollar\r"
      },
      "getCurrentFloorPrice()": {
        "details": "Returns the current target UC floor price in US Dollar / 10000000.\r Note that...\r TODO: implement pause modifier\r",
        "return": "UC Floor Price in US Dollar in US Dollar / 10000000\r"
      }
    },
    "title": "UCCrawlingBand\r"
  },
  "userdoc": {
    "methods": {
      "init()": {
        "notice": "Public Methods"
      },
      "setOwner(address)": {
        "notice": "Public Methods"
      },
      "updatePath(string,address)": {
        "notice": "Public Auth Mehods"
      }
    }
  }
}