{
  "contractName": "UCCrawlingBand",
  "abi": [
    {
      "constant": true,
      "inputs": [],
      "name": "band",
      "outputs": [
        {
          "name": "",
          "type": "uint256"
        }
      ],
      "payable": false,
      "stateMutability": "view",
      "type": "function"
    },
    {
      "constant": true,
      "inputs": [],
      "name": "crawlingRate",
      "outputs": [
        {
          "name": "",
          "type": "uint256"
        }
      ],
      "payable": false,
      "stateMutability": "view",
      "type": "function"
    },
    {
      "constant": false,
      "inputs": [
        {
          "name": "_owner",
          "type": "address"
        }
      ],
      "name": "setOwner",
      "outputs": [],
      "payable": false,
      "stateMutability": "nonpayable",
      "type": "function"
    },
    {
      "constant": true,
      "inputs": [],
      "name": "latestFloorPrice",
      "outputs": [
        {
          "name": "",
          "type": "uint256"
        }
      ],
      "payable": false,
      "stateMutability": "view",
      "type": "function"
    },
    {
      "constant": false,
      "inputs": [
        {
          "name": "_path",
          "type": "address"
        }
      ],
      "name": "setPath",
      "outputs": [],
      "payable": false,
      "stateMutability": "nonpayable",
      "type": "function"
    },
    {
      "constant": true,
      "inputs": [],
      "name": "detachRate",
      "outputs": [
        {
          "name": "",
          "type": "uint256"
        }
      ],
      "payable": false,
      "stateMutability": "view",
      "type": "function"
    },
    {
      "constant": false,
      "inputs": [
        {
          "name": "pathName",
          "type": "string"
        },
        {
          "name": "pathAddress",
          "type": "address"
        }
      ],
      "name": "updatePath",
      "outputs": [],
      "payable": false,
      "stateMutability": "nonpayable",
      "type": "function"
    },
    {
      "constant": true,
      "inputs": [],
      "name": "latestTime",
      "outputs": [
        {
          "name": "",
          "type": "uint256"
        }
      ],
      "payable": false,
      "stateMutability": "view",
      "type": "function"
    },
    {
      "constant": true,
      "inputs": [],
      "name": "owner",
      "outputs": [
        {
          "name": "",
          "type": "address"
        }
      ],
      "payable": false,
      "stateMutability": "view",
      "type": "function"
    },
    {
      "constant": true,
      "inputs": [],
      "name": "latestCeilingPrice",
      "outputs": [
        {
          "name": "",
          "type": "uint256"
        }
      ],
      "payable": false,
      "stateMutability": "view",
      "type": "function"
    },
    {
      "constant": true,
      "inputs": [],
      "name": "ucPath",
      "outputs": [
        {
          "name": "",
          "type": "address"
        }
      ],
      "payable": false,
      "stateMutability": "view",
      "type": "function"
    },
    {
      "inputs": [
        {
          "name": "_band",
          "type": "uint256"
        },
        {
          "name": "_crawlingRate",
          "type": "uint256"
        },
        {
          "name": "pathAddress",
          "type": "address"
        }
      ],
      "payable": false,
      "stateMutability": "nonpayable",
      "type": "constructor"
    },
    {
      "anonymous": false,
      "inputs": [
        {
          "indexed": false,
          "name": "previousBand",
          "type": "uint256"
        },
        {
          "indexed": false,
          "name": "newBand",
          "type": "uint256"
        }
      ],
      "name": "BandChanged",
      "type": "event"
    },
    {
      "anonymous": false,
      "inputs": [
        {
          "indexed": false,
          "name": "previousRate",
          "type": "uint256"
        },
        {
          "indexed": false,
          "name": "newRate",
          "type": "uint256"
        }
      ],
      "name": "CrawlingRateChanged",
      "type": "event"
    },
    {
      "anonymous": false,
      "inputs": [
        {
          "indexed": false,
          "name": "previousRate",
          "type": "uint256"
        },
        {
          "indexed": false,
          "name": "newRate",
          "type": "uint256"
        }
      ],
      "name": "DetachRateChanged",
      "type": "event"
    },
    {
      "anonymous": false,
      "inputs": [
        {
          "indexed": false,
          "name": "owner",
          "type": "address"
        }
      ],
      "name": "NewOwner",
      "type": "event"
    },
    {
      "anonymous": false,
      "inputs": [
        {
          "indexed": false,
          "name": "pathAddress",
          "type": "address"
        }
      ],
      "name": "NewPath",
      "type": "event"
    },
    {
      "anonymous": false,
      "inputs": [
        {
          "indexed": false,
          "name": "pathName",
          "type": "string"
        },
        {
          "indexed": false,
          "name": "pathAddress",
          "type": "address"
        }
      ],
      "name": "PathUpdated",
      "type": "event"
    },
    {
      "constant": false,
      "inputs": [],
      "name": "init",
      "outputs": [],
      "payable": false,
      "stateMutability": "nonpayable",
      "type": "function"
    },
    {
      "constant": false,
      "inputs": [],
      "name": "getEstimatedCeilingPrice",
      "outputs": [
        {
          "name": "",
          "type": "uint256"
        }
      ],
      "payable": false,
      "stateMutability": "nonpayable",
      "type": "function"
    },
    {
      "constant": false,
      "inputs": [],
      "name": "getEstimatedFloorPrice",
      "outputs": [
        {
          "name": "",
          "type": "uint256"
        }
      ],
      "payable": false,
      "stateMutability": "nonpayable",
      "type": "function"
    },
    {
      "constant": false,
      "inputs": [],
      "name": "getCurrentCeilingPrice",
      "outputs": [
        {
          "name": "",
          "type": "uint256"
        }
      ],
      "payable": false,
      "stateMutability": "nonpayable",
      "type": "function"
    },
    {
      "constant": false,
      "inputs": [],
      "name": "getCurrentFloorPrice",
      "outputs": [
        {
          "name": "",
          "type": "uint256"
        }
      ],
      "payable": false,
      "stateMutability": "nonpayable",
      "type": "function"
    }
  ],
  "bytecode": "0x60806040523480156200001157600080fd5b5060405160608062001cd1833981018060405260608110156200003357600080fd5b81019080805190602001909291908051906020019092919080519060200190929190505050806040805190810160405280600e81526020017f5543437261776c696e6742616e64000000000000000000000000000000000000815250336000806101000a81548173ffffffffffffffffffffffffffffffffffffffff021916908373ffffffffffffffffffffffffffffffffffffffff1602179055507f3edd90e7770f06fafde38004653b33870066c33bfc923ff6102acd601f85dfbc33604051808273ffffffffffffffffffffffffffffffffffffffff1673ffffffffffffffffffffffffffffffffffffffff16815260200191505060405180910390a160405180807f55435061746800000000000000000000000000000000000000000000000000008152506006019050604051809103902081805190602001201415620001be5730600160006101000a81548173ffffffffffffffffffffffffffffffffffffffff021916908373ffffffffffffffffffffffffffffffffffffffff16021790555062000200565b81600160006101000a81548173ffffffffffffffffffffffffffffffffffffffff021916908373ffffffffffffffffffffffffffffffffffffffff1602179055505b600073ffffffffffffffffffffffffffffffffffffffff16600160009054906101000a900473ffffffffffffffffffffffffffffffffffffffff1673ffffffffffffffffffffffffffffffffffffffff1663af61c6a6836040518263ffffffff167c01000000000000000000000000000000000000000000000000000000000281526004018080602001828103825283818151815260200191508051906020019080838360005b83811015620002c4578082015181840152602081019050620002a7565b50505050905090810190601f168015620002f25780820380516001836020036101000a031916815260200191505b509250505060206040518083038186803b1580156200031057600080fd5b505afa15801562000325573d6000803e3d6000fd5b505050506040513d60208110156200033c57600080fd5b810190808051906020019092919050505073ffffffffffffffffffffffffffffffffffffffff161415620004b257600160009054906101000a900473ffffffffffffffffffffffffffffffffffffffff1673ffffffffffffffffffffffffffffffffffffffff1663f309959430836040518363ffffffff167c0100000000000000000000000000000000000000000000000000000000028152600401808373ffffffffffffffffffffffffffffffffffffffff1673ffffffffffffffffffffffffffffffffffffffff16815260200180602001828103825283818151815260200191508051906020019080838360005b83811015620004495780820151818401526020810190506200042c565b50505050905090810190601f168015620004775780820380516001836020036101000a031916815260200191505b509350505050600060405180830381600087803b1580156200049857600080fd5b505af1158015620004ad573d6000803e3d6000fd5b505050505b50508260058190555081600681905550600160009054906101000a900473ffffffffffffffffffffffffffffffffffffffff1673ffffffffffffffffffffffffffffffffffffffff1663af61c6a66040518163ffffffff167c01000000000000000000000000000000000000000000000000000000000281526004018080602001828103825260078152602001807f5543546f6b656e0000000000000000000000000000000000000000000000000081525060200191505060206040518083038186803b1580156200058357600080fd5b505afa15801562000598573d6000803e3d6000fd5b505050506040513d6020811015620005af57600080fd5b8101908080519060200190929190505050600860006101000a81548173ffffffffffffffffffffffffffffffffffffffff021916908373ffffffffffffffffffffffffffffffffffffffff16021790555060646007819055505050506116b6806200061b6000396000f3fe6080604052600436106100e0576000357c01000000000000000000000000000000000000000000000000000000009004806310ea891a146100e55780631357ed9f1461011057806313af40351461013b5780631e4330d61461018c5780632271e82a146101b75780633b955177146101e25780633e22435814610233578063599b4fbc1461025e57806366d21c1c146103465780636a05b6fb14610371578063703f030c1461039c5780637dfd16d7146103c75780638da5cb5b146103f2578063d23deb1814610449578063deae3b1e14610474578063e1c7392a146104cb575b600080fd5b3480156100f157600080fd5b506100fa6104e2565b6040518082815260200191505060405180910390f35b34801561011c57600080fd5b506101256104e8565b6040518082815260200191505060405180910390f35b34801561014757600080fd5b5061018a6004803603602081101561015e57600080fd5b81019080803573ffffffffffffffffffffffffffffffffffffffff1690602001909291905050506104ee565b005b34801561019857600080fd5b506101a1610611565b6040518082815260200191505060405180910390f35b3480156101c357600080fd5b506101cc610617565b6040518082815260200191505060405180910390f35b3480156101ee57600080fd5b506102316004803603602081101561020557600080fd5b81019080803573ffffffffffffffffffffffffffffffffffffffff16906020019092919050505061064a565b005b34801561023f57600080fd5b5061024861076e565b6040518082815260200191505060405180910390f35b34801561026a57600080fd5b506103446004803603604081101561028157600080fd5b810190808035906020019064010000000081111561029e57600080fd5b8201836020820111156102b057600080fd5b803590602001918460018302840111640100000000831117156102d257600080fd5b91908080601f016020809104026020016040519081016040528093929190818152602001838380828437600081840152601f19601f820116905080830192505050505050509192919290803573ffffffffffffffffffffffffffffffffffffffff169060200190929190505050610774565b005b34801561035257600080fd5b5061035b6108c5565b6040518082815260200191505060405180910390f35b34801561037d57600080fd5b50610386610a6b565b6040518082815260200191505060405180910390f35b3480156103a857600080fd5b506103b1610a93565b6040518082815260200191505060405180910390f35b3480156103d357600080fd5b506103dc610e5f565b6040518082815260200191505060405180910390f35b3480156103fe57600080fd5b50610407610e65565b604051808273ffffffffffffffffffffffffffffffffffffffff1673ffffffffffffffffffffffffffffffffffffffff16815260200191505060405180910390f35b34801561045557600080fd5b5061045e610e8a565b6040518082815260200191505060405180910390f35b34801561048057600080fd5b50610489610e90565b604051808273ffffffffffffffffffffffffffffffffffffffff1673ffffffffffffffffffffffffffffffffffffffff16815260200191505060405180910390f35b3480156104d757600080fd5b506104e0610eb6565b005b60055481565b60065481565b6104f7336110b9565b151561056b576040517f08c379a000000000000000000000000000000000000000000000000000000000815260040180806020018281038252600e8152602001807f4e6f7420417574686f72697a656400000000000000000000000000000000000081525060200191505060405180910390fd5b806000806101000a81548173ffffffffffffffffffffffffffffffffffffffff021916908373ffffffffffffffffffffffffffffffffffffffff1602179055507f3edd90e7770f06fafde38004653b33870066c33bfc923ff6102acd601f85dfbc81604051808273ffffffffffffffffffffffffffffffffffffffff1673ffffffffffffffffffffffffffffffffffffffff16815260200191505060405180910390a150565b60035481565b600080610622610a93565b905060035481141561063957600354915050610647565b806003819055506003549150505b90565b610653336110b9565b15156106c7576040517f08c379a000000000000000000000000000000000000000000000000000000000815260040180806020018281038252600e8152602001807f4e6f7420417574686f72697a656400000000000000000000000000000000000081525060200191505060405180910390fd5b80600160006101000a81548173ffffffffffffffffffffffffffffffffffffffff021916908373ffffffffffffffffffffffffffffffffffffffff1602179055507f06996b58b8ff542ff91d7a929369bb5d93940639f7849f15d0f95923d1d1705181604051808273ffffffffffffffffffffffffffffffffffffffff1673ffffffffffffffffffffffffffffffffffffffff16815260200191505060405180910390a150565b60075481565b61077d336110b9565b15156107f1576040517f08c379a000000000000000000000000000000000000000000000000000000000815260040180806020018281038252600e8152602001807f4e6f7420417574686f72697a656400000000000000000000000000000000000081525060200191505060405180910390fd5b7f0bf1be166f5b263d06191a42d6ab01a3333b6da101cf1cc7bba6f07a70dd2ff5828260405180806020018373ffffffffffffffffffffffffffffffffffffffff1673ffffffffffffffffffffffffffffffffffffffff168152602001828103825284818151815260200191508051906020019080838360005b8381101561088657808201518184015260208101905061086b565b50505050905090810190601f1680156108b35780820380516001836020036101000a031916815260200191505b50935050505060405180910390a15050565b600042600481905550600060025414156108e457620f42409050610a68565b600061090f610e10610901600454426112c790919063ffffffff16565b61131190919063ffffffff16565b9050600061093c61092b8360065461135b90919063ffffffff16565b60025461142890919063ffffffff16565b905060025481111515610a03576040517f08c379a00000000000000000000000000000000000000000000000000000000081526004018080602001828103825260498152602001807f4572726f722063616c63756c6174696e672070726f706f73656420707269636581526020017f3a206d75737420626520686967686572207468616e206c61746573744365696c81526020017f696e6750726963652e000000000000000000000000000000000000000000000081525060600191505060405180910390fd5b6000610a0d610a93565b905080600354101515610a27576002549350505050610a68565b6000610a516064610a436005548561135b90919063ffffffff16565b61131190919063ffffffff16565b90508083101515610a60578092505b829450505050505b90565b600080610a766108c5565b9050600254811115610a8a57806002819055505b60025491505090565b60004260048190555060006003541415610ab257620dbba09050610e5c565b6000610ade6064610ad060075460065461135b90919063ffffffff16565b61131190919063ffffffff16565b90506006548111151515610ba6576040517f08c379a000000000000000000000000000000000000000000000000000000000815260040180806020018281038252604c8152602001807f4572726f722063616c63756c6174696e6720666c6f6f7250726963654372617781526020017f6c696e67526174653a2063616e742062652067726561746572207468616e204381526020017f7261776c696e67526174652e000000000000000000000000000000000000000081525060600191505060405180910390fd5b6000610bd1610e10610bc3600454426112c790919063ffffffff16565b61131190919063ffffffff16565b90506000610bfc610beb838561135b90919063ffffffff16565b60035461142890919063ffffffff16565b905060035481111515610c9d576040517f08c379a000000000000000000000000000000000000000000000000000000000815260040180806020018281038252603f8152602001807f43616c63756c617465642070726f706f736564207072696365206d757374206281526020017f6520686967686572207468616e206c6174657374466c6f6f7250726963652e0081525060400191505060405180910390fd5b6000600960009054906101000a900473ffffffffffffffffffffffffffffffffffffffff1673ffffffffffffffffffffffffffffffffffffffff16636e19b8056040518163ffffffff167c010000000000000000000000000000000000000000000000000000000002815260040160206040518083038186803b158015610d2357600080fd5b505afa158015610d37573d6000803e3d6000fd5b505050506040513d6020811015610d4d57600080fd5b810190808051906020019092919050505090506000600860009054906101000a900473ffffffffffffffffffffffffffffffffffffffff1673ffffffffffffffffffffffffffffffffffffffff166318160ddd6040518163ffffffff167c010000000000000000000000000000000000000000000000000000000002815260040160206040518083038186803b158015610de657600080fd5b505afa158015610dfa573d6000803e3d6000fd5b505050506040513d6020811015610e1057600080fd5b81019080805190602001909291905050509050610e36818461135b90919063ffffffff16565b821015610e5357610e50818361131190919063ffffffff16565b92505b82955050505050505b90565b60045481565b6000809054906101000a900473ffffffffffffffffffffffffffffffffffffffff1681565b60025481565b600160009054906101000a900473ffffffffffffffffffffffffffffffffffffffff1681565b600073ffffffffffffffffffffffffffffffffffffffff16600960009054906101000a900473ffffffffffffffffffffffffffffffffffffffff1673ffffffffffffffffffffffffffffffffffffffff16141515610f7c576040517f08c379a00000000000000000000000000000000000000000000000000000000081526004018080602001828103825260138152602001807f416c726561647920696e697469616c697a65640000000000000000000000000081525060200191505060405180910390fd5b600160009054906101000a900473ffffffffffffffffffffffffffffffffffffffff1673ffffffffffffffffffffffffffffffffffffffff1663af61c6a66040518163ffffffff167c010000000000000000000000000000000000000000000000000000000002815260040180806020018281038252600d8152602001807f55434d61726b6574706c6163650000000000000000000000000000000000000081525060200191505060206040518083038186803b15801561103c57600080fd5b505afa158015611050573d6000803e3d6000fd5b505050506040513d602081101561106657600080fd5b8101908080519060200190929190505050600960006101000a81548173ffffffffffffffffffffffffffffffffffffffff021916908373ffffffffffffffffffffffffffffffffffffffff160217905550565b60003073ffffffffffffffffffffffffffffffffffffffff168273ffffffffffffffffffffffffffffffffffffffff1614156110f857600190506112c2565b6000809054906101000a900473ffffffffffffffffffffffffffffffffffffffff1673ffffffffffffffffffffffffffffffffffffffff168273ffffffffffffffffffffffffffffffffffffffff16141561115657600190506112c2565b61115f826114b2565b156112c157600073ffffffffffffffffffffffffffffffffffffffff16600160009054906101000a900473ffffffffffffffffffffffffffffffffffffffff1673ffffffffffffffffffffffffffffffffffffffff1614156111c457600090506112c2565b600160009054906101000a900473ffffffffffffffffffffffffffffffffffffffff1673ffffffffffffffffffffffffffffffffffffffff16638b1b925f836040518263ffffffff167c0100000000000000000000000000000000000000000000000000000000028152600401808273ffffffffffffffffffffffffffffffffffffffff1673ffffffffffffffffffffffffffffffffffffffff16815260200191505060206040518083038186803b15801561127f57600080fd5b505afa158015611293573d6000803e3d6000fd5b505050506040513d60208110156112a957600080fd5b810190808051906020019092919050505090506112c2565b5b919050565b600061130983836040805190810160405280601e81526020017f536166654d6174683a207375627472616374696f6e206f766572666c6f7700008152506114fe565b905092915050565b600061135383836040805190810160405280601a81526020017f536166654d6174683a206469766973696f6e206279207a65726f0000000000008152506115c0565b905092915050565b60008083141561136e5760009050611422565b6000828402905082848281151561138157fe5b0414151561141d576040517f08c379a00000000000000000000000000000000000000000000000000000000081526004018080602001828103825260218152602001807f536166654d6174683a206d756c7469706c69636174696f6e206f766572666c6f81526020017f770000000000000000000000000000000000000000000000000000000000000081525060400191505060405180910390fd5b809150505b92915050565b60008082840190508381101515156114a8576040517f08c379a000000000000000000000000000000000000000000000000000000000815260040180806020018281038252601b8152602001807f536166654d6174683a206164646974696f6e206f766572666c6f77000000000081525060200191505060405180910390fd5b8091505092915050565b6000807fc5d2460186f7233c927e7db2dcc703c0e500b653ca82273b7bfad8045d85a47060010290506000833f9050600060010281141580156114f55750818114155b92505050919050565b600083831115829015156115ad576040517f08c379a00000000000000000000000000000000000000000000000000000000081526004018080602001828103825283818151815260200191508051906020019080838360005b83811015611572578082015181840152602081019050611557565b50505050905090810190601f16801561159f5780820380516001836020036101000a031916815260200191505b509250505060405180910390fd5b5060008385039050809150509392505050565b60008083118290151561166e576040517f08c379a00000000000000000000000000000000000000000000000000000000081526004018080602001828103825283818151815260200191508051906020019080838360005b83811015611633578082015181840152602081019050611618565b50505050905090810190601f1680156116605780820380516001836020036101000a031916815260200191505b509250505060405180910390fd5b506000838581151561167c57fe5b04905080915050939250505056fea165627a7a72305820907ce1d4549140443f6d84af815462e5c7b13cedf7be79dedc1f795aab783d340029",
  "source": "pragma solidity >=0.4.21 <0.6.0;\r\n\r\nimport \"@openzeppelin/contracts/math/SafeMath.sol\";\r\nimport \"./UCToken.sol\";\r\nimport \"./UCChangeable.sol\";\r\nimport \"./UCMarketplace.sol\";\r\n\r\n/**\r\n * @title UCCrawlingBand\r\n * @dev Business logic for the UC price crawling band target in US Dollars.\r\n */\r\ncontract UCCrawlingBand is UCChangeable {\r\n    using SafeMath for uint256;\r\n\r\n    /// Public Properties\r\n    uint256 public latestCeilingPrice; // last used CeilingPrice in US Dollar / 100000 (6 decimals)\r\n    uint256 public latestFloorPrice; // last used FloorPrice in US Dollar / 100000 (6 decimals)\r\n    uint256 public latestTime; // time of latest call\r\n    uint256 public band; // in % (10 means 10%)\r\n    uint256 public crawlingRate; // price increase per hour (11 = 0,000011 = 0,1/(365*24))\r\n    uint256 public detachRate; // number between 1 and 100: % of crawling Rate (100 means equal crawling rate)\r\n\r\n    /// Contract Navigation Properties\r\n    UCToken ucToken;\r\n    UCMarketplace ucMarketplace;\r\n\r\n\r\n    constructor(uint256 _band, uint256 _crawlingRate, address pathAddress) UCChangeable(pathAddress, \"UCCrawlingBand\") public {\r\n        band = _band;\r\n        crawlingRate = _crawlingRate;\r\n        ucToken = UCToken(ucPath.getPath(\"UCToken\"));\r\n        detachRate = 100;\r\n    }\r\n\r\n    /// Public Methods\r\n    function init() public {\r\n        require(address(ucMarketplace) == address(0), \"Already initialized\");\r\n        ucMarketplace = UCMarketplace(ucPath.getPath(\"UCMarketplace\"));\r\n    }\r\n    function getEstimatedCeilingPrice() public returns (uint256) {\r\n        latestTime = now;\r\n        if(latestCeilingPrice == 0) {\r\n            return 1000000;\r\n        }\r\n        uint256 elapsedHours = (now.sub(latestTime)).div(3600);\r\n        uint256 proposedPrice = latestCeilingPrice.add(crawlingRate.mul(elapsedHours));\r\n        require(proposedPrice > latestCeilingPrice, \"Error calculating proposed price: must be higher than latestCeilingPrice.\");\r\n        uint256 estimatedFloorPrice = getEstimatedFloorPrice();\r\n        // check if there can be an increase on floorPrice, otherwise do not increase CeilingPrice\r\n        if(latestFloorPrice >= estimatedFloorPrice) {\r\n            return latestCeilingPrice;\r\n        }\r\n        // Check if proposed price is within price band\r\n        uint256 priceBandLimit = (estimatedFloorPrice.mul(band)).div(100);\r\n        if(proposedPrice >= priceBandLimit)\r\n        {\r\n            proposedPrice = priceBandLimit;\r\n        }\r\n        return proposedPrice;\r\n    }\r\n    function getEstimatedFloorPrice() public returns (uint256) {\r\n        latestTime = now;\r\n        if(latestFloorPrice == 0) {\r\n            return 900000;\r\n        }\r\n\r\n        // adjust crawling rate to include increase in spread (when ceiling price grows faster than floor price, detaching from reserves)\r\n        uint256 floorPriceCrawlingRate = (crawlingRate.mul(detachRate)).div(100);\r\n        require(floorPriceCrawlingRate <= crawlingRate, \"Error calculating floorPriceCrawlingRate: cant be greater than CrawlingRate.\");\r\n\r\n        uint256 elapsedHours = (now.sub(latestTime)).div(3600);\r\n        uint256 proposedPrice = latestFloorPrice.add(floorPriceCrawlingRate.mul(elapsedHours));\r\n        require(proposedPrice > latestFloorPrice, \"Calculated proposed price must be higher than latestFloorPrice.\");\r\n\r\n        // check if there can be an increase on floorPrice based on reserves\r\n        uint256 totalReserves = ucMarketplace.getReservesBalance();\r\n        uint256 totalSupply = ucToken.totalSupply();\r\n        if(totalReserves < proposedPrice.mul(totalSupply)) {\r\n            proposedPrice = totalReserves.div(totalSupply);\r\n        }\r\n        // Check if proposed price is within price band ???\r\n\r\n        return proposedPrice;\r\n    }\r\n    /**\r\n     * @dev Returns the current target UC ceiling price in US Dollar.\r\n     * Note that...\r\n     * TODO: implement pause modifier\r\n     * @return UC Ceiling Price in US Dollar\r\n     */\r\n    function getCurrentCeilingPrice() public returns (uint256) {\r\n        // latestTime = now;\r\n        // if(latestCeilingPrice == 0) {\r\n        //     latestCeilingPrice = 1000000;\r\n        //     return latestCeilingPrice;\r\n        // }\r\n        // uint256 elapsedHours = (now.sub(latestTime)).div(3600);\r\n        // uint256 proposedPrice = latestCeilingPrice.add(crawlingRate.mul(elapsedHours));\r\n        // require(proposedPrice > latestCeilingPrice, \"Calculated proposed price must be higher than latestCeilingPrice.\");\r\n        // uint256 estimatedFloorPrice = getEstimatedFloorPrice();\r\n        // // check if there can be an increase on floorPrice, otherwise do not increase CeilingPrice\r\n        // if(latestFloorPrice >= estimatedFloorPrice) {\r\n        //     return latestCeilingPrice;\r\n        // }\r\n        // // Check if proposed price is within price band\r\n        // uint256 priceBandLimit = (estimatedFloorPrice.mul(band)).div(100);\r\n        // if(proposedPrice >= priceBandLimit)\r\n        // {\r\n        //     proposedPrice = priceBandLimit;\r\n        // }\r\n\r\n        // latestCeilingPrice = proposedPrice;\r\n        // return latestCeilingPrice;\r\n\r\n        uint256 calculatedCeilingPrice = getEstimatedCeilingPrice();\r\n        if(calculatedCeilingPrice > latestCeilingPrice) {\r\n            latestCeilingPrice = calculatedCeilingPrice;\r\n        }\r\n        return latestCeilingPrice;\r\n    }\r\n    /**\r\n     * @dev Returns the current target UC floor price in US Dollar / 10000000.\r\n     * Note that...\r\n     * TODO: implement pause modifier\r\n     * @return UC Floor Price in US Dollar in US Dollar / 10000000\r\n     */\r\n    function getCurrentFloorPrice() public returns (uint256) {\r\n        uint256 calculatedFloorPrice = getEstimatedFloorPrice();\r\n        if(calculatedFloorPrice == latestFloorPrice) {\r\n            return latestFloorPrice;\r\n        }\r\n        latestFloorPrice = calculatedFloorPrice;\r\n        return latestFloorPrice;\r\n    }\r\n\r\n    /// Events\r\n\r\n    event BandChanged(uint256 previousBand, uint256 newBand);\r\n    event CrawlingRateChanged(uint256 previousRate, uint256 newRate);\r\n    event DetachRateChanged(uint256 previousRate, uint256 newRate);\r\n\r\n}",
  "sourcePath": "E:\\JCL\\Webmaster\\GitHub\\UCToken\\UCToken\\contracts\\UCCrawlingBand.sol",
  "compiler": {
    "name": "solc",
    "version": "0.5.1+commit.c8a2cb62.Emscripten.clang"
  },
  "schemaVersion": "3.0.19",
  "updatedAt": "2020-04-07T16:02:02.980Z",
  "devdoc": {
    "details": "Business logic for the UC price crawling band target in US Dollars.\r",
    "methods": {
      "getCurrentCeilingPrice()": {
        "details": "Returns the current target UC ceiling price in US Dollar.\r Note that...\r TODO: implement pause modifier\r",
        "return": "UC Ceiling Price in US Dollar\r"
      },
      "getCurrentFloorPrice()": {
        "details": "Returns the current target UC floor price in US Dollar / 10000000.\r Note that...\r TODO: implement pause modifier\r",
        "return": "UC Floor Price in US Dollar in US Dollar / 10000000\r"
      }
    },
    "title": "UCCrawlingBand\r"
  },
  "userdoc": {
    "methods": {
      "init()": {
        "notice": "Public Methods"
      },
      "setOwner(address)": {
        "notice": "Public Methods"
      },
      "updatePath(string,address)": {
        "notice": "Public Auth Mehods"
      }
    }
  }
}