{
  "contractName": "UCCrawlingBand",
  "abi": [
    {
      "constant": true,
      "inputs": [],
      "name": "band",
      "outputs": [
        {
          "name": "",
          "type": "uint256"
        }
      ],
      "payable": false,
      "stateMutability": "view",
      "type": "function"
    },
    {
      "constant": true,
      "inputs": [],
      "name": "crawlingRate",
      "outputs": [
        {
          "name": "",
          "type": "uint256"
        }
      ],
      "payable": false,
      "stateMutability": "view",
      "type": "function"
    },
    {
      "constant": false,
      "inputs": [
        {
          "name": "_owner",
          "type": "address"
        }
      ],
      "name": "setOwner",
      "outputs": [],
      "payable": false,
      "stateMutability": "nonpayable",
      "type": "function"
    },
    {
      "constant": true,
      "inputs": [],
      "name": "latestFloorPrice",
      "outputs": [
        {
          "name": "",
          "type": "uint256"
        }
      ],
      "payable": false,
      "stateMutability": "view",
      "type": "function"
    },
    {
      "constant": false,
      "inputs": [
        {
          "name": "_path",
          "type": "address"
        }
      ],
      "name": "setPath",
      "outputs": [],
      "payable": false,
      "stateMutability": "nonpayable",
      "type": "function"
    },
    {
      "constant": true,
      "inputs": [],
      "name": "detachRate",
      "outputs": [
        {
          "name": "",
          "type": "uint256"
        }
      ],
      "payable": false,
      "stateMutability": "view",
      "type": "function"
    },
    {
      "constant": false,
      "inputs": [
        {
          "name": "pathName",
          "type": "string"
        },
        {
          "name": "pathAddress",
          "type": "address"
        }
      ],
      "name": "updatePath",
      "outputs": [],
      "payable": false,
      "stateMutability": "nonpayable",
      "type": "function"
    },
    {
      "constant": true,
      "inputs": [],
      "name": "latestTime",
      "outputs": [
        {
          "name": "",
          "type": "uint256"
        }
      ],
      "payable": false,
      "stateMutability": "view",
      "type": "function"
    },
    {
      "constant": true,
      "inputs": [],
      "name": "owner",
      "outputs": [
        {
          "name": "",
          "type": "address"
        }
      ],
      "payable": false,
      "stateMutability": "view",
      "type": "function"
    },
    {
      "constant": true,
      "inputs": [],
      "name": "latestCeilingPrice",
      "outputs": [
        {
          "name": "",
          "type": "uint256"
        }
      ],
      "payable": false,
      "stateMutability": "view",
      "type": "function"
    },
    {
      "constant": true,
      "inputs": [],
      "name": "ucPath",
      "outputs": [
        {
          "name": "",
          "type": "address"
        }
      ],
      "payable": false,
      "stateMutability": "view",
      "type": "function"
    },
    {
      "inputs": [
        {
          "name": "_band",
          "type": "uint256"
        },
        {
          "name": "_crawlingRate",
          "type": "uint256"
        },
        {
          "name": "pathAddress",
          "type": "address"
        }
      ],
      "payable": false,
      "stateMutability": "nonpayable",
      "type": "constructor"
    },
    {
      "anonymous": false,
      "inputs": [
        {
          "indexed": false,
          "name": "previousBand",
          "type": "uint256"
        },
        {
          "indexed": false,
          "name": "newBand",
          "type": "uint256"
        }
      ],
      "name": "BandChanged",
      "type": "event"
    },
    {
      "anonymous": false,
      "inputs": [
        {
          "indexed": false,
          "name": "previousRate",
          "type": "uint256"
        },
        {
          "indexed": false,
          "name": "newRate",
          "type": "uint256"
        }
      ],
      "name": "CrawlingRateChanged",
      "type": "event"
    },
    {
      "anonymous": false,
      "inputs": [
        {
          "indexed": false,
          "name": "previousRate",
          "type": "uint256"
        },
        {
          "indexed": false,
          "name": "newRate",
          "type": "uint256"
        }
      ],
      "name": "DetachRateChanged",
      "type": "event"
    },
    {
      "anonymous": false,
      "inputs": [
        {
          "indexed": false,
          "name": "owner",
          "type": "address"
        }
      ],
      "name": "NewOwner",
      "type": "event"
    },
    {
      "anonymous": false,
      "inputs": [
        {
          "indexed": false,
          "name": "pathAddress",
          "type": "address"
        }
      ],
      "name": "NewPath",
      "type": "event"
    },
    {
      "anonymous": false,
      "inputs": [
        {
          "indexed": false,
          "name": "pathName",
          "type": "string"
        },
        {
          "indexed": false,
          "name": "pathAddress",
          "type": "address"
        }
      ],
      "name": "PathUpdated",
      "type": "event"
    },
    {
      "constant": false,
      "inputs": [],
      "name": "init",
      "outputs": [],
      "payable": false,
      "stateMutability": "nonpayable",
      "type": "function"
    },
    {
      "constant": false,
      "inputs": [],
      "name": "getEstimatedCeilingPrice",
      "outputs": [
        {
          "name": "",
          "type": "uint256"
        }
      ],
      "payable": false,
      "stateMutability": "nonpayable",
      "type": "function"
    },
    {
      "constant": false,
      "inputs": [],
      "name": "getEstimatedFloorPrice",
      "outputs": [
        {
          "name": "",
          "type": "uint256"
        }
      ],
      "payable": false,
      "stateMutability": "nonpayable",
      "type": "function"
    },
    {
      "constant": false,
      "inputs": [],
      "name": "getCurrentCeilingPrice",
      "outputs": [
        {
          "name": "",
          "type": "uint256"
        }
      ],
      "payable": false,
      "stateMutability": "nonpayable",
      "type": "function"
    },
    {
      "constant": false,
      "inputs": [],
      "name": "getCurrentFloorPrice",
      "outputs": [
        {
          "name": "",
          "type": "uint256"
        }
      ],
      "payable": false,
      "stateMutability": "nonpayable",
      "type": "function"
    }
  ],
  "bytecode": "0x608060405234801561001057600080fd5b506040516060806118588339810180604052606081101561003057600080fd5b81019080805190602001909291908051906020019092919080519060200190929190505050806040518060400160405280600e81526020017f5543437261776c696e6742616e64000000000000000000000000000000000000815250336000806101000a81548173ffffffffffffffffffffffffffffffffffffffff021916908373ffffffffffffffffffffffffffffffffffffffff1602179055507f3edd90e7770f06fafde38004653b33870066c33bfc923ff6102acd601f85dfbc33604051808273ffffffffffffffffffffffffffffffffffffffff1673ffffffffffffffffffffffffffffffffffffffff16815260200191505060405180910390a160405180807f554350617468000000000000000000000000000000000000000000000000000081525060060190506040518091039020818051906020012014156101b95730600160006101000a81548173ffffffffffffffffffffffffffffffffffffffff021916908373ffffffffffffffffffffffffffffffffffffffff1602179055506101fb565b81600160006101000a81548173ffffffffffffffffffffffffffffffffffffffff021916908373ffffffffffffffffffffffffffffffffffffffff1602179055505b50508260058190555081600681905550600160009054906101000a900473ffffffffffffffffffffffffffffffffffffffff1673ffffffffffffffffffffffffffffffffffffffff1663af61c6a66040518163ffffffff1660e01b81526004018080602001828103825260078152602001807f5543546f6b656e0000000000000000000000000000000000000000000000000081525060200191505060206040518083038186803b1580156102af57600080fd5b505afa1580156102c3573d6000803e3d6000fd5b505050506040513d60208110156102d957600080fd5b8101908080519060200190929190505050600860006101000a81548173ffffffffffffffffffffffffffffffffffffffff021916908373ffffffffffffffffffffffffffffffffffffffff1602179055506064600781905550505050611514806103446000396000f3fe608060405234801561001057600080fd5b50600436106101005760003560e01c806366d21c1c116100975780638da5cb5b116100665780638da5cb5b14610376578063d23deb18146103c0578063deae3b1e146103de578063e1c7392a1461042857610100565b806366d21c1c146102fe5780636a05b6fb1461031c578063703f030c1461033a5780637dfd16d71461035857610100565b80632271e82a116100d35780632271e82a146101a35780633b955177146101c15780633e22435814610205578063599b4fbc1461022357610100565b806310ea891a146101055780631357ed9f1461012357806313af4035146101415780631e4330d614610185575b600080fd5b61010d610432565b6040518082815260200191505060405180910390f35b61012b610438565b6040518082815260200191505060405180910390f35b6101836004803603602081101561015757600080fd5b81019080803573ffffffffffffffffffffffffffffffffffffffff16906020019092919050505061043e565b005b61018d61055f565b6040518082815260200191505060405180910390f35b6101ab610565565b6040518082815260200191505060405180910390f35b610203600480360360208110156101d757600080fd5b81019080803573ffffffffffffffffffffffffffffffffffffffff169060200190929190505050610598565b005b61020d6106ba565b6040518082815260200191505060405180910390f35b6102fc6004803603604081101561023957600080fd5b810190808035906020019064010000000081111561025657600080fd5b82018360208201111561026857600080fd5b8035906020019184600183028401116401000000008311171561028a57600080fd5b91908080601f016020809104026020016040519081016040528093929190818152602001838380828437600081840152601f19601f820116905080830192505050505050509192919290803573ffffffffffffffffffffffffffffffffffffffff1690602001909291905050506106c0565b005b61030661080f565b6040518082815260200191505060405180910390f35b610324610946565b6040518082815260200191505060405180910390f35b61034261096e565b6040518082815260200191505060405180910390f35b610360610c52565b6040518082815260200191505060405180910390f35b61037e610c58565b604051808273ffffffffffffffffffffffffffffffffffffffff1673ffffffffffffffffffffffffffffffffffffffff16815260200191505060405180910390f35b6103c8610c7d565b6040518082815260200191505060405180910390f35b6103e6610c83565b604051808273ffffffffffffffffffffffffffffffffffffffff1673ffffffffffffffffffffffffffffffffffffffff16815260200191505060405180910390f35b610430610ca9565b005b60055481565b60065481565b61044733610e8e565b6104b9576040517f08c379a000000000000000000000000000000000000000000000000000000000815260040180806020018281038252600e8152602001807f4e6f7420617574686f72697a656400000000000000000000000000000000000081525060200191505060405180910390fd5b806000806101000a81548173ffffffffffffffffffffffffffffffffffffffff021916908373ffffffffffffffffffffffffffffffffffffffff1602179055507f3edd90e7770f06fafde38004653b33870066c33bfc923ff6102acd601f85dfbc81604051808273ffffffffffffffffffffffffffffffffffffffff1673ffffffffffffffffffffffffffffffffffffffff16815260200191505060405180910390a150565b60035481565b60008061057061096e565b905060035481141561058757600354915050610595565b806003819055506003549150505b90565b6105a133610e8e565b610613576040517f08c379a000000000000000000000000000000000000000000000000000000000815260040180806020018281038252600e8152602001807f4e6f7420617574686f72697a656400000000000000000000000000000000000081525060200191505060405180910390fd5b80600160006101000a81548173ffffffffffffffffffffffffffffffffffffffff021916908373ffffffffffffffffffffffffffffffffffffffff1602179055507f06996b58b8ff542ff91d7a929369bb5d93940639f7849f15d0f95923d1d1705181604051808273ffffffffffffffffffffffffffffffffffffffff1673ffffffffffffffffffffffffffffffffffffffff16815260200191505060405180910390a150565b60075481565b6106c933610e8e565b61073b576040517f08c379a000000000000000000000000000000000000000000000000000000000815260040180806020018281038252600e8152602001807f4e6f7420617574686f72697a656400000000000000000000000000000000000081525060200191505060405180910390fd5b7f0bf1be166f5b263d06191a42d6ab01a3333b6da101cf1cc7bba6f07a70dd2ff5828260405180806020018373ffffffffffffffffffffffffffffffffffffffff1673ffffffffffffffffffffffffffffffffffffffff168152602001828103825284818151815260200191508051906020019080838360005b838110156107d05780820151818401526020810190506107b5565b50505050905090810190601f1680156107fd5780820380516001836020036101000a031916815260200191505b50935050505060405180910390a15050565b6000426004819055506000600254141561082e57620f42409050610943565b6000610859610e1061084b6004544261108090919063ffffffff16565b6110ca90919063ffffffff16565b905060006108866108758360065461111490919063ffffffff16565b60025461119a90919063ffffffff16565b905060025481116108e2576040517f08c379a00000000000000000000000000000000000000000000000000000000081526004018080602001828103825260498152602001806114336049913960600191505060405180910390fd5b60006108ec61096e565b90508060035410610904576002549350505050610943565b600061092e60646109206005548561111490919063ffffffff16565b6110ca90919063ffffffff16565b905080831061093b578092505b829450505050505b90565b60008061095161080f565b905060025481111561096557806002819055505b60025491505090565b6000426004819055506000600354141561098d57620dbba09050610c4f565b60006109b960646109ab60075460065461111490919063ffffffff16565b6110ca90919063ffffffff16565b9050600654811115610a16576040517f08c379a000000000000000000000000000000000000000000000000000000000815260040180806020018281038252604c81526020018061149d604c913960600191505060405180910390fd5b6000610a41610e10610a336004544261108090919063ffffffff16565b6110ca90919063ffffffff16565b90506000610a6c610a5b838561111490919063ffffffff16565b60035461119a90919063ffffffff16565b90506003548111610ac8576040517f08c379a000000000000000000000000000000000000000000000000000000000815260040180806020018281038252603f8152602001806113f4603f913960400191505060405180910390fd5b6000600960009054906101000a900473ffffffffffffffffffffffffffffffffffffffff1673ffffffffffffffffffffffffffffffffffffffff16636e19b8056040518163ffffffff1660e01b815260040160206040518083038186803b158015610b3257600080fd5b505afa158015610b46573d6000803e3d6000fd5b505050506040513d6020811015610b5c57600080fd5b810190808051906020019092919050505090506000600860009054906101000a900473ffffffffffffffffffffffffffffffffffffffff1673ffffffffffffffffffffffffffffffffffffffff166318160ddd6040518163ffffffff1660e01b815260040160206040518083038186803b158015610bd957600080fd5b505afa158015610bed573d6000803e3d6000fd5b505050506040513d6020811015610c0357600080fd5b81019080805190602001909291905050509050610c29818461111490919063ffffffff16565b821015610c4657610c4381836110ca90919063ffffffff16565b92505b82955050505050505b90565b60045481565b6000809054906101000a900473ffffffffffffffffffffffffffffffffffffffff1681565b60025481565b600160009054906101000a900473ffffffffffffffffffffffffffffffffffffffff1681565b600073ffffffffffffffffffffffffffffffffffffffff16600960009054906101000a900473ffffffffffffffffffffffffffffffffffffffff1673ffffffffffffffffffffffffffffffffffffffff1614610d6d576040517f08c379a00000000000000000000000000000000000000000000000000000000081526004018080602001828103825260138152602001807f416c726561647920696e697469616c697a65640000000000000000000000000081525060200191505060405180910390fd5b600160009054906101000a900473ffffffffffffffffffffffffffffffffffffffff1673ffffffffffffffffffffffffffffffffffffffff1663af61c6a66040518163ffffffff1660e01b815260040180806020018281038252600d8152602001807f55434d61726b6574706c6163650000000000000000000000000000000000000081525060200191505060206040518083038186803b158015610e1157600080fd5b505afa158015610e25573d6000803e3d6000fd5b505050506040513d6020811015610e3b57600080fd5b8101908080519060200190929190505050600960006101000a81548173ffffffffffffffffffffffffffffffffffffffff021916908373ffffffffffffffffffffffffffffffffffffffff160217905550565b60003073ffffffffffffffffffffffffffffffffffffffff168273ffffffffffffffffffffffffffffffffffffffff161415610ecd576001905061107b565b6000809054906101000a900473ffffffffffffffffffffffffffffffffffffffff1673ffffffffffffffffffffffffffffffffffffffff168273ffffffffffffffffffffffffffffffffffffffff161415610f2b576001905061107b565b610f3482611222565b1561107a57600073ffffffffffffffffffffffffffffffffffffffff16600160009054906101000a900473ffffffffffffffffffffffffffffffffffffffff1673ffffffffffffffffffffffffffffffffffffffff161415610f99576000905061107b565b600160009054906101000a900473ffffffffffffffffffffffffffffffffffffffff1673ffffffffffffffffffffffffffffffffffffffff16638b1b925f836040518263ffffffff1660e01b8152600401808273ffffffffffffffffffffffffffffffffffffffff1673ffffffffffffffffffffffffffffffffffffffff16815260200191505060206040518083038186803b15801561103857600080fd5b505afa15801561104c573d6000803e3d6000fd5b505050506040513d602081101561106257600080fd5b8101908080519060200190929190505050905061107b565b5b919050565b60006110c283836040518060400160405280601e81526020017f536166654d6174683a207375627472616374696f6e206f766572666c6f77000081525061126d565b905092915050565b600061110c83836040518060400160405280601a81526020017f536166654d6174683a206469766973696f6e206279207a65726f00000000000081525061132d565b905092915050565b6000808314156111275760009050611194565b600082840290508284828161113857fe5b041461118f576040517f08c379a000000000000000000000000000000000000000000000000000000000815260040180806020018281038252602181526020018061147c6021913960400191505060405180910390fd5b809150505b92915050565b600080828401905083811015611218576040517f08c379a000000000000000000000000000000000000000000000000000000000815260040180806020018281038252601b8152602001807f536166654d6174683a206164646974696f6e206f766572666c6f77000000000081525060200191505060405180910390fd5b8091505092915050565b6000807fc5d2460186f7233c927e7db2dcc703c0e500b653ca82273b7bfad8045d85a47060001b90506000833f90506000801b81141580156112645750818114155b92505050919050565b600083831115829061131a576040517f08c379a00000000000000000000000000000000000000000000000000000000081526004018080602001828103825283818151815260200191508051906020019080838360005b838110156112df5780820151818401526020810190506112c4565b50505050905090810190601f16801561130c5780820380516001836020036101000a031916815260200191505b509250505060405180910390fd5b5060008385039050809150509392505050565b600080831182906113d9576040517f08c379a00000000000000000000000000000000000000000000000000000000081526004018080602001828103825283818151815260200191508051906020019080838360005b8381101561139e578082015181840152602081019050611383565b50505050905090810190601f1680156113cb5780820380516001836020036101000a031916815260200191505b509250505060405180910390fd5b5060008385816113e557fe5b04905080915050939250505056fe43616c63756c617465642070726f706f736564207072696365206d75737420626520686967686572207468616e206c6174657374466c6f6f7250726963652e4572726f722063616c63756c6174696e672070726f706f7365642070726963653a206d75737420626520686967686572207468616e206c61746573744365696c696e6750726963652e536166654d6174683a206d756c7469706c69636174696f6e206f766572666c6f774572726f722063616c63756c6174696e6720666c6f6f725072696365437261776c696e67526174653a2063616e742062652067726561746572207468616e20437261776c696e67526174652ea165627a7a7230582031464f7c0f450ca1b45f96bddd06697335e7f4bfae72d19d2972d949661f09f70029",
  "source": "pragma solidity >=0.4.21 <0.6.0;\r\n\r\nimport \"@openzeppelin/contracts/math/SafeMath.sol\";\r\nimport \"./UCToken.sol\";\r\nimport \"./UCChangeable.sol\";\r\nimport \"./UCMarketplace.sol\";\r\n\r\n/**\r\n * @title UCCrawlingBand\r\n * @dev Business logic for the UC price crawling band target in US Dollars.\r\n */\r\ncontract UCCrawlingBand is UCChangeable {\r\n    using SafeMath for uint256;\r\n\r\n    /// Public Properties\r\n    uint256 public latestCeilingPrice; // last used CeilingPrice in US Dollar / 100000 (6 decimals)\r\n    uint256 public latestFloorPrice; // last used FloorPrice in US Dollar / 100000 (6 decimals)\r\n    uint256 public latestTime; // time of latest call\r\n    uint256 public band; // in % (10 means 10%)\r\n    uint256 public crawlingRate; // price increase per hour (11 = 0,000011 = 0,1/(365*24))\r\n    uint256 public detachRate; // number between 1 and 100: % of crawling Rate (100 means equal crawling rate)\r\n\r\n    /// Contract Navigation Properties\r\n    UCToken ucToken;\r\n    UCMarketplace ucMarketplace;\r\n\r\n\r\n    constructor(uint256 _band, uint256 _crawlingRate, address pathAddress) UCChangeable(pathAddress, \"UCCrawlingBand\") public {\r\n        band = _band;\r\n        crawlingRate = _crawlingRate;\r\n        ucToken = UCToken(ucPath.getPath(\"UCToken\"));\r\n        detachRate = 100;\r\n    }\r\n\r\n    /// Public Methods\r\n    function init() public {\r\n        require(address(ucMarketplace) == address(0), \"Already initialized\");\r\n        ucMarketplace = UCMarketplace(ucPath.getPath(\"UCMarketplace\"));\r\n    }\r\n    function getEstimatedCeilingPrice() public returns (uint256) {\r\n        latestTime = now;\r\n        if(latestCeilingPrice == 0) {\r\n            return 1000000;\r\n        }\r\n        uint256 elapsedHours = (now.sub(latestTime)).div(3600);\r\n        uint256 proposedPrice = latestCeilingPrice.add(crawlingRate.mul(elapsedHours));\r\n        require(proposedPrice > latestCeilingPrice, \"Error calculating proposed price: must be higher than latestCeilingPrice.\");\r\n        uint256 estimatedFloorPrice = getEstimatedFloorPrice();\r\n        // check if there can be an increase on floorPrice, otherwise do not increase CeilingPrice\r\n        if(latestFloorPrice >= estimatedFloorPrice) {\r\n            return latestCeilingPrice;\r\n        }\r\n        // Check if proposed price is within price band\r\n        uint256 priceBandLimit = (estimatedFloorPrice.mul(band)).div(100);\r\n        if(proposedPrice >= priceBandLimit)\r\n        {\r\n            proposedPrice = priceBandLimit;\r\n        }\r\n        return proposedPrice;\r\n    }\r\n    function getEstimatedFloorPrice() public returns (uint256) {\r\n        latestTime = now;\r\n        if(latestFloorPrice == 0) {\r\n            return 900000;\r\n        }\r\n\r\n        // adjust crawling rate to include increase in spread (when ceiling price grows faster than floor price, detaching from reserves)\r\n        uint256 floorPriceCrawlingRate = (crawlingRate.mul(detachRate)).div(100);\r\n        require(floorPriceCrawlingRate <= crawlingRate, \"Error calculating floorPriceCrawlingRate: cant be greater than CrawlingRate.\");\r\n\r\n        uint256 elapsedHours = (now.sub(latestTime)).div(3600);\r\n        uint256 proposedPrice = latestFloorPrice.add(floorPriceCrawlingRate.mul(elapsedHours));\r\n        require(proposedPrice > latestFloorPrice, \"Calculated proposed price must be higher than latestFloorPrice.\");\r\n\r\n        // check if there can be an increase on floorPrice based on reserves\r\n        uint256 totalReserves = ucMarketplace.getReservesBalance();\r\n        uint256 totalSupply = ucToken.totalSupply();\r\n        if(totalReserves < proposedPrice.mul(totalSupply)) {\r\n            proposedPrice = totalReserves.div(totalSupply);\r\n        }\r\n        // Check if proposed price is within price band ???\r\n\r\n        return proposedPrice;\r\n    }\r\n    /**\r\n     * @dev Returns the current target UC ceiling price in US Dollar.\r\n     * Note that...\r\n     * TODO: implement pause modifier\r\n     * @return UC Ceiling Price in US Dollar\r\n     */\r\n    function getCurrentCeilingPrice() public returns (uint256) {\r\n        // latestTime = now;\r\n        // if(latestCeilingPrice == 0) {\r\n        //     latestCeilingPrice = 1000000;\r\n        //     return latestCeilingPrice;\r\n        // }\r\n        // uint256 elapsedHours = (now.sub(latestTime)).div(3600);\r\n        // uint256 proposedPrice = latestCeilingPrice.add(crawlingRate.mul(elapsedHours));\r\n        // require(proposedPrice > latestCeilingPrice, \"Calculated proposed price must be higher than latestCeilingPrice.\");\r\n        // uint256 estimatedFloorPrice = getEstimatedFloorPrice();\r\n        // // check if there can be an increase on floorPrice, otherwise do not increase CeilingPrice\r\n        // if(latestFloorPrice >= estimatedFloorPrice) {\r\n        //     return latestCeilingPrice;\r\n        // }\r\n        // // Check if proposed price is within price band\r\n        // uint256 priceBandLimit = (estimatedFloorPrice.mul(band)).div(100);\r\n        // if(proposedPrice >= priceBandLimit)\r\n        // {\r\n        //     proposedPrice = priceBandLimit;\r\n        // }\r\n\r\n        // latestCeilingPrice = proposedPrice;\r\n        // return latestCeilingPrice;\r\n\r\n        uint256 calculatedCeilingPrice = getEstimatedCeilingPrice();\r\n        if(calculatedCeilingPrice > latestCeilingPrice) {\r\n            latestCeilingPrice = calculatedCeilingPrice;\r\n        }\r\n        return latestCeilingPrice;\r\n    }\r\n    /**\r\n     * @dev Returns the current target UC floor price in US Dollar / 10000000.\r\n     * Note that...\r\n     * TODO: implement pause modifier\r\n     * @return UC Floor Price in US Dollar in US Dollar / 10000000\r\n     */\r\n    function getCurrentFloorPrice() public returns (uint256) {\r\n        uint256 calculatedFloorPrice = getEstimatedFloorPrice();\r\n        if(calculatedFloorPrice == latestFloorPrice) {\r\n            return latestFloorPrice;\r\n        }\r\n        latestFloorPrice = calculatedFloorPrice;\r\n        return latestFloorPrice;\r\n    }\r\n\r\n    /// Events\r\n\r\n    event BandChanged(uint256 previousBand, uint256 newBand);\r\n    event CrawlingRateChanged(uint256 previousRate, uint256 newRate);\r\n    event DetachRateChanged(uint256 previousRate, uint256 newRate);\r\n\r\n}",
  "sourcePath": "E:\\JCL\\Webmaster\\GitHub\\UCToken\\UCToken\\contracts\\UCCrawlingBand.sol",
  "compiler": {
    "name": "solc",
    "version": "0.5.7+commit.6da8b019.Emscripten.clang"
  },
  "schemaVersion": "3.0.23",
  "updatedAt": "2020-04-09T02:59:40.870Z",
  "networkType": "ethereum",
  "devdoc": {
    "details": "Business logic for the UC price crawling band target in US Dollars.\r",
    "methods": {
      "getCurrentCeilingPrice()": {
        "details": "Returns the current target UC ceiling price in US Dollar.\r Note that...\r TODO: implement pause modifier\r",
        "return": "UC Ceiling Price in US Dollar\r"
      },
      "getCurrentFloorPrice()": {
        "details": "Returns the current target UC floor price in US Dollar / 10000000.\r Note that...\r TODO: implement pause modifier\r",
        "return": "UC Floor Price in US Dollar in US Dollar / 10000000\r"
      }
    },
    "title": "UCCrawlingBand\r"
  },
  "userdoc": {
    "methods": {
      "init()": {
        "notice": "Public Methods"
      },
      "setOwner(address)": {
        "notice": "Public Methods"
      },
      "updatePath(string,address)": {
        "notice": "Public Auth Mehods"
      }
    }
  }
}