{
  "contractName": "UCGovernance",
  "abi": [
    {
      "constant": true,
      "inputs": [
        {
          "name": "",
          "type": "address"
        }
      ],
      "name": "lockedUCGBalance",
      "outputs": [
        {
          "name": "",
          "type": "uint256"
        }
      ],
      "payable": false,
      "stateMutability": "view",
      "type": "function"
    },
    {
      "constant": false,
      "inputs": [
        {
          "name": "_owner",
          "type": "address"
        }
      ],
      "name": "setOwner",
      "outputs": [],
      "payable": false,
      "stateMutability": "nonpayable",
      "type": "function"
    },
    {
      "constant": false,
      "inputs": [
        {
          "name": "_path",
          "type": "address"
        }
      ],
      "name": "setPath",
      "outputs": [],
      "payable": false,
      "stateMutability": "nonpayable",
      "type": "function"
    },
    {
      "constant": true,
      "inputs": [],
      "name": "owner",
      "outputs": [
        {
          "name": "",
          "type": "address"
        }
      ],
      "payable": false,
      "stateMutability": "view",
      "type": "function"
    },
    {
      "constant": true,
      "inputs": [],
      "name": "ucgToken",
      "outputs": [
        {
          "name": "",
          "type": "address"
        }
      ],
      "payable": false,
      "stateMutability": "view",
      "type": "function"
    },
    {
      "constant": true,
      "inputs": [
        {
          "name": "",
          "type": "bytes32"
        }
      ],
      "name": "winnerRequestIdPerTarget",
      "outputs": [
        {
          "name": "",
          "type": "bytes32"
        }
      ],
      "payable": false,
      "stateMutability": "view",
      "type": "function"
    },
    {
      "constant": true,
      "inputs": [],
      "name": "ucPath",
      "outputs": [
        {
          "name": "",
          "type": "address"
        }
      ],
      "payable": false,
      "stateMutability": "view",
      "type": "function"
    },
    {
      "constant": true,
      "inputs": [],
      "name": "maxParticipation",
      "outputs": [
        {
          "name": "",
          "type": "uint256"
        }
      ],
      "payable": false,
      "stateMutability": "view",
      "type": "function"
    },
    {
      "constant": true,
      "inputs": [
        {
          "name": "",
          "type": "bytes32"
        }
      ],
      "name": "changeRequests",
      "outputs": [
        {
          "name": "target",
          "type": "bytes32"
        },
        {
          "name": "proposal",
          "type": "bytes32"
        },
        {
          "name": "safeDelay",
          "type": "uint256"
        },
        {
          "name": "status",
          "type": "uint8"
        },
        {
          "name": "createBy",
          "type": "address"
        },
        {
          "name": "createdOn",
          "type": "uint256"
        },
        {
          "name": "UIPNumber",
          "type": "uint256"
        },
        {
          "name": "notes",
          "type": "string"
        },
        {
          "name": "votes",
          "type": "uint256"
        },
        {
          "name": "votesAgainstWinner",
          "type": "uint256"
        }
      ],
      "payable": false,
      "stateMutability": "view",
      "type": "function"
    },
    {
      "inputs": [
        {
          "name": "pathAddress",
          "type": "address"
        }
      ],
      "payable": false,
      "stateMutability": "nonpayable",
      "type": "constructor"
    },
    {
      "anonymous": false,
      "inputs": [
        {
          "indexed": false,
          "name": "from",
          "type": "address"
        },
        {
          "indexed": false,
          "name": "amount",
          "type": "uint256"
        }
      ],
      "name": "Locked",
      "type": "event"
    },
    {
      "anonymous": false,
      "inputs": [
        {
          "indexed": false,
          "name": "from",
          "type": "address"
        },
        {
          "indexed": false,
          "name": "amount",
          "type": "uint256"
        }
      ],
      "name": "Unlocked",
      "type": "event"
    },
    {
      "anonymous": false,
      "inputs": [
        {
          "indexed": false,
          "name": "target",
          "type": "bytes32"
        },
        {
          "indexed": false,
          "name": "proposal",
          "type": "bytes32"
        },
        {
          "indexed": false,
          "name": "createdBy",
          "type": "address"
        },
        {
          "indexed": false,
          "name": "UIPNumber",
          "type": "uint256"
        },
        {
          "indexed": false,
          "name": "notes",
          "type": "string"
        }
      ],
      "name": "NewChangeRequest",
      "type": "event"
    },
    {
      "anonymous": false,
      "inputs": [
        {
          "indexed": false,
          "name": "changeRequest",
          "type": "bytes32"
        },
        {
          "indexed": false,
          "name": "user",
          "type": "address"
        }
      ],
      "name": "VoteCancelled",
      "type": "event"
    },
    {
      "anonymous": false,
      "inputs": [
        {
          "indexed": false,
          "name": "changeRequest",
          "type": "bytes32"
        },
        {
          "indexed": false,
          "name": "target",
          "type": "bytes32"
        },
        {
          "indexed": false,
          "name": "amount",
          "type": "uint256"
        },
        {
          "indexed": false,
          "name": "amountAgaintWinner",
          "type": "uint256"
        },
        {
          "indexed": false,
          "name": "user",
          "type": "address"
        }
      ],
      "name": "NewVote",
      "type": "event"
    },
    {
      "anonymous": false,
      "inputs": [
        {
          "indexed": false,
          "name": "changeRequest",
          "type": "bytes32"
        },
        {
          "indexed": false,
          "name": "safeDelay",
          "type": "uint256"
        }
      ],
      "name": "NewWinner",
      "type": "event"
    },
    {
      "anonymous": false,
      "inputs": [
        {
          "indexed": false,
          "name": "owner",
          "type": "address"
        }
      ],
      "name": "NewOwner",
      "type": "event"
    },
    {
      "anonymous": false,
      "inputs": [
        {
          "indexed": false,
          "name": "pathAddress",
          "type": "address"
        }
      ],
      "name": "NewPath",
      "type": "event"
    },
    {
      "anonymous": false,
      "inputs": [
        {
          "indexed": false,
          "name": "pathName",
          "type": "string"
        },
        {
          "indexed": false,
          "name": "pathAddress",
          "type": "address"
        }
      ],
      "name": "PathUpdated",
      "type": "event"
    },
    {
      "constant": true,
      "inputs": [
        {
          "name": "targetContract",
          "type": "address"
        },
        {
          "name": "methodName",
          "type": "string"
        }
      ],
      "name": "createTarget",
      "outputs": [
        {
          "name": "",
          "type": "bytes32"
        }
      ],
      "payable": false,
      "stateMutability": "pure",
      "type": "function"
    },
    {
      "constant": true,
      "inputs": [
        {
          "name": "pathName",
          "type": "string"
        },
        {
          "name": "newAddress",
          "type": "address"
        }
      ],
      "name": "createProposalSetPath",
      "outputs": [
        {
          "name": "",
          "type": "bytes32"
        }
      ],
      "payable": false,
      "stateMutability": "pure",
      "type": "function"
    },
    {
      "constant": true,
      "inputs": [
        {
          "name": "key",
          "type": "bytes32"
        }
      ],
      "name": "testMapping",
      "outputs": [
        {
          "name": "",
          "type": "bool"
        }
      ],
      "payable": false,
      "stateMutability": "view",
      "type": "function"
    },
    {
      "constant": true,
      "inputs": [],
      "name": "getChangeRequestsCount",
      "outputs": [
        {
          "name": "",
          "type": "uint256"
        }
      ],
      "payable": false,
      "stateMutability": "view",
      "type": "function"
    },
    {
      "constant": true,
      "inputs": [
        {
          "name": "_index",
          "type": "uint256"
        }
      ],
      "name": "getChangeRequestKeyAtIndex",
      "outputs": [
        {
          "name": "",
          "type": "bytes32"
        }
      ],
      "payable": false,
      "stateMutability": "view",
      "type": "function"
    },
    {
      "constant": true,
      "inputs": [
        {
          "name": "_key",
          "type": "bytes32"
        }
      ],
      "name": "changeRequestExits",
      "outputs": [
        {
          "name": "",
          "type": "bool"
        }
      ],
      "payable": false,
      "stateMutability": "view",
      "type": "function"
    },
    {
      "constant": false,
      "inputs": [
        {
          "name": "_amount",
          "type": "uint256"
        }
      ],
      "name": "lock",
      "outputs": [],
      "payable": false,
      "stateMutability": "nonpayable",
      "type": "function"
    },
    {
      "constant": false,
      "inputs": [
        {
          "name": "_amount",
          "type": "uint256"
        }
      ],
      "name": "unlock",
      "outputs": [],
      "payable": false,
      "stateMutability": "nonpayable",
      "type": "function"
    },
    {
      "constant": false,
      "inputs": [
        {
          "name": "_target",
          "type": "bytes32"
        },
        {
          "name": "_proposal",
          "type": "bytes32"
        },
        {
          "name": "_safeDelay",
          "type": "uint256"
        },
        {
          "name": "_UIPNumber",
          "type": "uint256"
        },
        {
          "name": "_notes",
          "type": "string"
        }
      ],
      "name": "newChangeRequest",
      "outputs": [],
      "payable": false,
      "stateMutability": "nonpayable",
      "type": "function"
    },
    {
      "constant": false,
      "inputs": [
        {
          "name": "_key",
          "type": "bytes32"
        },
        {
          "name": "_amount",
          "type": "uint256"
        }
      ],
      "name": "voteOnChangeRequest",
      "outputs": [],
      "payable": false,
      "stateMutability": "nonpayable",
      "type": "function"
    },
    {
      "constant": false,
      "inputs": [
        {
          "name": "_key",
          "type": "bytes32"
        }
      ],
      "name": "voteOnChangeRequest",
      "outputs": [],
      "payable": false,
      "stateMutability": "nonpayable",
      "type": "function"
    },
    {
      "constant": false,
      "inputs": [
        {
          "name": "_key",
          "type": "bytes32"
        }
      ],
      "name": "cancelVoteOnChangeRequest",
      "outputs": [],
      "payable": false,
      "stateMutability": "nonpayable",
      "type": "function"
    },
    {
      "constant": true,
      "inputs": [
        {
          "name": "_key",
          "type": "bytes32"
        }
      ],
      "name": "isWinner",
      "outputs": [
        {
          "name": "",
          "type": "bool"
        }
      ],
      "payable": false,
      "stateMutability": "view",
      "type": "function"
    },
    {
      "constant": false,
      "inputs": [
        {
          "name": "_key",
          "type": "bytes32"
        }
      ],
      "name": "makeWinner",
      "outputs": [
        {
          "name": "",
          "type": "bool"
        }
      ],
      "payable": false,
      "stateMutability": "nonpayable",
      "type": "function"
    },
    {
      "constant": false,
      "inputs": [
        {
          "name": "_key",
          "type": "bytes32"
        }
      ],
      "name": "updateToAppliedStatus",
      "outputs": [],
      "payable": false,
      "stateMutability": "nonpayable",
      "type": "function"
    },
    {
      "constant": false,
      "inputs": [
        {
          "name": "pathName",
          "type": "string"
        },
        {
          "name": "pathAddress",
          "type": "address"
        }
      ],
      "name": "updatePath",
      "outputs": [],
      "payable": false,
      "stateMutability": "nonpayable",
      "type": "function"
    }
  ],
  "bytecode": "0x60806040523480156200001157600080fd5b506040516020806200367e833981018060405260208110156200003357600080fd5b8101908080519060200190929190505050806040518060400160405280600c81526020017f5543476f7665726e616e63650000000000000000000000000000000000000000815250336000806101000a81548173ffffffffffffffffffffffffffffffffffffffff021916908373ffffffffffffffffffffffffffffffffffffffff1602179055507f3edd90e7770f06fafde38004653b33870066c33bfc923ff6102acd601f85dfbc33604051808273ffffffffffffffffffffffffffffffffffffffff1673ffffffffffffffffffffffffffffffffffffffff16815260200191505060405180910390a160405180807f55435061746800000000000000000000000000000000000000000000000000008152506006019050604051809103902081805190602001201415620001aa5730600160006101000a81548173ffffffffffffffffffffffffffffffffffffffff021916908373ffffffffffffffffffffffffffffffffffffffff160217905550620001ec565b81600160006101000a81548173ffffffffffffffffffffffffffffffffffffffff021916908373ffffffffffffffffffffffffffffffffffffffff1602179055505b5050600160009054906101000a900473ffffffffffffffffffffffffffffffffffffffff1673ffffffffffffffffffffffffffffffffffffffff1663af61c6a66040518163ffffffff1660e01b81526004018080602001828103825260088152602001807f554347546f6b656e00000000000000000000000000000000000000000000000081525060200191505060206040518083038186803b1580156200029357600080fd5b505afa158015620002a8573d6000803e3d6000fd5b505050506040513d6020811015620002bf57600080fd5b8101908080519060200190929190505050600360006101000a81548173ffffffffffffffffffffffffffffffffffffffff021916908373ffffffffffffffffffffffffffffffffffffffff16021790555060076002819055505061335580620003296000396000f3fe608060405234801561001057600080fd5b50600436106101735760003560e01c80638b702050116100de578063b29ff90c11610097578063dd46706411610071578063dd46706414610932578063deae3b1e14610960578063df71076e146109aa578063f41144a3146109c857610173565b8063b29ff90c146108a4578063cbd4089c146108e6578063d72cf9d01461090457610173565b80638b7020501461065d5780638da5cb5b146106955780638e4ad5f3146106df57806393e4b4da14610725578063941fea1a1461076b578063b022816f146107b557610173565b80634deba33e116101305780634deba33e146103af578063599b4fbc146103f15780635fa8aad4146104cc5780636198e339146105bb5780636dfec584146105e957806377c75d101461061757610173565b8063109ac5f01461017857806312080b97146101d057806313af4035146102b3578063281bfe51146102f75780633b955177146103255780634d2bfaae14610369575b600080fd5b6101ba6004803603602081101561018e57600080fd5b81019080803573ffffffffffffffffffffffffffffffffffffffff169060200190929190505050610ae8565b6040518082815260200191505060405180910390f35b6102b1600480360360a08110156101e657600080fd5b81019080803590602001909291908035906020019092919080359060200190929190803590602001909291908035906020019064010000000081111561022b57600080fd5b82018360208201111561023d57600080fd5b8035906020019184600183028401116401000000008311171561025f57600080fd5b91908080601f016020809104026020016040519081016040528093929190818152602001838380828437600081840152601f19601f820116905080830192505050505050509192919290505050610b00565b005b6102f5600480360360208110156102c957600080fd5b81019080803573ffffffffffffffffffffffffffffffffffffffff169060200190929190505050610d94565b005b6103236004803603602081101561030d57600080fd5b8101908080359060200190929190505050610eb5565b005b6103676004803603602081101561033b57600080fd5b81019080803573ffffffffffffffffffffffffffffffffffffffff169060200190929190505050610ff7565b005b6103956004803603602081101561037f57600080fd5b8101908080359060200190929190505050611119565b604051808215151515815260200191505060405180910390f35b6103db600480360360208110156103c557600080fd5b8101908080359060200190929190505050611152565b6040518082815260200191505060405180910390f35b6104ca6004803603604081101561040757600080fd5b810190808035906020019064010000000081111561042457600080fd5b82018360208201111561043657600080fd5b8035906020019184600183028401116401000000008311171561045857600080fd5b91908080601f016020809104026020016040519081016040528093929190818152602001838380828437600081840152601f19601f820116905080830192505050505050509192919290803573ffffffffffffffffffffffffffffffffffffffff16906020019092919050505061116f565b005b6105a5600480360360408110156104e257600080fd5b81019080803573ffffffffffffffffffffffffffffffffffffffff1690602001909291908035906020019064010000000081111561051f57600080fd5b82018360208201111561053157600080fd5b8035906020019184600183028401116401000000008311171561055357600080fd5b91908080601f016020809104026020016040519081016040528093929190818152602001838380828437600081840152601f19601f820116905080830192505050505050509192919290505050611352565b6040518082815260200191505060405180910390f35b6105e7600480360360208110156105d157600080fd5b8101908080359060200190929190505050611405565b005b610615600480360360208110156105ff57600080fd5b8101908080359060200190929190505050611719565b005b6106436004803603602081101561062d57600080fd5b81019080803590602001909291905050506117d0565b604051808215151515815260200191505060405180910390f35b6106936004803603604081101561067357600080fd5b8101908080359060200190929190803590602001909291905050506118c0565b005b61069d611eaa565b604051808273ffffffffffffffffffffffffffffffffffffffff1673ffffffffffffffffffffffffffffffffffffffff16815260200191505060405180910390f35b61070b600480360360208110156106f557600080fd5b8101908080359060200190929190505050611ecf565b604051808215151515815260200191505060405180910390f35b6107516004803603602081101561073b57600080fd5b8101908080359060200190929190505050611eec565b604051808215151515815260200191505060405180910390f35b6107736121aa565b604051808273ffffffffffffffffffffffffffffffffffffffff1673ffffffffffffffffffffffffffffffffffffffff16815260200191505060405180910390f35b61088e600480360360408110156107cb57600080fd5b81019080803590602001906401000000008111156107e857600080fd5b8201836020820111156107fa57600080fd5b8035906020019184600183028401116401000000008311171561081c57600080fd5b91908080601f016020809104026020016040519081016040528093929190818152602001838380828437600081840152601f19601f820116905080830192505050505050509192919290803573ffffffffffffffffffffffffffffffffffffffff1690602001909291905050506121d0565b6040518082815260200191505060405180910390f35b6108d0600480360360208110156108ba57600080fd5b8101908080359060200190929190505050612283565b6040518082815260200191505060405180910390f35b6108ee61229b565b6040518082815260200191505060405180910390f35b6109306004803603602081101561091a57600080fd5b81019080803590602001909291905050506122ac565b005b61095e6004803603602081101561094857600080fd5b81019080803590602001909291905050506122f8565b005b610968612585565b604051808273ffffffffffffffffffffffffffffffffffffffff1673ffffffffffffffffffffffffffffffffffffffff16815260200191505060405180910390f35b6109b26125ab565b6040518082815260200191505060405180910390f35b6109f4600480360360208110156109de57600080fd5b81019080803590602001909291905050506125b1565b604051808b81526020018a8152602001898152602001886006811115610a1657fe5b60ff1681526020018773ffffffffffffffffffffffffffffffffffffffff1673ffffffffffffffffffffffffffffffffffffffff16815260200186815260200185815260200180602001848152602001838152602001828103825285818151815260200191508051906020019080838360005b83811015610aa4578082015181840152602081019050610a89565b50505050905090810190601f168015610ad15780820380516001836020036101000a031916815260200191505b509b50505050505050505050505060405180910390f35b60056020528060005260406000206000915090505481565b6000858542604051602001808481526020018381526020018281526020019350505050604051602081830303815290604052805190602001209050610b4f8160086126ca90919063ffffffff16565b60405180610140016040528087815260200186815260200185815260200160006006811115610b7a57fe5b81526020013373ffffffffffffffffffffffffffffffffffffffff1681526020014281526020018481526020018381526020016000815260200160008152506004600083815260200190815260200160002060008201518160000155602082015181600101556040820151816002015560608201518160030160006101000a81548160ff02191690836006811115610c0e57fe5b021790555060808201518160030160016101000a81548173ffffffffffffffffffffffffffffffffffffffff021916908373ffffffffffffffffffffffffffffffffffffffff16021790555060a0820151816004015560c0820151816005015560e0820151816006019080519060200190610c8a929190613177565b50610100820151816007015561012082015181600801559050507f380e4c577af97af2f5948fcdc1ae2ff0b329b5eb160eb7e664ef6c8b824779be8686338686604051808681526020018581526020018473ffffffffffffffffffffffffffffffffffffffff1673ffffffffffffffffffffffffffffffffffffffff16815260200183815260200180602001828103825283818151815260200191508051906020019080838360005b83811015610d4e578082015181840152602081019050610d33565b50505050905090810190601f168015610d7b5780820380516001836020036101000a031916815260200191505b50965050505050505060405180910390a1505050505050565b610d9d336127d3565b610e0f576040517f08c379a000000000000000000000000000000000000000000000000000000000815260040180806020018281038252600e8152602001807f4e6f7420617574686f72697a656400000000000000000000000000000000000081525060200191505060405180910390fd5b806000806101000a81548173ffffffffffffffffffffffffffffffffffffffff021916908373ffffffffffffffffffffffffffffffffffffffff1602179055507f3edd90e7770f06fafde38004653b33870066c33bfc923ff6102acd601f85dfbc81604051808273ffffffffffffffffffffffffffffffffffffffff1673ffffffffffffffffffffffffffffffffffffffff16815260200191505060405180910390a150565b610ebe336127d3565b610f30576040517f08c379a000000000000000000000000000000000000000000000000000000000815260040180806020018281038252600e8152602001807f4e6f7420617574686f72697a656400000000000000000000000000000000000081525060200191505060405180910390fd5b610f448160086129c590919063ffffffff16565b610fb6576040517f08c379a000000000000000000000000000000000000000000000000000000000815260040180806020018281038252601b8152602001807f4368616e67655265717565737420646f65736e2774206578697374000000000081525060200191505060405180910390fd5b600060046000838152602001908152602001600020905060028160030160006101000a81548160ff02191690836006811115610fee57fe5b02179055505050565b611000336127d3565b611072576040517f08c379a000000000000000000000000000000000000000000000000000000000815260040180806020018281038252600e8152602001807f4e6f7420617574686f72697a656400000000000000000000000000000000000081525060200191505060405180910390fd5b80600160006101000a81548173ffffffffffffffffffffffffffffffffffffffff021916908373ffffffffffffffffffffffffffffffffffffffff1602179055507f06996b58b8ff542ff91d7a929369bb5d93940639f7849f15d0f95923d1d1705181604051808273ffffffffffffffffffffffffffffffffffffffff1673ffffffffffffffffffffffffffffffffffffffff16815260200191505060405180910390a150565b600080600660008481526020019081526020016000205490506000801b81141561114757600191505061114d565b60009150505b919050565b6000611168826008612a1990919063ffffffff16565b9050919050565b611178336127d3565b6111ea576040517f08c379a000000000000000000000000000000000000000000000000000000000815260040180806020018281038252600e8152602001807f4e6f7420617574686f72697a656400000000000000000000000000000000000081525060200191505060405180910390fd5b600060405180807f554347546f6b656e00000000000000000000000000000000000000000000000081525060080190506040518091039020838051906020012014156112765781600360006101000a81548173ffffffffffffffffffffffffffffffffffffffff021916908373ffffffffffffffffffffffffffffffffffffffff160217905550600190505b801561134d577f0bf1be166f5b263d06191a42d6ab01a3333b6da101cf1cc7bba6f07a70dd2ff5838360405180806020018373ffffffffffffffffffffffffffffffffffffffff1673ffffffffffffffffffffffffffffffffffffffff168152602001828103825284818151815260200191508051906020019080838360005b838110156113115780820151818401526020810190506112f6565b50505050905090810190601f16801561133e5780820380516001836020036101000a031916815260200191505b50935050505060405180910390a15b505050565b60008282604051602001808373ffffffffffffffffffffffffffffffffffffffff1673ffffffffffffffffffffffffffffffffffffffff1660601b815260140182805190602001908083835b602083106113c1578051825260208201915060208101905060208303925061139e565b6001836020036101000a0380198251168184511680821785525050505050509050019250505060405160208183030381529060405280519060200120905092915050565b61148e816040518060400160405280601281526020017f4e6f7420656e6f7567682062616c616e63650000000000000000000000000000815250600560003373ffffffffffffffffffffffffffffffffffffffff1673ffffffffffffffffffffffffffffffffffffffff16815260200190815260200160002054612a3d9092919063ffffffff16565b600560003373ffffffffffffffffffffffffffffffffffffffff1673ffffffffffffffffffffffffffffffffffffffff16815260200190815260200160002081905550600360009054906101000a900473ffffffffffffffffffffffffffffffffffffffff1673ffffffffffffffffffffffffffffffffffffffff1663a9059cbb33836040518363ffffffff1660e01b8152600401808373ffffffffffffffffffffffffffffffffffffffff1673ffffffffffffffffffffffffffffffffffffffff16815260200182815260200192505050602060405180830381600087803b15801561157a57600080fd5b505af115801561158e573d6000803e3d6000fd5b505050506040513d60208110156115a457600080fd5b8101908080519060200190929190505050611627576040517f08c379a000000000000000000000000000000000000000000000000000000000815260040180806020018281038252601d8152602001807f5472616e73666572206f6620554347546f6b656e73206661696c65642e00000081525060200191505060405180910390fd5b6000600760003373ffffffffffffffffffffffffffffffffffffffff1673ffffffffffffffffffffffffffffffffffffffff168152602001908152602001600020905060008090505b61167982612afd565b8110156116a95761169c6116968284612a1990919063ffffffff16565b84612b0e565b8080600101915050611670565b507f0f0bc5b519ddefdd8e5f9e6423433aa2b869738de2ae34d58ebc796fc749fa0d3383604051808373ffffffffffffffffffffffffffffffffffffffff1673ffffffffffffffffffffffffffffffffffffffff1681526020018281526020019250505060405180910390a15050565b61176281600560003373ffffffffffffffffffffffffffffffffffffffff1673ffffffffffffffffffffffffffffffffffffffff16815260200190815260200160002054612b0e565b7ff96f266369d57540bfa6379f9e67f64522187dd97112263328c2a62f89d82db38133604051808381526020018273ffffffffffffffffffffffffffffffffffffffff1673ffffffffffffffffffffffffffffffffffffffff1681526020019250505060405180910390a150565b60006117e68260086129c590919063ffffffff16565b611858576040517f08c379a000000000000000000000000000000000000000000000000000000000815260040180806020018281038252601b8152602001807f4368616e67655265717565737420646f65736e2774206578697374000000000081525060200191505060405180910390fd5b6000600460008481526020019081526020016000209050600060066000836000015481526020019081526020016000205490506000801b8114156118a1576000925050506118bb565b808414156118b4576001925050506118bb565b6000925050505b919050565b60008111611936576040517f08c379a000000000000000000000000000000000000000000000000000000000815260040180806020018281038252600e8152602001807f496e76616c696420616d6f756e7400000000000000000000000000000000000081525060200191505060405180910390fd5b61194a8260086129c590919063ffffffff16565b6119bc576040517f08c379a000000000000000000000000000000000000000000000000000000000815260040180806020018281038252601b8152602001807f4368616e67655265717565737420646f65736e2774206578697374000000000081525060200191505060405180910390fd5b600560003373ffffffffffffffffffffffffffffffffffffffff1673ffffffffffffffffffffffffffffffffffffffff16815260200190815260200160002054811115611a71576040517f08c379a000000000000000000000000000000000000000000000000000000000815260040180806020018281038252601a8152602001807f4e6f7420656e6f7567682062616c616e636520746f20766f746500000000000081525060200191505060405180910390fd5b6000600760003373ffffffffffffffffffffffffffffffffffffffff1673ffffffffffffffffffffffffffffffffffffffff1681526020019081526020016000209050611ac783826129c590919063ffffffff16565b611b5f57600254611ad782612afd565b1115611b4b576040517f08c379a00000000000000000000000000000000000000000000000000000000081526004018080602001828103825260198152602001807f4d61782070617274696369706174696f6e20726561636865640000000000000081525060200191505060405180910390fd5b611b5e83826126ca90919063ffffffff16565b5b600060046000858152602001908152602001600020905060008160090160003373ffffffffffffffffffffffffffffffffffffffff1673ffffffffffffffffffffffffffffffffffffffff168152602001908152602001600020549050600082600a0160003373ffffffffffffffffffffffffffffffffffffffff1673ffffffffffffffffffffffffffffffffffffffff1681526020019081526020016000205490506000821115611c4a57611c22828460070154612ec190919063ffffffff16565b8360070181905550611c41818460080154612ec190919063ffffffff16565b83600801819055505b848360090160003373ffffffffffffffffffffffffffffffffffffffff1673ffffffffffffffffffffffffffffffffffffffff168152602001908152602001600020819055508483600a0160003373ffffffffffffffffffffffffffffffffffffffff1673ffffffffffffffffffffffffffffffffffffffff16815260200190815260200160002081905550611ced858460070154612f0b90919063ffffffff16565b8360070181905550611d0c858460080154612f0b90919063ffffffff16565b836008018190555060008090506006600085600001548152602001908152602001600020548714611e0857611d448460000154612f93565b905060008114611e0757611da28185600a0160003373ffffffffffffffffffffffffffffffffffffffff1673ffffffffffffffffffffffffffffffffffffffff16815260200190815260200160002054612f0b90919063ffffffff16565b84600a0160003373ffffffffffffffffffffffffffffffffffffffff1673ffffffffffffffffffffffffffffffffffffffff16815260200190815260200160002081905550611dfe818560080154612f0b90919063ffffffff16565b84600801819055505b5b7fce203b43909080aaaa49fddf215e7d7c4e5cd0fb102f4c8cd18485e9e15d007387856000015488611e43858b612f0b90919063ffffffff16565b33604051808681526020018581526020018481526020018381526020018273ffffffffffffffffffffffffffffffffffffffff1673ffffffffffffffffffffffffffffffffffffffff1681526020019550505050505060405180910390a150505050505050565b6000809054906101000a900473ffffffffffffffffffffffffffffffffffffffff1681565b6000611ee58260086129c590919063ffffffff16565b9050919050565b6000611f028260086129c590919063ffffffff16565b611f74576040517f08c379a000000000000000000000000000000000000000000000000000000000815260040180806020018281038252601b8152602001807f4368616e67655265717565737420646f65736e2774206578697374000000000081525060200191505060405180910390fd5b600060046000848152602001908152602001600020905060008060066000846000015481526020019081526020016000205490506000801b811461209c5780851415611fc657600193505050506121a5565b60006006811115611fd357fe5b8360030160009054906101000a900460ff166006811115611ff057fe5b1461200157600093505050506121a5565b600060046000838152602001908152602001600020905083600401548160040154111561205b5760048460030160006101000a81548160ff0219169083600681111561204957fe5b021790555060009450505050506121a5565b8060070154846008015411156120965760038160030160006101000a81548160ff0219169083600681111561208c57fe5b0217905550600192505b506120f3565b6af8277896582678ac0000008360070154106120f25760019150600060068111156120c357fe5b8360030160009054906101000a900460ff1660068111156120e057fe5b146120f157600093505050506121a5565b5b5b811561219e5760018360030160006101000a81548160ff0219169083600681111561211a57fe5b0217905550612136428460020154612f0b90919063ffffffff16565b8360020181905550846006600085600001548152602001908152602001600020819055507fd417684c506cd47aed27f15fed18118eb416cc70bc954b0f4c80c39dc9861e92858460020154604051808381526020018281526020019250505060405180910390a15b8193505050505b919050565b600360009054906101000a900473ffffffffffffffffffffffffffffffffffffffff1681565b600082826040516020018083805190602001908083835b6020831061220a57805182526020820191506020810190506020830392506121e7565b6001836020036101000a0380198251168184511680821785525050505050509050018273ffffffffffffffffffffffffffffffffffffffff1673ffffffffffffffffffffffffffffffffffffffff1660601b81526014019250505060405160208183030381529060405280519060200120905092915050565b60066020528060005260406000206000915090505481565b60006122a76008612afd565b905090565b6122f581600560003373ffffffffffffffffffffffffffffffffffffffff1673ffffffffffffffffffffffffffffffffffffffff168152602001908152602001600020546118c0565b50565b600360009054906101000a900473ffffffffffffffffffffffffffffffffffffffff1673ffffffffffffffffffffffffffffffffffffffff166323b872dd3330846040518463ffffffff1660e01b8152600401808473ffffffffffffffffffffffffffffffffffffffff1673ffffffffffffffffffffffffffffffffffffffff1681526020018373ffffffffffffffffffffffffffffffffffffffff1673ffffffffffffffffffffffffffffffffffffffff1681526020018281526020019350505050602060405180830381600087803b1580156123d557600080fd5b505af11580156123e9573d6000803e3d6000fd5b505050506040513d60208110156123ff57600080fd5b8101908080519060200190929190505050612482576040517f08c379a000000000000000000000000000000000000000000000000000000000815260040180806020018281038252601d8152602001807f5472616e73666572206f6620554347546f6b656e73206661696c65642e00000081525060200191505060405180910390fd5b6124d481600560003373ffffffffffffffffffffffffffffffffffffffff1673ffffffffffffffffffffffffffffffffffffffff16815260200190815260200160002054612f0b90919063ffffffff16565b600560003373ffffffffffffffffffffffffffffffffffffffff1673ffffffffffffffffffffffffffffffffffffffff168152602001908152602001600020819055507f9f1ec8c880f76798e7b793325d625e9b60e4082a553c98f42b6cda368dd600083382604051808373ffffffffffffffffffffffffffffffffffffffff1673ffffffffffffffffffffffffffffffffffffffff1681526020018281526020019250505060405180910390a150565b600160009054906101000a900473ffffffffffffffffffffffffffffffffffffffff1681565b60025481565b60046020528060005260406000206000915090508060000154908060010154908060020154908060030160009054906101000a900460ff16908060030160019054906101000a900473ffffffffffffffffffffffffffffffffffffffff1690806004015490806005015490806006018054600181600116156101000203166002900480601f0160208091040260200160405190810160405280929190818152602001828054600181600116156101000203166002900480156126b45780601f10612689576101008083540402835291602001916126b4565b820191906000526020600020905b81548152906001019060200180831161269757829003601f168201915b505050505090806007015490806008015490508a565b6000801b811415612726576040517f08c379a000000000000000000000000000000000000000000000000000000000815260040180806020018281038252602881526020018061326e6028913960400191505060405180910390fd5b61273082826129c5565b15612786576040517f08c379a00000000000000000000000000000000000000000000000000000000081526004018080602001828103825260358152602001806132cb6035913960400191505060405180910390fd5b600182600101829080600181540180825580915050906001820390600052602060002001600090919290919091505503826000016000838152602001908152602001600020819055505050565b60003073ffffffffffffffffffffffffffffffffffffffff168273ffffffffffffffffffffffffffffffffffffffff16141561281257600190506129c0565b6000809054906101000a900473ffffffffffffffffffffffffffffffffffffffff1673ffffffffffffffffffffffffffffffffffffffff168273ffffffffffffffffffffffffffffffffffffffff16141561287057600190506129c0565b6128798261301b565b156129bf57600073ffffffffffffffffffffffffffffffffffffffff16600160009054906101000a900473ffffffffffffffffffffffffffffffffffffffff1673ffffffffffffffffffffffffffffffffffffffff1614156128de57600090506129c0565b600160009054906101000a900473ffffffffffffffffffffffffffffffffffffffff1673ffffffffffffffffffffffffffffffffffffffff16638b1b925f836040518263ffffffff1660e01b8152600401808273ffffffffffffffffffffffffffffffffffffffff1673ffffffffffffffffffffffffffffffffffffffff16815260200191505060206040518083038186803b15801561297d57600080fd5b505afa158015612991573d6000803e3d6000fd5b505050506040513d60208110156129a757600080fd5b810190808051906020019092919050505090506129c0565b5b919050565b600080836001018054905014156129df5760009050612a13565b81836001018460000160008581526020019081526020016000205481548110612a0457fe5b90600052602060002001541490505b92915050565b6000826001018281548110612a2a57fe5b9060005260206000200154905092915050565b6000838311158290612aea576040517f08c379a00000000000000000000000000000000000000000000000000000000081526004018080602001828103825283818151815260200191508051906020019080838360005b83811015612aaf578082015181840152602081019050612a94565b50505050905090810190601f168015612adc5780820380516001836020036101000a031916815260200191505b509250505060405180910390fd5b5060008385039050809150509392505050565b600081600101805490509050919050565b612b228260086129c590919063ffffffff16565b612b94576040517f08c379a000000000000000000000000000000000000000000000000000000000815260040180806020018281038252601b8152602001807f4368616e67655265717565737420646f65736e2774206578697374000000000081525060200191505060405180910390fd5b6000600760003373ffffffffffffffffffffffffffffffffffffffff1673ffffffffffffffffffffffffffffffffffffffff1681526020019081526020016000209050612bea83826129c590919063ffffffff16565b612c3f576040517f08c379a000000000000000000000000000000000000000000000000000000000815260040180806020018281038252602a815260200180613300602a913960400191505060405180910390fd5b600060046000858152602001908152602001600020905060008160090160003373ffffffffffffffffffffffffffffffffffffffff1673ffffffffffffffffffffffffffffffffffffffff168152602001908152602001600020549050600082600a0160003373ffffffffffffffffffffffffffffffffffffffff1673ffffffffffffffffffffffffffffffffffffffff16815260200190815260200160002054905084821115612ddd57612d01858460070154612ec190919063ffffffff16565b8360070181905550612d20858460080154612ec190919063ffffffff16565b8360080181905550612d3b8583612ec190919063ffffffff16565b8360090160003373ffffffffffffffffffffffffffffffffffffffff1673ffffffffffffffffffffffffffffffffffffffff16815260200190815260200160002081905550612d938582612ec190919063ffffffff16565b83600a0160003373ffffffffffffffffffffffffffffffffffffffff1673ffffffffffffffffffffffffffffffffffffffff16815260200190815260200160002081905550612eb9565b612df4828460070154612ec190919063ffffffff16565b8360070181905550612e13818460080154612ec190919063ffffffff16565b8360080181905550612e2e868561306690919063ffffffff16565b8260090160003373ffffffffffffffffffffffffffffffffffffffff1673ffffffffffffffffffffffffffffffffffffffff1681526020019081526020016000206000905582600a0160003373ffffffffffffffffffffffffffffffffffffffff1673ffffffffffffffffffffffffffffffffffffffff168152602001908152602001600020600090555b505050505050565b6000612f0383836040518060400160405280601e81526020017f536166654d6174683a207375627472616374696f6e206f766572666c6f770000815250612a3d565b905092915050565b600080828401905083811015612f89576040517f08c379a000000000000000000000000000000000000000000000000000000000815260040180806020018281038252601b8152602001807f536166654d6174683a206164646974696f6e206f766572666c6f77000000000081525060200191505060405180910390fd5b8091505092915050565b6000806000600460006006600087815260200190815260200160002054815260200190815260200160002090508381600001541415613011578060090160003373ffffffffffffffffffffffffffffffffffffffff1673ffffffffffffffffffffffffffffffffffffffff1681526020019081526020016000205491505b8192505050919050565b6000807fc5d2460186f7233c927e7db2dcc703c0e500b653ca82273b7bfad8045d85a47060001b90506000833f90506000801b811415801561305d5750818114155b92505050919050565b61307082826129c5565b6130c5576040517f08c379a00000000000000000000000000000000000000000000000000000000081526004018080602001828103825260358152602001806132966035913960400191505060405180910390fd5b60008260010160016130d685612afd565b03815481106130e157fe5b90600052602060002001549050600083600001600084815260200190815260200160002054905080846000016000848152602001908152602001600020819055508184600101828154811061313257fe5b9060005260206000200181905550836000016000848152602001908152602001600020600090558360010180548091906001900361317091906131f7565b5050505050565b828054600181600116156101000203166002900490600052602060002090601f016020900481019282601f106131b857805160ff19168380011785556131e6565b828001600101855582156131e6579182015b828111156131e55782518255916020019190600101906131ca565b5b5090506131f39190613223565b5090565b81548183558181111561321e5781836000526020600020918201910161321d9190613248565b5b505050565b61324591905b80821115613241576000816000905550600101613229565b5090565b90565b61326a91905b8082111561326657600081600090555060010161324e565b5090565b9056fe556e6f7264657265644b65795365742831303029202d204b65792063616e6e6f7420626520307830556e6f7264657265644b65795365742831303229202d204b657920646f6573206e6f7420657869737420696e20746865207365742e556e6f7264657265644b65795365742831303129202d204b657920616c72656164792065786973747320696e20746865207365742e5573657220646f6573206e6f74207061727469636970617465206f6e204368616e676552657175657374a165627a7a72305820d1764196ead0139dfae78f6d8a5c205b318e0e486ee038da0b22f82f261eab6e0029",
  "source": "pragma solidity >=0.4.21 <0.6.2;\r\n\r\nimport \"@openzeppelin/contracts/math/SafeMath.sol\";\r\nimport \"./libraries/UnorderedKeySet.sol\";\r\nimport \"./UCGToken.sol\";\r\nimport \"./UCChangeable.sol\";\r\n\r\ncontract UCGovernance is UCChangeable {\r\n    using SafeMath for uint256;\r\n    using UnorderedKeySetLib for UnorderedKeySetLib.Set;\r\n\r\n    /// Public Properties\r\n    //address public ucgTokenAddress;\r\n    uint256 public maxParticipation; // max number of active requests a user can vote at the same time\r\n\r\n    /// Contract Navigation Properties\r\n    UCGToken public ucgToken;\r\n\r\n    /// Enums\r\n    enum CRStatus {\r\n        PendingApproval,                    // Default value\r\n        Approved,                           // Winner pending use\r\n        Applied,                            // already used/completed\r\n        Replaced,                           // was an winner but has been replaced\r\n        Expired,                            // CR has already expired\r\n        Closed,                             //\r\n        Cancelled                           // CR has been cancelled\r\n    }\r\n\r\n    /// Objects (Structs)\r\n    struct ChangeRequest {\r\n        // address contractAddress;\r\n        // string functionName;\r\n        // string parameters;\r\n        // string notes;\r\n        bytes32 target; // hash of the contractAddress and method name\r\n        bytes32 proposal; // hash of the proposal (parameter values)\r\n        uint256 safeDelay; // time the request need to wait after its approved before its applied\r\n        CRStatus status;\r\n        address createBy; // address of msg.sender that created the cr\r\n        uint256 createdOn; // time the cr was created\r\n        uint256 UIPNumber;\r\n        string notes; // in case of no UIP info\r\n        uint256 votes; // total votes\r\n        uint256 votesAgainstWinner; // total votes plus votes that user has on winner target\r\n        mapping (address => uint256) userVotes; // votes per user\r\n        mapping (address => uint256) userVotesAgainstWinner; // votes per userplus votes that user has on winner target\r\n    }\r\n    // // Change Request Requirements\r\n    // struct ChangeRequestReq {\r\n    //     uint X;                     // number 1 to 100\r\n    //     uint quorum;                     // number 1 to 100\r\n    //     address contractAddress;\r\n    //     string methodName;\r\n    // }\r\n\r\n    /// Public Mappings\r\n    mapping(bytes32 => ChangeRequest) public changeRequests; // where bytes32 is a unique ID for the changeRequest (hash of target+proposal+now)\r\n    mapping(address=>uint256) public lockedUCGBalance;\r\n    mapping(bytes32 => bytes32) public winnerRequestIdPerTarget; // maps target to winner ChangeRequest key\r\n\r\n    /// Internal Mappings\r\n    mapping(address => UnorderedKeySetLib.Set) internal userParticipations;  // list of user participation on change requests\r\n\r\n    /// Private lists\r\n    UnorderedKeySetLib.Set changeRequestsSet; // list of change requests\r\n\r\n    constructor(address pathAddress) UCChangeable(pathAddress, \"UCGovernance\") public {\r\n        ucgToken = UCGToken(ucPath.getPath(\"UCGToken\"));\r\n        maxParticipation = 7; // initial value\r\n    }\r\n\r\n    /// Public TEST ONLY Functions\r\n    function createTarget(address targetContract, string memory methodName) public pure returns(bytes32) {\r\n        return keccak256(abi.encodePacked(targetContract, methodName));\r\n    }\r\n    function createProposalSetPath(string memory pathName, address newAddress) public pure returns(bytes32) {\r\n        return keccak256(abi.encodePacked(pathName, newAddress));\r\n    }\r\n    function testMapping(bytes32 key) public view returns(bool) {\r\n        bytes32 wrKey = winnerRequestIdPerTarget[key];\r\n        if(wrKey == 0) {\r\n            return true;\r\n        }\r\n        return false;\r\n    }\r\n\r\n    /// Public View Functions\r\n\r\n    function getChangeRequestsCount() public view returns(uint) {\r\n        return changeRequestsSet.count();\r\n    }\r\n    function getChangeRequestKeyAtIndex(uint _index) public view returns(bytes32) {\r\n        return changeRequestsSet.keyAtIndex(_index);\r\n    }\r\n    function changeRequestExits(bytes32 _key) public view returns(bool) {\r\n        return changeRequestsSet.exists(_key);\r\n    }\r\n\r\n    /// Public Functions\r\n    function lock(uint256 _amount) public {\r\n        // transfer to collateral reserves\r\n        require(ucgToken.transferFrom(msg.sender, address(this), _amount), \"Transfer of UCGTokens failed.\");\r\n        // credit collateral balance to user\r\n        lockedUCGBalance[msg.sender] = lockedUCGBalance[msg.sender].add(_amount);\r\n\r\n        emit Locked(msg.sender, _amount);\r\n    }\r\n    function unlock(uint256 _amount) public {\r\n        // debit amount from user lockedUCGBalance (it will fail if not enough balance)\r\n        lockedUCGBalance[msg.sender] = lockedUCGBalance[msg.sender].sub(_amount, \"Not enough balance\");\r\n        // transfer UCG to user\r\n        require(ucgToken.transfer(msg.sender, _amount), \"Transfer of UCGTokens failed.\");\r\n        // to go over the loop and delete votes\r\n        // check how many requests user is participating already\r\n        UnorderedKeySetLib.Set storage p = userParticipations[msg.sender];\r\n        for( uint i = 0; i < p.count(); i++) {\r\n            reduceVoteOnChangeRequest(p.keyAtIndex(i), _amount);\r\n        }\r\n\r\n        emit Unlocked(msg.sender, _amount);\r\n    }\r\n\r\n    function newChangeRequest(bytes32 _target, bytes32 _proposal, uint256 _safeDelay, uint256 _UIPNumber, string memory _notes) public {\r\n        bytes32 crID = keccak256(abi.encodePacked(_target, _proposal, now));\r\n        changeRequestsSet.insert(crID); // Note that this will fail automatically if the key already exists.\r\n\r\n        changeRequests[crID] = ChangeRequest({\r\n            target: _target,\r\n            proposal: _proposal,\r\n            safeDelay: _safeDelay,\r\n            status: CRStatus.PendingApproval,\r\n            createBy: msg.sender,\r\n            createdOn: now,\r\n            UIPNumber: _UIPNumber,\r\n            notes: _notes,\r\n            votes: 0,\r\n            votesAgainstWinner: 0\r\n        });\r\n\r\n        emit NewChangeRequest(_target, _proposal, msg.sender, _UIPNumber, _notes);\r\n    }\r\n\r\n    function voteOnChangeRequest(bytes32 _key) public {\r\n        voteOnChangeRequest(_key, lockedUCGBalance[msg.sender]);\r\n    }\r\n    function voteOnChangeRequest(bytes32 _key, uint256 _amount) public {\r\n        // require vote > 0\r\n        require(_amount > 0, \"Invalid amount\"); // see link and test https://ethereum.stackexchange.com/q/33832/20639\r\n        // check if change request exist\r\n        require(changeRequestsSet.exists(_key), \"ChangeRequest doesn't exist\");\r\n        // check if amount is not higher than locked UCGs\r\n        require(_amount <= lockedUCGBalance[msg.sender], \"Not enough balance to vote\");\r\n        // check how many requests user is participating already\r\n        UnorderedKeySetLib.Set storage p = userParticipations[msg.sender];\r\n        // check if is updating vote\r\n        if(!p.exists(_key)) {\r\n            // if doesn't exist need to check if there is room to add\r\n            require(p.count() <= maxParticipation, \"Max participation reached\");\r\n            p.insert(_key);\r\n        }\r\n        // add votes to request\r\n        ChangeRequest storage cr = changeRequests[_key];\r\n        // check if there is already a vote from this user\r\n        uint256 currentVotes = cr.userVotes[msg.sender];\r\n        uint256 currentVotesAgainstWinner = cr.userVotesAgainstWinner[msg.sender];\r\n        if(currentVotes > 0)\r\n        {\r\n            cr.votes = cr.votes.sub(currentVotes);\r\n            cr.votesAgainstWinner = cr.votesAgainstWinner.sub(currentVotesAgainstWinner);\r\n        }\r\n        cr.userVotes[msg.sender] = _amount;\r\n        cr.userVotesAgainstWinner[msg.sender] = _amount;\r\n        cr.votes = cr.votes.add(_amount);\r\n        cr.votesAgainstWinner = cr.votesAgainstWinner.add(_amount);\r\n\r\n        //// add votes against winner\r\n        uint256 wv = 0;\r\n        // make sure current request is not winner request\r\n        if(_key != winnerRequestIdPerTarget[cr.target]) {\r\n            // ChangeRequest storage wr = ChangeRequests[winnerRequestIdPerTarget[c.target]]; // locate winner\r\n            // if(wr.target == cr.target) { // check if wr exist (initialized)\r\n            //     uint256 wv = wr.userVotes[msg.sender]; // check if user has voted on winner request\r\n            //     if(wv != 0) {\r\n            //         cr.userVotesAgainstWinner[msg.sender] = cr.userVotesAgainstWinner[msg.sender].add(wv);\r\n            //         cr.votesAgainstWinner = cr.votesAgainstWinner.add(wv);\r\n            //     }\r\n            // }\r\n\r\n            wv = getUserVotesOnWinnerRequest(cr.target);\r\n            if(wv != 0) {\r\n                // if(wv > _amount) { // use this code in case wants to limit winner up to twice that of vote\r\n                //     cr.userVotesAgainstWinner[msg.sender] = cr.userVotesAgainstWinner[msg.sender].add(_amount);\r\n                //     cr.votesAgainstWinner = cr.votesAgainstWinner.add(_amount);\r\n                // } else {\r\n                //     cr.userVotesAgainstWinner[msg.sender] = cr.userVotesAgainstWinner[msg.sender].add(wv);\r\n                //     cr.votesAgainstWinner = cr.votesAgainstWinner.add(wv);\r\n                // }\r\n                cr.userVotesAgainstWinner[msg.sender] = cr.userVotesAgainstWinner[msg.sender].add(wv);\r\n                cr.votesAgainstWinner = cr.votesAgainstWinner.add(wv);\r\n            }\r\n        }\r\n\r\n        emit NewVote(_key, cr.target, _amount, _amount.add(wv), msg.sender);\r\n    }\r\n    function cancelVoteOnChangeRequest(bytes32 _key) public {\r\n        reduceVoteOnChangeRequest(_key, lockedUCGBalance[msg.sender]);\r\n        emit VoteCancelled(_key, msg.sender);\r\n    }\r\n\r\n    /**\r\n     * @dev Verifies if a ChangeRequest is the Winner Request for its target\r\n     * it DOES verify if it beats current winner and DOES not replace it\r\n     * @param _key bytes32 key of the ChangeRequest\r\n     * @return true if it's winner and false if not\r\n     */\r\n    function isWinner(bytes32 _key) public view returns (bool) {\r\n        // check if change request exist\r\n        require(changeRequestsSet.exists(_key), \"ChangeRequest doesn't exist\");\r\n\r\n        ChangeRequest storage cr = changeRequests[_key];\r\n\r\n        bytes32 wrKey = winnerRequestIdPerTarget[cr.target];\r\n\r\n        if(wrKey == 0) {\r\n            return false;\r\n        }\r\n        if(_key == wrKey) {\r\n            return true;\r\n        }\r\n        return false;\r\n    }\r\n\r\n    /**\r\n     * @dev Verifies if a ChangeRequest is the Winner Request for its target\r\n     * and if not it will verify if it beats current winner and replace it\r\n     * @param _key bytes32 key of the ChangeRequest\r\n     * @return true if it's winner and false if not\r\n     */\r\n    function makeWinner(bytes32 _key) public returns (bool) {\r\n        // check if change request exist\r\n        require(changeRequestsSet.exists(_key), \"ChangeRequest doesn't exist\");\r\n\r\n        ChangeRequest storage cr = changeRequests[_key];\r\n\r\n        bool winner;\r\n        bytes32 wrKey = winnerRequestIdPerTarget[cr.target];\r\n        if(wrKey != 0) {\r\n            if(_key == wrKey) {\r\n                return true;\r\n            }\r\n            // if differente, check if it cr can replace winner request (must check here too to prevent change of state if doesn't change)\r\n            if(cr.status != CRStatus.PendingApproval) { // check if it's pending aproval\r\n                return false; // only PendingApproval CRs can become winners\r\n            }\r\n            ChangeRequest storage wr = changeRequests[wrKey]; // locate winner\r\n            if(wr.createdOn > cr.createdOn) { // check if changeRequest came after winnerRequest, otherwise it is expired\r\n                cr.status = CRStatus.Expired;\r\n                return false;\r\n            }\r\n            if(cr.votesAgainstWinner > wr.votes)\r\n            {\r\n                // replace winner\r\n                wr.status = CRStatus.Replaced;\r\n                winner = true;\r\n            }\r\n        } else if(cr.votes >= 300000000*10**18) {\r\n            // if there is no winner, must have at least 300K votes\r\n            winner = true;\r\n            // if differente, check if it can replace winner request\r\n            if(cr.status != CRStatus.PendingApproval) { // check if it's pending aproval\r\n                return false; // only PendingApproval CRs can become winners\r\n            }\r\n        }\r\n        if(winner) {\r\n            // replace winner\r\n            cr.status = CRStatus.Approved;\r\n            cr.safeDelay = cr.safeDelay.add(now); // update safeDelay to reflet a time from approval\r\n            winnerRequestIdPerTarget[cr.target] = _key;\r\n            emit NewWinner(_key, cr.safeDelay);\r\n        }\r\n        return winner;\r\n    }\r\n\r\n    /// Public Auth Methods\r\n    function updateToAppliedStatus(bytes32 _key) public auth {\r\n        // check if change request exist\r\n        require(changeRequestsSet.exists(_key), \"ChangeRequest doesn't exist\");\r\n        ChangeRequest storage cr = changeRequests[_key];\r\n        cr.status = CRStatus.Applied;\r\n\r\n    }\r\n    // method called by UCPath and to be overriden by implemantation contract\r\n    function updatePath(string memory pathName, address pathAddress) public auth {\r\n        bool updated;\r\n        if(keccak256(bytes(pathName)) == keccak256(\"UCGToken\")) {\r\n            ucgToken = UCGToken(pathAddress);\r\n            updated = true;\r\n        }\r\n\r\n        if(updated) {\r\n            emit PathUpdated(pathName, pathAddress);\r\n        }\r\n    }\r\n\r\n    // function isApproved(bytes32 _changeRequestKey) public returns(bool) {\r\n    //     require(changeRequestsSet.exists(_key), \"Change Request not found.\");\r\n    //     ChangeRequest cr = changeRequests[_changeRequestKey];\r\n    //     if(cr.status == 1) {\r\n    //         return true;\r\n    //     }\r\n    //     // check if it's pending aproval\r\n    //     require(cr.status != 0, string(abi.encodePacked(\"Change Request can't be approved because currrent Status: \", cr.status)); // canceled, aplied, expired, closed\r\n    // }\r\n\r\n    /// Private Methods\r\n\r\n    function reduceVoteOnChangeRequest(bytes32 _key, uint256 _amount) private {\r\n        // check if change request exist\r\n        require(changeRequestsSet.exists(_key), \"ChangeRequest doesn't exist\");\r\n        // check if is participating on request\r\n        UnorderedKeySetLib.Set storage p = userParticipations[msg.sender];\r\n        require(p.exists(_key), \"User does not participate on ChangeRequest\");\r\n        // check votes on request\r\n        ChangeRequest storage c = changeRequests[_key];\r\n        uint256 currentVotes = c.userVotes[msg.sender];\r\n        uint256 currentVotesAgainstWinner = c.userVotesAgainstWinner[msg.sender];\r\n        //uint256 computedVotesOnWinner = currentVotesAgainstWinner.sub(currentVotes);\r\n        // check if there will be remaining votes\r\n        if(currentVotes > _amount)\r\n        {\r\n            c.votes = c.votes.sub(_amount);\r\n            c.votesAgainstWinner = c.votesAgainstWinner.sub(_amount);\r\n            c.userVotes[msg.sender] = currentVotes.sub(_amount);\r\n            c.userVotesAgainstWinner[msg.sender] = currentVotesAgainstWinner.sub(_amount);\r\n            // if(computedVotesOnWinner > 0) { // use this code in case wants to limit winner up to twice that of vote\r\n            //     if(_amount > computedVotesOnWinner)\r\n            //     {\r\n            //         c.votesAgainstWinner = c.votesAgainstWinner.sub(computedVotesOnWinner);\r\n            //         c.userVotesAgainstWinner[msg.sender] = c.userVotesAgainstWinner[msg.sender].sub(computedVotesOnWinner);\r\n            //     } else {\r\n            //         uint256 votesToReduce = (computedVotesOnWinner.mul(_amount)).div(currentVotes);\r\n            //         c.votesAgainstWinner = c.votesAgainstWinner.sub(votesToReduce);\r\n            //         c.userVotesAgainstWinner[msg.sender] = c.userVotesAgainstWinner[msg.sender].sub(votesToReduce);\r\n            //     }\r\n            // }\r\n        } else {\r\n            c.votes = c.votes.sub(currentVotes);\r\n            c.votesAgainstWinner = c.votesAgainstWinner.sub(currentVotesAgainstWinner);\r\n            // if 0 votes left, remove participation\r\n            p.remove(_key);\r\n            delete c.userVotes[msg.sender];\r\n            delete c.userVotesAgainstWinner[msg.sender];\r\n        }\r\n\r\n    }\r\n    /**\r\n     * @dev Returns the user votes on the winner request for a specifit target\r\n     *\r\n     * @param _target bytes32 key that represents the target of the change request (hash of contract address + method name)\r\n     * @return number of votes on winner request. returns 0 if no vote is found (0 is default uint256 value)\r\n     */\r\n    function getUserVotesOnWinnerRequest(bytes32 _target) private view returns (uint256) {\r\n        uint256 wv;\r\n        ChangeRequest storage wr = changeRequests[winnerRequestIdPerTarget[_target]]; // locate winner\r\n        if(wr.target == _target) { // check if wr exist (initialized)\r\n            wv = wr.userVotes[msg.sender]; // check if user has voted on winner request\r\n        }\r\n        return wv;\r\n    }\r\n\r\n    // function newChangeRequest(address _contractAddress, string  _functionName, string  _parameters, string _notes, uint256 _UIPNumber) public {\r\n    //     bytes32 key = keccak256(msg.sender, _contractAddress, _functionName, _parameters, _notes, _UIPNumber, block.number);\r\n    //     changeRequestsSet.insert(key); // Note that this will fail automatically if the key already exists.\r\n\r\n    //     changeRequests[key] = ChangeRequest({\r\n    //         contractAddress: _contractAddress,\r\n    //         functionName: _functionName,\r\n    //         parameters: _parameters,\r\n    //         status: \"PendingApproval\",\r\n    //         createBy: msg.sender,\r\n    //         notes: _notes,\r\n    //         UIPNumber: _UIPNumber\r\n    //     });\r\n\r\n    //     emit NewChangeRequest(key, msg.sender, \"addSaleOrder\", _price, _collateral, _expiration);\r\n    // }\r\n\r\n\r\n\r\n    /// Events\r\n    event Locked(address from, uint256 amount);\r\n    event Unlocked(address from, uint256 amount);\r\n    event NewChangeRequest(\r\n        bytes32 target,\r\n        bytes32 proposal,\r\n        address createdBy,\r\n        uint256 UIPNumber,\r\n        string notes\r\n    );\r\n    event VoteCancelled(bytes32 changeRequest, address user);\r\n    event NewVote(bytes32 changeRequest, bytes32 target, uint256 amount, uint256 amountAgaintWinner, address user);\r\n    event NewWinner(bytes32 changeRequest, uint256 safeDelay);\r\n\r\n}",
  "sourcePath": "E:\\JCL\\Webmaster\\GitHub\\UCToken\\UCToken\\contracts\\UCGovernance.sol",
  "compiler": {
    "name": "solc",
    "version": "0.5.7+commit.6da8b019.Emscripten.clang"
  },
  "schemaVersion": "3.0.23",
  "updatedAt": "2020-05-04T02:01:20.917Z",
  "networkType": "ethereum",
  "devdoc": {
    "methods": {
      "isWinner(bytes32)": {
        "details": "Verifies if a ChangeRequest is the Winner Request for its target\r it DOES verify if it beats current winner and DOES not replace it\r",
        "params": {
          "_key": "bytes32 key of the ChangeRequest\r"
        },
        "return": "true if it's winner and false if not\r"
      },
      "makeWinner(bytes32)": {
        "details": "Verifies if a ChangeRequest is the Winner Request for its target\r and if not it will verify if it beats current winner and replace it\r",
        "params": {
          "_key": "bytes32 key of the ChangeRequest\r"
        },
        "return": "true if it's winner and false if not\r"
      }
    }
  },
  "userdoc": {
    "methods": {
      "createTarget(address,string)": {
        "notice": "Public TEST ONLY Functions"
      },
      "getChangeRequestsCount()": {
        "notice": "Public View Functions"
      },
      "lock(uint256)": {
        "notice": "Public Functions"
      },
      "setOwner(address)": {
        "notice": "Public Methods"
      },
      "updateToAppliedStatus(bytes32)": {
        "notice": "Public Auth Methods"
      }
    }
  }
}