{
  "contractName": "UCGovernance",
  "abi": [
    {
      "constant": true,
      "inputs": [
        {
          "name": "",
          "type": "address"
        }
      ],
      "name": "lockedUCGBalance",
      "outputs": [
        {
          "name": "",
          "type": "uint256"
        }
      ],
      "payable": false,
      "stateMutability": "view",
      "type": "function"
    },
    {
      "constant": false,
      "inputs": [
        {
          "name": "_owner",
          "type": "address"
        }
      ],
      "name": "setOwner",
      "outputs": [],
      "payable": false,
      "stateMutability": "nonpayable",
      "type": "function"
    },
    {
      "constant": false,
      "inputs": [
        {
          "name": "_path",
          "type": "address"
        }
      ],
      "name": "setPath",
      "outputs": [],
      "payable": false,
      "stateMutability": "nonpayable",
      "type": "function"
    },
    {
      "constant": true,
      "inputs": [],
      "name": "owner",
      "outputs": [
        {
          "name": "",
          "type": "address"
        }
      ],
      "payable": false,
      "stateMutability": "view",
      "type": "function"
    },
    {
      "constant": true,
      "inputs": [],
      "name": "ucgToken",
      "outputs": [
        {
          "name": "",
          "type": "address"
        }
      ],
      "payable": false,
      "stateMutability": "view",
      "type": "function"
    },
    {
      "constant": true,
      "inputs": [
        {
          "name": "",
          "type": "bytes32"
        }
      ],
      "name": "winnerRequestIdPerTarget",
      "outputs": [
        {
          "name": "",
          "type": "bytes32"
        }
      ],
      "payable": false,
      "stateMutability": "view",
      "type": "function"
    },
    {
      "constant": true,
      "inputs": [],
      "name": "ucPath",
      "outputs": [
        {
          "name": "",
          "type": "address"
        }
      ],
      "payable": false,
      "stateMutability": "view",
      "type": "function"
    },
    {
      "constant": true,
      "inputs": [],
      "name": "maxParticipation",
      "outputs": [
        {
          "name": "",
          "type": "uint256"
        }
      ],
      "payable": false,
      "stateMutability": "view",
      "type": "function"
    },
    {
      "constant": true,
      "inputs": [
        {
          "name": "",
          "type": "bytes32"
        }
      ],
      "name": "changeRequests",
      "outputs": [
        {
          "name": "target",
          "type": "bytes32"
        },
        {
          "name": "proposal",
          "type": "bytes32"
        },
        {
          "name": "safeDelay",
          "type": "uint256"
        },
        {
          "name": "status",
          "type": "uint8"
        },
        {
          "name": "createBy",
          "type": "address"
        },
        {
          "name": "createdOn",
          "type": "uint256"
        },
        {
          "name": "UIPNumber",
          "type": "uint256"
        },
        {
          "name": "notes",
          "type": "string"
        },
        {
          "name": "votes",
          "type": "uint256"
        },
        {
          "name": "votesAgainstWinner",
          "type": "uint256"
        }
      ],
      "payable": false,
      "stateMutability": "view",
      "type": "function"
    },
    {
      "inputs": [
        {
          "name": "pathAddress",
          "type": "address"
        }
      ],
      "payable": false,
      "stateMutability": "nonpayable",
      "type": "constructor"
    },
    {
      "anonymous": false,
      "inputs": [
        {
          "indexed": false,
          "name": "from",
          "type": "address"
        },
        {
          "indexed": false,
          "name": "amount",
          "type": "uint256"
        }
      ],
      "name": "Locked",
      "type": "event"
    },
    {
      "anonymous": false,
      "inputs": [
        {
          "indexed": false,
          "name": "from",
          "type": "address"
        },
        {
          "indexed": false,
          "name": "amount",
          "type": "uint256"
        }
      ],
      "name": "Unlocked",
      "type": "event"
    },
    {
      "anonymous": false,
      "inputs": [
        {
          "indexed": false,
          "name": "target",
          "type": "bytes32"
        },
        {
          "indexed": false,
          "name": "proposal",
          "type": "bytes32"
        },
        {
          "indexed": false,
          "name": "createdBy",
          "type": "address"
        },
        {
          "indexed": false,
          "name": "UIPNumber",
          "type": "uint256"
        },
        {
          "indexed": false,
          "name": "notes",
          "type": "string"
        }
      ],
      "name": "NewChangeRequest",
      "type": "event"
    },
    {
      "anonymous": false,
      "inputs": [
        {
          "indexed": false,
          "name": "changeRequest",
          "type": "bytes32"
        },
        {
          "indexed": false,
          "name": "user",
          "type": "address"
        }
      ],
      "name": "VoteCancelled",
      "type": "event"
    },
    {
      "anonymous": false,
      "inputs": [
        {
          "indexed": false,
          "name": "changeRequest",
          "type": "bytes32"
        },
        {
          "indexed": false,
          "name": "target",
          "type": "bytes32"
        },
        {
          "indexed": false,
          "name": "amount",
          "type": "uint256"
        },
        {
          "indexed": false,
          "name": "amountAgaintWinner",
          "type": "uint256"
        },
        {
          "indexed": false,
          "name": "user",
          "type": "address"
        }
      ],
      "name": "NewVote",
      "type": "event"
    },
    {
      "anonymous": false,
      "inputs": [
        {
          "indexed": false,
          "name": "changeRequest",
          "type": "bytes32"
        },
        {
          "indexed": false,
          "name": "safeDelay",
          "type": "uint256"
        }
      ],
      "name": "NewWinner",
      "type": "event"
    },
    {
      "anonymous": false,
      "inputs": [
        {
          "indexed": false,
          "name": "owner",
          "type": "address"
        }
      ],
      "name": "NewOwner",
      "type": "event"
    },
    {
      "anonymous": false,
      "inputs": [
        {
          "indexed": false,
          "name": "pathAddress",
          "type": "address"
        }
      ],
      "name": "NewPath",
      "type": "event"
    },
    {
      "anonymous": false,
      "inputs": [
        {
          "indexed": false,
          "name": "pathName",
          "type": "string"
        },
        {
          "indexed": false,
          "name": "pathAddress",
          "type": "address"
        }
      ],
      "name": "PathUpdated",
      "type": "event"
    },
    {
      "constant": false,
      "inputs": [
        {
          "name": "_amount",
          "type": "uint256"
        }
      ],
      "name": "lock",
      "outputs": [],
      "payable": false,
      "stateMutability": "nonpayable",
      "type": "function"
    },
    {
      "constant": false,
      "inputs": [
        {
          "name": "_amount",
          "type": "uint256"
        }
      ],
      "name": "unlock",
      "outputs": [],
      "payable": false,
      "stateMutability": "nonpayable",
      "type": "function"
    },
    {
      "constant": false,
      "inputs": [
        {
          "name": "_target",
          "type": "bytes32"
        },
        {
          "name": "_proposal",
          "type": "bytes32"
        },
        {
          "name": "_safeDelay",
          "type": "uint256"
        },
        {
          "name": "_UIPNumber",
          "type": "uint256"
        },
        {
          "name": "_notes",
          "type": "string"
        }
      ],
      "name": "newChangeRequest",
      "outputs": [],
      "payable": false,
      "stateMutability": "nonpayable",
      "type": "function"
    },
    {
      "constant": false,
      "inputs": [
        {
          "name": "_key",
          "type": "bytes32"
        },
        {
          "name": "_amount",
          "type": "uint256"
        }
      ],
      "name": "voteOnChangeRequest",
      "outputs": [],
      "payable": false,
      "stateMutability": "nonpayable",
      "type": "function"
    },
    {
      "constant": false,
      "inputs": [
        {
          "name": "_key",
          "type": "bytes32"
        }
      ],
      "name": "voteOnChangeRequest",
      "outputs": [],
      "payable": false,
      "stateMutability": "nonpayable",
      "type": "function"
    },
    {
      "constant": false,
      "inputs": [
        {
          "name": "_key",
          "type": "bytes32"
        }
      ],
      "name": "cancelVoteOnChangeRequest",
      "outputs": [],
      "payable": false,
      "stateMutability": "nonpayable",
      "type": "function"
    },
    {
      "constant": true,
      "inputs": [
        {
          "name": "_key",
          "type": "bytes32"
        }
      ],
      "name": "changeRequestExits",
      "outputs": [
        {
          "name": "",
          "type": "bool"
        }
      ],
      "payable": false,
      "stateMutability": "view",
      "type": "function"
    },
    {
      "constant": false,
      "inputs": [
        {
          "name": "_key",
          "type": "bytes32"
        }
      ],
      "name": "isWinner",
      "outputs": [
        {
          "name": "",
          "type": "bool"
        }
      ],
      "payable": false,
      "stateMutability": "nonpayable",
      "type": "function"
    },
    {
      "constant": false,
      "inputs": [
        {
          "name": "_key",
          "type": "bytes32"
        }
      ],
      "name": "updateToAppliedStatus",
      "outputs": [],
      "payable": false,
      "stateMutability": "nonpayable",
      "type": "function"
    },
    {
      "constant": false,
      "inputs": [
        {
          "name": "pathName",
          "type": "string"
        },
        {
          "name": "pathAddress",
          "type": "address"
        }
      ],
      "name": "updatePath",
      "outputs": [],
      "payable": false,
      "stateMutability": "nonpayable",
      "type": "function"
    }
  ],
  "bytecode": "0x60806040523480156200001157600080fd5b506040516020806200303b833981018060405260208110156200003357600080fd5b8101908080519060200190929190505050806040518060400160405280600c81526020017f5543476f7665726e616e63650000000000000000000000000000000000000000815250336000806101000a81548173ffffffffffffffffffffffffffffffffffffffff021916908373ffffffffffffffffffffffffffffffffffffffff1602179055507f3edd90e7770f06fafde38004653b33870066c33bfc923ff6102acd601f85dfbc33604051808273ffffffffffffffffffffffffffffffffffffffff1673ffffffffffffffffffffffffffffffffffffffff16815260200191505060405180910390a160405180807f55435061746800000000000000000000000000000000000000000000000000008152506006019050604051809103902081805190602001201415620001aa5730600160006101000a81548173ffffffffffffffffffffffffffffffffffffffff021916908373ffffffffffffffffffffffffffffffffffffffff160217905550620001ec565b81600160006101000a81548173ffffffffffffffffffffffffffffffffffffffff021916908373ffffffffffffffffffffffffffffffffffffffff1602179055505b5050600160009054906101000a900473ffffffffffffffffffffffffffffffffffffffff1673ffffffffffffffffffffffffffffffffffffffff1663af61c6a66040518163ffffffff1660e01b81526004018080602001828103825260088152602001807f554347546f6b656e00000000000000000000000000000000000000000000000081525060200191505060206040518083038186803b1580156200029357600080fd5b505afa158015620002a8573d6000803e3d6000fd5b505050506040513d6020811015620002bf57600080fd5b8101908080519060200190929190505050600360006101000a81548173ffffffffffffffffffffffffffffffffffffffff021916908373ffffffffffffffffffffffffffffffffffffffff160217905550600760028190555050612d1280620003296000396000f3fe608060405234801561001057600080fd5b50600436106101215760003560e01c80638b702050116100ad578063d72cf9d011610071578063d72cf9d0146105e8578063dd46706414610616578063deae3b1e14610644578063df71076e1461068e578063f41144a3146106ac57610121565b80638b702050146104945780638da5cb5b146104cc5780638e4ad5f314610516578063941fea1a1461055c578063b29ff90c146105a657610121565b80633b955177116100f45780633b955177146102d3578063599b4fbc146103175780636198e339146103f25780636dfec5841461042057806377c75d101461044e57610121565b8063109ac5f01461012657806312080b971461017e57806313af403514610261578063281bfe51146102a5575b600080fd5b6101686004803603602081101561013c57600080fd5b81019080803573ffffffffffffffffffffffffffffffffffffffff1690602001909291905050506107cc565b6040518082815260200191505060405180910390f35b61025f600480360360a081101561019457600080fd5b8101908080359060200190929190803590602001909291908035906020019092919080359060200190929190803590602001906401000000008111156101d957600080fd5b8201836020820111156101eb57600080fd5b8035906020019184600183028401116401000000008311171561020d57600080fd5b91908080601f016020809104026020016040519081016040528093929190818152602001838380828437600081840152601f19601f8201169050808301925050505050505091929192905050506107e4565b005b6102a36004803603602081101561027757600080fd5b81019080803573ffffffffffffffffffffffffffffffffffffffff169060200190929190505050610a78565b005b6102d1600480360360208110156102bb57600080fd5b8101908080359060200190929190505050610b99565b005b610315600480360360208110156102e957600080fd5b81019080803573ffffffffffffffffffffffffffffffffffffffff169060200190929190505050610cdb565b005b6103f06004803603604081101561032d57600080fd5b810190808035906020019064010000000081111561034a57600080fd5b82018360208201111561035c57600080fd5b8035906020019184600183028401116401000000008311171561037e57600080fd5b91908080601f016020809104026020016040519081016040528093929190818152602001838380828437600081840152601f19601f820116905080830192505050505050509192919290803573ffffffffffffffffffffffffffffffffffffffff169060200190929190505050610dfd565b005b61041e6004803603602081101561040857600080fd5b8101908080359060200190929190505050610fe0565b005b61044c6004803603602081101561043657600080fd5b81019080803590602001909291905050506112f4565b005b61047a6004803603602081101561046457600080fd5b81019080803590602001909291905050506113ab565b604051808215151515815260200191505060405180910390f35b6104ca600480360360408110156104aa57600080fd5b8101908080359060200190929190803590602001909291905050506115ff565b005b6104d4611be9565b604051808273ffffffffffffffffffffffffffffffffffffffff1673ffffffffffffffffffffffffffffffffffffffff16815260200191505060405180910390f35b6105426004803603602081101561052c57600080fd5b8101908080359060200190929190505050611c0e565b604051808215151515815260200191505060405180910390f35b610564611c2b565b604051808273ffffffffffffffffffffffffffffffffffffffff1673ffffffffffffffffffffffffffffffffffffffff16815260200191505060405180910390f35b6105d2600480360360208110156105bc57600080fd5b8101908080359060200190929190505050611c51565b6040518082815260200191505060405180910390f35b610614600480360360208110156105fe57600080fd5b8101908080359060200190929190505050611c69565b005b6106426004803603602081101561062c57600080fd5b8101908080359060200190929190505050611cb5565b005b61064c611f42565b604051808273ffffffffffffffffffffffffffffffffffffffff1673ffffffffffffffffffffffffffffffffffffffff16815260200191505060405180910390f35b610696611f68565b6040518082815260200191505060405180910390f35b6106d8600480360360208110156106c257600080fd5b8101908080359060200190929190505050611f6e565b604051808b81526020018a81526020018981526020018860068111156106fa57fe5b60ff1681526020018773ffffffffffffffffffffffffffffffffffffffff1673ffffffffffffffffffffffffffffffffffffffff16815260200186815260200185815260200180602001848152602001838152602001828103825285818151815260200191508051906020019080838360005b8381101561078857808201518184015260208101905061076d565b50505050905090810190601f1680156107b55780820380516001836020036101000a031916815260200191505b509b50505050505050505050505060405180910390f35b60056020528060005260406000206000915090505481565b600085854260405160200180848152602001838152602001828152602001935050505060405160208183030381529060405280519060200120905061083381600861208790919063ffffffff16565b6040518061014001604052808781526020018681526020018581526020016000600681111561085e57fe5b81526020013373ffffffffffffffffffffffffffffffffffffffff1681526020014281526020018481526020018381526020016000815260200160008152506004600083815260200190815260200160002060008201518160000155602082015181600101556040820151816002015560608201518160030160006101000a81548160ff021916908360068111156108f257fe5b021790555060808201518160030160016101000a81548173ffffffffffffffffffffffffffffffffffffffff021916908373ffffffffffffffffffffffffffffffffffffffff16021790555060a0820151816004015560c0820151816005015560e082015181600601908051906020019061096e929190612b34565b50610100820151816007015561012082015181600801559050507f380e4c577af97af2f5948fcdc1ae2ff0b329b5eb160eb7e664ef6c8b824779be8686338686604051808681526020018581526020018473ffffffffffffffffffffffffffffffffffffffff1673ffffffffffffffffffffffffffffffffffffffff16815260200183815260200180602001828103825283818151815260200191508051906020019080838360005b83811015610a32578082015181840152602081019050610a17565b50505050905090810190601f168015610a5f5780820380516001836020036101000a031916815260200191505b50965050505050505060405180910390a1505050505050565b610a8133612190565b610af3576040517f08c379a000000000000000000000000000000000000000000000000000000000815260040180806020018281038252600e8152602001807f4e6f7420617574686f72697a656400000000000000000000000000000000000081525060200191505060405180910390fd5b806000806101000a81548173ffffffffffffffffffffffffffffffffffffffff021916908373ffffffffffffffffffffffffffffffffffffffff1602179055507f3edd90e7770f06fafde38004653b33870066c33bfc923ff6102acd601f85dfbc81604051808273ffffffffffffffffffffffffffffffffffffffff1673ffffffffffffffffffffffffffffffffffffffff16815260200191505060405180910390a150565b610ba233612190565b610c14576040517f08c379a000000000000000000000000000000000000000000000000000000000815260040180806020018281038252600e8152602001807f4e6f7420617574686f72697a656400000000000000000000000000000000000081525060200191505060405180910390fd5b610c2881600861238290919063ffffffff16565b610c9a576040517f08c379a000000000000000000000000000000000000000000000000000000000815260040180806020018281038252601b8152602001807f4368616e67655265717565737420646f65736e2774206578697374000000000081525060200191505060405180910390fd5b600060046000838152602001908152602001600020905060028160030160006101000a81548160ff02191690836006811115610cd257fe5b02179055505050565b610ce433612190565b610d56576040517f08c379a000000000000000000000000000000000000000000000000000000000815260040180806020018281038252600e8152602001807f4e6f7420617574686f72697a656400000000000000000000000000000000000081525060200191505060405180910390fd5b80600160006101000a81548173ffffffffffffffffffffffffffffffffffffffff021916908373ffffffffffffffffffffffffffffffffffffffff1602179055507f06996b58b8ff542ff91d7a929369bb5d93940639f7849f15d0f95923d1d1705181604051808273ffffffffffffffffffffffffffffffffffffffff1673ffffffffffffffffffffffffffffffffffffffff16815260200191505060405180910390a150565b610e0633612190565b610e78576040517f08c379a000000000000000000000000000000000000000000000000000000000815260040180806020018281038252600e8152602001807f4e6f7420617574686f72697a656400000000000000000000000000000000000081525060200191505060405180910390fd5b600060405180807f554347546f6b656e0000000000000000000000000000000000000000000000008152506008019050604051809103902083805190602001201415610f045781600360006101000a81548173ffffffffffffffffffffffffffffffffffffffff021916908373ffffffffffffffffffffffffffffffffffffffff160217905550600190505b8015610fdb577f0bf1be166f5b263d06191a42d6ab01a3333b6da101cf1cc7bba6f07a70dd2ff5838360405180806020018373ffffffffffffffffffffffffffffffffffffffff1673ffffffffffffffffffffffffffffffffffffffff168152602001828103825284818151815260200191508051906020019080838360005b83811015610f9f578082015181840152602081019050610f84565b50505050905090810190601f168015610fcc5780820380516001836020036101000a031916815260200191505b50935050505060405180910390a15b505050565b611069816040518060400160405280601281526020017f4e6f7420656e6f7567682062616c616e63650000000000000000000000000000815250600560003373ffffffffffffffffffffffffffffffffffffffff1673ffffffffffffffffffffffffffffffffffffffff168152602001908152602001600020546123d69092919063ffffffff16565b600560003373ffffffffffffffffffffffffffffffffffffffff1673ffffffffffffffffffffffffffffffffffffffff16815260200190815260200160002081905550600360009054906101000a900473ffffffffffffffffffffffffffffffffffffffff1673ffffffffffffffffffffffffffffffffffffffff1663a9059cbb33836040518363ffffffff1660e01b8152600401808373ffffffffffffffffffffffffffffffffffffffff1673ffffffffffffffffffffffffffffffffffffffff16815260200182815260200192505050602060405180830381600087803b15801561115557600080fd5b505af1158015611169573d6000803e3d6000fd5b505050506040513d602081101561117f57600080fd5b8101908080519060200190929190505050611202576040517f08c379a000000000000000000000000000000000000000000000000000000000815260040180806020018281038252601d8152602001807f5472616e73666572206f6620554347546f6b656e73206661696c65642e00000081525060200191505060405180910390fd5b6000600760003373ffffffffffffffffffffffffffffffffffffffff1673ffffffffffffffffffffffffffffffffffffffff168152602001908152602001600020905060008090505b61125482612496565b8110156112845761127761127182846124a790919063ffffffff16565b846124cb565b808060010191505061124b565b507f0f0bc5b519ddefdd8e5f9e6423433aa2b869738de2ae34d58ebc796fc749fa0d3383604051808373ffffffffffffffffffffffffffffffffffffffff1673ffffffffffffffffffffffffffffffffffffffff1681526020018281526020019250505060405180910390a15050565b61133d81600560003373ffffffffffffffffffffffffffffffffffffffff1673ffffffffffffffffffffffffffffffffffffffff168152602001908152602001600020546124cb565b7ff96f266369d57540bfa6379f9e67f64522187dd97112263328c2a62f89d82db38133604051808381526020018273ffffffffffffffffffffffffffffffffffffffff1673ffffffffffffffffffffffffffffffffffffffff1681526020019250505060405180910390a150565b60006113c182600861238290919063ffffffff16565b611433576040517f08c379a000000000000000000000000000000000000000000000000000000000815260040180806020018281038252601b8152602001807f4368616e67655265717565737420646f65736e2774206578697374000000000081525060200191505060405180910390fd5b60006004600084815260200190815260200160002090506000600660008360000154815260200190815260200160002054905080841415611479576001925050506115fa565b6000600681111561148657fe5b8260030160009054906101000a900460ff1660068111156114a357fe5b146114b3576000925050506115fa565b600060046000838152602001908152602001600020905082600401548160040154111561150c5760048360030160006101000a81548160ff021916908360068111156114fb57fe5b0217905550600093505050506115fa565b8060070154836008015411156115f25760038160030160006101000a81548160ff0219169083600681111561153d57fe5b021790555060018360030160006101000a81548160ff0219169083600681111561156357fe5b021790555061157f42846002015461287e90919063ffffffff16565b8360020181905550846006600085600001548152602001908152602001600020819055507fd417684c506cd47aed27f15fed18118eb416cc70bc954b0f4c80c39dc9861e92858460020154604051808381526020018281526020019250505060405180910390a1600193505050506115fa565b600093505050505b919050565b60008111611675576040517f08c379a000000000000000000000000000000000000000000000000000000000815260040180806020018281038252600e8152602001807f496e76616c696420616d6f756e7400000000000000000000000000000000000081525060200191505060405180910390fd5b61168982600861238290919063ffffffff16565b6116fb576040517f08c379a000000000000000000000000000000000000000000000000000000000815260040180806020018281038252601b8152602001807f4368616e67655265717565737420646f65736e2774206578697374000000000081525060200191505060405180910390fd5b600560003373ffffffffffffffffffffffffffffffffffffffff1673ffffffffffffffffffffffffffffffffffffffff168152602001908152602001600020548111156117b0576040517f08c379a000000000000000000000000000000000000000000000000000000000815260040180806020018281038252601a8152602001807f4e6f7420656e6f7567682062616c616e636520746f20766f746500000000000081525060200191505060405180910390fd5b6000600760003373ffffffffffffffffffffffffffffffffffffffff1673ffffffffffffffffffffffffffffffffffffffff1681526020019081526020016000209050611806838261238290919063ffffffff16565b61189e5760025461181682612496565b111561188a576040517f08c379a00000000000000000000000000000000000000000000000000000000081526004018080602001828103825260198152602001807f4d61782070617274696369706174696f6e20726561636865640000000000000081525060200191505060405180910390fd5b61189d838261208790919063ffffffff16565b5b600060046000858152602001908152602001600020905060008160090160003373ffffffffffffffffffffffffffffffffffffffff1673ffffffffffffffffffffffffffffffffffffffff168152602001908152602001600020549050600082600a0160003373ffffffffffffffffffffffffffffffffffffffff1673ffffffffffffffffffffffffffffffffffffffff16815260200190815260200160002054905060008211156119895761196182846007015461290690919063ffffffff16565b836007018190555061198081846008015461290690919063ffffffff16565b83600801819055505b848360090160003373ffffffffffffffffffffffffffffffffffffffff1673ffffffffffffffffffffffffffffffffffffffff168152602001908152602001600020819055508483600a0160003373ffffffffffffffffffffffffffffffffffffffff1673ffffffffffffffffffffffffffffffffffffffff16815260200190815260200160002081905550611a2c85846007015461287e90919063ffffffff16565b8360070181905550611a4b85846008015461287e90919063ffffffff16565b836008018190555060008090506006600085600001548152602001908152602001600020548714611b4757611a838460000154612950565b905060008114611b4657611ae18185600a0160003373ffffffffffffffffffffffffffffffffffffffff1673ffffffffffffffffffffffffffffffffffffffff1681526020019081526020016000205461287e90919063ffffffff16565b84600a0160003373ffffffffffffffffffffffffffffffffffffffff1673ffffffffffffffffffffffffffffffffffffffff16815260200190815260200160002081905550611b3d81856008015461287e90919063ffffffff16565b84600801819055505b5b7fce203b43909080aaaa49fddf215e7d7c4e5cd0fb102f4c8cd18485e9e15d007387856000015488611b82858b61287e90919063ffffffff16565b33604051808681526020018581526020018481526020018381526020018273ffffffffffffffffffffffffffffffffffffffff1673ffffffffffffffffffffffffffffffffffffffff1681526020019550505050505060405180910390a150505050505050565b6000809054906101000a900473ffffffffffffffffffffffffffffffffffffffff1681565b6000611c2482600861238290919063ffffffff16565b9050919050565b600360009054906101000a900473ffffffffffffffffffffffffffffffffffffffff1681565b60066020528060005260406000206000915090505481565b611cb281600560003373ffffffffffffffffffffffffffffffffffffffff1673ffffffffffffffffffffffffffffffffffffffff168152602001908152602001600020546115ff565b50565b600360009054906101000a900473ffffffffffffffffffffffffffffffffffffffff1673ffffffffffffffffffffffffffffffffffffffff166323b872dd3330846040518463ffffffff1660e01b8152600401808473ffffffffffffffffffffffffffffffffffffffff1673ffffffffffffffffffffffffffffffffffffffff1681526020018373ffffffffffffffffffffffffffffffffffffffff1673ffffffffffffffffffffffffffffffffffffffff1681526020018281526020019350505050602060405180830381600087803b158015611d9257600080fd5b505af1158015611da6573d6000803e3d6000fd5b505050506040513d6020811015611dbc57600080fd5b8101908080519060200190929190505050611e3f576040517f08c379a000000000000000000000000000000000000000000000000000000000815260040180806020018281038252601d8152602001807f5472616e73666572206f6620554347546f6b656e73206661696c65642e00000081525060200191505060405180910390fd5b611e9181600560003373ffffffffffffffffffffffffffffffffffffffff1673ffffffffffffffffffffffffffffffffffffffff1681526020019081526020016000205461287e90919063ffffffff16565b600560003373ffffffffffffffffffffffffffffffffffffffff1673ffffffffffffffffffffffffffffffffffffffff168152602001908152602001600020819055507f9f1ec8c880f76798e7b793325d625e9b60e4082a553c98f42b6cda368dd600083382604051808373ffffffffffffffffffffffffffffffffffffffff1673ffffffffffffffffffffffffffffffffffffffff1681526020018281526020019250505060405180910390a150565b600160009054906101000a900473ffffffffffffffffffffffffffffffffffffffff1681565b60025481565b60046020528060005260406000206000915090508060000154908060010154908060020154908060030160009054906101000a900460ff16908060030160019054906101000a900473ffffffffffffffffffffffffffffffffffffffff1690806004015490806005015490806006018054600181600116156101000203166002900480601f0160208091040260200160405190810160405280929190818152602001828054600181600116156101000203166002900480156120715780601f1061204657610100808354040283529160200191612071565b820191906000526020600020905b81548152906001019060200180831161205457829003601f168201915b505050505090806007015490806008015490508a565b6000801b8114156120e3576040517f08c379a0000000000000000000000000000000000000000000000000000000008152600401808060200182810382526028815260200180612c2b6028913960400191505060405180910390fd5b6120ed8282612382565b15612143576040517f08c379a0000000000000000000000000000000000000000000000000000000008152600401808060200182810382526035815260200180612c886035913960400191505060405180910390fd5b600182600101829080600181540180825580915050906001820390600052602060002001600090919290919091505503826000016000838152602001908152602001600020819055505050565b60003073ffffffffffffffffffffffffffffffffffffffff168273ffffffffffffffffffffffffffffffffffffffff1614156121cf576001905061237d565b6000809054906101000a900473ffffffffffffffffffffffffffffffffffffffff1673ffffffffffffffffffffffffffffffffffffffff168273ffffffffffffffffffffffffffffffffffffffff16141561222d576001905061237d565b612236826129d8565b1561237c57600073ffffffffffffffffffffffffffffffffffffffff16600160009054906101000a900473ffffffffffffffffffffffffffffffffffffffff1673ffffffffffffffffffffffffffffffffffffffff16141561229b576000905061237d565b600160009054906101000a900473ffffffffffffffffffffffffffffffffffffffff1673ffffffffffffffffffffffffffffffffffffffff16638b1b925f836040518263ffffffff1660e01b8152600401808273ffffffffffffffffffffffffffffffffffffffff1673ffffffffffffffffffffffffffffffffffffffff16815260200191505060206040518083038186803b15801561233a57600080fd5b505afa15801561234e573d6000803e3d6000fd5b505050506040513d602081101561236457600080fd5b8101908080519060200190929190505050905061237d565b5b919050565b6000808360010180549050141561239c57600090506123d0565b818360010184600001600085815260200190815260200160002054815481106123c157fe5b90600052602060002001541490505b92915050565b6000838311158290612483576040517f08c379a00000000000000000000000000000000000000000000000000000000081526004018080602001828103825283818151815260200191508051906020019080838360005b8381101561244857808201518184015260208101905061242d565b50505050905090810190601f1680156124755780820380516001836020036101000a031916815260200191505b509250505060405180910390fd5b5060008385039050809150509392505050565b600081600101805490509050919050565b60008260010182815481106124b857fe5b9060005260206000200154905092915050565b6124df82600861238290919063ffffffff16565b612551576040517f08c379a000000000000000000000000000000000000000000000000000000000815260040180806020018281038252601b8152602001807f4368616e67655265717565737420646f65736e2774206578697374000000000081525060200191505060405180910390fd5b6000600760003373ffffffffffffffffffffffffffffffffffffffff1673ffffffffffffffffffffffffffffffffffffffff16815260200190815260200160002090506125a7838261238290919063ffffffff16565b6125fc576040517f08c379a000000000000000000000000000000000000000000000000000000000815260040180806020018281038252602a815260200180612cbd602a913960400191505060405180910390fd5b600060046000858152602001908152602001600020905060008160090160003373ffffffffffffffffffffffffffffffffffffffff1673ffffffffffffffffffffffffffffffffffffffff168152602001908152602001600020549050600082600a0160003373ffffffffffffffffffffffffffffffffffffffff1673ffffffffffffffffffffffffffffffffffffffff1681526020019081526020016000205490508482111561279a576126be85846007015461290690919063ffffffff16565b83600701819055506126dd85846008015461290690919063ffffffff16565b83600801819055506126f8858361290690919063ffffffff16565b8360090160003373ffffffffffffffffffffffffffffffffffffffff1673ffffffffffffffffffffffffffffffffffffffff16815260200190815260200160002081905550612750858261290690919063ffffffff16565b83600a0160003373ffffffffffffffffffffffffffffffffffffffff1673ffffffffffffffffffffffffffffffffffffffff16815260200190815260200160002081905550612876565b6127b182846007015461290690919063ffffffff16565b83600701819055506127d081846008015461290690919063ffffffff16565b83600801819055506127eb8685612a2390919063ffffffff16565b8260090160003373ffffffffffffffffffffffffffffffffffffffff1673ffffffffffffffffffffffffffffffffffffffff1681526020019081526020016000206000905582600a0160003373ffffffffffffffffffffffffffffffffffffffff1673ffffffffffffffffffffffffffffffffffffffff168152602001908152602001600020600090555b505050505050565b6000808284019050838110156128fc576040517f08c379a000000000000000000000000000000000000000000000000000000000815260040180806020018281038252601b8152602001807f536166654d6174683a206164646974696f6e206f766572666c6f77000000000081525060200191505060405180910390fd5b8091505092915050565b600061294883836040518060400160405280601e81526020017f536166654d6174683a207375627472616374696f6e206f766572666c6f7700008152506123d6565b905092915050565b60008060006004600060066000878152602001908152602001600020548152602001908152602001600020905083816000015414156129ce578060090160003373ffffffffffffffffffffffffffffffffffffffff1673ffffffffffffffffffffffffffffffffffffffff1681526020019081526020016000205491505b8192505050919050565b6000807fc5d2460186f7233c927e7db2dcc703c0e500b653ca82273b7bfad8045d85a47060001b90506000833f90506000801b8114158015612a1a5750818114155b92505050919050565b612a2d8282612382565b612a82576040517f08c379a0000000000000000000000000000000000000000000000000000000008152600401808060200182810382526035815260200180612c536035913960400191505060405180910390fd5b6000826001016001612a9385612496565b0381548110612a9e57fe5b906000526020600020015490506000836000016000848152602001908152602001600020549050808460000160008481526020019081526020016000208190555081846001018281548110612aef57fe5b90600052602060002001819055508360000160008481526020019081526020016000206000905583600101805480919060019003612b2d9190612bb4565b5050505050565b828054600181600116156101000203166002900490600052602060002090601f016020900481019282601f10612b7557805160ff1916838001178555612ba3565b82800160010185558215612ba3579182015b82811115612ba2578251825591602001919060010190612b87565b5b509050612bb09190612be0565b5090565b815481835581811115612bdb57818360005260206000209182019101612bda9190612c05565b5b505050565b612c0291905b80821115612bfe576000816000905550600101612be6565b5090565b90565b612c2791905b80821115612c23576000816000905550600101612c0b565b5090565b9056fe556e6f7264657265644b65795365742831303029202d204b65792063616e6e6f7420626520307830556e6f7264657265644b65795365742831303229202d204b657920646f6573206e6f7420657869737420696e20746865207365742e556e6f7264657265644b65795365742831303129202d204b657920616c72656164792065786973747320696e20746865207365742e5573657220646f6573206e6f74207061727469636970617465206f6e204368616e676552657175657374a165627a7a72305820470032ed0d6641aa584d0e7b50f37a658dcf239a26f6e4b234413330abacfc100029",
  "source": "pragma solidity >=0.4.21 <0.6.2;\r\n\r\nimport \"@openzeppelin/contracts/math/SafeMath.sol\";\r\nimport \"./libraries/UnorderedKeySet.sol\";\r\nimport \"./UCGToken.sol\";\r\nimport \"./UCChangeable.sol\";\r\n\r\ncontract UCGovernance is UCChangeable {\r\n    using SafeMath for uint256;\r\n    using UnorderedKeySetLib for UnorderedKeySetLib.Set;\r\n\r\n    /// Public Properties\r\n    //address public ucgTokenAddress;\r\n    uint256 public maxParticipation; // max number of active requests a user can vote at the same time\r\n\r\n    /// Contract Navigation Properties\r\n    UCGToken public ucgToken;\r\n\r\n    /// Enums\r\n    enum CRStatus {\r\n        PendingApproval,                    // Default value\r\n        Approved,                           // Winner pending use\r\n        Applied,                            // already used/completed\r\n        Replaced,                           // was an winner but has been replaced\r\n        Expired,                            // CR has already expired\r\n        Closed,                             //\r\n        Cancelled                           // CR has been cancelled\r\n    }\r\n\r\n    /// Objects (Structs)\r\n    struct ChangeRequest {\r\n        // address contractAddress;\r\n        // string functionName;\r\n        // string parameters;\r\n        // string notes;\r\n        bytes32 target; // hash of the proposal (contractAddress, method name)\r\n        bytes32 proposal; // hash of the proposal (parameter values)\r\n        uint256 safeDelay; // time the request need to wait after its approved before its applied\r\n        CRStatus status;\r\n        address createBy; // address of msg.sender that created the cr\r\n        uint256 createdOn; // time the cr was created\r\n        uint256 UIPNumber;\r\n        string notes; // in case of no UIP info\r\n        uint256 votes; // total votes\r\n        uint256 votesAgainstWinner; // total votes plus votes that user has on winner target\r\n        mapping (address => uint256) userVotes; // votes per user\r\n        mapping (address => uint256) userVotesAgainstWinner; // votes per userplus votes that user has on winner target\r\n    }\r\n    // // Change Request Requirements\r\n    // struct ChangeRequestReq {\r\n    //     uint X;                     // number 1 to 100\r\n    //     uint quorum;                     // number 1 to 100\r\n    //     address contractAddress;\r\n    //     string methodName;\r\n    // }\r\n\r\n    /// Public Mappings\r\n    mapping(bytes32 => ChangeRequest) public changeRequests; // where bytes32 is a unique ID for the changeRequest (hash of the proposal + now)\r\n    mapping(address=>uint256) public lockedUCGBalance;\r\n    mapping(bytes32 => bytes32) public winnerRequestIdPerTarget; // maps target to winner ChangeRequest key\r\n\r\n    /// Internal Mappings\r\n    mapping(address => UnorderedKeySetLib.Set) internal userParticipations;  // list of user participation on change requests\r\n\r\n    /// Private lists\r\n    UnorderedKeySetLib.Set changeRequestsSet; // list of change requests\r\n\r\n    constructor(address pathAddress) UCChangeable(pathAddress, \"UCGovernance\") public {\r\n        ucgToken = UCGToken(ucPath.getPath(\"UCGToken\"));\r\n        maxParticipation = 7; // initial value\r\n    }\r\n\r\n    /// Public Functions\r\n\r\n    function lock(uint256 _amount) public {\r\n        // transfer to collateral reserves\r\n        require(ucgToken.transferFrom(msg.sender, address(this), _amount), \"Transfer of UCGTokens failed.\");\r\n        // credit collateral balance to user\r\n        lockedUCGBalance[msg.sender] = lockedUCGBalance[msg.sender].add(_amount);\r\n\r\n        emit Locked(msg.sender, _amount);\r\n    }\r\n    function unlock(uint256 _amount) public {\r\n        // debit amount from user lockedUCGBalance (it will fail if not enough balance)\r\n        lockedUCGBalance[msg.sender] = lockedUCGBalance[msg.sender].sub(_amount, \"Not enough balance\");\r\n        // transfer UCG to user\r\n        require(ucgToken.transfer(msg.sender, _amount), \"Transfer of UCGTokens failed.\");\r\n        // to go over the loop and delete votes\r\n        // check how many requests user is participating already\r\n        UnorderedKeySetLib.Set storage p = userParticipations[msg.sender];\r\n        for( uint i = 0; i < p.count(); i++) {\r\n            reduceVoteOnChangeRequest(p.keyAtIndex(i), _amount);\r\n        }\r\n\r\n        emit Unlocked(msg.sender, _amount);\r\n    }\r\n\r\n    function newChangeRequest(bytes32 _target, bytes32 _proposal, uint256 _safeDelay, uint256 _UIPNumber, string memory _notes) public {\r\n        bytes32 crID = keccak256(abi.encodePacked(_target, _proposal, now));\r\n        changeRequestsSet.insert(crID); // Note that this will fail automatically if the key already exists.\r\n\r\n        changeRequests[crID] = ChangeRequest({\r\n            target: _target,\r\n            proposal: _proposal,\r\n            safeDelay: _safeDelay,\r\n            status: CRStatus.PendingApproval,\r\n            createBy: msg.sender,\r\n            createdOn: now,\r\n            UIPNumber: _UIPNumber,\r\n            notes: _notes,\r\n            votes: 0,\r\n            votesAgainstWinner: 0\r\n        });\r\n\r\n        emit NewChangeRequest(_target, _proposal, msg.sender, _UIPNumber, _notes);\r\n    }\r\n\r\n    function voteOnChangeRequest(bytes32 _key) public {\r\n        voteOnChangeRequest(_key, lockedUCGBalance[msg.sender]);\r\n    }\r\n    function voteOnChangeRequest(bytes32 _key, uint256 _amount) public {\r\n        // require vote > 0\r\n        require(_amount > 0, \"Invalid amount\"); // see link and test https://ethereum.stackexchange.com/q/33832/20639\r\n        // check if change request exist\r\n        require(changeRequestsSet.exists(_key), \"ChangeRequest doesn't exist\");\r\n        // check if amount is not higher than locked UCGs\r\n        require(_amount <= lockedUCGBalance[msg.sender], \"Not enough balance to vote\");\r\n        // check how many requests user is participating already\r\n        UnorderedKeySetLib.Set storage p = userParticipations[msg.sender];\r\n        // check if is updating vote\r\n        if(!p.exists(_key)) {\r\n            // if doesn't exist need to check if there is room to add\r\n            require(p.count() <= maxParticipation, \"Max participation reached\");\r\n            p.insert(_key);\r\n        }\r\n        // add votes to request\r\n        ChangeRequest storage cr = changeRequests[_key];\r\n        // check if there is already a vote from this user\r\n        uint256 currentVotes = cr.userVotes[msg.sender];\r\n        uint256 currentVotesAgainstWinner = cr.userVotesAgainstWinner[msg.sender];\r\n        if(currentVotes > 0)\r\n        {\r\n            cr.votes = cr.votes.sub(currentVotes);\r\n            cr.votesAgainstWinner = cr.votesAgainstWinner.sub(currentVotesAgainstWinner);\r\n        }\r\n        cr.userVotes[msg.sender] = _amount;\r\n        cr.userVotesAgainstWinner[msg.sender] = _amount;\r\n        cr.votes = cr.votes.add(_amount);\r\n        cr.votesAgainstWinner = cr.votesAgainstWinner.add(_amount);\r\n\r\n        //// add votes against winner\r\n        uint256 wv = 0;\r\n        // make sure current request is not winner request\r\n        if(_key != winnerRequestIdPerTarget[cr.target]) {\r\n            // ChangeRequest storage wr = ChangeRequests[winnerRequestIdPerTarget[c.target]]; // locate winner\r\n            // if(wr.target == cr.target) { // check if wr exist (initialized)\r\n            //     uint256 wv = wr.userVotes[msg.sender]; // check if user has voted on winner request\r\n            //     if(wv != 0) {\r\n            //         cr.userVotesAgainstWinner[msg.sender] = cr.userVotesAgainstWinner[msg.sender].add(wv);\r\n            //         cr.votesAgainstWinner = cr.votesAgainstWinner.add(wv);\r\n            //     }\r\n            // }\r\n\r\n            wv = getUserVotesOnWinnerRequest(cr.target);\r\n            if(wv != 0) {\r\n                // if(wv > _amount) { // use this code in case wants to limit winner up to twice that of vote\r\n                //     cr.userVotesAgainstWinner[msg.sender] = cr.userVotesAgainstWinner[msg.sender].add(_amount);\r\n                //     cr.votesAgainstWinner = cr.votesAgainstWinner.add(_amount);\r\n                // } else {\r\n                //     cr.userVotesAgainstWinner[msg.sender] = cr.userVotesAgainstWinner[msg.sender].add(wv);\r\n                //     cr.votesAgainstWinner = cr.votesAgainstWinner.add(wv);\r\n                // }\r\n                cr.userVotesAgainstWinner[msg.sender] = cr.userVotesAgainstWinner[msg.sender].add(wv);\r\n                cr.votesAgainstWinner = cr.votesAgainstWinner.add(wv);\r\n            }\r\n        }\r\n\r\n        emit NewVote(_key, cr.target, _amount, _amount.add(wv), msg.sender);\r\n    }\r\n    function cancelVoteOnChangeRequest(bytes32 _key) public {\r\n        reduceVoteOnChangeRequest(_key, lockedUCGBalance[msg.sender]);\r\n        emit VoteCancelled(_key, msg.sender);\r\n    }\r\n    function changeRequestExits(bytes32 _key) public view returns(bool) {\r\n        return changeRequestsSet.exists(_key);\r\n    }\r\n\r\n    /**\r\n     * @dev Verifies if a ChangeRequest is the Winner Request for its target\r\n     * and if not it will verify if it beats current winner and replace it\r\n     * @param _key bytes32 key of the ChangeRequest\r\n     * @return true if it's winner and false if not\r\n     */\r\n    function isWinner(bytes32 _key) public returns (bool) {\r\n        // check if change request exist\r\n        require(changeRequestsSet.exists(_key), \"ChangeRequest doesn't exist\");\r\n\r\n        ChangeRequest storage cr = changeRequests[_key];\r\n        bytes32 wrKey = winnerRequestIdPerTarget[cr.target];\r\n        if(_key == wrKey) {\r\n            return true;\r\n        }\r\n        // if differente, check if it cr can replace winner request\r\n        if(cr.status != CRStatus.PendingApproval) { // check if it's pending aproval\r\n            return false; // only PendingApproval CRs can become winners\r\n        }\r\n        ChangeRequest storage wr = changeRequests[wrKey]; // locate winner\r\n        if(wr.createdOn > cr.createdOn) { // check if changeRequest came after winnerRequest, otherwise it is expired\r\n            cr.status = CRStatus.Expired;\r\n            return false;\r\n        }\r\n        if(cr.votesAgainstWinner > wr.votes)\r\n        {\r\n            // replace winner\r\n            wr.status = CRStatus.Replaced;\r\n            cr.status = CRStatus.Approved;\r\n            cr.safeDelay = cr.safeDelay.add(now); // update safeDelay to reflet a time from approval\r\n            winnerRequestIdPerTarget[cr.target] = _key;\r\n            emit NewWinner(_key, cr.safeDelay);\r\n            return true;\r\n        }\r\n        return false;\r\n    }\r\n\r\n    /// Public Auth Methods\r\n    function updateToAppliedStatus(bytes32 _key) public auth {\r\n        // check if change request exist\r\n        require(changeRequestsSet.exists(_key), \"ChangeRequest doesn't exist\");\r\n        ChangeRequest storage cr = changeRequests[_key];\r\n        cr.status = CRStatus.Applied;\r\n\r\n    }\r\n    // method called by UCPath and to be overriden by implemantation contract\r\n    function updatePath(string memory pathName, address pathAddress) public auth {\r\n        bool updated;\r\n        if(keccak256(bytes(pathName)) == keccak256(\"UCGToken\")) {\r\n            ucgToken = UCGToken(pathAddress);\r\n            updated = true;\r\n        }\r\n\r\n        if(updated) {\r\n            emit PathUpdated(pathName, pathAddress);\r\n        }\r\n    }\r\n\r\n    // function isApproved(bytes32 _changeRequestKey) public returns(bool) {\r\n    //     require(changeRequestsSet.exists(_key), \"Change Request not found.\");\r\n    //     ChangeRequest cr = changeRequests[_changeRequestKey];\r\n    //     if(cr.status == 1) {\r\n    //         return true;\r\n    //     }\r\n    //     // check if it's pending aproval\r\n    //     require(cr.status != 0, string(abi.encodePacked(\"Change Request can't be approved because currrent Status: \", cr.status)); // canceled, aplied, expired, closed\r\n    // }\r\n\r\n    /// Private Methods\r\n    function reduceVoteOnChangeRequest(bytes32 _key, uint256 _amount) private {\r\n        // check if change request exist\r\n        require(changeRequestsSet.exists(_key), \"ChangeRequest doesn't exist\");\r\n        // check if is participating on request\r\n        UnorderedKeySetLib.Set storage p = userParticipations[msg.sender];\r\n        require(p.exists(_key), \"User does not participate on ChangeRequest\");\r\n        // check votes on request\r\n        ChangeRequest storage c = changeRequests[_key];\r\n        uint256 currentVotes = c.userVotes[msg.sender];\r\n        uint256 currentVotesAgainstWinner = c.userVotesAgainstWinner[msg.sender];\r\n        //uint256 computedVotesOnWinner = currentVotesAgainstWinner.sub(currentVotes);\r\n        // check if there will be remaining votes\r\n        if(currentVotes > _amount)\r\n        {\r\n            c.votes = c.votes.sub(_amount);\r\n            c.votesAgainstWinner = c.votesAgainstWinner.sub(_amount);\r\n            c.userVotes[msg.sender] = currentVotes.sub(_amount);\r\n            c.userVotesAgainstWinner[msg.sender] = currentVotesAgainstWinner.sub(_amount);\r\n            // if(computedVotesOnWinner > 0) { // use this code in case wants to limit winner up to twice that of vote\r\n            //     if(_amount > computedVotesOnWinner)\r\n            //     {\r\n            //         c.votesAgainstWinner = c.votesAgainstWinner.sub(computedVotesOnWinner);\r\n            //         c.userVotesAgainstWinner[msg.sender] = c.userVotesAgainstWinner[msg.sender].sub(computedVotesOnWinner);\r\n            //     } else {\r\n            //         uint256 votesToReduce = (computedVotesOnWinner.mul(_amount)).div(currentVotes);\r\n            //         c.votesAgainstWinner = c.votesAgainstWinner.sub(votesToReduce);\r\n            //         c.userVotesAgainstWinner[msg.sender] = c.userVotesAgainstWinner[msg.sender].sub(votesToReduce);\r\n            //     }\r\n            // }\r\n        } else {\r\n            c.votes = c.votes.sub(currentVotes);\r\n            c.votesAgainstWinner = c.votesAgainstWinner.sub(currentVotesAgainstWinner);\r\n            // if 0 votes left, remove participation\r\n            p.remove(_key);\r\n            delete c.userVotes[msg.sender];\r\n            delete c.userVotesAgainstWinner[msg.sender];\r\n        }\r\n\r\n    }\r\n    /**\r\n     * @dev Returns the user votes on the winner request for a specifit target\r\n     *\r\n     * @param _target bytes32 key that represents the target of the change request (hash of contract address + method name)\r\n     * @return number of votes on winner request. returns 0 if no vote is found (0 is default uint256 value)\r\n     */\r\n    function getUserVotesOnWinnerRequest(bytes32 _target) private view returns (uint256) {\r\n        uint256 wv;\r\n        ChangeRequest storage wr = changeRequests[winnerRequestIdPerTarget[_target]]; // locate winner\r\n        if(wr.target == _target) { // check if wr exist (initialized)\r\n            wv = wr.userVotes[msg.sender]; // check if user has voted on winner request\r\n        }\r\n        return wv;\r\n    }\r\n\r\n    // function newChangeRequest(address _contractAddress, string  _functionName, string  _parameters, string _notes, uint256 _UIPNumber) public {\r\n    //     bytes32 key = keccak256(msg.sender, _contractAddress, _functionName, _parameters, _notes, _UIPNumber, block.number);\r\n    //     changeRequestsSet.insert(key); // Note that this will fail automatically if the key already exists.\r\n\r\n    //     changeRequests[key] = ChangeRequest({\r\n    //         contractAddress: _contractAddress,\r\n    //         functionName: _functionName,\r\n    //         parameters: _parameters,\r\n    //         status: \"PendingApproval\",\r\n    //         createBy: msg.sender,\r\n    //         notes: _notes,\r\n    //         UIPNumber: _UIPNumber\r\n    //     });\r\n\r\n    //     emit NewChangeRequest(key, msg.sender, \"addSaleOrder\", _price, _collateral, _expiration);\r\n    // }\r\n\r\n\r\n\r\n    /// Events\r\n    event Locked(address from, uint256 amount);\r\n    event Unlocked(address from, uint256 amount);\r\n    event NewChangeRequest(\r\n        bytes32 target,\r\n        bytes32 proposal,\r\n        address createdBy,\r\n        uint256 UIPNumber,\r\n        string notes\r\n    );\r\n    event VoteCancelled(bytes32 changeRequest, address user);\r\n    event NewVote(bytes32 changeRequest, bytes32 target, uint256 amount, uint256 amountAgaintWinner, address user);\r\n    event NewWinner(bytes32 changeRequest, uint256 safeDelay);\r\n\r\n}",
  "sourcePath": "E:\\JCL\\Webmaster\\GitHub\\UCToken\\UCToken\\contracts\\UCGovernance.sol",
  "compiler": {
    "name": "solc",
    "version": "0.5.7+commit.6da8b019.Emscripten.clang"
  },
  "schemaVersion": "3.0.23",
  "updatedAt": "2020-04-09T02:59:40.971Z",
  "networkType": "ethereum",
  "devdoc": {
    "methods": {
      "isWinner(bytes32)": {
        "details": "Verifies if a ChangeRequest is the Winner Request for its target\r and if not it will verify if it beats current winner and replace it\r",
        "params": {
          "_key": "bytes32 key of the ChangeRequest\r"
        },
        "return": "true if it's winner and false if not\r"
      }
    }
  },
  "userdoc": {
    "methods": {
      "lock(uint256)": {
        "notice": "Public Functions"
      },
      "setOwner(address)": {
        "notice": "Public Methods"
      },
      "updateToAppliedStatus(bytes32)": {
        "notice": "Public Auth Methods"
      }
    }
  }
}