{
  "contractName": "UCMarketplace",
  "abi": [
    {
      "constant": false,
      "inputs": [
        {
          "name": "_owner",
          "type": "address"
        }
      ],
      "name": "setOwner",
      "outputs": [],
      "payable": false,
      "stateMutability": "nonpayable",
      "type": "function"
    },
    {
      "constant": true,
      "inputs": [],
      "name": "ucCrawlingBand",
      "outputs": [
        {
          "name": "",
          "type": "address"
        }
      ],
      "payable": false,
      "stateMutability": "view",
      "type": "function"
    },
    {
      "constant": true,
      "inputs": [],
      "name": "ucToken",
      "outputs": [
        {
          "name": "",
          "type": "address"
        }
      ],
      "payable": false,
      "stateMutability": "view",
      "type": "function"
    },
    {
      "constant": false,
      "inputs": [
        {
          "name": "_path",
          "type": "address"
        }
      ],
      "name": "setPath",
      "outputs": [],
      "payable": false,
      "stateMutability": "nonpayable",
      "type": "function"
    },
    {
      "constant": false,
      "inputs": [
        {
          "name": "pathName",
          "type": "string"
        },
        {
          "name": "pathAddress",
          "type": "address"
        }
      ],
      "name": "updatePath",
      "outputs": [],
      "payable": false,
      "stateMutability": "nonpayable",
      "type": "function"
    },
    {
      "constant": true,
      "inputs": [
        {
          "name": "",
          "type": "bytes32"
        }
      ],
      "name": "saleOrders",
      "outputs": [
        {
          "name": "addr",
          "type": "address"
        },
        {
          "name": "amount",
          "type": "uint256"
        },
        {
          "name": "price",
          "type": "uint256"
        },
        {
          "name": "collateral",
          "type": "address"
        },
        {
          "name": "expiration",
          "type": "uint256"
        }
      ],
      "payable": false,
      "stateMutability": "view",
      "type": "function"
    },
    {
      "constant": true,
      "inputs": [],
      "name": "owner",
      "outputs": [
        {
          "name": "",
          "type": "address"
        }
      ],
      "payable": false,
      "stateMutability": "view",
      "type": "function"
    },
    {
      "constant": true,
      "inputs": [
        {
          "name": "",
          "type": "bytes32"
        }
      ],
      "name": "purchaseOrders",
      "outputs": [
        {
          "name": "addr",
          "type": "address"
        },
        {
          "name": "amount",
          "type": "uint256"
        },
        {
          "name": "collateral",
          "type": "address"
        },
        {
          "name": "collAmount",
          "type": "uint256"
        },
        {
          "name": "expiration",
          "type": "uint256"
        }
      ],
      "payable": false,
      "stateMutability": "view",
      "type": "function"
    },
    {
      "constant": true,
      "inputs": [],
      "name": "ucPath",
      "outputs": [
        {
          "name": "",
          "type": "address"
        }
      ],
      "payable": false,
      "stateMutability": "view",
      "type": "function"
    },
    {
      "constant": true,
      "inputs": [
        {
          "name": "",
          "type": "address"
        }
      ],
      "name": "collaterals",
      "outputs": [
        {
          "name": "tokenAddr",
          "type": "address"
        },
        {
          "name": "price",
          "type": "uint256"
        },
        {
          "name": "orderbookBalance",
          "type": "uint256"
        },
        {
          "name": "paused",
          "type": "bool"
        },
        {
          "name": "token",
          "type": "address"
        }
      ],
      "payable": false,
      "stateMutability": "view",
      "type": "function"
    },
    {
      "inputs": [
        {
          "name": "pathAddress",
          "type": "address"
        }
      ],
      "payable": false,
      "stateMutability": "nonpayable",
      "type": "constructor"
    },
    {
      "anonymous": false,
      "inputs": [
        {
          "indexed": false,
          "name": "amount",
          "type": "uint256"
        },
        {
          "indexed": true,
          "name": "to",
          "type": "address"
        },
        {
          "indexed": false,
          "name": "cost",
          "type": "uint256"
        },
        {
          "indexed": true,
          "name": "collateral",
          "type": "address"
        }
      ],
      "name": "Mint",
      "type": "event"
    },
    {
      "anonymous": false,
      "inputs": [
        {
          "indexed": false,
          "name": "amount",
          "type": "uint256"
        },
        {
          "indexed": true,
          "name": "from",
          "type": "address"
        },
        {
          "indexed": false,
          "name": "returned",
          "type": "uint256"
        },
        {
          "indexed": true,
          "name": "collateral",
          "type": "address"
        }
      ],
      "name": "Burn",
      "type": "event"
    },
    {
      "anonymous": false,
      "inputs": [
        {
          "indexed": true,
          "name": "collateral",
          "type": "address"
        },
        {
          "indexed": true,
          "name": "from",
          "type": "address"
        },
        {
          "indexed": false,
          "name": "amount",
          "type": "uint256"
        }
      ],
      "name": "Deposit",
      "type": "event"
    },
    {
      "anonymous": false,
      "inputs": [
        {
          "indexed": true,
          "name": "collateral",
          "type": "address"
        },
        {
          "indexed": true,
          "name": "to",
          "type": "address"
        },
        {
          "indexed": false,
          "name": "amount",
          "type": "uint256"
        }
      ],
      "name": "Withdraw",
      "type": "event"
    },
    {
      "anonymous": false,
      "inputs": [
        {
          "indexed": true,
          "name": "tokenAddr",
          "type": "address"
        },
        {
          "indexed": false,
          "name": "price",
          "type": "uint256"
        },
        {
          "indexed": false,
          "name": "paused",
          "type": "bool"
        }
      ],
      "name": "NewCollateral",
      "type": "event"
    },
    {
      "anonymous": false,
      "inputs": [
        {
          "indexed": false,
          "name": "tokenAddr",
          "type": "address"
        },
        {
          "indexed": false,
          "name": "price",
          "type": "uint256"
        },
        {
          "indexed": false,
          "name": "paused",
          "type": "bool"
        }
      ],
      "name": "CollateralUpdated",
      "type": "event"
    },
    {
      "anonymous": false,
      "inputs": [
        {
          "indexed": false,
          "name": "addr",
          "type": "address"
        },
        {
          "indexed": false,
          "name": "key",
          "type": "bytes32"
        },
        {
          "indexed": false,
          "name": "eventType",
          "type": "string"
        },
        {
          "indexed": false,
          "name": "price",
          "type": "uint256"
        },
        {
          "indexed": false,
          "name": "collateral",
          "type": "address"
        },
        {
          "indexed": false,
          "name": "expirationInMinutes",
          "type": "uint256"
        }
      ],
      "name": "OrderBookChange",
      "type": "event"
    },
    {
      "anonymous": false,
      "inputs": [
        {
          "indexed": false,
          "name": "owner",
          "type": "address"
        }
      ],
      "name": "NewOwner",
      "type": "event"
    },
    {
      "anonymous": false,
      "inputs": [
        {
          "indexed": false,
          "name": "pathAddress",
          "type": "address"
        }
      ],
      "name": "NewPath",
      "type": "event"
    },
    {
      "anonymous": false,
      "inputs": [
        {
          "indexed": false,
          "name": "pathName",
          "type": "string"
        },
        {
          "indexed": false,
          "name": "pathAddress",
          "type": "address"
        }
      ],
      "name": "PathUpdated",
      "type": "event"
    },
    {
      "constant": false,
      "inputs": [
        {
          "name": "_tokenAddr",
          "type": "address"
        },
        {
          "name": "_price",
          "type": "uint256"
        },
        {
          "name": "_paused",
          "type": "bool"
        }
      ],
      "name": "acceptNewCollateral",
      "outputs": [],
      "payable": false,
      "stateMutability": "nonpayable",
      "type": "function"
    },
    {
      "constant": false,
      "inputs": [
        {
          "name": "_tokenAddr",
          "type": "address"
        },
        {
          "name": "_price",
          "type": "uint256"
        },
        {
          "name": "_paused",
          "type": "bool"
        }
      ],
      "name": "updateCollateral",
      "outputs": [],
      "payable": false,
      "stateMutability": "nonpayable",
      "type": "function"
    },
    {
      "constant": true,
      "inputs": [],
      "name": "getCollateralsCount",
      "outputs": [
        {
          "name": "count",
          "type": "uint256"
        }
      ],
      "payable": false,
      "stateMutability": "view",
      "type": "function"
    },
    {
      "constant": true,
      "inputs": [
        {
          "name": "_index",
          "type": "uint256"
        }
      ],
      "name": "getCollateralAddressAtIndex",
      "outputs": [
        {
          "name": "_address",
          "type": "address"
        }
      ],
      "payable": false,
      "stateMutability": "view",
      "type": "function"
    },
    {
      "constant": true,
      "inputs": [
        {
          "name": "_tokenAddr",
          "type": "address"
        },
        {
          "name": "includeOrderbook",
          "type": "bool"
        }
      ],
      "name": "getCollateralBalance",
      "outputs": [
        {
          "name": "",
          "type": "uint256"
        }
      ],
      "payable": false,
      "stateMutability": "view",
      "type": "function"
    },
    {
      "constant": true,
      "inputs": [
        {
          "name": "_tokenAddr",
          "type": "address"
        }
      ],
      "name": "getCollateralRate",
      "outputs": [
        {
          "name": "rate",
          "type": "uint256"
        },
        {
          "name": "rateInUC",
          "type": "bool"
        }
      ],
      "payable": false,
      "stateMutability": "view",
      "type": "function"
    },
    {
      "constant": true,
      "inputs": [
        {
          "name": "_tokenAddr",
          "type": "address"
        }
      ],
      "name": "getCollateralPrice",
      "outputs": [
        {
          "name": "price",
          "type": "uint256"
        }
      ],
      "payable": false,
      "stateMutability": "view",
      "type": "function"
    },
    {
      "constant": false,
      "inputs": [
        {
          "name": "_amount",
          "type": "uint256"
        },
        {
          "name": "_price",
          "type": "uint256"
        },
        {
          "name": "_collateral",
          "type": "address"
        },
        {
          "name": "_expiration",
          "type": "uint256"
        }
      ],
      "name": "addSaleOrder",
      "outputs": [],
      "payable": false,
      "stateMutability": "nonpayable",
      "type": "function"
    },
    {
      "constant": false,
      "inputs": [
        {
          "name": "_key",
          "type": "bytes32"
        }
      ],
      "name": "cancelSaleOrder",
      "outputs": [],
      "payable": false,
      "stateMutability": "nonpayable",
      "type": "function"
    },
    {
      "constant": true,
      "inputs": [],
      "name": "getSaleOrdersCount",
      "outputs": [
        {
          "name": "count",
          "type": "uint256"
        }
      ],
      "payable": false,
      "stateMutability": "view",
      "type": "function"
    },
    {
      "constant": true,
      "inputs": [
        {
          "name": "_index",
          "type": "uint256"
        }
      ],
      "name": "getSaleOrderKeyAtIndex",
      "outputs": [
        {
          "name": "key",
          "type": "bytes32"
        }
      ],
      "payable": false,
      "stateMutability": "view",
      "type": "function"
    },
    {
      "constant": false,
      "inputs": [
        {
          "name": "_key",
          "type": "bytes32"
        },
        {
          "name": "_collateral",
          "type": "address"
        },
        {
          "name": "_amount",
          "type": "uint256"
        }
      ],
      "name": "matchSaleOrder",
      "outputs": [
        {
          "name": "",
          "type": "bool"
        }
      ],
      "payable": false,
      "stateMutability": "nonpayable",
      "type": "function"
    },
    {
      "constant": false,
      "inputs": [
        {
          "name": "_collateral",
          "type": "address"
        },
        {
          "name": "_amount",
          "type": "uint256"
        }
      ],
      "name": "addCollateral",
      "outputs": [],
      "payable": false,
      "stateMutability": "nonpayable",
      "type": "function"
    },
    {
      "constant": false,
      "inputs": [
        {
          "name": "_collateral",
          "type": "address"
        },
        {
          "name": "_amount",
          "type": "uint256"
        }
      ],
      "name": "withdraw",
      "outputs": [
        {
          "name": "success",
          "type": "bool"
        }
      ],
      "payable": false,
      "stateMutability": "nonpayable",
      "type": "function"
    },
    {
      "constant": false,
      "inputs": [
        {
          "name": "_collateral",
          "type": "address"
        },
        {
          "name": "_amount",
          "type": "uint256"
        },
        {
          "name": "_minUCAmount",
          "type": "uint256"
        }
      ],
      "name": "mint",
      "outputs": [
        {
          "name": "",
          "type": "bool"
        }
      ],
      "payable": false,
      "stateMutability": "nonpayable",
      "type": "function"
    },
    {
      "constant": false,
      "inputs": [
        {
          "name": "_amount",
          "type": "uint256"
        },
        {
          "name": "_collateral",
          "type": "address"
        }
      ],
      "name": "burn",
      "outputs": [
        {
          "name": "",
          "type": "bool"
        }
      ],
      "payable": false,
      "stateMutability": "nonpayable",
      "type": "function"
    },
    {
      "constant": false,
      "inputs": [
        {
          "name": "_collateral",
          "type": "address"
        },
        {
          "name": "_amount",
          "type": "uint256"
        },
        {
          "name": "_minUCAmount",
          "type": "uint256"
        }
      ],
      "name": "buy",
      "outputs": [
        {
          "name": "",
          "type": "bool"
        }
      ],
      "payable": false,
      "stateMutability": "nonpayable",
      "type": "function"
    },
    {
      "constant": true,
      "inputs": [],
      "name": "getReservesBalance",
      "outputs": [
        {
          "name": "",
          "type": "uint256"
        }
      ],
      "payable": false,
      "stateMutability": "view",
      "type": "function"
    }
  ],
  "bytecode": "0x60806040523480156200001157600080fd5b5060405160208062005f3b833981018060405260208110156200003357600080fd5b8101908080519060200190929190505050806040518060400160405280600d81526020017f55434d61726b6574706c61636500000000000000000000000000000000000000815250336000806101000a81548173ffffffffffffffffffffffffffffffffffffffff021916908373ffffffffffffffffffffffffffffffffffffffff1602179055507f3edd90e7770f06fafde38004653b33870066c33bfc923ff6102acd601f85dfbc33604051808273ffffffffffffffffffffffffffffffffffffffff1673ffffffffffffffffffffffffffffffffffffffff16815260200191505060405180910390a160405180807f55435061746800000000000000000000000000000000000000000000000000008152506006019050604051809103902081805190602001201415620001aa5730600160006101000a81548173ffffffffffffffffffffffffffffffffffffffff021916908373ffffffffffffffffffffffffffffffffffffffff160217905550620001ec565b81600160006101000a81548173ffffffffffffffffffffffffffffffffffffffff021916908373ffffffffffffffffffffffffffffffffffffffff1602179055505b50506001600281905550600160009054906101000a900473ffffffffffffffffffffffffffffffffffffffff1673ffffffffffffffffffffffffffffffffffffffff1663af61c6a66040518163ffffffff1660e01b81526004018080602001828103825260078152602001807f5543546f6b656e0000000000000000000000000000000000000000000000000081525060200191505060206040518083038186803b1580156200029b57600080fd5b505afa158015620002b0573d6000803e3d6000fd5b505050506040513d6020811015620002c757600080fd5b8101908080519060200190929190505050600360006101000a81548173ffffffffffffffffffffffffffffffffffffffff021916908373ffffffffffffffffffffffffffffffffffffffff160217905550600160009054906101000a900473ffffffffffffffffffffffffffffffffffffffff1673ffffffffffffffffffffffffffffffffffffffff1663af61c6a66040518163ffffffff1660e01b815260040180806020018281038252600e8152602001807f5543437261776c696e6742616e6400000000000000000000000000000000000081525060200191505060206040518083038186803b158015620003bd57600080fd5b505afa158015620003d2573d6000803e3d6000fd5b505050506040513d6020811015620003e957600080fd5b8101908080519060200190929190505050600460006101000a81548173ffffffffffffffffffffffffffffffffffffffff021916908373ffffffffffffffffffffffffffffffffffffffff16021790555050615af0806200044b6000396000f3fe608060405234801561001057600080fd5b50600436106101c45760003560e01c806377e071ad116100f9578063a7992b0411610097578063eeb97d3b11610071578063eeb97d3b14610aad578063f3fef3a314610b7d578063f8d40c5e14610be3578063fcd3533c14610c01576101c4565b8063a7992b041461096b578063a98e7faf14610a21578063deae3b1e14610a63576101c4565b80639faad01f116100d35780639faad01f1461081f578063a331146e14610883578063a3e15d09146108dd578063a59ac6dd146108fb576101c4565b806377e071ad146107105780637e1f1189146107735780638da5cb5b146107d5576101c4565b80635071f3b3116101665780635d24c683116101405780635d24c683146105805780636aa1945a146106365780636d75b9ee146106a45780636e19b805146106f2576101c4565b80635071f3b31461041f57806351a409941461044d578063599b4fbc146104a5576101c4565b80631c0b7fa1116101a25780631c0b7fa1146102d757806324aba59f1461032157806333fd6d851461036b5780633b955177146103db576101c4565b80630363a161146101c957806313af403514610223578063156e29f614610267575b600080fd5b610221600480360360608110156101df57600080fd5b81019080803573ffffffffffffffffffffffffffffffffffffffff16906020019092919080359060200190929190803515159060200190929190505050610c67565b005b6102656004803603602081101561023957600080fd5b81019080803573ffffffffffffffffffffffffffffffffffffffff169060200190929190505050610e4d565b005b6102bd6004803603606081101561027d57600080fd5b81019080803573ffffffffffffffffffffffffffffffffffffffff1690602001909291908035906020019092919080359060200190929190505050610f6e565b604051808215151515815260200191505060405180910390f35b6102df611756565b604051808273ffffffffffffffffffffffffffffffffffffffff1673ffffffffffffffffffffffffffffffffffffffff16815260200191505060405180910390f35b61032961177c565b604051808273ffffffffffffffffffffffffffffffffffffffff1673ffffffffffffffffffffffffffffffffffffffff16815260200191505060405180910390f35b6103c16004803603606081101561038157600080fd5b8101908080359060200190929190803573ffffffffffffffffffffffffffffffffffffffff169060200190929190803590602001909291905050506117a2565b604051808215151515815260200191505060405180910390f35b61041d600480360360208110156103f157600080fd5b81019080803573ffffffffffffffffffffffffffffffffffffffff169060200190929190505050611f0a565b005b61044b6004803603602081101561043557600080fd5b810190808035906020019092919050505061202c565b005b61048f6004803603602081101561046357600080fd5b81019080803573ffffffffffffffffffffffffffffffffffffffff1690602001909291905050506124c4565b6040518082815260200191505060405180910390f35b61057e600480360360408110156104bb57600080fd5b81019080803590602001906401000000008111156104d857600080fd5b8201836020820111156104ea57600080fd5b8035906020019184600183028401116401000000008311171561050c57600080fd5b91908080601f016020809104026020016040519081016040528093929190818152602001838380828437600081840152601f19601f820116905080830192505050505050509192919290803573ffffffffffffffffffffffffffffffffffffffff169060200190929190505050612596565b005b6105ac6004803603602081101561059657600080fd5b81019080803590602001909291905050506126e5565b604051808673ffffffffffffffffffffffffffffffffffffffff1673ffffffffffffffffffffffffffffffffffffffff1681526020018581526020018481526020018373ffffffffffffffffffffffffffffffffffffffff1673ffffffffffffffffffffffffffffffffffffffff1681526020018281526020019550505050505060405180910390f35b6106626004803603602081101561064c57600080fd5b810190808035906020019092919050505061275b565b604051808273ffffffffffffffffffffffffffffffffffffffff1673ffffffffffffffffffffffffffffffffffffffff16815260200191505060405180910390f35b6106f0600480360360408110156106ba57600080fd5b81019080803573ffffffffffffffffffffffffffffffffffffffff16906020019092919080359060200190929190505050612778565b005b6106fa612b07565b6040518082815260200191505060405180910390f35b6107526004803603602081101561072657600080fd5b81019080803573ffffffffffffffffffffffffffffffffffffffff169060200190929190505050612cb7565b60405180838152602001821515151581526020019250505060405180910390f35b6107d36004803603608081101561078957600080fd5b810190808035906020019092919080359060200190929190803573ffffffffffffffffffffffffffffffffffffffff16906020019092919080359060200190929190505050612e77565b005b6107dd6133fe565b604051808273ffffffffffffffffffffffffffffffffffffffff1673ffffffffffffffffffffffffffffffffffffffff16815260200191505060405180910390f35b61086d6004803603604081101561083557600080fd5b81019080803573ffffffffffffffffffffffffffffffffffffffff169060200190929190803515159060200190929190505050613423565b6040518082815260200191505060405180910390f35b6108db6004803603606081101561089957600080fd5b81019080803573ffffffffffffffffffffffffffffffffffffffff16906020019092919080359060200190929190803515159060200190929190505050613637565b005b6108e561387f565b6040518082815260200191505060405180910390f35b6109516004803603606081101561091157600080fd5b81019080803573ffffffffffffffffffffffffffffffffffffffff1690602001909291908035906020019092919080359060200190929190505050613890565b604051808215151515815260200191505060405180910390f35b6109976004803603602081101561098157600080fd5b8101908080359060200190929190505050613f4c565b604051808673ffffffffffffffffffffffffffffffffffffffff1673ffffffffffffffffffffffffffffffffffffffff1681526020018581526020018473ffffffffffffffffffffffffffffffffffffffff1673ffffffffffffffffffffffffffffffffffffffff1681526020018381526020018281526020019550505050505060405180910390f35b610a4d60048036036020811015610a3757600080fd5b8101908080359060200190929190505050613fc2565b6040518082815260200191505060405180910390f35b610a6b613fdf565b604051808273ffffffffffffffffffffffffffffffffffffffff1673ffffffffffffffffffffffffffffffffffffffff16815260200191505060405180910390f35b610aef60048036036020811015610ac357600080fd5b81019080803573ffffffffffffffffffffffffffffffffffffffff169060200190929190505050614005565b604051808673ffffffffffffffffffffffffffffffffffffffff1673ffffffffffffffffffffffffffffffffffffffff168152602001858152602001848152602001831515151581526020018273ffffffffffffffffffffffffffffffffffffffff1673ffffffffffffffffffffffffffffffffffffffff1681526020019550505050505060405180910390f35b610bc960048036036040811015610b9357600080fd5b81019080803573ffffffffffffffffffffffffffffffffffffffff16906020019092919080359060200190929190505050614088565b604051808215151515815260200191505060405180910390f35b610beb614198565b6040518082815260200191505060405180910390f35b610c4d60048036036040811015610c1757600080fd5b8101908080359060200190929190803573ffffffffffffffffffffffffffffffffffffffff1690602001909291905050506141a9565b604051808215151515815260200191505060405180910390f35b610c7033614a36565b610ce2576040517f08c379a000000000000000000000000000000000000000000000000000000000815260040180806020018281038252600e8152602001807f4e6f7420617574686f72697a656400000000000000000000000000000000000081525060200191505060405180910390fd5b610cf6836008614c2890919063ffffffff16565b610d68576040517f08c379a00000000000000000000000000000000000000000000000000000000081526004018080602001828103825260188152602001807f436f6c6c61746572616c20646f65736e2774206578697374000000000000000081525060200191505060405180910390fd5b6000600560008573ffffffffffffffffffffffffffffffffffffffff1673ffffffffffffffffffffffffffffffffffffffff1681526020019081526020016000209050828160010181905550818160030160006101000a81548160ff0219169083151502179055507f1fd639a1c735f2fd00919c0fe006a9ddc66e78a5666694b1cd2367e441d9e6c4848484604051808473ffffffffffffffffffffffffffffffffffffffff1673ffffffffffffffffffffffffffffffffffffffff16815260200183815260200182151515158152602001935050505060405180910390a150505050565b610e5633614a36565b610ec8576040517f08c379a000000000000000000000000000000000000000000000000000000000815260040180806020018281038252600e8152602001807f4e6f7420617574686f72697a656400000000000000000000000000000000000081525060200191505060405180910390fd5b806000806101000a81548173ffffffffffffffffffffffffffffffffffffffff021916908373ffffffffffffffffffffffffffffffffffffffff1602179055507f3edd90e7770f06fafde38004653b33870066c33bfc923ff6102acd601f85dfbc81604051808273ffffffffffffffffffffffffffffffffffffffff1673ffffffffffffffffffffffffffffffffffffffff16815260200191505060405180910390a150565b600060016002600082825401925050819055506000600254905084610f9d816008614c2890919063ffffffff16565b61100f576040517f08c379a00000000000000000000000000000000000000000000000000000000081526004018080602001828103825260188152602001807f436f6c6c61746572616c20646f65736e2774206578697374000000000000000081525060200191505060405180910390fd5b600560008273ffffffffffffffffffffffffffffffffffffffff1673ffffffffffffffffffffffffffffffffffffffff16815260200190815260200160002060030160009054906101000a900460ff16156110d2576040517f08c379a000000000000000000000000000000000000000000000000000000000815260040180806020018281038252601c8152602001807f436f6c6c61746572616c2074656d706f72617279207061757365642e0000000081525060200191505060405180910390fd5b60008511611148576040517f08c379a00000000000000000000000000000000000000000000000000000000081526004018080602001828103825260138152602001807f636f6c6c61746572616c2072657175697265640000000000000000000000000081525060200191505060405180910390fd5b6000600560008873ffffffffffffffffffffffffffffffffffffffff1673ffffffffffffffffffffffffffffffffffffffff1681526020019081526020016000209050600073ffffffffffffffffffffffffffffffffffffffff168160000160009054906101000a900473ffffffffffffffffffffffffffffffffffffffff1673ffffffffffffffffffffffffffffffffffffffff161415611252576040517f08c379a000000000000000000000000000000000000000000000000000000000815260040180806020018281038252601b8152602001807f436f6c6c61746572616c20746f6b656e206e6f7420666f756e642e000000000081525060200191505060405180910390fd5b6000600460009054906101000a900473ffffffffffffffffffffffffffffffffffffffff1673ffffffffffffffffffffffffffffffffffffffff16636a05b6fb6040518163ffffffff1660e01b8152600401602060405180830381600087803b1580156112be57600080fd5b505af11580156112d2573d6000803e3d6000fd5b505050506040513d60208110156112e857600080fd5b8101908080519060200190929190505050905060006113268261131885600101548b614cf490919063ffffffff16565b614d7a90919063ffffffff16565b905086811015611381576040517f08c379a00000000000000000000000000000000000000000000000000000000081526004018080602001828103825260238152602001806159d46023913960400191505060405180910390fd5b8260030160019054906101000a900473ffffffffffffffffffffffffffffffffffffffff1673ffffffffffffffffffffffffffffffffffffffff166323b872dd33308b6040518463ffffffff1660e01b8152600401808473ffffffffffffffffffffffffffffffffffffffff1673ffffffffffffffffffffffffffffffffffffffff1681526020018373ffffffffffffffffffffffffffffffffffffffff1673ffffffffffffffffffffffffffffffffffffffff1681526020018281526020019350505050602060405180830381600087803b15801561146057600080fd5b505af1158015611474573d6000803e3d6000fd5b505050506040513d602081101561148a57600080fd5b810190808051906020019092919050505061150d576040517f08c379a000000000000000000000000000000000000000000000000000000000815260040180806020018281038252601e8152602001807f5472616e73666572206f6620636f6c6c61746572616c206661696c65642e000081525060200191505060405180910390fd5b600360009054906101000a900473ffffffffffffffffffffffffffffffffffffffff1673ffffffffffffffffffffffffffffffffffffffff166340c10f1933836040518363ffffffff1660e01b8152600401808373ffffffffffffffffffffffffffffffffffffffff1673ffffffffffffffffffffffffffffffffffffffff16815260200182815260200192505050602060405180830381600087803b1580156115b657600080fd5b505af11580156115ca573d6000803e3d6000fd5b505050506040513d60208110156115e057600080fd5b8101908080519060200190929190505050611663576040517f08c379a00000000000000000000000000000000000000000000000000000000081526004018080602001828103825260178152602001807f436f756c646e2774206d696e7420554320746f6b656e2e00000000000000000081525060200191505060405180910390fd5b8873ffffffffffffffffffffffffffffffffffffffff163373ffffffffffffffffffffffffffffffffffffffff167ebaba90461dd94d87f953250c6986d342b4d21dd938f4203ef321a3ba5c43458a8b604051808381526020018281526020019250505060405180910390a36001955050505050600254811461174e576040517f08c379a000000000000000000000000000000000000000000000000000000000815260040180806020018281038252601f8152602001807f5265656e7472616e637947756172643a207265656e7472616e742063616c6c0081525060200191505060405180910390fd5b509392505050565b600460009054906101000a900473ffffffffffffffffffffffffffffffffffffffff1681565b600360009054906101000a900473ffffffffffffffffffffffffffffffffffffffff1681565b6000826117b9816008614c2890919063ffffffff16565b61182b576040517f08c379a00000000000000000000000000000000000000000000000000000000081526004018080602001828103825260188152602001807f436f6c6c61746572616c20646f65736e2774206578697374000000000000000081525060200191505060405180910390fd5b600560008273ffffffffffffffffffffffffffffffffffffffff1673ffffffffffffffffffffffffffffffffffffffff16815260200190815260200160002060030160009054906101000a900460ff16156118ee576040517f08c379a000000000000000000000000000000000000000000000000000000000815260040180806020018281038252601c8152602001807f436f6c6c61746572616c2074656d706f72617279207061757365642e0000000081525060200191505060405180910390fd5b61190285600a614dc490919063ffffffff16565b611974576040517f08c379a00000000000000000000000000000000000000000000000000000000081526004018080602001828103825260178152602001807f53616c654f7264657220646f65736e277420657869737400000000000000000081525060200191505060405180910390fd5b611988846008614c2890919063ffffffff16565b6119fa576040517f08c379a00000000000000000000000000000000000000000000000000000000081526004018080602001828103825260188152602001807f436f6c6c61746572616c20646f65736e2774206578697374000000000000000081525060200191505060405180910390fd5b600060066000878152602001908152602001600020905042816004015411611a8a576040517f08c379a00000000000000000000000000000000000000000000000000000000081526004018080602001828103825260138152602001807f53616c65206f7264657220657870697265642e0000000000000000000000000081525060200191505060405180910390fd5b6000600560008773ffffffffffffffffffffffffffffffffffffffff1673ffffffffffffffffffffffffffffffffffffffff16815260200190815260200160002090506000611ae6868360010154614cf490919063ffffffff16565b90506000611b0584600101548560020154614cf490919063ffffffff16565b905080821015611b7d576040517f08c379a00000000000000000000000000000000000000000000000000000000081526004018080602001828103825260188152602001807f61736b696e672070726963652061626f7665206f66666572000000000000000081525060200191505060405180910390fd5b60008360040160003373ffffffffffffffffffffffffffffffffffffffff1673ffffffffffffffffffffffffffffffffffffffff16815260200190815260200160002054905080881115611c39576040517f08c379a00000000000000000000000000000000000000000000000000000000081526004018080602001828103825260118152602001807f44454255472054455354202d204849542e00000000000000000000000000000081525060200191505060405180910390fd5b611c4484338a614e18565b6000600560008760030160009054906101000a900473ffffffffffffffffffffffffffffffffffffffff1673ffffffffffffffffffffffffffffffffffffffff1673ffffffffffffffffffffffffffffffffffffffff16815260200190815260200160002090506000611cc4826001015485614d7a90919063ffffffff16565b9050611d198260030160019054906101000a900473ffffffffffffffffffffffffffffffffffffffff168860000160009054906101000a900473ffffffffffffffffffffffffffffffffffffffff1683614f0c565b600360009054906101000a900473ffffffffffffffffffffffffffffffffffffffff1673ffffffffffffffffffffffffffffffffffffffff1663a9059cbb3389600101546040518363ffffffff1660e01b8152600401808373ffffffffffffffffffffffffffffffffffffffff1673ffffffffffffffffffffffffffffffffffffffff16815260200182815260200192505050602060405180830381600087803b158015611dc657600080fd5b505af1158015611dda573d6000803e3d6000fd5b505050506040513d6020811015611df057600080fd5b810190808051906020019092919050505050611e0b8c6150aa565b7f6def06a35fb814314ad1f4a805908af1ad3ee2dac75b390deb1d3e8752b54ba3338d878e8b60040154604051808673ffffffffffffffffffffffffffffffffffffffff1673ffffffffffffffffffffffffffffffffffffffff168152602001858152602001806020018581526020018473ffffffffffffffffffffffffffffffffffffffff1673ffffffffffffffffffffffffffffffffffffffff1681526020018381526020018281038252600e8152602001807f6d6174636853616c654f72646572000000000000000000000000000000000000815250602001965050505050505060405180910390a16001985050505050505050509392505050565b611f1333614a36565b611f85576040517f08c379a000000000000000000000000000000000000000000000000000000000815260040180806020018281038252600e8152602001807f4e6f7420617574686f72697a656400000000000000000000000000000000000081525060200191505060405180910390fd5b80600160006101000a81548173ffffffffffffffffffffffffffffffffffffffff021916908373ffffffffffffffffffffffffffffffffffffffff1602179055507f06996b58b8ff542ff91d7a929369bb5d93940639f7849f15d0f95923d1d1705181604051808273ffffffffffffffffffffffffffffffffffffffff1673ffffffffffffffffffffffffffffffffffffffff16815260200191505060405180910390a150565b61204081600a614dc490919063ffffffff16565b6120b2576040517f08c379a00000000000000000000000000000000000000000000000000000000081526004018080602001828103825260178152602001807f53616c654f7264657220646f65736e277420657869737400000000000000000081525060200191505060405180910390fd5b60006006600083815260200190815260200160002090503373ffffffffffffffffffffffffffffffffffffffff168160000160009054906101000a900473ffffffffffffffffffffffffffffffffffffffff1673ffffffffffffffffffffffffffffffffffffffff161461218e576040517f08c379a000000000000000000000000000000000000000000000000000000000815260040180806020018281038252601e8152602001807f6f7264657220646f65736e27742062656c6f6e6720746f2073656e646572000081525060200191505060405180910390fd5b600360009054906101000a900473ffffffffffffffffffffffffffffffffffffffff1673ffffffffffffffffffffffffffffffffffffffff166323b872dd303384600101546040518463ffffffff1660e01b8152600401808473ffffffffffffffffffffffffffffffffffffffff1673ffffffffffffffffffffffffffffffffffffffff1681526020018373ffffffffffffffffffffffffffffffffffffffff1673ffffffffffffffffffffffffffffffffffffffff1681526020018281526020019350505050602060405180830381600087803b15801561226f57600080fd5b505af1158015612283573d6000803e3d6000fd5b505050506040513d602081101561229957600080fd5b810190808051906020019092919050505061231c576040517f08c379a000000000000000000000000000000000000000000000000000000000815260040180806020018281038252601b8152602001807f436f756c646e2774207472616e7366657220554320746f6b656e2e000000000081525060200191505060405180910390fd5b61233082600a61513d90919063ffffffff16565b60066000838152602001908152602001600020600080820160006101000a81549073ffffffffffffffffffffffffffffffffffffffff0219169055600182016000905560028201600090556003820160006101000a81549073ffffffffffffffffffffffffffffffffffffffff0219169055600482016000905550507f6def06a35fb814314ad1f4a805908af1ad3ee2dac75b390deb1d3e8752b54ba3338383600201548460000160009054906101000a900473ffffffffffffffffffffffffffffffffffffffff168560040154604051808673ffffffffffffffffffffffffffffffffffffffff1673ffffffffffffffffffffffffffffffffffffffff168152602001858152602001806020018581526020018473ffffffffffffffffffffffffffffffffffffffff1673ffffffffffffffffffffffffffffffffffffffff168152602001838152602001828103825260128152602001807f53616c654f7264657243616e63656c6c65640000000000000000000000000000815250602001965050505050505060405180910390a15050565b60006124da826008614c2890919063ffffffff16565b61254c576040517f08c379a00000000000000000000000000000000000000000000000000000000081526004018080602001828103825260188152602001807f436f6c6c61746572616c20646f65736e2774206578697374000000000000000081525060200191505060405180910390fd5b600560008373ffffffffffffffffffffffffffffffffffffffff1673ffffffffffffffffffffffffffffffffffffffff168152602001908152602001600020600101549050919050565b61259f33614a36565b612611576040517f08c379a000000000000000000000000000000000000000000000000000000000815260040180806020018281038252600e8152602001807f4e6f7420617574686f72697a656400000000000000000000000000000000000081525060200191505060405180910390fd5b7f0bf1be166f5b263d06191a42d6ab01a3333b6da101cf1cc7bba6f07a70dd2ff5828260405180806020018373ffffffffffffffffffffffffffffffffffffffff1673ffffffffffffffffffffffffffffffffffffffff168152602001828103825284818151815260200191508051906020019080838360005b838110156126a657808201518184015260208101905061268b565b50505050905090810190601f1680156126d35780820380516001836020036101000a031916815260200191505b50935050505060405180910390a15050565b60066020528060005260406000206000915090508060000160009054906101000a900473ffffffffffffffffffffffffffffffffffffffff16908060010154908060020154908060030160009054906101000a900473ffffffffffffffffffffffffffffffffffffffff16908060040154905085565b600061277182600861524e90919063ffffffff16565b9050919050565b8161278d816008614c2890919063ffffffff16565b6127ff576040517f08c379a00000000000000000000000000000000000000000000000000000000081526004018080602001828103825260188152602001807f436f6c6c61746572616c20646f65736e2774206578697374000000000000000081525060200191505060405180910390fd5b600560008273ffffffffffffffffffffffffffffffffffffffff1673ffffffffffffffffffffffffffffffffffffffff16815260200190815260200160002060030160009054906101000a900460ff16156128c2576040517f08c379a000000000000000000000000000000000000000000000000000000000815260040180806020018281038252601c8152602001807f436f6c6c61746572616c2074656d706f72617279207061757365642e0000000081525060200191505060405180910390fd5b6000600560008573ffffffffffffffffffffffffffffffffffffffff1673ffffffffffffffffffffffffffffffffffffffff16815260200190815260200160002090508060030160019054906101000a900473ffffffffffffffffffffffffffffffffffffffff1673ffffffffffffffffffffffffffffffffffffffff166323b872dd3330866040518463ffffffff1660e01b8152600401808473ffffffffffffffffffffffffffffffffffffffff1673ffffffffffffffffffffffffffffffffffffffff1681526020018373ffffffffffffffffffffffffffffffffffffffff1673ffffffffffffffffffffffffffffffffffffffff1681526020018281526020019350505050602060405180830381600087803b1580156129e457600080fd5b505af11580156129f8573d6000803e3d6000fd5b505050506040513d6020811015612a0e57600080fd5b8101908080519060200190929190505050612a91576040517f08c379a000000000000000000000000000000000000000000000000000000000815260040180806020018281038252601e8152602001807f5472616e73666572206f6620636f6c6c61746572616c206661696c65642e000081525060200191505060405180910390fd5b612a9c813385615292565b3373ffffffffffffffffffffffffffffffffffffffff168473ffffffffffffffffffffffffffffffffffffffff167f5548c837ab068cf56a2c2479df0882a4922fd203edb7517321831d95078c5f62856040518082815260200191505060405180910390a350505050565b600080600090506000612b1861387f565b905060008090505b81811015612cae576000612b338261275b565b9050612b3d6158da565b600560008373ffffffffffffffffffffffffffffffffffffffff1673ffffffffffffffffffffffffffffffffffffffff1681526020019081526020016000206040518060a00160405290816000820160009054906101000a900473ffffffffffffffffffffffffffffffffffffffff1673ffffffffffffffffffffffffffffffffffffffff1673ffffffffffffffffffffffffffffffffffffffff16815260200160018201548152602001600282015481526020016003820160009054906101000a900460ff161515151581526020016003820160019054906101000a900473ffffffffffffffffffffffffffffffffffffffff1673ffffffffffffffffffffffffffffffffffffffff1673ffffffffffffffffffffffffffffffffffffffff168152505090506000612c71836000613423565b9050612c9c612c8d836020015183614cf490919063ffffffff16565b8761534f90919063ffffffff16565b95505050508080600101915050612b20565b50819250505090565b600080612cce836008614c2890919063ffffffff16565b612d40576040517f08c379a00000000000000000000000000000000000000000000000000000000081526004018080602001828103825260188152602001807f436f6c6c61746572616c20646f65736e2774206578697374000000000000000081525060200191505060405180910390fd5b6000600560008573ffffffffffffffffffffffffffffffffffffffff1673ffffffffffffffffffffffffffffffffffffffff1681526020019081526020016000206001015490506000600460009054906101000a900473ffffffffffffffffffffffffffffffffffffffff1673ffffffffffffffffffffffffffffffffffffffff166366d21c1c6040518163ffffffff1660e01b815260040160206040518083038186803b158015612df157600080fd5b505afa158015612e05573d6000803e3d6000fd5b505050506040513d6020811015612e1b57600080fd5b8101908080519060200190929190505050905080821115612e5657612e498183614d7a90919063ffffffff16565b6001935093505050612e72565b612e698282614d7a90919063ffffffff16565b60009350935050505b915091565b81612e8c816008614c2890919063ffffffff16565b612efe576040517f08c379a00000000000000000000000000000000000000000000000000000000081526004018080602001828103825260188152602001807f436f6c6c61746572616c20646f65736e2774206578697374000000000000000081525060200191505060405180910390fd5b600560008273ffffffffffffffffffffffffffffffffffffffff1673ffffffffffffffffffffffffffffffffffffffff16815260200190815260200160002060030160009054906101000a900460ff1615612fc1576040517f08c379a000000000000000000000000000000000000000000000000000000000815260040180806020018281038252601c8152602001807f436f6c6c61746572616c2074656d706f72617279207061757365642e0000000081525060200191505060405180910390fd5b60008511613037576040517f08c379a00000000000000000000000000000000000000000000000000000000081526004018080602001828103825260128152602001807f554320616d6f756e74207265717569726564000000000000000000000000000081525060200191505060405180910390fd5b600360009054906101000a900473ffffffffffffffffffffffffffffffffffffffff1673ffffffffffffffffffffffffffffffffffffffff166323b872dd3330886040518463ffffffff1660e01b8152600401808473ffffffffffffffffffffffffffffffffffffffff1673ffffffffffffffffffffffffffffffffffffffff1681526020018373ffffffffffffffffffffffffffffffffffffffff1673ffffffffffffffffffffffffffffffffffffffff1681526020018281526020019350505050602060405180830381600087803b15801561311457600080fd5b505af1158015613128573d6000803e3d6000fd5b505050506040513d602081101561313e57600080fd5b81019080805190602001909291905050506131c1576040517f08c379a000000000000000000000000000000000000000000000000000000000815260040180806020018281038252601b8152602001807f436f756c646e2774207472616e7366657220554320746f6b656e2e000000000081525060200191505060405180910390fd5b6000338686868643604051602001808773ffffffffffffffffffffffffffffffffffffffff1673ffffffffffffffffffffffffffffffffffffffff1660601b81526014018681526020018581526020018473ffffffffffffffffffffffffffffffffffffffff1673ffffffffffffffffffffffffffffffffffffffff1660601b8152601401838152602001828152602001965050505050505060405160208183030381529060405280519060200120905061328681600a6153d790919063ffffffff16565b6000600660008381526020019081526020016000209050868160010181905550858160020181905550848160030160006101000a81548173ffffffffffffffffffffffffffffffffffffffff021916908373ffffffffffffffffffffffffffffffffffffffff160217905550613305844261534f90919063ffffffff16565b81600401819055507f6def06a35fb814314ad1f4a805908af1ad3ee2dac75b390deb1d3e8752b54ba33383888888604051808673ffffffffffffffffffffffffffffffffffffffff1673ffffffffffffffffffffffffffffffffffffffff168152602001858152602001806020018581526020018473ffffffffffffffffffffffffffffffffffffffff1673ffffffffffffffffffffffffffffffffffffffff1681526020018381526020018281038252600c8152602001807f61646453616c654f726465720000000000000000000000000000000000000000815250602001965050505050505060405180910390a150505050505050565b6000809054906101000a900473ffffffffffffffffffffffffffffffffffffffff1681565b6000613439836008614c2890919063ffffffff16565b6134ab576040517f08c379a00000000000000000000000000000000000000000000000000000000081526004018080602001828103825260188152602001807f436f6c6c61746572616c20646f65736e2774206578697374000000000000000081525060200191505060405180910390fd5b6000600560008573ffffffffffffffffffffffffffffffffffffffff1673ffffffffffffffffffffffffffffffffffffffff16815260200190815260200160002060030160019054906101000a900473ffffffffffffffffffffffffffffffffffffffff1673ffffffffffffffffffffffffffffffffffffffff166370a08231306040518263ffffffff1660e01b8152600401808273ffffffffffffffffffffffffffffffffffffffff1673ffffffffffffffffffffffffffffffffffffffff16815260200191505060206040518083038186803b15801561358c57600080fd5b505afa1580156135a0573d6000803e3d6000fd5b505050506040513d60208110156135b657600080fd5b8101908080519060200190929190505050905082156135d85780915050613631565b61362d600560008673ffffffffffffffffffffffffffffffffffffffff1673ffffffffffffffffffffffffffffffffffffffff16815260200190815260200160002060020154826154e090919063ffffffff16565b9150505b92915050565b61364033614a36565b6136b2576040517f08c379a000000000000000000000000000000000000000000000000000000000815260040180806020018281038252600e8152602001807f4e6f7420617574686f72697a656400000000000000000000000000000000000081525060200191505060405180910390fd5b6136c683600861552a90919063ffffffff16565b6040518060a001604052808473ffffffffffffffffffffffffffffffffffffffff1681526020018381526020016000815260200182151581526020018473ffffffffffffffffffffffffffffffffffffffff16815250600560008573ffffffffffffffffffffffffffffffffffffffff1673ffffffffffffffffffffffffffffffffffffffff16815260200190815260200160002060008201518160000160006101000a81548173ffffffffffffffffffffffffffffffffffffffff021916908373ffffffffffffffffffffffffffffffffffffffff160217905550602082015181600101556040820151816002015560608201518160030160006101000a81548160ff02191690831515021790555060808201518160030160016101000a81548173ffffffffffffffffffffffffffffffffffffffff021916908373ffffffffffffffffffffffffffffffffffffffff1602179055509050508273ffffffffffffffffffffffffffffffffffffffff167ffad4575afe29a4ea895984772a769168c6fcf0bdfb76d302e863e6258842f384838360405180838152602001821515151581526020019250505060405180910390a2505050565b600061388b60086156c3565b905090565b600060016002600082825401925050819055506000600254905060008411613920576040517f08c379a00000000000000000000000000000000000000000000000000000000081526004018080602001828103825260138152602001807f636f6c6c61746572616c2072657175697265640000000000000000000000000081525060200191505060405180910390fd5b6000600560008773ffffffffffffffffffffffffffffffffffffffff1673ffffffffffffffffffffffffffffffffffffffff1681526020019081526020016000209050600073ffffffffffffffffffffffffffffffffffffffff168160000160009054906101000a900473ffffffffffffffffffffffffffffffffffffffff1673ffffffffffffffffffffffffffffffffffffffff161415613a2a576040517f08c379a000000000000000000000000000000000000000000000000000000000815260040180806020018281038252601b8152602001807f436f6c6c61746572616c20746f6b656e206e6f7420666f756e642e000000000081525060200191505060405180910390fd5b6000600460009054906101000a900473ffffffffffffffffffffffffffffffffffffffff1673ffffffffffffffffffffffffffffffffffffffff16636a05b6fb6040518163ffffffff1660e01b8152600401602060405180830381600087803b158015613a9657600080fd5b505af1158015613aaa573d6000803e3d6000fd5b505050506040513d6020811015613ac057600080fd5b810190808051906020019092919050505090506000613afe82613af085600101548a614cf490919063ffffffff16565b614d7a90919063ffffffff16565b905085811015613b59576040517f08c379a00000000000000000000000000000000000000000000000000000000081526004018080602001828103825260238152602001806159d46023913960400191505060405180910390fd5b613b7087846002015461534f90919063ffffffff16565b83600201819055508260030160019054906101000a900473ffffffffffffffffffffffffffffffffffffffff1673ffffffffffffffffffffffffffffffffffffffff166323b872dd33308a6040518463ffffffff1660e01b8152600401808473ffffffffffffffffffffffffffffffffffffffff1673ffffffffffffffffffffffffffffffffffffffff1681526020018373ffffffffffffffffffffffffffffffffffffffff1673ffffffffffffffffffffffffffffffffffffffff1681526020018281526020019350505050602060405180830381600087803b158015613c5757600080fd5b505af1158015613c6b573d6000803e3d6000fd5b505050506040513d6020811015613c8157600080fd5b8101908080519060200190929190505050613d04576040517f08c379a000000000000000000000000000000000000000000000000000000000815260040180806020018281038252601e8152602001807f5472616e73666572206f6620636f6c6c61746572616c206661696c65642e000081525060200191505060405180910390fd5b600360009054906101000a900473ffffffffffffffffffffffffffffffffffffffff1673ffffffffffffffffffffffffffffffffffffffff166340c10f1933836040518363ffffffff1660e01b8152600401808373ffffffffffffffffffffffffffffffffffffffff1673ffffffffffffffffffffffffffffffffffffffff16815260200182815260200192505050602060405180830381600087803b158015613dad57600080fd5b505af1158015613dc1573d6000803e3d6000fd5b505050506040513d6020811015613dd757600080fd5b8101908080519060200190929190505050613e5a576040517f08c379a00000000000000000000000000000000000000000000000000000000081526004018080602001828103825260178152602001807f436f756c646e2774206d696e7420554320746f6b656e2e00000000000000000081525060200191505060405180910390fd5b8773ffffffffffffffffffffffffffffffffffffffff163373ffffffffffffffffffffffffffffffffffffffff167ebaba90461dd94d87f953250c6986d342b4d21dd938f4203ef321a3ba5c4345898a604051808381526020018281526020019250505060405180910390a3600194505050506002548114613f44576040517f08c379a000000000000000000000000000000000000000000000000000000000815260040180806020018281038252601f8152602001807f5265656e7472616e637947756172643a207265656e7472616e742063616c6c0081525060200191505060405180910390fd5b509392505050565b60076020528060005260406000206000915090508060000160009054906101000a900473ffffffffffffffffffffffffffffffffffffffff16908060010154908060020160009054906101000a900473ffffffffffffffffffffffffffffffffffffffff16908060030154908060040154905085565b6000613fd882600a6156d490919063ffffffff16565b9050919050565b600160009054906101000a900473ffffffffffffffffffffffffffffffffffffffff1681565b60056020528060005260406000206000915090508060000160009054906101000a900473ffffffffffffffffffffffffffffffffffffffff16908060010154908060020154908060030160009054906101000a900460ff16908060030160019054906101000a900473ffffffffffffffffffffffffffffffffffffffff16905085565b600061409e836008614c2890919063ffffffff16565b614110576040517f08c379a00000000000000000000000000000000000000000000000000000000081526004018080602001828103825260188152602001807f436f6c6c61746572616c20646f65736e2774206578697374000000000000000081525060200191505060405180910390fd5b6000600560008573ffffffffffffffffffffffffffffffffffffffff1673ffffffffffffffffffffffffffffffffffffffff168152602001908152602001600020905061415e813385614e18565b61418d8160030160019054906101000a900473ffffffffffffffffffffffffffffffffffffffff163385614f0c565b600191505092915050565b60006141a4600a6156f8565b905090565b6000600160026000828254019250508190555060006002549050826141d8816008614c2890919063ffffffff16565b61424a576040517f08c379a00000000000000000000000000000000000000000000000000000000081526004018080602001828103825260188152602001807f436f6c6c61746572616c20646f65736e2774206578697374000000000000000081525060200191505060405180910390fd5b600560008273ffffffffffffffffffffffffffffffffffffffff1673ffffffffffffffffffffffffffffffffffffffff16815260200190815260200160002060030160009054906101000a900460ff161561430d576040517f08c379a000000000000000000000000000000000000000000000000000000000815260040180806020018281038252601c8152602001807f436f6c6c61746572616c2074656d706f72617279207061757365642e0000000081525060200191505060405180910390fd5b60008511614383576040517f08c379a00000000000000000000000000000000000000000000000000000000081526004018080602001828103825260128152602001807f554320616d6f756e74207265717569726564000000000000000000000000000081525060200191505060405180910390fd5b6000600360009054906101000a900473ffffffffffffffffffffffffffffffffffffffff1673ffffffffffffffffffffffffffffffffffffffff166370a08231336040518263ffffffff1660e01b8152600401808273ffffffffffffffffffffffffffffffffffffffff1673ffffffffffffffffffffffffffffffffffffffff16815260200191505060206040518083038186803b15801561442457600080fd5b505afa158015614438573d6000803e3d6000fd5b505050506040513d602081101561444e57600080fd5b81019080805190602001909291905050509050858110156144b2576040517f08c379a0000000000000000000000000000000000000000000000000000000008152600401808060200182810382526000815260200160200191505060405180910390fd5b6000600560008773ffffffffffffffffffffffffffffffffffffffff1673ffffffffffffffffffffffffffffffffffffffff1681526020019081526020016000209050600073ffffffffffffffffffffffffffffffffffffffff168160000160009054906101000a900473ffffffffffffffffffffffffffffffffffffffff1673ffffffffffffffffffffffffffffffffffffffff1614156145bc576040517f08c379a000000000000000000000000000000000000000000000000000000000815260040180806020018281038252601b8152602001807f636f6c6c61746572616c20746f6b656e206e6f7420666f756e642e000000000081525060200191505060405180910390fd5b6000600460009054906101000a900473ffffffffffffffffffffffffffffffffffffffff1673ffffffffffffffffffffffffffffffffffffffff16632271e82a6040518163ffffffff1660e01b8152600401602060405180830381600087803b15801561462857600080fd5b505af115801561463c573d6000803e3d6000fd5b505050506040513d602081101561465257600080fd5b8101908080519060200190929190505050905060006146908360010154614682848c614cf490919063ffffffff16565b614d7a90919063ffffffff16565b90508260030160019054906101000a900473ffffffffffffffffffffffffffffffffffffffff1673ffffffffffffffffffffffffffffffffffffffff1663a9059cbb33836040518363ffffffff1660e01b8152600401808373ffffffffffffffffffffffffffffffffffffffff1673ffffffffffffffffffffffffffffffffffffffff16815260200182815260200192505050602060405180830381600087803b15801561473d57600080fd5b505af1158015614751573d6000803e3d6000fd5b505050506040513d602081101561476757600080fd5b81019080805190602001909291905050506147cd576040517f08c379a00000000000000000000000000000000000000000000000000000000081526004018080602001828103825260238152602001806159b16023913960400191505060405180910390fd5b6147e48184600201546154e090919063ffffffff16565b8360020181905550600360009054906101000a900473ffffffffffffffffffffffffffffffffffffffff1673ffffffffffffffffffffffffffffffffffffffff16639dc29fac338b6040518363ffffffff1660e01b8152600401808373ffffffffffffffffffffffffffffffffffffffff1673ffffffffffffffffffffffffffffffffffffffff16815260200182815260200192505050602060405180830381600087803b15801561489557600080fd5b505af11580156148a9573d6000803e3d6000fd5b505050506040513d60208110156148bf57600080fd5b8101908080519060200190929190505050614942576040517f08c379a00000000000000000000000000000000000000000000000000000000081526004018080602001828103825260178152602001807f436f756c646e2774206275726e20554320746f6b656e2e00000000000000000081525060200191505060405180910390fd5b8773ffffffffffffffffffffffffffffffffffffffff163373ffffffffffffffffffffffffffffffffffffffff167f4b4ec05c7eec399d79cfb183d0c3f518b7c0932ad7e7c70f02c7fd086c0af2568b84604051808381526020018281526020019250505060405180910390a36001965050505050506002548114614a2f576040517f08c379a000000000000000000000000000000000000000000000000000000000815260040180806020018281038252601f8152602001807f5265656e7472616e637947756172643a207265656e7472616e742063616c6c0081525060200191505060405180910390fd5b5092915050565b60003073ffffffffffffffffffffffffffffffffffffffff168273ffffffffffffffffffffffffffffffffffffffff161415614a755760019050614c23565b6000809054906101000a900473ffffffffffffffffffffffffffffffffffffffff1673ffffffffffffffffffffffffffffffffffffffff168273ffffffffffffffffffffffffffffffffffffffff161415614ad35760019050614c23565b614adc82615709565b15614c2257600073ffffffffffffffffffffffffffffffffffffffff16600160009054906101000a900473ffffffffffffffffffffffffffffffffffffffff1673ffffffffffffffffffffffffffffffffffffffff161415614b415760009050614c23565b600160009054906101000a900473ffffffffffffffffffffffffffffffffffffffff1673ffffffffffffffffffffffffffffffffffffffff16638b1b925f836040518263ffffffff1660e01b8152600401808273ffffffffffffffffffffffffffffffffffffffff1673ffffffffffffffffffffffffffffffffffffffff16815260200191505060206040518083038186803b158015614be057600080fd5b505afa158015614bf4573d6000803e3d6000fd5b505050506040513d6020811015614c0a57600080fd5b81019080805190602001909291905050509050614c23565b5b919050565b60008083600101805490501415614c425760009050614cee565b8173ffffffffffffffffffffffffffffffffffffffff16836001018460000160008573ffffffffffffffffffffffffffffffffffffffff1673ffffffffffffffffffffffffffffffffffffffff1681526020019081526020016000205481548110614ca957fe5b9060005260206000200160009054906101000a900473ffffffffffffffffffffffffffffffffffffffff1673ffffffffffffffffffffffffffffffffffffffff161490505b92915050565b600080831415614d075760009050614d74565b6000828402905082848281614d1857fe5b0414614d6f576040517f08c379a0000000000000000000000000000000000000000000000000000000008152600401808060200182810382526021815260200180615aa46021913960400191505060405180910390fd5b809150505b92915050565b6000614dbc83836040518060400160405280601a81526020017f536166654d6174683a206469766973696f6e206279207a65726f000000000000815250615754565b905092915050565b60008083600101805490501415614dde5760009050614e12565b81836001018460000160008581526020019081526020016000205481548110614e0357fe5b90600052602060002001541490505b92915050565b614ea3816040518060400160405280601281526020017f4e6f7420656e6f7567682062616c616e636500000000000000000000000000008152508560040160008673ffffffffffffffffffffffffffffffffffffffff1673ffffffffffffffffffffffffffffffffffffffff1681526020019081526020016000205461581a9092919063ffffffff16565b8360040160008473ffffffffffffffffffffffffffffffffffffffff1673ffffffffffffffffffffffffffffffffffffffff16815260200190815260200160002081905550614eff8184600201546154e090919063ffffffff16565b8360020181905550505050565b8273ffffffffffffffffffffffffffffffffffffffff1663a9059cbb83836040518363ffffffff1660e01b8152600401808373ffffffffffffffffffffffffffffffffffffffff1673ffffffffffffffffffffffffffffffffffffffff16815260200182815260200192505050602060405180830381600087803b158015614f9357600080fd5b505af1158015614fa7573d6000803e3d6000fd5b505050506040513d6020811015614fbd57600080fd5b8101908080519060200190929190505050615040576040517f08c379a000000000000000000000000000000000000000000000000000000000815260040180806020018281038252601e8152602001807f5472616e73666572206f6620636f6c6c61746572616c206661696c65642e000081525060200191505060405180910390fd5b8173ffffffffffffffffffffffffffffffffffffffff168373ffffffffffffffffffffffffffffffffffffffff167f9b1bfa7fa9ee420a16e124f794c35ac9f90472acc99140eb2f6447c714cad8eb836040518082815260200191505060405180910390a3505050565b6150be81600a61513d90919063ffffffff16565b60066000828152602001908152602001600020600080820160006101000a81549073ffffffffffffffffffffffffffffffffffffffff0219169055600182016000905560028201600090556003820160006101000a81549073ffffffffffffffffffffffffffffffffffffffff02191690556004820160009055505050565b6151478282614dc4565b61519c576040517f08c379a0000000000000000000000000000000000000000000000000000000008152600401808060200182810382526035815260200180615a3a6035913960400191505060405180910390fd5b60008260010160016151ad856156f8565b03815481106151b857fe5b90600052602060002001549050600083600001600084815260200190815260200160002054905080846000016000848152602001908152602001600020819055508184600101828154811061520957fe5b906000526020600020018190555083600001600084815260200190815260200160002060009055836001018054809190600190036152479190615937565b5050505050565b600082600101828154811061525f57fe5b9060005260206000200160009054906101000a900473ffffffffffffffffffffffffffffffffffffffff16905092915050565b6152e6818460040160008573ffffffffffffffffffffffffffffffffffffffff1673ffffffffffffffffffffffffffffffffffffffff1681526020019081526020016000205461534f90919063ffffffff16565b8360040160008473ffffffffffffffffffffffffffffffffffffffff1673ffffffffffffffffffffffffffffffffffffffff1681526020019081526020016000208190555061534281846002015461534f90919063ffffffff16565b8360020181905550505050565b6000808284019050838110156153cd576040517f08c379a000000000000000000000000000000000000000000000000000000000815260040180806020018281038252601b8152602001807f536166654d6174683a206164646974696f6e206f766572666c6f77000000000081525060200191505060405180910390fd5b8091505092915050565b6000801b811415615433576040517f08c379a00000000000000000000000000000000000000000000000000000000081526004018080602001828103825260288152602001806159896028913960400191505060405180910390fd5b61543d8282614dc4565b15615493576040517f08c379a0000000000000000000000000000000000000000000000000000000008152600401808060200182810382526035815260200180615a6f6035913960400191505060405180910390fd5b600182600101829080600181540180825580915050906001820390600052602060002001600090919290919091505503826000016000838152602001908152602001600020819055505050565b600061552283836040518060400160405280601e81526020017f536166654d6174683a207375627472616374696f6e206f766572666c6f77000081525061581a565b905092915050565b600073ffffffffffffffffffffffffffffffffffffffff168173ffffffffffffffffffffffffffffffffffffffff1614156155b0576040517f08c379a00000000000000000000000000000000000000000000000000000000081526004018080602001828103825260288152602001806159896028913960400191505060405180910390fd5b6155ba8282614c28565b15615610576040517f08c379a00000000000000000000000000000000000000000000000000000000081526004018080602001828103825260438152602001806159f76043913960600191505060405180910390fd5b6001826001018290806001815401808255809150509060018203906000526020600020016000909192909190916101000a81548173ffffffffffffffffffffffffffffffffffffffff021916908373ffffffffffffffffffffffffffffffffffffffff160217905550038260000160008373ffffffffffffffffffffffffffffffffffffffff1673ffffffffffffffffffffffffffffffffffffffff168152602001908152602001600020819055505050565b600081600101805490509050919050565b60008260010182815481106156e557fe5b9060005260206000200154905092915050565b600081600101805490509050919050565b6000807fc5d2460186f7233c927e7db2dcc703c0e500b653ca82273b7bfad8045d85a47060001b90506000833f90506000801b811415801561574b5750818114155b92505050919050565b60008083118290615800576040517f08c379a00000000000000000000000000000000000000000000000000000000081526004018080602001828103825283818151815260200191508051906020019080838360005b838110156157c55780820151818401526020810190506157aa565b50505050905090810190601f1680156157f25780820380516001836020036101000a031916815260200191505b509250505060405180910390fd5b50600083858161580c57fe5b049050809150509392505050565b60008383111582906158c7576040517f08c379a00000000000000000000000000000000000000000000000000000000081526004018080602001828103825283818151815260200191508051906020019080838360005b8381101561588c578082015181840152602081019050615871565b50505050905090810190601f1680156158b95780820380516001836020036101000a031916815260200191505b509250505060405180910390fd5b5060008385039050809150509392505050565b6040518060a00160405280600073ffffffffffffffffffffffffffffffffffffffff1681526020016000815260200160008152602001600015158152602001600073ffffffffffffffffffffffffffffffffffffffff1681525090565b81548183558181111561595e5781836000526020600020918201910161595d9190615963565b5b505050565b61598591905b80821115615981576000816000905550600101615969565b5090565b9056fe556e6f7264657265644b65795365742831303029202d204b65792063616e6e6f7420626520307830436f756c646e2774207472616e7366657220636f6c6c61746572616c20746f6b656e7343616c63756c6174656420554320616d6f756e742062656c6f77206d696e696d756d2e556e6f726465726564416464726573735365742831303129202d204164647265737320286b65792920616c72656164792065786973747320696e20746865207365742e556e6f7264657265644b65795365742831303229202d204b657920646f6573206e6f7420657869737420696e20746865207365742e556e6f7264657265644b65795365742831303129202d204b657920616c72656164792065786973747320696e20746865207365742e536166654d6174683a206d756c7469706c69636174696f6e206f766572666c6f77a165627a7a7230582026ec000529bc59930d07bb4f381c1cd5e6c6ae16d576e56a62b08239f779375c0029",
  "source": "pragma solidity >=0.4.21 <0.6.0;\r\n\r\nimport \"@openzeppelin/contracts/utils/ReentrancyGuard.sol\";\r\nimport \"@openzeppelin/contracts/math/SafeMath.sol\";\r\nimport \"@openzeppelin/contracts/token/ERC20/ERC20Detailed.sol\";\r\nimport \"./UCToken.sol\";\r\n//import \"./UCStorage.sol\";\r\nimport \"./UCCrawlingBand.sol\";\r\n//import \"./UCCollateralTokenInterface.sol\"; // replaced by ERC20Detailed\r\nimport \"./libraries/UnorderedKeySet.sol\"; // or import {UnorderedKeySetLib} from \"./libraries/UnorderedKeySet.sol\";\r\n\r\n/**\r\n * @title UCMarketplace\r\n * @dev Contract destination for aquiring and selling UCs.\r\n */\r\ncontract UCMarketplace is UCChangeable, ReentrancyGuard {\r\n    using SafeMath for uint256;\r\n    using UnorderedKeySetLib for UnorderedKeySetLib.Set;\r\n    using UnorderedAddressSetLib for UnorderedAddressSetLib.Set;\r\n\r\n    /// Public Properties\r\n\r\n    /// Contract Navigation Properties\r\n    UCToken public ucToken; // maybe should always call UCPath?\r\n    UCCrawlingBand public ucCrawlingBand; // The reference to UCCrawlingBand implementation.\r\n    //UCStorage public ucStorage;\r\n\r\n    /// Objects (Structs)\r\n    struct Collateral {\r\n        address tokenAddr; // acceptable ERC20 token address\r\n        uint256 price; // price in US Dollar / 1000000 (6 decimals)\r\n        uint256 orderbookBalance; // total amount of tokens on orderBooks (contract balance)\r\n        bool paused;\r\n        ERC20Detailed token;\r\n        mapping (address => uint256) balances; // maker balance for order books (user balances)\r\n    }\r\n    struct SaleOrder {\r\n    address addr; // acccount address\r\n    uint amount; // UC amount to sell\r\n    uint price;  // UC price is willing to sell in USD for a single UC\r\n    address collateral; // the collareral seller wants in exchange\r\n    uint256 expiration; // time the order expires in seconds\r\n    }\r\n    struct PurchaseOrder {\r\n    address addr; // maker address\r\n    uint amount; // UC amount wants to purchase\r\n    //uint price;  // UC price in USD\r\n    address collateral;\r\n    uint collAmount;\r\n    uint256 expiration; // time the order expires in seconds\r\n    }\r\n\r\n    /// Public Mappings\r\n    mapping(address => Collateral) public collaterals; // mapping of collateralTokens by token address\r\n    mapping(bytes32 => SaleOrder) public saleOrders;\r\n    mapping(bytes32 => PurchaseOrder) public purchaseOrders;\r\n    //mapping (address => uint256) public usdBalances; // amount of USD available for buyers to place orders on orderBook\r\n\r\n    /// Private lists\r\n    UnorderedAddressSetLib.Set collateralsSet;\r\n    UnorderedKeySetLib.Set saleOrdersSet;\r\n    UnorderedKeySetLib.Set purchaseOrdersSet;\r\n\r\n    /// Modifiers\r\n    modifier collateralActive(address collateral) {\r\n        require(collateralsSet.exists(collateral), \"Collateral doesn't exist\");\r\n        require(!collaterals[collateral].paused, \"Collateral temporary paused.\");\r\n        _;\r\n    }\r\n\r\n    constructor(address pathAddress) UCChangeable(pathAddress, \"UCMarketplace\") public {\r\n        ucToken = UCToken(ucPath.getPath(\"UCToken\")); // maybe should always call UCPath?\r\n        ucCrawlingBand = UCCrawlingBand(ucPath.getPath(\"UCCrawlingBand\"));\r\n    }\r\n\r\n    /// Public Methods - Authorized only\r\n\r\n    function acceptNewCollateral(address _tokenAddr, uint256 _price, bool _paused) public auth {\r\n        // TODO: check if is ERC compatible token\r\n\r\n        // check if token hasn't been included yet\r\n        collateralsSet.insert(_tokenAddr); // Note that this will fail automatically if the _tokenAddr already exists.\r\n        //require (collaterals[_tokenAddr].tokenAddr == address(0), \"Collateral token already included.\");\r\n\r\n        collaterals[_tokenAddr] = Collateral({\r\n            tokenAddr: _tokenAddr,\r\n            price: _price,\r\n            orderbookBalance: 0,\r\n            paused: _paused,\r\n            token: ERC20Detailed(_tokenAddr)\r\n        });\r\n        emit NewCollateral(_tokenAddr, _price, _paused);\r\n    }\r\n    function updateCollateral(address _tokenAddr, uint256 _price, bool _paused) public auth {\r\n        require(collateralsSet.exists(_tokenAddr), \"Collateral doesn't exist\");\r\n        Collateral storage c = collaterals[_tokenAddr];\r\n        c.price = _price;\r\n        c.paused = _paused;\r\n        emit CollateralUpdated(_tokenAddr, _price, _paused);\r\n    }\r\n\r\n    /// Public Methods\r\n    function getCollateralsCount() public view returns(uint count) {\r\n        return collateralsSet.count();\r\n    }\r\n    function getCollateralAddressAtIndex(uint _index) public view returns(address _address) {\r\n        return collateralsSet.keyAtIndex(_index);\r\n    }\r\n    function getCollateralBalance(address _tokenAddr, bool includeOrderbook) public view returns (uint256) {\r\n        require(collateralsSet.exists(_tokenAddr), \"Collateral doesn't exist\");\r\n        uint256 totalAmount = collaterals[_tokenAddr].token.balanceOf(address(this));\r\n        if(includeOrderbook) {\r\n            return totalAmount;\r\n        } else {\r\n            return totalAmount.sub(collaterals[_tokenAddr].orderbookBalance);\r\n        }\r\n    }\r\n    // solidity doesnt return franctional numbers, so either return rate of highest (UC or COL)\r\n    function getCollateralRate(address _tokenAddr) public view returns(uint256 rate, bool rateInUC) {\r\n        require(collateralsSet.exists(_tokenAddr), \"Collateral doesn't exist\");\r\n        // return collaterals[_tokenAddr].price.div(ucCrawlingBand.getEstimatedCeilingPrice());\r\n\r\n        uint256 colPrice = collaterals[_tokenAddr].price;\r\n        uint256 ucPrice = ucCrawlingBand.getEstimatedCeilingPrice();\r\n        if(colPrice > ucPrice) {\r\n            return (colPrice.div(ucPrice), true);\r\n        } else {\r\n            return (ucPrice.div(colPrice), false);\r\n        }\r\n\r\n    }\r\n    function getCollateralPrice(address _tokenAddr) public view returns(uint256 price) {\r\n        require(collateralsSet.exists(_tokenAddr), \"Collateral doesn't exist\");\r\n        return collaterals[_tokenAddr].price;\r\n    }\r\n\r\n    function addSaleOrder(uint _amount, uint _price, address _collateral, uint _expiration) public collateralActive(_collateral) {\r\n        require(_amount > 0, \"UC amount required\");\r\n        //require(collateralsSet.exists(_collateral), \"Collateral doesn't exist\");\r\n        // check if sender has enough balance\r\n        require(ucToken.transferFrom(msg.sender, address(this), _amount), \"Couldn't transfer UC token.\");\r\n\r\n        bytes32 key = keccak256(abi.encodePacked(msg.sender, _amount, _price, _collateral, _expiration, block.number));\r\n        saleOrdersSet.insert(key); // Note that this will fail automatically if the key already exists.\r\n        SaleOrder storage o = saleOrders[key];\r\n        o.amount = _amount;\r\n        o.price = _price;\r\n        o.collateral = _collateral;\r\n        o.expiration = now.add(_expiration);\r\n        emit OrderBookChange(msg.sender, key, \"addSaleOrder\", _price, _collateral, _expiration);\r\n    }\r\n    //// instead of update, must remove and place another one.\r\n    // function updateSaleOrder(bytes32 _key, uint _amount, uint _price, uint _expirationInMinutes) public {\r\n    //     require(saleOrdersSet.exists(_key), \"SaleOrder doesn't exist\");\r\n    //     SaleOrder storage o = saleOrders[_key];\r\n    //     require(o.addr = msg.sender, \"order doesn't belong to sender\");\r\n    //     o.amount = _amount;\r\n    //     o.price = _price;\r\n    //     o.prexpirationInMinutesice = _expirationInMinutes;\r\n    //     emit OrderBookChange(msg.sender, _key, \"updateSaleOrder\", _price, _expirationInMinutes);\r\n    // }\r\n    function cancelSaleOrder(bytes32 _key) public {\r\n        require(saleOrdersSet.exists(_key), \"SaleOrder doesn't exist\");\r\n        SaleOrder storage o = saleOrders[_key];\r\n        require(o.addr == msg.sender, \"order doesn't belong to sender\");\r\n        require(ucToken.transferFrom(address(this), msg.sender, o.amount), \"Couldn't transfer UC token.\");\r\n\r\n        saleOrdersSet.remove(_key); // Note that this will fail automatically if the key doesn't exist\r\n        delete saleOrders[_key];\r\n        emit OrderBookChange(msg.sender, _key, \"SaleOrderCancelled\", o.price, o.addr, o.expiration);\r\n    }\r\n    function getSaleOrdersCount() public view returns(uint count) {\r\n        return saleOrdersSet.count();\r\n    }\r\n    function getSaleOrderKeyAtIndex(uint _index) public view returns(bytes32 key) {\r\n        return saleOrdersSet.keyAtIndex(_index);\r\n    }\r\n\r\n    function matchSaleOrder(bytes32 _key, address _collateral, uint256 _amount)\r\n        public collateralActive(_collateral) returns (bool) {\r\n        require(saleOrdersSet.exists(_key), \"SaleOrder doesn't exist\");\r\n        require(collateralsSet.exists(_collateral), \"Collateral doesn't exist\");\r\n\r\n        SaleOrder storage o = saleOrders[_key];\r\n        // check sale order expiration\r\n        if(o.expiration <= now) {\r\n            // cancelSaleOrder(_key); // doesn't work for 2 reasons (1st sale order doesn't belong to msg.sender, 2nd if revert won't save state)\r\n            revert(\"Sale order expired.\");\r\n        }\r\n        Collateral storage c = collaterals[_collateral];\r\n        // check price match\r\n        uint256 offerTotalValue = c.price.mul(_amount);\r\n        uint256 saleTotalValue = o.price.mul(o.amount);\r\n        require(offerTotalValue >= saleTotalValue, \"asking price above offer\");\r\n        // check buyer funds\r\n        uint256 buyerBalance = c.balances[msg.sender]; // amount of collateral buyer already transfered\r\n        if(_amount > buyerBalance) {\r\n            //addCollateral(_collateral, _amount.sub(buyerBalance));\r\n            revert(\"DEBUG TEST - HIT.\");\r\n        }\r\n        // remove collateral from buyer\r\n        debitCollateral(c, msg.sender, _amount);\r\n        // add collateral to seller\r\n        Collateral storage sc = collaterals[o.collateral];\r\n        uint256 scAmount = saleTotalValue.div(sc.price);\r\n        transferCollateral(sc.token, o.addr, scAmount);\r\n        // transfer UCs\r\n        ucToken.transfer(msg.sender, o.amount);\r\n\r\n        deleteSaleOrder(_key);\r\n\r\n        // maybe break orderBookChange into 3 events (new, removed, match)\r\n        emit OrderBookChange(msg.sender, _key, \"matchSaleOrder\", offerTotalValue, _collateral, o.expiration);\r\n\r\n        return true;\r\n    }\r\n\r\n\r\n\r\n    /**\r\n     * @dev Deposit collateral for placing purchase orders.\r\n     * The equivalent amount of USD is credited for placing the orders at a later time.\r\n     * @param _collateral collateral Token Address\r\n     * @param _amount amount of collateral Token to exchange\r\n     */\r\n    function addCollateral(address _collateral, uint256 _amount) public collateralActive(_collateral) {\r\n        //require(collateralsSet.exists(_collateral), \"Collateral doesn't exist\");\r\n        Collateral storage cToken = collaterals[_collateral];\r\n        // transfer to collateral reserves\r\n        require(cToken.token.transferFrom(msg.sender, address(this), _amount), \"Transfer of collateral failed.\");\r\n        // // credit USD\r\n        // //uint256 ucCeilingPrice = ucCrawlingBand.getCurrentCeilingPrice();\r\n        // uint256 usdAmount = _amount.mul(cToken.price);\r\n        // usdBalances[msg.sender] = usdBalances[msg.sender].add(usdAmount);\r\n\r\n        // credit collateral balance to user\r\n        creditCollateral(cToken, msg.sender, _amount);\r\n\r\n        emit Deposit(_collateral, msg.sender, _amount);\r\n    }\r\n\r\n    // // sample function for Ether deposits\r\n    // function deposit() payable {\r\n    //     tokens[address(0)][msg.sender] = safeAdd(tokens[address(0)][msg.sender], msg.value);\r\n    //     lastActiveTransaction[msg.sender] = block.number;\r\n    //     Deposit(address(0), msg.sender, msg.value, tokens[address(0)][msg.sender]);\r\n    // }\r\n\r\n    function withdraw(address _collateral, uint256 _amount) public returns (bool success) {\r\n        require(collateralsSet.exists(_collateral), \"Collateral doesn't exist\");\r\n        Collateral storage cToken = collaterals[_collateral];\r\n        // remove credit collateral balance from user & check enough balance\r\n        debitCollateral(cToken, msg.sender, _amount);\r\n        // transfer from collateral reserves\r\n        transferCollateral(cToken.token, msg.sender, _amount);\r\n        return true;\r\n    }\r\n\r\n    /**\r\n     * @dev Make new tokens in exchangefor collateral and assign to sender\r\n     * This function has a non-reentrancy guard, so it shouldn't be called by\r\n     * another `nonReentrant` function.\r\n     * @param _collateral collateral Token Address\r\n     * @param _amount amount of collateral Token to exchange\r\n     * @param _minUCAmount minimum amount of UCs desired in exchange for the collateral\r\n     * @return The amount of UCs buyer received\r\n     */\r\n    function mint(address _collateral, uint256 _amount, uint256 _minUCAmount) public nonReentrant collateralActive(_collateral) returns (bool) {\r\n        require(_amount > 0, \"collateral required\");\r\n\r\n        Collateral storage cToken = collaterals[_collateral];\r\n        // make sure token is an approved token\r\n        require (cToken.tokenAddr != address(0), \"Collateral token not found.\");\r\n\r\n        // check rate\r\n        uint256 ucCeilingPrice = ucCrawlingBand.getCurrentCeilingPrice();\r\n        uint256 ucAmount = (_amount.mul(cToken.price)).div(ucCeilingPrice);\r\n        require(ucAmount >= _minUCAmount, \"Calculated UC amount below minimum.\");\r\n\r\n        // transfer to reserves // TODO: place reserves on different contract to differentiate balance from orderbook balance\r\n        //cToken.balance = cToken.balance.add(_amount); // no longer dduplicating balance. Use function to get balance from token contract.\r\n        require(cToken.token.transferFrom(msg.sender, address(this), _amount), \"Transfer of collateral failed.\");\r\n        //if (!cToken.token.transferFrom(msg.sender, address(this), _amount)) revert(\"Transfer of collateral failed.\");\r\n\r\n        // mint UC\r\n        require(ucToken.mint(msg.sender, ucAmount), \"Couldn't mint UC token.\");\r\n\r\n        emit Mint(_amount, msg.sender, _amount, _collateral);\r\n\r\n        return true;\r\n    }\r\n\r\n    /**\r\n     * @dev Exchange UCs for collateral, burMake new tokens in exchangefor collateral and assign to sender\r\n     * This function has a non-reentrancy guard, so it shouldn't be called by\r\n     * another `nonReentrant` function.\r\n     * @param _amount amount of UC okens to burn\r\n     * @param _collateral collateral Token Address\r\n     * @return The amount of Collateral seller received\r\n     */\r\n    function burn(uint256 _amount, address _collateral) public nonReentrant collateralActive(_collateral) returns (bool) {\r\n        // TODO: implement check minimum balances for each collateral (maybe also do this check when placing an order)\r\n\r\n        require(_amount > 0, \"UC amount required\");\r\n        uint256 balance = ucToken.balanceOf(msg.sender);\r\n        require(balance >= _amount, \"\");\r\n\r\n        // return default\r\n        Collateral storage cToken = collaterals[_collateral];\r\n        // make sure token is an approved token\r\n        require(cToken.tokenAddr != address(0), \"collateral token not found.\");\r\n\r\n        // check rate\r\n        uint256 ucFloorPrice = ucCrawlingBand.getCurrentFloorPrice();\r\n        uint256 cAmount = (_amount.mul(ucFloorPrice)).div(cToken.price);\r\n        //require(cAmount >= _minColAmount, \"Collateral amount to receive is below minimum.\");\r\n\r\n        // transfer from reserves\r\n        //if (!cToken.token.transfer(msg.sender, cAmount)) revert(\"Couldn't transfer collateral tokens\");\r\n        require(cToken.token.transfer(msg.sender, cAmount), \"Couldn't transfer collateral tokens\");\r\n        cToken.orderbookBalance = cToken.orderbookBalance.sub(cAmount);\r\n\r\n        // burn UC\r\n        require(ucToken.burn(msg.sender, _amount), \"Couldn't burn UC token.\");\r\n\r\n        emit Burn(_amount, msg.sender, cAmount, _collateral);\r\n\r\n        //return cAmount;\r\n        return true;\r\n\r\n    }\r\n\r\n    /**\r\n     * @dev Get UC tokens in exchangefor collateral and assign to sender\r\n     * Order is fulfilled either from OrderBook or Minted, whaever is cheaper\r\n     * This function has a non-reentrancy guard, so it shouldn't be called by\r\n     * another `nonReentrant` function.\r\n     * @param _collateral collateral Token Address\r\n     * @param _amount amount of collateral Token to exchange\r\n     * @param _minUCAmount minimum amount of UCs desired in exchange for the collateral\r\n     * @return The amount of UCs buyer received\r\n     */\r\n    function buy(address _collateral, uint256 _amount, uint256 _minUCAmount) public nonReentrant returns (bool) {\r\n        require(_amount > 0, \"collateral required\");\r\n\r\n        Collateral storage cToken = collaterals[_collateral];\r\n        // make sure token is an approved token\r\n        require (cToken.tokenAddr != address(0), \"Collateral token not found.\");\r\n\r\n        // check rate\r\n        uint256 ucCeilingPrice = ucCrawlingBand.getCurrentCeilingPrice();\r\n        uint256 ucAmount = (_amount.mul(cToken.price)).div(ucCeilingPrice);\r\n        require(ucAmount >= _minUCAmount, \"Calculated UC amount below minimum.\");\r\n\r\n        // transfer to reserves\r\n        cToken.orderbookBalance = cToken.orderbookBalance.add(_amount);\r\n        require(cToken.token.transferFrom(msg.sender, address(this), _amount), \"Transfer of collateral failed.\");\r\n        //if (!cToken.token.transferFrom(msg.sender, address(this), _amount)) revert(\"Transfer of collateral failed.\");\r\n\r\n        // mint UC\r\n        require(ucToken.mint(msg.sender, ucAmount), \"Couldn't mint UC token.\");\r\n\r\n        emit Mint(_amount, msg.sender, _amount, _collateral);\r\n\r\n        return true;\r\n    }\r\n\r\n    /**\r\n     * @dev Get Total reserves balance (amount * price) for every collateral\r\n     * @return The total reserves value in USD (6 decimals)\r\n     */\r\n    function getReservesBalance() public view returns(uint256) {\r\n        uint256 totalBalance = 0;\r\n        uint256 collateralCount = getCollateralsCount();\r\n        for (uint256 i = 0; i < collateralCount; i++) {\r\n            address collateralAddress = getCollateralAddressAtIndex(i);\r\n            Collateral memory collateral = collaterals[collateralAddress];\r\n            uint256 collateralBalance = getCollateralBalance(collateralAddress, false);\r\n            totalBalance = totalBalance.add(collateralBalance.mul(collateral.price));\r\n        }\r\n        return totalBalance;\r\n    }\r\n\r\n    /// EVENTS\r\n\r\n    /**\r\n     * @dev Emitted when UC tokens are created\r\n     *\r\n     *\r\n     * Note that `value` may be zero.\r\n     */\r\n    event Mint(uint256 amount, address indexed to, uint256 cost, address indexed collateral);\r\n\r\n    /**\r\n     * @dev Emitted UC tokens are destroied\r\n     *\r\n     */\r\n    event Burn(uint256 amount, address indexed from, uint256 returned, address indexed collateral);\r\n\r\n    /**\r\n     * @dev Emitted when collateral tokens are deposited\r\n     *\r\n     */\r\n    event Deposit(address indexed collateral, address indexed from, uint256 amount);\r\n\r\n    /**\r\n     * @dev Emitted when collateral tokens are withdrawn\r\n     *\r\n     */\r\n    event Withdraw(address indexed collateral, address indexed to, uint256 amount);\r\n\r\n    event NewCollateral(address indexed tokenAddr, uint256 price, bool paused);\r\n\r\n    event CollateralUpdated(address tokenAddr, uint256 price, bool paused);\r\n\r\n    event OrderBookChange(address addr, bytes32 key, string eventType, uint price, address collateral, uint expirationInMinutes);\r\n\r\n    /// Private Methods\r\n\r\n    /**\r\n     * @dev Credit collateral to OrderBook Balance\r\n     * It does not change collateral ownership\r\n     *\r\n     */\r\n    function creditCollateral(Collateral storage collateral, address _to, uint256 _amount) private {\r\n        // credit collateral balance to user\r\n        collateral.balances[_to] = collateral.balances[_to].add(_amount);\r\n        // add orderBook balance\r\n        collateral.orderbookBalance = collateral.orderbookBalance.add(_amount);\r\n    }\r\n    /**\r\n     * @dev Debit collateral from OrderBook\r\n     * It does not change collateral ownership\r\n     *\r\n     */\r\n    function debitCollateral(Collateral storage collateral, address _to, uint256 _amount) private {\r\n        // debit amount from user collateral balance\r\n        collateral.balances[_to] = collateral.balances[_to].sub(_amount, \"Not enough balance\");\r\n        // add orderBook balance\r\n        collateral.orderbookBalance = collateral.orderbookBalance.sub(_amount);\r\n    }\r\n    /**\r\n     * @dev Credit collateral to OrderBook\r\n     *\r\n     */\r\n    function transferCollateral(ERC20Detailed collateral, address _to, uint256 _amount) private {\r\n        require(collateral.transfer(_to, _amount), \"Transfer of collateral failed.\");\r\n        emit Withdraw(address(collateral), _to, _amount);\r\n    }\r\n    function deleteSaleOrder(bytes32 _key) private {\r\n        saleOrdersSet.remove(_key); // Note that this will fail automatically if the key doesn't exist\r\n        delete saleOrders[_key];\r\n    }\r\n\r\n}",
  "sourcePath": "E:\\JCL\\Webmaster\\GitHub\\UCToken\\UCToken\\contracts\\UCMarketplace.sol",
  "compiler": {
    "name": "solc",
    "version": "0.5.7+commit.6da8b019.Emscripten.clang"
  },
  "schemaVersion": "3.0.23",
  "updatedAt": "2020-04-16T01:19:54.413Z",
  "networkType": "ethereum",
  "devdoc": {
    "details": "Contract destination for aquiring and selling UCs.\r",
    "methods": {
      "addCollateral(address,uint256)": {
        "details": "Deposit collateral for placing purchase orders.\r The equivalent amount of USD is credited for placing the orders at a later time.\r",
        "params": {
          "_amount": "amount of collateral Token to exchange\r",
          "_collateral": "collateral Token Address\r"
        }
      },
      "burn(uint256,address)": {
        "details": "Exchange UCs for collateral, burMake new tokens in exchangefor collateral and assign to sender\r This function has a non-reentrancy guard, so it shouldn't be called by\r another `nonReentrant` function.\r",
        "params": {
          "_amount": "amount of UC okens to burn\r",
          "_collateral": "collateral Token Address\r"
        },
        "return": "The amount of Collateral seller received\r"
      },
      "buy(address,uint256,uint256)": {
        "details": "Get UC tokens in exchangefor collateral and assign to sender\r Order is fulfilled either from OrderBook or Minted, whaever is cheaper\r This function has a non-reentrancy guard, so it shouldn't be called by\r another `nonReentrant` function.\r",
        "params": {
          "_amount": "amount of collateral Token to exchange\r",
          "_collateral": "collateral Token Address\r",
          "_minUCAmount": "minimum amount of UCs desired in exchange for the collateral\r"
        },
        "return": "The amount of UCs buyer received\r"
      },
      "getReservesBalance()": {
        "details": "Get Total reserves balance (amount * price) for every collateral\r",
        "return": "The total reserves value in USD (6 decimals)\r"
      },
      "mint(address,uint256,uint256)": {
        "details": "Make new tokens in exchangefor collateral and assign to sender\r This function has a non-reentrancy guard, so it shouldn't be called by\r another `nonReentrant` function.\r",
        "params": {
          "_amount": "amount of collateral Token to exchange\r",
          "_collateral": "collateral Token Address\r",
          "_minUCAmount": "minimum amount of UCs desired in exchange for the collateral\r"
        },
        "return": "The amount of UCs buyer received\r"
      }
    },
    "title": "UCMarketplace\r"
  },
  "userdoc": {
    "methods": {
      "acceptNewCollateral(address,uint256,bool)": {
        "notice": "Public Methods - Authorized only"
      },
      "cancelSaleOrder(bytes32)": {
        "notice": "/ instead of update, must remove and place another one."
      },
      "getCollateralsCount()": {
        "notice": "Public Methods"
      },
      "setOwner(address)": {
        "notice": "Public Methods"
      },
      "updatePath(string,address)": {
        "notice": "Public Auth Mehods"
      }
    }
  }
}