{
  "contractName": "UCMarketplace",
  "abi": [
    {
      "constant": false,
      "inputs": [
        {
          "name": "_owner",
          "type": "address"
        }
      ],
      "name": "setOwner",
      "outputs": [],
      "payable": false,
      "stateMutability": "nonpayable",
      "type": "function"
    },
    {
      "constant": true,
      "inputs": [],
      "name": "ucCrawlingBand",
      "outputs": [
        {
          "name": "",
          "type": "address"
        }
      ],
      "payable": false,
      "stateMutability": "view",
      "type": "function"
    },
    {
      "constant": true,
      "inputs": [],
      "name": "ucToken",
      "outputs": [
        {
          "name": "",
          "type": "address"
        }
      ],
      "payable": false,
      "stateMutability": "view",
      "type": "function"
    },
    {
      "constant": false,
      "inputs": [
        {
          "name": "_path",
          "type": "address"
        }
      ],
      "name": "setPath",
      "outputs": [],
      "payable": false,
      "stateMutability": "nonpayable",
      "type": "function"
    },
    {
      "constant": false,
      "inputs": [
        {
          "name": "pathName",
          "type": "string"
        },
        {
          "name": "pathAddress",
          "type": "address"
        }
      ],
      "name": "updatePath",
      "outputs": [],
      "payable": false,
      "stateMutability": "nonpayable",
      "type": "function"
    },
    {
      "constant": true,
      "inputs": [
        {
          "name": "",
          "type": "bytes32"
        }
      ],
      "name": "saleOrders",
      "outputs": [
        {
          "name": "addr",
          "type": "address"
        },
        {
          "name": "amount",
          "type": "uint256"
        },
        {
          "name": "price",
          "type": "uint256"
        },
        {
          "name": "collateral",
          "type": "address"
        },
        {
          "name": "expiration",
          "type": "uint256"
        }
      ],
      "payable": false,
      "stateMutability": "view",
      "type": "function"
    },
    {
      "constant": true,
      "inputs": [],
      "name": "owner",
      "outputs": [
        {
          "name": "",
          "type": "address"
        }
      ],
      "payable": false,
      "stateMutability": "view",
      "type": "function"
    },
    {
      "constant": true,
      "inputs": [
        {
          "name": "",
          "type": "bytes32"
        }
      ],
      "name": "purchaseOrders",
      "outputs": [
        {
          "name": "addr",
          "type": "address"
        },
        {
          "name": "amount",
          "type": "uint256"
        },
        {
          "name": "collateral",
          "type": "address"
        },
        {
          "name": "collAmount",
          "type": "uint256"
        },
        {
          "name": "expiration",
          "type": "uint256"
        }
      ],
      "payable": false,
      "stateMutability": "view",
      "type": "function"
    },
    {
      "constant": true,
      "inputs": [],
      "name": "ucPath",
      "outputs": [
        {
          "name": "",
          "type": "address"
        }
      ],
      "payable": false,
      "stateMutability": "view",
      "type": "function"
    },
    {
      "constant": true,
      "inputs": [
        {
          "name": "",
          "type": "address"
        }
      ],
      "name": "collaterals",
      "outputs": [
        {
          "name": "tokenAddr",
          "type": "address"
        },
        {
          "name": "price",
          "type": "uint256"
        },
        {
          "name": "orderbookBalance",
          "type": "uint256"
        },
        {
          "name": "paused",
          "type": "bool"
        },
        {
          "name": "token",
          "type": "address"
        }
      ],
      "payable": false,
      "stateMutability": "view",
      "type": "function"
    },
    {
      "inputs": [
        {
          "name": "pathAddress",
          "type": "address"
        }
      ],
      "payable": false,
      "stateMutability": "nonpayable",
      "type": "constructor"
    },
    {
      "anonymous": false,
      "inputs": [
        {
          "indexed": false,
          "name": "amount",
          "type": "uint256"
        },
        {
          "indexed": true,
          "name": "to",
          "type": "address"
        },
        {
          "indexed": false,
          "name": "cost",
          "type": "uint256"
        },
        {
          "indexed": true,
          "name": "collateral",
          "type": "address"
        }
      ],
      "name": "Mint",
      "type": "event"
    },
    {
      "anonymous": false,
      "inputs": [
        {
          "indexed": false,
          "name": "amount",
          "type": "uint256"
        },
        {
          "indexed": true,
          "name": "from",
          "type": "address"
        },
        {
          "indexed": false,
          "name": "returned",
          "type": "uint256"
        },
        {
          "indexed": true,
          "name": "collateral",
          "type": "address"
        }
      ],
      "name": "Burn",
      "type": "event"
    },
    {
      "anonymous": false,
      "inputs": [
        {
          "indexed": true,
          "name": "collateral",
          "type": "address"
        },
        {
          "indexed": true,
          "name": "from",
          "type": "address"
        },
        {
          "indexed": false,
          "name": "amount",
          "type": "uint256"
        }
      ],
      "name": "Deposit",
      "type": "event"
    },
    {
      "anonymous": false,
      "inputs": [
        {
          "indexed": true,
          "name": "collateral",
          "type": "address"
        },
        {
          "indexed": true,
          "name": "to",
          "type": "address"
        },
        {
          "indexed": false,
          "name": "amount",
          "type": "uint256"
        }
      ],
      "name": "Withdraw",
      "type": "event"
    },
    {
      "anonymous": false,
      "inputs": [
        {
          "indexed": true,
          "name": "tokenAddr",
          "type": "address"
        },
        {
          "indexed": false,
          "name": "price",
          "type": "uint256"
        },
        {
          "indexed": false,
          "name": "paused",
          "type": "bool"
        }
      ],
      "name": "NewCollateral",
      "type": "event"
    },
    {
      "anonymous": false,
      "inputs": [
        {
          "indexed": false,
          "name": "tokenAddr",
          "type": "address"
        },
        {
          "indexed": false,
          "name": "price",
          "type": "uint256"
        },
        {
          "indexed": false,
          "name": "paused",
          "type": "bool"
        }
      ],
      "name": "CollateralUpdated",
      "type": "event"
    },
    {
      "anonymous": false,
      "inputs": [
        {
          "indexed": false,
          "name": "addr",
          "type": "address"
        },
        {
          "indexed": false,
          "name": "key",
          "type": "bytes32"
        },
        {
          "indexed": false,
          "name": "eventType",
          "type": "string"
        },
        {
          "indexed": false,
          "name": "price",
          "type": "uint256"
        },
        {
          "indexed": false,
          "name": "collateral",
          "type": "address"
        },
        {
          "indexed": false,
          "name": "expirationInMinutes",
          "type": "uint256"
        }
      ],
      "name": "OrderBookChange",
      "type": "event"
    },
    {
      "anonymous": false,
      "inputs": [
        {
          "indexed": false,
          "name": "owner",
          "type": "address"
        }
      ],
      "name": "NewOwner",
      "type": "event"
    },
    {
      "anonymous": false,
      "inputs": [
        {
          "indexed": false,
          "name": "pathAddress",
          "type": "address"
        }
      ],
      "name": "NewPath",
      "type": "event"
    },
    {
      "anonymous": false,
      "inputs": [
        {
          "indexed": false,
          "name": "pathName",
          "type": "string"
        },
        {
          "indexed": false,
          "name": "pathAddress",
          "type": "address"
        }
      ],
      "name": "PathUpdated",
      "type": "event"
    },
    {
      "constant": false,
      "inputs": [
        {
          "name": "_tokenAddr",
          "type": "address"
        },
        {
          "name": "_price",
          "type": "uint256"
        },
        {
          "name": "_paused",
          "type": "bool"
        }
      ],
      "name": "acceptNewCollateral",
      "outputs": [],
      "payable": false,
      "stateMutability": "nonpayable",
      "type": "function"
    },
    {
      "constant": false,
      "inputs": [
        {
          "name": "_tokenAddr",
          "type": "address"
        },
        {
          "name": "_price",
          "type": "uint256"
        },
        {
          "name": "_paused",
          "type": "bool"
        }
      ],
      "name": "updateCollateral",
      "outputs": [],
      "payable": false,
      "stateMutability": "nonpayable",
      "type": "function"
    },
    {
      "constant": true,
      "inputs": [],
      "name": "getCollateralsCount",
      "outputs": [
        {
          "name": "count",
          "type": "uint256"
        }
      ],
      "payable": false,
      "stateMutability": "view",
      "type": "function"
    },
    {
      "constant": true,
      "inputs": [
        {
          "name": "_index",
          "type": "uint256"
        }
      ],
      "name": "getCollateralAddressAtIndex",
      "outputs": [
        {
          "name": "_address",
          "type": "address"
        }
      ],
      "payable": false,
      "stateMutability": "view",
      "type": "function"
    },
    {
      "constant": true,
      "inputs": [
        {
          "name": "_tokenAddr",
          "type": "address"
        },
        {
          "name": "includeOrderbook",
          "type": "bool"
        }
      ],
      "name": "getCollateralBalance",
      "outputs": [
        {
          "name": "",
          "type": "uint256"
        }
      ],
      "payable": false,
      "stateMutability": "view",
      "type": "function"
    },
    {
      "constant": false,
      "inputs": [
        {
          "name": "_tokenAddr",
          "type": "address"
        }
      ],
      "name": "getCollateralRate",
      "outputs": [
        {
          "name": "rate",
          "type": "uint256"
        }
      ],
      "payable": false,
      "stateMutability": "nonpayable",
      "type": "function"
    },
    {
      "constant": false,
      "inputs": [
        {
          "name": "_amount",
          "type": "uint256"
        },
        {
          "name": "_price",
          "type": "uint256"
        },
        {
          "name": "_collateral",
          "type": "address"
        },
        {
          "name": "_expiration",
          "type": "uint256"
        }
      ],
      "name": "addSaleOrder",
      "outputs": [],
      "payable": false,
      "stateMutability": "nonpayable",
      "type": "function"
    },
    {
      "constant": false,
      "inputs": [
        {
          "name": "_key",
          "type": "bytes32"
        }
      ],
      "name": "cancelSaleOrder",
      "outputs": [],
      "payable": false,
      "stateMutability": "nonpayable",
      "type": "function"
    },
    {
      "constant": true,
      "inputs": [],
      "name": "getSaleOrdersCount",
      "outputs": [
        {
          "name": "count",
          "type": "uint256"
        }
      ],
      "payable": false,
      "stateMutability": "view",
      "type": "function"
    },
    {
      "constant": true,
      "inputs": [
        {
          "name": "_index",
          "type": "uint256"
        }
      ],
      "name": "getSaleOrderKeyAtIndex",
      "outputs": [
        {
          "name": "key",
          "type": "bytes32"
        }
      ],
      "payable": false,
      "stateMutability": "view",
      "type": "function"
    },
    {
      "constant": false,
      "inputs": [
        {
          "name": "_key",
          "type": "bytes32"
        },
        {
          "name": "_buyer",
          "type": "address"
        },
        {
          "name": "_collateral",
          "type": "address"
        },
        {
          "name": "_amount",
          "type": "uint256"
        }
      ],
      "name": "matchSaleOrder",
      "outputs": [
        {
          "name": "",
          "type": "bool"
        }
      ],
      "payable": false,
      "stateMutability": "nonpayable",
      "type": "function"
    },
    {
      "constant": false,
      "inputs": [
        {
          "name": "_collateral",
          "type": "address"
        },
        {
          "name": "_amount",
          "type": "uint256"
        }
      ],
      "name": "addCollateral",
      "outputs": [],
      "payable": false,
      "stateMutability": "nonpayable",
      "type": "function"
    },
    {
      "constant": false,
      "inputs": [
        {
          "name": "_collateral",
          "type": "address"
        },
        {
          "name": "_amount",
          "type": "uint256"
        }
      ],
      "name": "withdraw",
      "outputs": [
        {
          "name": "success",
          "type": "bool"
        }
      ],
      "payable": false,
      "stateMutability": "nonpayable",
      "type": "function"
    },
    {
      "constant": false,
      "inputs": [
        {
          "name": "_collateral",
          "type": "address"
        },
        {
          "name": "_amount",
          "type": "uint256"
        },
        {
          "name": "_minUCAmount",
          "type": "uint256"
        }
      ],
      "name": "mint",
      "outputs": [
        {
          "name": "",
          "type": "bool"
        }
      ],
      "payable": false,
      "stateMutability": "nonpayable",
      "type": "function"
    },
    {
      "constant": false,
      "inputs": [
        {
          "name": "_amount",
          "type": "uint256"
        },
        {
          "name": "_collateral",
          "type": "address"
        }
      ],
      "name": "burn",
      "outputs": [
        {
          "name": "",
          "type": "bool"
        }
      ],
      "payable": false,
      "stateMutability": "nonpayable",
      "type": "function"
    },
    {
      "constant": false,
      "inputs": [
        {
          "name": "_collateral",
          "type": "address"
        },
        {
          "name": "_amount",
          "type": "uint256"
        },
        {
          "name": "_minUCAmount",
          "type": "uint256"
        }
      ],
      "name": "buy",
      "outputs": [
        {
          "name": "",
          "type": "bool"
        }
      ],
      "payable": false,
      "stateMutability": "nonpayable",
      "type": "function"
    },
    {
      "constant": true,
      "inputs": [],
      "name": "getReservesBalance",
      "outputs": [
        {
          "name": "",
          "type": "uint256"
        }
      ],
      "payable": false,
      "stateMutability": "view",
      "type": "function"
    }
  ],
  "bytecode": "0x60806040523480156200001157600080fd5b506040516020806200654f833981018060405260208110156200003357600080fd5b8101908080519060200190929190505050806040805190810160405280600d81526020017f55434d61726b6574706c61636500000000000000000000000000000000000000815250336000806101000a81548173ffffffffffffffffffffffffffffffffffffffff021916908373ffffffffffffffffffffffffffffffffffffffff1602179055507f3edd90e7770f06fafde38004653b33870066c33bfc923ff6102acd601f85dfbc33604051808273ffffffffffffffffffffffffffffffffffffffff1673ffffffffffffffffffffffffffffffffffffffff16815260200191505060405180910390a160405180807f55435061746800000000000000000000000000000000000000000000000000008152506006019050604051809103902081805190602001201415620001aa5730600160006101000a81548173ffffffffffffffffffffffffffffffffffffffff021916908373ffffffffffffffffffffffffffffffffffffffff160217905550620001ec565b81600160006101000a81548173ffffffffffffffffffffffffffffffffffffffff021916908373ffffffffffffffffffffffffffffffffffffffff1602179055505b600073ffffffffffffffffffffffffffffffffffffffff16600160009054906101000a900473ffffffffffffffffffffffffffffffffffffffff1673ffffffffffffffffffffffffffffffffffffffff1663af61c6a6836040518263ffffffff167c01000000000000000000000000000000000000000000000000000000000281526004018080602001828103825283818151815260200191508051906020019080838360005b83811015620002b057808201518184015260208101905062000293565b50505050905090810190601f168015620002de5780820380516001836020036101000a031916815260200191505b509250505060206040518083038186803b158015620002fc57600080fd5b505afa15801562000311573d6000803e3d6000fd5b505050506040513d60208110156200032857600080fd5b810190808051906020019092919050505073ffffffffffffffffffffffffffffffffffffffff1614156200049e57600160009054906101000a900473ffffffffffffffffffffffffffffffffffffffff1673ffffffffffffffffffffffffffffffffffffffff1663f309959430836040518363ffffffff167c0100000000000000000000000000000000000000000000000000000000028152600401808373ffffffffffffffffffffffffffffffffffffffff1673ffffffffffffffffffffffffffffffffffffffff16815260200180602001828103825283818151815260200191508051906020019080838360005b838110156200043557808201518184015260208101905062000418565b50505050905090810190601f168015620004635780820380516001836020036101000a031916815260200191505b509350505050600060405180830381600087803b1580156200048457600080fd5b505af115801562000499573d6000803e3d6000fd5b505050505b50506001600281905550600160009054906101000a900473ffffffffffffffffffffffffffffffffffffffff1673ffffffffffffffffffffffffffffffffffffffff1663af61c6a66040518163ffffffff167c01000000000000000000000000000000000000000000000000000000000281526004018080602001828103825260078152602001807f5543546f6b656e0000000000000000000000000000000000000000000000000081525060200191505060206040518083038186803b1580156200056957600080fd5b505afa1580156200057e573d6000803e3d6000fd5b505050506040513d60208110156200059557600080fd5b8101908080519060200190929190505050600360006101000a81548173ffffffffffffffffffffffffffffffffffffffff021916908373ffffffffffffffffffffffffffffffffffffffff160217905550600160009054906101000a900473ffffffffffffffffffffffffffffffffffffffff1673ffffffffffffffffffffffffffffffffffffffff1663af61c6a66040518163ffffffff167c010000000000000000000000000000000000000000000000000000000002815260040180806020018281038252600e8152602001807f5543437261776c696e6742616e6400000000000000000000000000000000000081525060200191505060206040518083038186803b158015620006a757600080fd5b505afa158015620006bc573d6000803e3d6000fd5b505050506040513d6020811015620006d357600080fd5b8101908080519060200190929190505050600460006101000a81548173ffffffffffffffffffffffffffffffffffffffff021916908373ffffffffffffffffffffffffffffffffffffffff16021790555050615e1a80620007356000396000f3fe608060405260043610610159576000357c0100000000000000000000000000000000000000000000000000000000900480630363a1611461015e57806313af4035146101c5578063156e29f6146102165780631c0b7fa11461029357806324aba59f146102ea5780633b955177146103415780635071f3b314610392578063599b4fbc146103cd5780635d24c683146104b55780636aa1945a146105785780636d75b9ee146105f35780636e19b8051461064e57806377e071ad146106795780637e1f1189146106de5780638da5cb5b1461074d5780639faad01f146107a4578063a331146e14610815578063a3e15d091461087c578063a59ac6dd146108a7578063a7992b0414610924578063a98e7faf146109e7578063ad1ad7e914610a36578063deae3b1e14610ad3578063eeb97d3b14610b2a578063f3fef3a314610c07578063f8d40c5e14610c7a578063fcd3533c14610ca5575b600080fd5b34801561016a57600080fd5b506101c36004803603606081101561018157600080fd5b81019080803573ffffffffffffffffffffffffffffffffffffffff16906020019092919080359060200190929190803515159060200190929190505050610d18565b005b3480156101d157600080fd5b50610214600480360360208110156101e857600080fd5b81019080803573ffffffffffffffffffffffffffffffffffffffff169060200190929190505050610f02565b005b34801561022257600080fd5b506102796004803603606081101561023957600080fd5b81019080803573ffffffffffffffffffffffffffffffffffffffff1690602001909291908035906020019092919080359060200190929190505050611025565b604051808215151515815260200191505060405180910390f35b34801561029f57600080fd5b506102a86118b4565b604051808273ffffffffffffffffffffffffffffffffffffffff1673ffffffffffffffffffffffffffffffffffffffff16815260200191505060405180910390f35b3480156102f657600080fd5b506102ff6118da565b604051808273ffffffffffffffffffffffffffffffffffffffff1673ffffffffffffffffffffffffffffffffffffffff16815260200191505060405180910390f35b34801561034d57600080fd5b506103906004803603602081101561036457600080fd5b81019080803573ffffffffffffffffffffffffffffffffffffffff169060200190929190505050611900565b005b34801561039e57600080fd5b506103cb600480360360208110156103b557600080fd5b8101908080359060200190929190505050611a24565b005b3480156103d957600080fd5b506104b3600480360360408110156103f057600080fd5b810190808035906020019064010000000081111561040d57600080fd5b82018360208201111561041f57600080fd5b8035906020019184600183028401116401000000008311171561044157600080fd5b91908080601f016020809104026020016040519081016040528093929190818152602001838380828437600081840152601f19601f820116905080830192505050505050509192919290803573ffffffffffffffffffffffffffffffffffffffff169060200190929190505050611ede565b005b3480156104c157600080fd5b506104ee600480360360208110156104d857600080fd5b810190808035906020019092919050505061202f565b604051808673ffffffffffffffffffffffffffffffffffffffff1673ffffffffffffffffffffffffffffffffffffffff1681526020018581526020018481526020018373ffffffffffffffffffffffffffffffffffffffff1673ffffffffffffffffffffffffffffffffffffffff1681526020018281526020019550505050505060405180910390f35b34801561058457600080fd5b506105b16004803603602081101561059b57600080fd5b81019080803590602001909291905050506120a5565b604051808273ffffffffffffffffffffffffffffffffffffffff1673ffffffffffffffffffffffffffffffffffffffff16815260200191505060405180910390f35b3480156105ff57600080fd5b5061064c6004803603604081101561061657600080fd5b81019080803573ffffffffffffffffffffffffffffffffffffffff169060200190929190803590602001909291905050506120c2565b005b34801561065a57600080fd5b50610663612473565b6040518082815260200191505060405180910390f35b34801561068557600080fd5b506106c86004803603602081101561069c57600080fd5b81019080803573ffffffffffffffffffffffffffffffffffffffff169060200190929190505050612624565b6040518082815260200191505060405180910390f35b3480156106ea57600080fd5b5061074b6004803603608081101561070157600080fd5b810190808035906020019092919080359060200190929190803573ffffffffffffffffffffffffffffffffffffffff169060200190929190803590602001909291905050506127ca565b005b34801561075957600080fd5b50610762612d7b565b604051808273ffffffffffffffffffffffffffffffffffffffff1673ffffffffffffffffffffffffffffffffffffffff16815260200191505060405180910390f35b3480156107b057600080fd5b506107ff600480360360408110156107c757600080fd5b81019080803573ffffffffffffffffffffffffffffffffffffffff169060200190929190803515159060200190929190505050612da0565b6040518082815260200191505060405180910390f35b34801561082157600080fd5b5061087a6004803603606081101561083857600080fd5b81019080803573ffffffffffffffffffffffffffffffffffffffff16906020019092919080359060200190929190803515159060200190929190505050612fd2565b005b34801561088857600080fd5b5061089161321d565b6040518082815260200191505060405180910390f35b3480156108b357600080fd5b5061090a600480360360608110156108ca57600080fd5b81019080803573ffffffffffffffffffffffffffffffffffffffff169060200190929190803590602001909291908035906020019092919050505061322e565b604051808215151515815260200191505060405180910390f35b34801561093057600080fd5b5061095d6004803603602081101561094757600080fd5b810190808035906020019092919050505061398d565b604051808673ffffffffffffffffffffffffffffffffffffffff1673ffffffffffffffffffffffffffffffffffffffff1681526020018581526020018473ffffffffffffffffffffffffffffffffffffffff1673ffffffffffffffffffffffffffffffffffffffff1681526020018381526020018281526020019550505050505060405180910390f35b3480156109f357600080fd5b50610a2060048036036020811015610a0a57600080fd5b8101908080359060200190929190505050613a03565b6040518082815260200191505060405180910390f35b348015610a4257600080fd5b50610ab960048036036080811015610a5957600080fd5b8101908080359060200190929190803573ffffffffffffffffffffffffffffffffffffffff169060200190929190803573ffffffffffffffffffffffffffffffffffffffff16906020019092919080359060200190929190505050613a20565b604051808215151515815260200191505060405180910390f35b348015610adf57600080fd5b50610ae8614169565b604051808273ffffffffffffffffffffffffffffffffffffffff1673ffffffffffffffffffffffffffffffffffffffff16815260200191505060405180910390f35b348015610b3657600080fd5b50610b7960048036036020811015610b4d57600080fd5b81019080803573ffffffffffffffffffffffffffffffffffffffff16906020019092919050505061418f565b604051808673ffffffffffffffffffffffffffffffffffffffff1673ffffffffffffffffffffffffffffffffffffffff168152602001858152602001848152602001831515151581526020018273ffffffffffffffffffffffffffffffffffffffff1673ffffffffffffffffffffffffffffffffffffffff1681526020019550505050505060405180910390f35b348015610c1357600080fd5b50610c6060048036036040811015610c2a57600080fd5b81019080803573ffffffffffffffffffffffffffffffffffffffff16906020019092919080359060200190929190505050614212565b604051808215151515815260200191505060405180910390f35b348015610c8657600080fd5b50610c8f614324565b6040518082815260200191505060405180910390f35b348015610cb157600080fd5b50610cfe60048036036040811015610cc857600080fd5b8101908080359060200190929190803573ffffffffffffffffffffffffffffffffffffffff169060200190929190505050614335565b604051808215151515815260200191505060405180910390f35b610d2133614c85565b1515610d95576040517f08c379a000000000000000000000000000000000000000000000000000000000815260040180806020018281038252600e8152602001807f4e6f7420417574686f72697a656400000000000000000000000000000000000081525060200191505060405180910390fd5b610da9836008614e9390919063ffffffff16565b1515610e1d576040517f08c379a00000000000000000000000000000000000000000000000000000000081526004018080602001828103825260188152602001807f436f6c6c61746572616c20646f65736e2774206578697374000000000000000081525060200191505060405180910390fd5b6000600560008573ffffffffffffffffffffffffffffffffffffffff1673ffffffffffffffffffffffffffffffffffffffff1681526020019081526020016000209050828160010181905550818160030160006101000a81548160ff0219169083151502179055507f1fd639a1c735f2fd00919c0fe006a9ddc66e78a5666694b1cd2367e441d9e6c4848484604051808473ffffffffffffffffffffffffffffffffffffffff1673ffffffffffffffffffffffffffffffffffffffff16815260200183815260200182151515158152602001935050505060405180910390a150505050565b610f0b33614c85565b1515610f7f576040517f08c379a000000000000000000000000000000000000000000000000000000000815260040180806020018281038252600e8152602001807f4e6f7420417574686f72697a656400000000000000000000000000000000000081525060200191505060405180910390fd5b806000806101000a81548173ffffffffffffffffffffffffffffffffffffffff021916908373ffffffffffffffffffffffffffffffffffffffff1602179055507f3edd90e7770f06fafde38004653b33870066c33bfc923ff6102acd601f85dfbc81604051808273ffffffffffffffffffffffffffffffffffffffff1673ffffffffffffffffffffffffffffffffffffffff16815260200191505060405180910390a150565b600060016002600082825401925050819055506000600254905084611054816008614e9390919063ffffffff16565b15156110c8576040517f08c379a00000000000000000000000000000000000000000000000000000000081526004018080602001828103825260188152602001807f436f6c6c61746572616c20646f65736e2774206578697374000000000000000081525060200191505060405180910390fd5b600560008273ffffffffffffffffffffffffffffffffffffffff1673ffffffffffffffffffffffffffffffffffffffff16815260200190815260200160002060030160009054906101000a900460ff1615151561118d576040517f08c379a000000000000000000000000000000000000000000000000000000000815260040180806020018281038252601c8152602001807f436f6c6c61746572616c2074656d706f72617279207061757365642e0000000081525060200191505060405180910390fd5b600085111515611205576040517f08c379a00000000000000000000000000000000000000000000000000000000081526004018080602001828103825260138152602001807f636f6c6c61746572616c2072657175697265640000000000000000000000000081525060200191505060405180910390fd5b6000600560008873ffffffffffffffffffffffffffffffffffffffff1673ffffffffffffffffffffffffffffffffffffffff1681526020019081526020016000209050600073ffffffffffffffffffffffffffffffffffffffff168160000160009054906101000a900473ffffffffffffffffffffffffffffffffffffffff1673ffffffffffffffffffffffffffffffffffffffff1614151515611311576040517f08c379a000000000000000000000000000000000000000000000000000000000815260040180806020018281038252601b8152602001807f436f6c6c61746572616c20746f6b656e206e6f7420666f756e642e000000000081525060200191505060405180910390fd5b6000600460009054906101000a900473ffffffffffffffffffffffffffffffffffffffff1673ffffffffffffffffffffffffffffffffffffffff16636a05b6fb6040518163ffffffff167c0100000000000000000000000000000000000000000000000000000000028152600401602060405180830381600087803b15801561139957600080fd5b505af11580156113ad573d6000803e3d6000fd5b505050506040513d60208110156113c357600080fd5b810190808051906020019092919050505090506000611401826113f385600101548b614f6190919063ffffffff16565b61502e90919063ffffffff16565b90508681101515156114a1576040517f08c379a00000000000000000000000000000000000000000000000000000000081526004018080602001828103825260238152602001807f43616c63756c6174656420554320616d6f756e742062656c6f77206d696e696d81526020017f756d2e000000000000000000000000000000000000000000000000000000000081525060400191505060405180910390fd5b8260030160019054906101000a900473ffffffffffffffffffffffffffffffffffffffff1673ffffffffffffffffffffffffffffffffffffffff166323b872dd33308b6040518463ffffffff167c0100000000000000000000000000000000000000000000000000000000028152600401808473ffffffffffffffffffffffffffffffffffffffff1673ffffffffffffffffffffffffffffffffffffffff1681526020018373ffffffffffffffffffffffffffffffffffffffff1673ffffffffffffffffffffffffffffffffffffffff1681526020018281526020019350505050602060405180830381600087803b15801561159c57600080fd5b505af11580156115b0573d6000803e3d6000fd5b505050506040513d60208110156115c657600080fd5b8101908080519060200190929190505050151561164b576040517f08c379a000000000000000000000000000000000000000000000000000000000815260040180806020018281038252601e8152602001807f5472616e73666572206f6620636f6c6c61746572616c206661696c65642e000081525060200191505060405180910390fd5b600360009054906101000a900473ffffffffffffffffffffffffffffffffffffffff1673ffffffffffffffffffffffffffffffffffffffff166340c10f1933836040518363ffffffff167c0100000000000000000000000000000000000000000000000000000000028152600401808373ffffffffffffffffffffffffffffffffffffffff1673ffffffffffffffffffffffffffffffffffffffff16815260200182815260200192505050602060405180830381600087803b15801561171057600080fd5b505af1158015611724573d6000803e3d6000fd5b505050506040513d602081101561173a57600080fd5b810190808051906020019092919050505015156117bf576040517f08c379a00000000000000000000000000000000000000000000000000000000081526004018080602001828103825260178152602001807f436f756c646e2774206d696e7420554320746f6b656e2e00000000000000000081525060200191505060405180910390fd5b8873ffffffffffffffffffffffffffffffffffffffff163373ffffffffffffffffffffffffffffffffffffffff167ebaba90461dd94d87f953250c6986d342b4d21dd938f4203ef321a3ba5c43458a8b604051808381526020018281526020019250505060405180910390a36001955050505050600254811415156118ac576040517f08c379a000000000000000000000000000000000000000000000000000000000815260040180806020018281038252601f8152602001807f5265656e7472616e637947756172643a207265656e7472616e742063616c6c0081525060200191505060405180910390fd5b509392505050565b600460009054906101000a900473ffffffffffffffffffffffffffffffffffffffff1681565b600360009054906101000a900473ffffffffffffffffffffffffffffffffffffffff1681565b61190933614c85565b151561197d576040517f08c379a000000000000000000000000000000000000000000000000000000000815260040180806020018281038252600e8152602001807f4e6f7420417574686f72697a656400000000000000000000000000000000000081525060200191505060405180910390fd5b80600160006101000a81548173ffffffffffffffffffffffffffffffffffffffff021916908373ffffffffffffffffffffffffffffffffffffffff1602179055507f06996b58b8ff542ff91d7a929369bb5d93940639f7849f15d0f95923d1d1705181604051808273ffffffffffffffffffffffffffffffffffffffff1673ffffffffffffffffffffffffffffffffffffffff16815260200191505060405180910390a150565b611a3881600a61507890919063ffffffff16565b1515611aac576040517f08c379a00000000000000000000000000000000000000000000000000000000081526004018080602001828103825260178152602001807f53616c654f7264657220646f65736e277420657869737400000000000000000081525060200191505060405180910390fd5b60006006600083815260200190815260200160002090503373ffffffffffffffffffffffffffffffffffffffff168160000160009054906101000a900473ffffffffffffffffffffffffffffffffffffffff1673ffffffffffffffffffffffffffffffffffffffff16141515611b8a576040517f08c379a000000000000000000000000000000000000000000000000000000000815260040180806020018281038252601e8152602001807f6f7264657220646f65736e27742062656c6f6e6720746f2073656e646572000081525060200191505060405180910390fd5b600360009054906101000a900473ffffffffffffffffffffffffffffffffffffffff1673ffffffffffffffffffffffffffffffffffffffff166323b872dd303384600101546040518463ffffffff167c0100000000000000000000000000000000000000000000000000000000028152600401808473ffffffffffffffffffffffffffffffffffffffff1673ffffffffffffffffffffffffffffffffffffffff1681526020018373ffffffffffffffffffffffffffffffffffffffff1673ffffffffffffffffffffffffffffffffffffffff1681526020018281526020019350505050602060405180830381600087803b158015611c8757600080fd5b505af1158015611c9b573d6000803e3d6000fd5b505050506040513d6020811015611cb157600080fd5b81019080805190602001909291905050501515611d36576040517f08c379a000000000000000000000000000000000000000000000000000000000815260040180806020018281038252601b8152602001807f436f756c646e2774207472616e7366657220554320746f6b656e2e000000000081525060200191505060405180910390fd5b611d4a82600a6150ce90919063ffffffff16565b60066000838152602001908152602001600020600080820160006101000a81549073ffffffffffffffffffffffffffffffffffffffff0219169055600182016000905560028201600090556003820160006101000a81549073ffffffffffffffffffffffffffffffffffffffff0219169055600482016000905550507f6def06a35fb814314ad1f4a805908af1ad3ee2dac75b390deb1d3e8752b54ba3338383600201548460000160009054906101000a900473ffffffffffffffffffffffffffffffffffffffff168560040154604051808673ffffffffffffffffffffffffffffffffffffffff1673ffffffffffffffffffffffffffffffffffffffff168152602001858152602001806020018581526020018473ffffffffffffffffffffffffffffffffffffffff1673ffffffffffffffffffffffffffffffffffffffff168152602001838152602001828103825260128152602001807f53616c654f7264657243616e63656c6c65640000000000000000000000000000815250602001965050505050505060405180910390a15050565b611ee733614c85565b1515611f5b576040517f08c379a000000000000000000000000000000000000000000000000000000000815260040180806020018281038252600e8152602001807f4e6f7420417574686f72697a656400000000000000000000000000000000000081525060200191505060405180910390fd5b7f0bf1be166f5b263d06191a42d6ab01a3333b6da101cf1cc7bba6f07a70dd2ff5828260405180806020018373ffffffffffffffffffffffffffffffffffffffff1673ffffffffffffffffffffffffffffffffffffffff168152602001828103825284818151815260200191508051906020019080838360005b83811015611ff0578082015181840152602081019050611fd5565b50505050905090810190601f16801561201d5780820380516001836020036101000a031916815260200191505b50935050505060405180910390a15050565b60066020528060005260406000206000915090508060000160009054906101000a900473ffffffffffffffffffffffffffffffffffffffff16908060010154908060020154908060030160009054906101000a900473ffffffffffffffffffffffffffffffffffffffff16908060040154905085565b60006120bb82600861522890919063ffffffff16565b9050919050565b816120d7816008614e9390919063ffffffff16565b151561214b576040517f08c379a00000000000000000000000000000000000000000000000000000000081526004018080602001828103825260188152602001807f436f6c6c61746572616c20646f65736e2774206578697374000000000000000081525060200191505060405180910390fd5b600560008273ffffffffffffffffffffffffffffffffffffffff1673ffffffffffffffffffffffffffffffffffffffff16815260200190815260200160002060030160009054906101000a900460ff16151515612210576040517f08c379a000000000000000000000000000000000000000000000000000000000815260040180806020018281038252601c8152602001807f436f6c6c61746572616c2074656d706f72617279207061757365642e0000000081525060200191505060405180910390fd5b6000600560008573ffffffffffffffffffffffffffffffffffffffff1673ffffffffffffffffffffffffffffffffffffffff16815260200190815260200160002090508060030160019054906101000a900473ffffffffffffffffffffffffffffffffffffffff1673ffffffffffffffffffffffffffffffffffffffff166323b872dd3330866040518463ffffffff167c0100000000000000000000000000000000000000000000000000000000028152600401808473ffffffffffffffffffffffffffffffffffffffff1673ffffffffffffffffffffffffffffffffffffffff1681526020018373ffffffffffffffffffffffffffffffffffffffff1673ffffffffffffffffffffffffffffffffffffffff1681526020018281526020019350505050602060405180830381600087803b15801561234e57600080fd5b505af1158015612362573d6000803e3d6000fd5b505050506040513d602081101561237857600080fd5b810190808051906020019092919050505015156123fd576040517f08c379a000000000000000000000000000000000000000000000000000000000815260040180806020018281038252601e8152602001807f5472616e73666572206f6620636f6c6c61746572616c206661696c65642e000081525060200191505060405180910390fd5b61240881338561526e565b3373ffffffffffffffffffffffffffffffffffffffff168473ffffffffffffffffffffffffffffffffffffffff167f5548c837ab068cf56a2c2479df0882a4922fd203edb7517321831d95078c5f62856040518082815260200191505060405180910390a350505050565b60008060009050600061248461321d565b905060008090505b8181101561261b57600061249f826120a5565b90506124a9615d3f565b600560008373ffffffffffffffffffffffffffffffffffffffff1673ffffffffffffffffffffffffffffffffffffffff16815260200190815260200160002060a060405190810160405290816000820160009054906101000a900473ffffffffffffffffffffffffffffffffffffffff1673ffffffffffffffffffffffffffffffffffffffff1673ffffffffffffffffffffffffffffffffffffffff16815260200160018201548152602001600282015481526020016003820160009054906101000a900460ff161515151581526020016003820160019054906101000a900473ffffffffffffffffffffffffffffffffffffffff1673ffffffffffffffffffffffffffffffffffffffff1673ffffffffffffffffffffffffffffffffffffffff1681525050905060006125de836000612da0565b90506126096125fa836020015183614f6190919063ffffffff16565b8761532b90919063ffffffff16565b9550505050808060010191505061248c565b50819250505090565b600061263a826008614e9390919063ffffffff16565b15156126ae576040517f08c379a00000000000000000000000000000000000000000000000000000000081526004018080602001828103825260188152602001807f436f6c6c61746572616c20646f65736e2774206578697374000000000000000081525060200191505060405180910390fd5b6127c3600460009054906101000a900473ffffffffffffffffffffffffffffffffffffffff1673ffffffffffffffffffffffffffffffffffffffff16636a05b6fb6040518163ffffffff167c0100000000000000000000000000000000000000000000000000000000028152600401602060405180830381600087803b15801561273757600080fd5b505af115801561274b573d6000803e3d6000fd5b505050506040513d602081101561276157600080fd5b8101908080519060200190929190505050600560008573ffffffffffffffffffffffffffffffffffffffff1673ffffffffffffffffffffffffffffffffffffffff1681526020019081526020016000206001015461502e90919063ffffffff16565b9050919050565b816127df816008614e9390919063ffffffff16565b1515612853576040517f08c379a00000000000000000000000000000000000000000000000000000000081526004018080602001828103825260188152602001807f436f6c6c61746572616c20646f65736e2774206578697374000000000000000081525060200191505060405180910390fd5b600560008273ffffffffffffffffffffffffffffffffffffffff1673ffffffffffffffffffffffffffffffffffffffff16815260200190815260200160002060030160009054906101000a900460ff16151515612918576040517f08c379a000000000000000000000000000000000000000000000000000000000815260040180806020018281038252601c8152602001807f436f6c6c61746572616c2074656d706f72617279207061757365642e0000000081525060200191505060405180910390fd5b600085111515612990576040517f08c379a00000000000000000000000000000000000000000000000000000000081526004018080602001828103825260128152602001807f554320616d6f756e74207265717569726564000000000000000000000000000081525060200191505060405180910390fd5b600360009054906101000a900473ffffffffffffffffffffffffffffffffffffffff1673ffffffffffffffffffffffffffffffffffffffff166323b872dd3330886040518463ffffffff167c0100000000000000000000000000000000000000000000000000000000028152600401808473ffffffffffffffffffffffffffffffffffffffff1673ffffffffffffffffffffffffffffffffffffffff1681526020018373ffffffffffffffffffffffffffffffffffffffff1673ffffffffffffffffffffffffffffffffffffffff1681526020018281526020019350505050602060405180830381600087803b158015612a8957600080fd5b505af1158015612a9d573d6000803e3d6000fd5b505050506040513d6020811015612ab357600080fd5b81019080805190602001909291905050501515612b38576040517f08c379a000000000000000000000000000000000000000000000000000000000815260040180806020018281038252601b8152602001807f436f756c646e2774207472616e7366657220554320746f6b656e2e000000000081525060200191505060405180910390fd5b6000338686868643604051602001808773ffffffffffffffffffffffffffffffffffffffff1673ffffffffffffffffffffffffffffffffffffffff166c010000000000000000000000000281526014018681526020018581526020018473ffffffffffffffffffffffffffffffffffffffff1673ffffffffffffffffffffffffffffffffffffffff166c010000000000000000000000000281526014018381526020018281526020019650505050505050604051602081830303815290604052805190602001209050612c1581600a6153b590919063ffffffff16565b6000600660008381526020019081526020016000209050868160010181905550858160020181905550848160030160006101000a81548173ffffffffffffffffffffffffffffffffffffffff021916908373ffffffffffffffffffffffffffffffffffffffff1602179055508381600401819055507f6def06a35fb814314ad1f4a805908af1ad3ee2dac75b390deb1d3e8752b54ba33383888888604051808673ffffffffffffffffffffffffffffffffffffffff1673ffffffffffffffffffffffffffffffffffffffff168152602001858152602001806020018581526020018473ffffffffffffffffffffffffffffffffffffffff1673ffffffffffffffffffffffffffffffffffffffff1681526020018381526020018281038252600c8152602001807f61646453616c654f726465720000000000000000000000000000000000000000815250602001965050505050505060405180910390a150505050505050565b6000809054906101000a900473ffffffffffffffffffffffffffffffffffffffff1681565b6000612db6836008614e9390919063ffffffff16565b1515612e2a576040517f08c379a00000000000000000000000000000000000000000000000000000000081526004018080602001828103825260188152602001807f436f6c6c61746572616c20646f65736e2774206578697374000000000000000081525060200191505060405180910390fd5b6000600560008573ffffffffffffffffffffffffffffffffffffffff1673ffffffffffffffffffffffffffffffffffffffff16815260200190815260200160002060030160019054906101000a900473ffffffffffffffffffffffffffffffffffffffff1673ffffffffffffffffffffffffffffffffffffffff166370a08231306040518263ffffffff167c0100000000000000000000000000000000000000000000000000000000028152600401808273ffffffffffffffffffffffffffffffffffffffff1673ffffffffffffffffffffffffffffffffffffffff16815260200191505060206040518083038186803b158015612f2757600080fd5b505afa158015612f3b573d6000803e3d6000fd5b505050506040513d6020811015612f5157600080fd5b810190808051906020019092919050505090508215612f735780915050612fcc565b612fc8600560008673ffffffffffffffffffffffffffffffffffffffff1673ffffffffffffffffffffffffffffffffffffffff168152602001908152602001600020600201548261554990919063ffffffff16565b9150505b92915050565b612fdb33614c85565b151561304f576040517f08c379a000000000000000000000000000000000000000000000000000000000815260040180806020018281038252600e8152602001807f4e6f7420417574686f72697a656400000000000000000000000000000000000081525060200191505060405180910390fd5b61306383600861559390919063ffffffff16565b60a0604051908101604052808473ffffffffffffffffffffffffffffffffffffffff1681526020018381526020016000815260200182151581526020018473ffffffffffffffffffffffffffffffffffffffff16815250600560008573ffffffffffffffffffffffffffffffffffffffff1673ffffffffffffffffffffffffffffffffffffffff16815260200190815260200160002060008201518160000160006101000a81548173ffffffffffffffffffffffffffffffffffffffff021916908373ffffffffffffffffffffffffffffffffffffffff160217905550602082015181600101556040820151816002015560608201518160030160006101000a81548160ff02191690831515021790555060808201518160030160016101000a81548173ffffffffffffffffffffffffffffffffffffffff021916908373ffffffffffffffffffffffffffffffffffffffff1602179055509050508273ffffffffffffffffffffffffffffffffffffffff167ffad4575afe29a4ea895984772a769168c6fcf0bdfb76d302e863e6258842f384838360405180838152602001821515151581526020019250505060405180910390a2505050565b600061322960086157dc565b905090565b60006001600260008282540192505081905550600060025490506000841115156132c0576040517f08c379a00000000000000000000000000000000000000000000000000000000081526004018080602001828103825260138152602001807f636f6c6c61746572616c2072657175697265640000000000000000000000000081525060200191505060405180910390fd5b6000600560008773ffffffffffffffffffffffffffffffffffffffff1673ffffffffffffffffffffffffffffffffffffffff1681526020019081526020016000209050600073ffffffffffffffffffffffffffffffffffffffff168160000160009054906101000a900473ffffffffffffffffffffffffffffffffffffffff1673ffffffffffffffffffffffffffffffffffffffff16141515156133cc576040517f08c379a000000000000000000000000000000000000000000000000000000000815260040180806020018281038252601b8152602001807f436f6c6c61746572616c20746f6b656e206e6f7420666f756e642e000000000081525060200191505060405180910390fd5b6000600460009054906101000a900473ffffffffffffffffffffffffffffffffffffffff1673ffffffffffffffffffffffffffffffffffffffff16636a05b6fb6040518163ffffffff167c0100000000000000000000000000000000000000000000000000000000028152600401602060405180830381600087803b15801561345457600080fd5b505af1158015613468573d6000803e3d6000fd5b505050506040513d602081101561347e57600080fd5b8101908080519060200190929190505050905060006134bc826134ae85600101548a614f6190919063ffffffff16565b61502e90919063ffffffff16565b905085811015151561355c576040517f08c379a00000000000000000000000000000000000000000000000000000000081526004018080602001828103825260238152602001807f43616c63756c6174656420554320616d6f756e742062656c6f77206d696e696d81526020017f756d2e000000000000000000000000000000000000000000000000000000000081525060400191505060405180910390fd5b61357387846002015461532b90919063ffffffff16565b83600201819055508260030160019054906101000a900473ffffffffffffffffffffffffffffffffffffffff1673ffffffffffffffffffffffffffffffffffffffff166323b872dd33308a6040518463ffffffff167c0100000000000000000000000000000000000000000000000000000000028152600401808473ffffffffffffffffffffffffffffffffffffffff1673ffffffffffffffffffffffffffffffffffffffff1681526020018373ffffffffffffffffffffffffffffffffffffffff1673ffffffffffffffffffffffffffffffffffffffff1681526020018281526020019350505050602060405180830381600087803b15801561367657600080fd5b505af115801561368a573d6000803e3d6000fd5b505050506040513d60208110156136a057600080fd5b81019080805190602001909291905050501515613725576040517f08c379a000000000000000000000000000000000000000000000000000000000815260040180806020018281038252601e8152602001807f5472616e73666572206f6620636f6c6c61746572616c206661696c65642e000081525060200191505060405180910390fd5b600360009054906101000a900473ffffffffffffffffffffffffffffffffffffffff1673ffffffffffffffffffffffffffffffffffffffff166340c10f1933836040518363ffffffff167c0100000000000000000000000000000000000000000000000000000000028152600401808373ffffffffffffffffffffffffffffffffffffffff1673ffffffffffffffffffffffffffffffffffffffff16815260200182815260200192505050602060405180830381600087803b1580156137ea57600080fd5b505af11580156137fe573d6000803e3d6000fd5b505050506040513d602081101561381457600080fd5b81019080805190602001909291905050501515613899576040517f08c379a00000000000000000000000000000000000000000000000000000000081526004018080602001828103825260178152602001807f436f756c646e2774206d696e7420554320746f6b656e2e00000000000000000081525060200191505060405180910390fd5b8773ffffffffffffffffffffffffffffffffffffffff163373ffffffffffffffffffffffffffffffffffffffff167ebaba90461dd94d87f953250c6986d342b4d21dd938f4203ef321a3ba5c4345898a604051808381526020018281526020019250505060405180910390a36001945050505060025481141515613985576040517f08c379a000000000000000000000000000000000000000000000000000000000815260040180806020018281038252601f8152602001807f5265656e7472616e637947756172643a207265656e7472616e742063616c6c0081525060200191505060405180910390fd5b509392505050565b60076020528060005260406000206000915090508060000160009054906101000a900473ffffffffffffffffffffffffffffffffffffffff16908060010154908060020160009054906101000a900473ffffffffffffffffffffffffffffffffffffffff16908060030154908060040154905085565b6000613a1982600a6157ed90919063ffffffff16565b9050919050565b600082613a37816008614e9390919063ffffffff16565b1515613aab576040517f08c379a00000000000000000000000000000000000000000000000000000000081526004018080602001828103825260188152602001807f436f6c6c61746572616c20646f65736e2774206578697374000000000000000081525060200191505060405180910390fd5b600560008273ffffffffffffffffffffffffffffffffffffffff1673ffffffffffffffffffffffffffffffffffffffff16815260200190815260200160002060030160009054906101000a900460ff16151515613b70576040517f08c379a000000000000000000000000000000000000000000000000000000000815260040180806020018281038252601c8152602001807f436f6c6c61746572616c2074656d706f72617279207061757365642e0000000081525060200191505060405180910390fd5b613b8486600a61507890919063ffffffff16565b1515613bf8576040517f08c379a00000000000000000000000000000000000000000000000000000000081526004018080602001828103825260178152602001807f53616c654f7264657220646f65736e277420657869737400000000000000000081525060200191505060405180910390fd5b613c0c846008614e9390919063ffffffff16565b1515613c80576040517f08c379a00000000000000000000000000000000000000000000000000000000081526004018080602001828103825260188152602001807f436f6c6c61746572616c20646f65736e2774206578697374000000000000000081525060200191505060405180910390fd5b6000600660008881526020019081526020016000209050428160040154111515613d1b57613cad87611a24565b6040517f08c379a00000000000000000000000000000000000000000000000000000000081526004018080602001828103825260138152602001807f53616c65206f7264657220657870697265642e0000000000000000000000000081525060200191505060405180910390fd5b6000600560008773ffffffffffffffffffffffffffffffffffffffff1673ffffffffffffffffffffffffffffffffffffffff16815260200190815260200160002090506000613d77868360010154614f6190919063ffffffff16565b90506000613d9684600101548560020154614f6190919063ffffffff16565b9050808210151515613e10576040517f08c379a00000000000000000000000000000000000000000000000000000000081526004018080602001828103825260188152602001807f61736b696e672070726963652061626f7665206f66666572000000000000000081525060200191505060405180910390fd5b60008360040160003373ffffffffffffffffffffffffffffffffffffffff1673ffffffffffffffffffffffffffffffffffffffff16815260200190815260200160002054905080881115613e7b57613e7a89613e75838b61554990919063ffffffff16565b6120c2565b5b613e8684338a615813565b6000600560008760030160009054906101000a900473ffffffffffffffffffffffffffffffffffffffff1673ffffffffffffffffffffffffffffffffffffffff1673ffffffffffffffffffffffffffffffffffffffff16815260200190815260200160002090506000613f0682600101548561502e90919063ffffffff16565b9050613f5b8260030160019054906101000a900473ffffffffffffffffffffffffffffffffffffffff168860000160009054906101000a900473ffffffffffffffffffffffffffffffffffffffff1683615907565b600360009054906101000a900473ffffffffffffffffffffffffffffffffffffffff1673ffffffffffffffffffffffffffffffffffffffff1663a9059cbb8d89600101546040518363ffffffff167c0100000000000000000000000000000000000000000000000000000000028152600401808373ffffffffffffffffffffffffffffffffffffffff1673ffffffffffffffffffffffffffffffffffffffff16815260200182815260200192505050602060405180830381600087803b15801561402457600080fd5b505af1158015614038573d6000803e3d6000fd5b505050506040513d602081101561404e57600080fd5b8101908080519060200190929190505050506140698d615ac3565b7f6def06a35fb814314ad1f4a805908af1ad3ee2dac75b390deb1d3e8752b54ba38c8e878e8b60040154604051808673ffffffffffffffffffffffffffffffffffffffff1673ffffffffffffffffffffffffffffffffffffffff168152602001858152602001806020018581526020018473ffffffffffffffffffffffffffffffffffffffff1673ffffffffffffffffffffffffffffffffffffffff1681526020018381526020018281038252600e8152602001807f6d6174636853616c654f72646572000000000000000000000000000000000000815250602001965050505050505060405180910390a1600198505050505050505050949350505050565b600160009054906101000a900473ffffffffffffffffffffffffffffffffffffffff1681565b60056020528060005260406000206000915090508060000160009054906101000a900473ffffffffffffffffffffffffffffffffffffffff16908060010154908060020154908060030160009054906101000a900460ff16908060030160019054906101000a900473ffffffffffffffffffffffffffffffffffffffff16905085565b6000614228836008614e9390919063ffffffff16565b151561429c576040517f08c379a00000000000000000000000000000000000000000000000000000000081526004018080602001828103825260188152602001807f436f6c6c61746572616c20646f65736e2774206578697374000000000000000081525060200191505060405180910390fd5b6000600560008573ffffffffffffffffffffffffffffffffffffffff1673ffffffffffffffffffffffffffffffffffffffff16815260200190815260200160002090506142ea813385615813565b6143198160030160019054906101000a900473ffffffffffffffffffffffffffffffffffffffff163385615907565b600191505092915050565b6000614330600a615b56565b905090565b600060016002600082825401925050819055506000600254905082614364816008614e9390919063ffffffff16565b15156143d8576040517f08c379a00000000000000000000000000000000000000000000000000000000081526004018080602001828103825260188152602001807f436f6c6c61746572616c20646f65736e2774206578697374000000000000000081525060200191505060405180910390fd5b600560008273ffffffffffffffffffffffffffffffffffffffff1673ffffffffffffffffffffffffffffffffffffffff16815260200190815260200160002060030160009054906101000a900460ff1615151561449d576040517f08c379a000000000000000000000000000000000000000000000000000000000815260040180806020018281038252601c8152602001807f436f6c6c61746572616c2074656d706f72617279207061757365642e0000000081525060200191505060405180910390fd5b600085111515614515576040517f08c379a00000000000000000000000000000000000000000000000000000000081526004018080602001828103825260128152602001807f554320616d6f756e74207265717569726564000000000000000000000000000081525060200191505060405180910390fd5b6000600360009054906101000a900473ffffffffffffffffffffffffffffffffffffffff1673ffffffffffffffffffffffffffffffffffffffff166370a08231336040518263ffffffff167c0100000000000000000000000000000000000000000000000000000000028152600401808273ffffffffffffffffffffffffffffffffffffffff1673ffffffffffffffffffffffffffffffffffffffff16815260200191505060206040518083038186803b1580156145d257600080fd5b505afa1580156145e6573d6000803e3d6000fd5b505050506040513d60208110156145fc57600080fd5b81019080805190602001909291905050509050858110151515614662576040517f08c379a0000000000000000000000000000000000000000000000000000000008152600401808060200182810382526000815260200160200191505060405180910390fd5b6000600560008773ffffffffffffffffffffffffffffffffffffffff1673ffffffffffffffffffffffffffffffffffffffff1681526020019081526020016000209050600073ffffffffffffffffffffffffffffffffffffffff168160000160009054906101000a900473ffffffffffffffffffffffffffffffffffffffff1673ffffffffffffffffffffffffffffffffffffffff161415151561476e576040517f08c379a000000000000000000000000000000000000000000000000000000000815260040180806020018281038252601b8152602001807f636f6c6c61746572616c20746f6b656e206e6f7420666f756e642e000000000081525060200191505060405180910390fd5b6000600460009054906101000a900473ffffffffffffffffffffffffffffffffffffffff1673ffffffffffffffffffffffffffffffffffffffff16632271e82a6040518163ffffffff167c0100000000000000000000000000000000000000000000000000000000028152600401602060405180830381600087803b1580156147f657600080fd5b505af115801561480a573d6000803e3d6000fd5b505050506040513d602081101561482057600080fd5b81019080805190602001909291905050509050600061485e8360010154614850848c614f6190919063ffffffff16565b61502e90919063ffffffff16565b90508260030160019054906101000a900473ffffffffffffffffffffffffffffffffffffffff1673ffffffffffffffffffffffffffffffffffffffff1663a9059cbb33836040518363ffffffff167c0100000000000000000000000000000000000000000000000000000000028152600401808373ffffffffffffffffffffffffffffffffffffffff1673ffffffffffffffffffffffffffffffffffffffff16815260200182815260200192505050602060405180830381600087803b15801561492757600080fd5b505af115801561493b573d6000803e3d6000fd5b505050506040513d602081101561495157600080fd5b810190808051906020019092919050505015156149fc576040517f08c379a00000000000000000000000000000000000000000000000000000000081526004018080602001828103825260238152602001807f436f756c646e2774207472616e7366657220636f6c6c61746572616c20746f6b81526020017f656e73000000000000000000000000000000000000000000000000000000000081525060400191505060405180910390fd5b614a1381846002015461554990919063ffffffff16565b8360020181905550600360009054906101000a900473ffffffffffffffffffffffffffffffffffffffff1673ffffffffffffffffffffffffffffffffffffffff16639dc29fac338b6040518363ffffffff167c0100000000000000000000000000000000000000000000000000000000028152600401808373ffffffffffffffffffffffffffffffffffffffff1673ffffffffffffffffffffffffffffffffffffffff16815260200182815260200192505050602060405180830381600087803b158015614ae057600080fd5b505af1158015614af4573d6000803e3d6000fd5b505050506040513d6020811015614b0a57600080fd5b81019080805190602001909291905050501515614b8f576040517f08c379a00000000000000000000000000000000000000000000000000000000081526004018080602001828103825260178152602001807f436f756c646e2774206275726e20554320746f6b656e2e00000000000000000081525060200191505060405180910390fd5b8773ffffffffffffffffffffffffffffffffffffffff163373ffffffffffffffffffffffffffffffffffffffff167f4b4ec05c7eec399d79cfb183d0c3f518b7c0932ad7e7c70f02c7fd086c0af2568b84604051808381526020018281526020019250505060405180910390a360019650505050505060025481141515614c7e576040517f08c379a000000000000000000000000000000000000000000000000000000000815260040180806020018281038252601f8152602001807f5265656e7472616e637947756172643a207265656e7472616e742063616c6c0081525060200191505060405180910390fd5b5092915050565b60003073ffffffffffffffffffffffffffffffffffffffff168273ffffffffffffffffffffffffffffffffffffffff161415614cc45760019050614e8e565b6000809054906101000a900473ffffffffffffffffffffffffffffffffffffffff1673ffffffffffffffffffffffffffffffffffffffff168273ffffffffffffffffffffffffffffffffffffffff161415614d225760019050614e8e565b614d2b82615b67565b15614e8d57600073ffffffffffffffffffffffffffffffffffffffff16600160009054906101000a900473ffffffffffffffffffffffffffffffffffffffff1673ffffffffffffffffffffffffffffffffffffffff161415614d905760009050614e8e565b600160009054906101000a900473ffffffffffffffffffffffffffffffffffffffff1673ffffffffffffffffffffffffffffffffffffffff16638b1b925f836040518263ffffffff167c0100000000000000000000000000000000000000000000000000000000028152600401808273ffffffffffffffffffffffffffffffffffffffff1673ffffffffffffffffffffffffffffffffffffffff16815260200191505060206040518083038186803b158015614e4b57600080fd5b505afa158015614e5f573d6000803e3d6000fd5b505050506040513d6020811015614e7557600080fd5b81019080805190602001909291905050509050614e8e565b5b919050565b60008083600101805490501415614ead5760009050614f5b565b8173ffffffffffffffffffffffffffffffffffffffff16836001018460000160008573ffffffffffffffffffffffffffffffffffffffff1673ffffffffffffffffffffffffffffffffffffffff16815260200190815260200160002054815481101515614f1657fe5b9060005260206000200160009054906101000a900473ffffffffffffffffffffffffffffffffffffffff1673ffffffffffffffffffffffffffffffffffffffff161490505b92915050565b600080831415614f745760009050615028565b60008284029050828482811515614f8757fe5b04141515615023576040517f08c379a00000000000000000000000000000000000000000000000000000000081526004018080602001828103825260218152602001807f536166654d6174683a206d756c7469706c69636174696f6e206f766572666c6f81526020017f770000000000000000000000000000000000000000000000000000000000000081525060400191505060405180910390fd5b809150505b92915050565b600061507083836040805190810160405280601a81526020017f536166654d6174683a206469766973696f6e206279207a65726f000000000000815250615bb3565b905092915050565b6000808360010180549050141561509257600090506150c8565b8183600101846000016000858152602001908152602001600020548154811015156150b957fe5b90600052602060002001541490505b92915050565b6150d88282615078565b1515615172576040517f08c379a00000000000000000000000000000000000000000000000000000000081526004018080602001828103825260358152602001807f556e6f7264657265644b65795365742831303229202d204b657920646f65732081526020017f6e6f7420657869737420696e20746865207365742e000000000000000000000081525060400191505060405180910390fd5b600082600101600161518385615b56565b0381548110151561519057fe5b90600052602060002001549050600083600001600084815260200190815260200160002054905080846000016000848152602001908152602001600020819055508184600101828154811015156151e357fe5b906000526020600020018190555083600001600084815260200190815260200160002060009055836001018054809190600190036152219190615d9d565b5050505050565b6000826001018281548110151561523b57fe5b9060005260206000200160009054906101000a900473ffffffffffffffffffffffffffffffffffffffff16905092915050565b6152c2818460040160008573ffffffffffffffffffffffffffffffffffffffff1673ffffffffffffffffffffffffffffffffffffffff1681526020019081526020016000205461532b90919063ffffffff16565b8360040160008473ffffffffffffffffffffffffffffffffffffffff1673ffffffffffffffffffffffffffffffffffffffff1681526020019081526020016000208190555061531e81846002015461532b90919063ffffffff16565b8360020181905550505050565b60008082840190508381101515156153ab576040517f08c379a000000000000000000000000000000000000000000000000000000000815260040180806020018281038252601b8152602001807f536166654d6174683a206164646974696f6e206f766572666c6f77000000000081525060200191505060405180910390fd5b8091505092915050565b60006001028114151515615457576040517f08c379a00000000000000000000000000000000000000000000000000000000081526004018080602001828103825260288152602001807f556e6f7264657265644b65795365742831303029202d204b65792063616e6e6f81526020017f742062652030783000000000000000000000000000000000000000000000000081525060400191505060405180910390fd5b6154618282615078565b1515156154fc576040517f08c379a00000000000000000000000000000000000000000000000000000000081526004018080602001828103825260358152602001807f556e6f7264657265644b65795365742831303129202d204b657920616c72656181526020017f64792065786973747320696e20746865207365742e000000000000000000000081525060400191505060405180910390fd5b600182600101829080600181540180825580915050906001820390600052602060002001600090919290919091505503826000016000838152602001908152602001600020819055505050565b600061558b83836040805190810160405280601e81526020017f536166654d6174683a207375627472616374696f6e206f766572666c6f770000815250615c7d565b905092915050565b600073ffffffffffffffffffffffffffffffffffffffff168173ffffffffffffffffffffffffffffffffffffffff161415151561565e576040517f08c379a00000000000000000000000000000000000000000000000000000000081526004018080602001828103825260288152602001807f556e6f7264657265644b65795365742831303029202d204b65792063616e6e6f81526020017f742062652030783000000000000000000000000000000000000000000000000081525060400191505060405180910390fd5b6156688282614e93565b151515615729576040517f08c379a00000000000000000000000000000000000000000000000000000000081526004018080602001828103825260438152602001807f556e6f726465726564416464726573735365742831303129202d20416464726581526020017f737320286b65792920616c72656164792065786973747320696e20746865207381526020017f65742e000000000000000000000000000000000000000000000000000000000081525060600191505060405180910390fd5b6001826001018290806001815401808255809150509060018203906000526020600020016000909192909190916101000a81548173ffffffffffffffffffffffffffffffffffffffff021916908373ffffffffffffffffffffffffffffffffffffffff160217905550038260000160008373ffffffffffffffffffffffffffffffffffffffff1673ffffffffffffffffffffffffffffffffffffffff168152602001908152602001600020819055505050565b600081600101805490509050919050565b6000826001018281548110151561580057fe5b9060005260206000200154905092915050565b61589e816040805190810160405280601281526020017f4e6f7420656e6f7567682062616c616e636500000000000000000000000000008152508560040160008673ffffffffffffffffffffffffffffffffffffffff1673ffffffffffffffffffffffffffffffffffffffff16815260200190815260200160002054615c7d9092919063ffffffff16565b8360040160008473ffffffffffffffffffffffffffffffffffffffff1673ffffffffffffffffffffffffffffffffffffffff168152602001908152602001600020819055506158fa81846002015461554990919063ffffffff16565b8360020181905550505050565b8273ffffffffffffffffffffffffffffffffffffffff1663a9059cbb83836040518363ffffffff167c0100000000000000000000000000000000000000000000000000000000028152600401808373ffffffffffffffffffffffffffffffffffffffff1673ffffffffffffffffffffffffffffffffffffffff16815260200182815260200192505050602060405180830381600087803b1580156159aa57600080fd5b505af11580156159be573d6000803e3d6000fd5b505050506040513d60208110156159d457600080fd5b81019080805190602001909291905050501515615a59576040517f08c379a000000000000000000000000000000000000000000000000000000000815260040180806020018281038252601e8152602001807f5472616e73666572206f6620636f6c6c61746572616c206661696c65642e000081525060200191505060405180910390fd5b8173ffffffffffffffffffffffffffffffffffffffff168373ffffffffffffffffffffffffffffffffffffffff167f9b1bfa7fa9ee420a16e124f794c35ac9f90472acc99140eb2f6447c714cad8eb836040518082815260200191505060405180910390a3505050565b615ad781600a6150ce90919063ffffffff16565b60066000828152602001908152602001600020600080820160006101000a81549073ffffffffffffffffffffffffffffffffffffffff0219169055600182016000905560028201600090556003820160006101000a81549073ffffffffffffffffffffffffffffffffffffffff02191690556004820160009055505050565b600081600101805490509050919050565b6000807fc5d2460186f7233c927e7db2dcc703c0e500b653ca82273b7bfad8045d85a47060010290506000833f905060006001028114158015615baa5750818114155b92505050919050565b600080831182901515615c61576040517f08c379a00000000000000000000000000000000000000000000000000000000081526004018080602001828103825283818151815260200191508051906020019080838360005b83811015615c26578082015181840152602081019050615c0b565b50505050905090810190601f168015615c535780820380516001836020036101000a031916815260200191505b509250505060405180910390fd5b5060008385811515615c6f57fe5b049050809150509392505050565b60008383111582901515615d2c576040517f08c379a00000000000000000000000000000000000000000000000000000000081526004018080602001828103825283818151815260200191508051906020019080838360005b83811015615cf1578082015181840152602081019050615cd6565b50505050905090810190601f168015615d1e5780820380516001836020036101000a031916815260200191505b509250505060405180910390fd5b5060008385039050809150509392505050565b60a060405190810160405280600073ffffffffffffffffffffffffffffffffffffffff1681526020016000815260200160008152602001600015158152602001600073ffffffffffffffffffffffffffffffffffffffff1681525090565b815481835581811115615dc457818360005260206000209182019101615dc39190615dc9565b5b505050565b615deb91905b80821115615de7576000816000905550600101615dcf565b5090565b9056fea165627a7a72305820b0f0c89836f0c648ec68adebe8ee159b9c0782dc4fed1a4157255d54d02e3c2e0029",
  "source": "pragma solidity >=0.4.21 <0.6.0;\r\n\r\nimport \"@openzeppelin/contracts/utils/ReentrancyGuard.sol\";\r\nimport \"@openzeppelin/contracts/math/SafeMath.sol\";\r\nimport \"@openzeppelin/contracts/token/ERC20/ERC20Detailed.sol\";\r\nimport \"./UCToken.sol\";\r\nimport \"./UCStorage.sol\";\r\nimport \"./UCCrawlingBand.sol\";\r\n//import \"./UCCollateralTokenInterface.sol\"; // replaced by ERC20Detailed\r\nimport \"./libraries/UnorderedKeySet.sol\"; // or import {UnorderedKeySetLib} from \"./libraries/UnorderedKeySet.sol\";\r\n\r\n/**\r\n * @title UCMarketplace\r\n * @dev Contract destination for aquiring and selling UCs.\r\n */\r\ncontract UCMarketplace is UCChangeable, ReentrancyGuard {\r\n    using SafeMath for uint256;\r\n    using UnorderedKeySetLib for UnorderedKeySetLib.Set;\r\n    using UnorderedAddressSetLib for UnorderedAddressSetLib.Set;\r\n\r\n    /// Public Properties\r\n\r\n    /// Contract Navigation Properties\r\n    UCToken public ucToken;\r\n    UCCrawlingBand public ucCrawlingBand; // The reference to UCCrawlingBand implementation.\r\n    //UCStorage public ucStorage;\r\n\r\n    /// Objects (Structs)\r\n    struct Collateral {\r\n        address tokenAddr; // acceptable ERC20 token address\r\n        uint256 price; // price in US Dollar / 1000000 (6 decimals)\r\n        uint256 orderbookBalance; // total amount of tokens on orderBooks (contract balance)\r\n        bool paused;\r\n        ERC20Detailed token;\r\n        mapping (address => uint256) balances; // maker balance for order books (user balances)\r\n    }\r\n    struct SaleOrder {\r\n    address addr; // acccount address\r\n    uint amount; // UC amount to sell\r\n    uint price;  // price is willing to sell in USD\r\n    address collateral; // the collareral seller wants in exchange\r\n    uint256 expiration; // time the order expires\r\n    }\r\n    struct PurchaseOrder {\r\n    address addr; // maker address\r\n    uint amount; // UC amount wants to purchase\r\n    //uint price;  // UC price in USD\r\n    address collateral;\r\n    uint collAmount;\r\n    uint256 expiration; // time the order expires\r\n    }\r\n\r\n    /// Public Mappings\r\n    mapping(address => Collateral) public collaterals; // mapping of collateralTokens by token address\r\n    mapping(bytes32 => SaleOrder) public saleOrders;\r\n    mapping(bytes32 => PurchaseOrder) public purchaseOrders;\r\n    //mapping (address => uint256) public usdBalances; // amount of USD available for buyers to place orders on orderBook\r\n\r\n    /// Private lists\r\n    UnorderedAddressSetLib.Set collateralsSet;\r\n    UnorderedKeySetLib.Set saleOrdersSet;\r\n    UnorderedKeySetLib.Set purchaseOrdersSet;\r\n\r\n    /// Modifiers\r\n    modifier collateralActive(address collateral) {\r\n        require(collateralsSet.exists(collateral), \"Collateral doesn't exist\");\r\n        require(!collaterals[collateral].paused, \"Collateral temporary paused.\");\r\n        _;\r\n    }\r\n\r\n    constructor(address pathAddress) UCChangeable(pathAddress, \"UCMarketplace\") public {\r\n        ucToken = UCToken(ucPath.getPath(\"UCToken\"));\r\n        ucCrawlingBand = UCCrawlingBand(ucPath.getPath(\"UCCrawlingBand\"));\r\n    }\r\n\r\n    /// Public Methods - Authorized only\r\n\r\n    function acceptNewCollateral(address _tokenAddr, uint256 _price, bool _paused) public auth {\r\n        // TODO: check if is ERC compatible token\r\n\r\n        // check if token hasn't been included yet\r\n        collateralsSet.insert(_tokenAddr); // Note that this will fail automatically if the _tokenAddr already exists.\r\n        //require (collaterals[_tokenAddr].tokenAddr == address(0), \"Collateral token already included.\");\r\n\r\n        collaterals[_tokenAddr] = Collateral({\r\n            tokenAddr: _tokenAddr,\r\n            price: _price,\r\n            orderbookBalance: 0,\r\n            paused: _paused,\r\n            token: ERC20Detailed(_tokenAddr)\r\n        });\r\n        emit NewCollateral(_tokenAddr, _price, _paused);\r\n    }\r\n    function updateCollateral(address _tokenAddr, uint256 _price, bool _paused) public auth {\r\n        require(collateralsSet.exists(_tokenAddr), \"Collateral doesn't exist\");\r\n        Collateral storage c = collaterals[_tokenAddr];\r\n        c.price = _price;\r\n        c.paused = _paused;\r\n        emit CollateralUpdated(_tokenAddr, _price, _paused);\r\n    }\r\n\r\n    /// Public Methods\r\n    function getCollateralsCount() public view returns(uint count) {\r\n        return collateralsSet.count();\r\n    }\r\n    function getCollateralAddressAtIndex(uint _index) public view returns(address _address) {\r\n        return collateralsSet.keyAtIndex(_index);\r\n    }\r\n    function getCollateralBalance(address _tokenAddr, bool includeOrderbook) public view returns (uint256) {\r\n        require(collateralsSet.exists(_tokenAddr), \"Collateral doesn't exist\");\r\n        uint256 totalAmount = collaterals[_tokenAddr].token.balanceOf(address(this));\r\n        if(includeOrderbook) {\r\n            return totalAmount;\r\n        } else {\r\n            return totalAmount.sub(collaterals[_tokenAddr].orderbookBalance);\r\n        }\r\n    }\r\n    function getCollateralRate(address _tokenAddr) public returns(uint256 rate) {\r\n        require(collateralsSet.exists(_tokenAddr), \"Collateral doesn't exist\");\r\n        return collaterals[_tokenAddr].price.div(ucCrawlingBand.getCurrentCeilingPrice());\r\n    }\r\n\r\n    function addSaleOrder(uint _amount, uint _price, address _collateral, uint _expiration) public collateralActive(_collateral) {\r\n        require(_amount > 0, \"UC amount required\");\r\n        //require(collateralsSet.exists(_collateral), \"Collateral doesn't exist\");\r\n        // check if sender has enough balance\r\n        require(ucToken.transferFrom(msg.sender, address(this), _amount), \"Couldn't transfer UC token.\");\r\n\r\n        bytes32 key = keccak256(abi.encodePacked(msg.sender, _amount, _price, _collateral, _expiration, block.number));\r\n        saleOrdersSet.insert(key); // Note that this will fail automatically if the key already exists.\r\n        SaleOrder storage o = saleOrders[key];\r\n        o.amount = _amount;\r\n        o.price = _price;\r\n        o.collateral = _collateral;\r\n        o.expiration = _expiration;\r\n        emit OrderBookChange(msg.sender, key, \"addSaleOrder\", _price, _collateral, _expiration);\r\n    }\r\n    //// instead of update, must remove and place another one.\r\n    // function updateSaleOrder(bytes32 _key, uint _amount, uint _price, uint _expirationInMinutes) public {\r\n    //     require(saleOrdersSet.exists(_key), \"SaleOrder doesn't exist\");\r\n    //     SaleOrder storage o = saleOrders[_key];\r\n    //     require(o.addr = msg.sender, \"order doesn't belong to sender\");\r\n    //     o.amount = _amount;\r\n    //     o.price = _price;\r\n    //     o.prexpirationInMinutesice = _expirationInMinutes;\r\n    //     emit OrderBookChange(msg.sender, _key, \"updateSaleOrder\", _price, _expirationInMinutes);\r\n    // }\r\n    function cancelSaleOrder(bytes32 _key) public {\r\n        require(saleOrdersSet.exists(_key), \"SaleOrder doesn't exist\");\r\n        SaleOrder storage o = saleOrders[_key];\r\n        require(o.addr == msg.sender, \"order doesn't belong to sender\");\r\n        require(ucToken.transferFrom(address(this), msg.sender, o.amount), \"Couldn't transfer UC token.\");\r\n\r\n        saleOrdersSet.remove(_key); // Note that this will fail automatically if the key doesn't exist\r\n        delete saleOrders[_key];\r\n        emit OrderBookChange(msg.sender, _key, \"SaleOrderCancelled\", o.price, o.addr, o.expiration);\r\n    }\r\n    function getSaleOrdersCount() public view returns(uint count) {\r\n        return saleOrdersSet.count();\r\n    }\r\n    function getSaleOrderKeyAtIndex(uint _index) public view returns(bytes32 key) {\r\n        return saleOrdersSet.keyAtIndex(_index);\r\n    }\r\n\r\n    function matchSaleOrder(bytes32 _key, address _buyer, address _collateral, uint256 _amount)\r\n        public collateralActive(_collateral) returns (bool) {\r\n        require(saleOrdersSet.exists(_key), \"SaleOrder doesn't exist\");\r\n        require(collateralsSet.exists(_collateral), \"Collateral doesn't exist\");\r\n\r\n        SaleOrder storage o = saleOrders[_key];\r\n        // check sale order expiration\r\n        if(o.expiration <= now) {\r\n            cancelSaleOrder(_key);\r\n            revert(\"Sale order expired.\");\r\n        }\r\n        Collateral storage c = collaterals[_collateral];\r\n        // check price match\r\n        uint256 offerTotalValue = c.price.mul(_amount);\r\n        uint256 saleTotalValue = o.price.mul(o.amount);\r\n        require(offerTotalValue >= saleTotalValue, \"asking price above offer\");\r\n        // check buyer funds\r\n        uint256 buyerBalance = c.balances[msg.sender]; // amount of collateral buyer already transfered\r\n        if(_amount > buyerBalance) {\r\n            addCollateral(_collateral, _amount.sub(buyerBalance));\r\n        }\r\n        // remove collateral from buyer\r\n        debitCollateral(c, msg.sender, _amount);\r\n        // add collateral to seller\r\n        Collateral storage sc = collaterals[o.collateral];\r\n        uint256 scAmount = saleTotalValue.div(sc.price);\r\n        transferCollateral(sc.token, o.addr, scAmount);\r\n        // transfer UCs\r\n        ucToken.transfer(_buyer, o.amount);\r\n\r\n        deleteSaleOrder(_key);\r\n\r\n        // maybe break orderBookChange into 3 events (new, removed, match)\r\n        emit OrderBookChange(_buyer, _key, \"matchSaleOrder\", offerTotalValue, _collateral, o.expiration);\r\n\r\n        return true;\r\n    }\r\n\r\n\r\n\r\n    /**\r\n     * @dev Deposit collateral for placing purchase orders.\r\n     * The equivalent amount of USD is credited for placing the orders at a later time.\r\n     * @param _collateral collateral Token Address\r\n     * @param _amount amount of collateral Token to exchange\r\n     */\r\n    function addCollateral(address _collateral, uint256 _amount) public collateralActive(_collateral) {\r\n        //require(collateralsSet.exists(_collateral), \"Collateral doesn't exist\");\r\n        Collateral storage cToken = collaterals[_collateral];\r\n        // transfer to collateral reserves\r\n        require(cToken.token.transferFrom(msg.sender, address(this), _amount), \"Transfer of collateral failed.\");\r\n        // // credit USD\r\n        // //uint256 ucCeilingPrice = ucCrawlingBand.getCurrentCeilingPrice();\r\n        // uint256 usdAmount = _amount.mul(cToken.price);\r\n        // usdBalances[msg.sender] = usdBalances[msg.sender].add(usdAmount);\r\n\r\n        // credit collateral balance to user\r\n        creditCollateral(cToken, msg.sender, _amount);\r\n\r\n        emit Deposit(_collateral, msg.sender, _amount);\r\n    }\r\n\r\n    // // sample function for Ether deposits\r\n    // function deposit() payable {\r\n    //     tokens[address(0)][msg.sender] = safeAdd(tokens[address(0)][msg.sender], msg.value);\r\n    //     lastActiveTransaction[msg.sender] = block.number;\r\n    //     Deposit(address(0), msg.sender, msg.value, tokens[address(0)][msg.sender]);\r\n    // }\r\n\r\n    function withdraw(address _collateral, uint256 _amount) public returns (bool success) {\r\n        require(collateralsSet.exists(_collateral), \"Collateral doesn't exist\");\r\n        Collateral storage cToken = collaterals[_collateral];\r\n        // remove credit collateral balance from user & check enough balance\r\n        debitCollateral(cToken, msg.sender, _amount);\r\n        // transfer from collateral reserves\r\n        transferCollateral(cToken.token, msg.sender, _amount);\r\n        return true;\r\n    }\r\n\r\n    /**\r\n     * @dev Make new tokens in exchangefor collateral and assign to sender\r\n     * This function has a non-reentrancy guard, so it shouldn't be called by\r\n     * another `nonReentrant` function.\r\n     * @param _collateral collateral Token Address\r\n     * @param _amount amount of collateral Token to exchange\r\n     * @param _minUCAmount minimum amount of UCs desired in exchange for the collateral\r\n     * @return The amount of UCs buyer received\r\n     */\r\n    function mint(address _collateral, uint256 _amount, uint256 _minUCAmount) public nonReentrant collateralActive(_collateral) returns (bool) {\r\n        require(_amount > 0, \"collateral required\");\r\n\r\n        Collateral storage cToken = collaterals[_collateral];\r\n        // make sure token is an approved token\r\n        require (cToken.tokenAddr != address(0), \"Collateral token not found.\");\r\n\r\n        // check rate\r\n        uint256 ucCeilingPrice = ucCrawlingBand.getCurrentCeilingPrice();\r\n        uint256 ucAmount = (_amount.mul(cToken.price)).div(ucCeilingPrice);\r\n        require(ucAmount >= _minUCAmount, \"Calculated UC amount below minimum.\");\r\n\r\n        // transfer to reserves // TODO: place reserves on different contract to differentiate balance from orderbook balance\r\n        //cToken.balance = cToken.balance.add(_amount); // no longer dduplicating balance. Use function to get balance from token contract.\r\n        require(cToken.token.transferFrom(msg.sender, address(this), _amount), \"Transfer of collateral failed.\");\r\n        //if (!cToken.token.transferFrom(msg.sender, address(this), _amount)) revert(\"Transfer of collateral failed.\");\r\n\r\n        // mint UC\r\n        require(ucToken.mint(msg.sender, ucAmount), \"Couldn't mint UC token.\");\r\n\r\n        emit Mint(_amount, msg.sender, _amount, _collateral);\r\n\r\n        return true;\r\n    }\r\n\r\n    /**\r\n     * @dev Exchange UCs for collateral, burMake new tokens in exchangefor collateral and assign to sender\r\n     * This function has a non-reentrancy guard, so it shouldn't be called by\r\n     * another `nonReentrant` function.\r\n     * @param _amount amount of UC okens to burn\r\n     * @param _collateral collateral Token Address\r\n     * @return The amount of Collateral seller received\r\n     */\r\n    function burn(uint256 _amount, address _collateral) public nonReentrant collateralActive(_collateral) returns (bool) {\r\n        // TODO: implement check minimum balances for each collateral (maybe also do this check when placing an order)\r\n\r\n        require(_amount > 0, \"UC amount required\");\r\n        uint256 balance = ucToken.balanceOf(msg.sender);\r\n        require(balance >= _amount, \"\");\r\n\r\n        // return default\r\n        Collateral storage cToken = collaterals[_collateral];\r\n        // make sure token is an approved token\r\n        require(cToken.tokenAddr != address(0), \"collateral token not found.\");\r\n\r\n        // check rate\r\n        uint256 ucFloorPrice = ucCrawlingBand.getCurrentFloorPrice();\r\n        uint256 cAmount = (_amount.mul(ucFloorPrice)).div(cToken.price);\r\n        //require(cAmount >= _minColAmount, \"Collateral amount to receive is below minimum.\");\r\n\r\n        // transfer from reserves\r\n        //if (!cToken.token.transfer(msg.sender, cAmount)) revert(\"Couldn't transfer collateral tokens\");\r\n        require(cToken.token.transfer(msg.sender, cAmount), \"Couldn't transfer collateral tokens\");\r\n        cToken.orderbookBalance = cToken.orderbookBalance.sub(cAmount);\r\n\r\n        // burn UC\r\n        require(ucToken.burn(msg.sender, _amount), \"Couldn't burn UC token.\");\r\n\r\n        emit Burn(_amount, msg.sender, cAmount, _collateral);\r\n\r\n        //return cAmount;\r\n        return true;\r\n\r\n    }\r\n\r\n    /**\r\n     * @dev Get UC tokens in exchangefor collateral and assign to sender\r\n     * Order is fulfilled either from OrderBook or Minted, whaever is cheaper\r\n     * This function has a non-reentrancy guard, so it shouldn't be called by\r\n     * another `nonReentrant` function.\r\n     * @param _collateral collateral Token Address\r\n     * @param _amount amount of collateral Token to exchange\r\n     * @param _minUCAmount minimum amount of UCs desired in exchange for the collateral\r\n     * @return The amount of UCs buyer received\r\n     */\r\n    function buy(address _collateral, uint256 _amount, uint256 _minUCAmount) public nonReentrant returns (bool) {\r\n        require(_amount > 0, \"collateral required\");\r\n\r\n        Collateral storage cToken = collaterals[_collateral];\r\n        // make sure token is an approved token\r\n        require (cToken.tokenAddr != address(0), \"Collateral token not found.\");\r\n\r\n        // check rate\r\n        uint256 ucCeilingPrice = ucCrawlingBand.getCurrentCeilingPrice();\r\n        uint256 ucAmount = (_amount.mul(cToken.price)).div(ucCeilingPrice);\r\n        require(ucAmount >= _minUCAmount, \"Calculated UC amount below minimum.\");\r\n\r\n        // transfer to reserves\r\n        cToken.orderbookBalance = cToken.orderbookBalance.add(_amount);\r\n        require(cToken.token.transferFrom(msg.sender, address(this), _amount), \"Transfer of collateral failed.\");\r\n        //if (!cToken.token.transferFrom(msg.sender, address(this), _amount)) revert(\"Transfer of collateral failed.\");\r\n\r\n        // mint UC\r\n        require(ucToken.mint(msg.sender, ucAmount), \"Couldn't mint UC token.\");\r\n\r\n        emit Mint(_amount, msg.sender, _amount, _collateral);\r\n\r\n        return true;\r\n    }\r\n\r\n    /**\r\n     * @dev Get Total reserves balance (amount * price) for every collateral\r\n     * @return The total reserves value in USD (6 decimals)\r\n     */\r\n    function getReservesBalance() public view returns(uint256) {\r\n        uint256 totalBalance = 0;\r\n        uint256 collateralCount = getCollateralsCount();\r\n        for (uint256 i = 0; i < collateralCount; i++) {\r\n            address collateralAddress = getCollateralAddressAtIndex(i);\r\n            Collateral memory collateral = collaterals[collateralAddress];\r\n            uint256 collateralBalance = getCollateralBalance(collateralAddress, false);\r\n            totalBalance = totalBalance.add(collateralBalance.mul(collateral.price));\r\n        }\r\n        return totalBalance;\r\n    }\r\n\r\n    /// EVENTS\r\n\r\n    /**\r\n     * @dev Emitted when UC tokens are created\r\n     *\r\n     *\r\n     * Note that `value` may be zero.\r\n     */\r\n    event Mint(uint256 amount, address indexed to, uint256 cost, address indexed collateral);\r\n\r\n    /**\r\n     * @dev Emitted UC tokens are destroied\r\n     *\r\n     */\r\n    event Burn(uint256 amount, address indexed from, uint256 returned, address indexed collateral);\r\n\r\n    /**\r\n     * @dev Emitted when collateral tokens are deposited\r\n     *\r\n     */\r\n    event Deposit(address indexed collateral, address indexed from, uint256 amount);\r\n\r\n    /**\r\n     * @dev Emitted when collateral tokens are withdrawn\r\n     *\r\n     */\r\n    event Withdraw(address indexed collateral, address indexed to, uint256 amount);\r\n\r\n    event NewCollateral(address indexed tokenAddr, uint256 price, bool paused);\r\n\r\n    event CollateralUpdated(address tokenAddr, uint256 price, bool paused);\r\n\r\n    event OrderBookChange(address addr, bytes32 key, string eventType, uint price, address collateral, uint expirationInMinutes);\r\n\r\n    /// Private Methods\r\n\r\n    /**\r\n     * @dev Credit collateral to OrderBook Balance\r\n     * It does not change collateral ownership\r\n     *\r\n     */\r\n    function creditCollateral(Collateral storage collateral, address _to, uint256 _amount) private {\r\n        // credit collateral balance to user\r\n        collateral.balances[_to] = collateral.balances[_to].add(_amount);\r\n        // add orderBook balance\r\n        collateral.orderbookBalance = collateral.orderbookBalance.add(_amount);\r\n    }\r\n    /**\r\n     * @dev Debit collateral from OrderBook\r\n     * It does not change collateral ownership\r\n     *\r\n     */\r\n    function debitCollateral(Collateral storage collateral, address _to, uint256 _amount) private {\r\n        // debit amount from user collateral balance\r\n        collateral.balances[_to] = collateral.balances[_to].sub(_amount, \"Not enough balance\");\r\n        // add orderBook balance\r\n        collateral.orderbookBalance = collateral.orderbookBalance.sub(_amount);\r\n    }\r\n    /**\r\n     * @dev Credit collateral to OrderBook\r\n     *\r\n     */\r\n    function transferCollateral(ERC20Detailed collateral, address _to, uint256 _amount) private {\r\n        require(collateral.transfer(_to, _amount), \"Transfer of collateral failed.\");\r\n        emit Withdraw(address(collateral), _to, _amount);\r\n    }\r\n    function deleteSaleOrder(bytes32 _key) private {\r\n        saleOrdersSet.remove(_key); // Note that this will fail automatically if the key doesn't exist\r\n        delete saleOrders[_key];\r\n    }\r\n}",
  "sourcePath": "E:\\JCL\\Webmaster\\GitHub\\UCToken\\UCToken\\contracts\\UCMarketplace.sol",
  "compiler": {
    "name": "solc",
    "version": "0.5.1+commit.c8a2cb62.Emscripten.clang"
  },
  "schemaVersion": "3.0.19",
  "updatedAt": "2020-04-07T16:02:03.030Z",
  "devdoc": {
    "details": "Contract destination for aquiring and selling UCs.\r",
    "methods": {
      "addCollateral(address,uint256)": {
        "details": "Deposit collateral for placing purchase orders.\r The equivalent amount of USD is credited for placing the orders at a later time.\r",
        "params": {
          "_amount": "amount of collateral Token to exchange\r",
          "_collateral": "collateral Token Address\r"
        }
      },
      "burn(uint256,address)": {
        "details": "Exchange UCs for collateral, burMake new tokens in exchangefor collateral and assign to sender\r This function has a non-reentrancy guard, so it shouldn't be called by\r another `nonReentrant` function.\r",
        "params": {
          "_amount": "amount of UC okens to burn\r",
          "_collateral": "collateral Token Address\r"
        },
        "return": "The amount of Collateral seller received\r"
      },
      "buy(address,uint256,uint256)": {
        "details": "Get UC tokens in exchangefor collateral and assign to sender\r Order is fulfilled either from OrderBook or Minted, whaever is cheaper\r This function has a non-reentrancy guard, so it shouldn't be called by\r another `nonReentrant` function.\r",
        "params": {
          "_amount": "amount of collateral Token to exchange\r",
          "_collateral": "collateral Token Address\r",
          "_minUCAmount": "minimum amount of UCs desired in exchange for the collateral\r"
        },
        "return": "The amount of UCs buyer received\r"
      },
      "getReservesBalance()": {
        "details": "Get Total reserves balance (amount * price) for every collateral\r",
        "return": "The total reserves value in USD (6 decimals)\r"
      },
      "mint(address,uint256,uint256)": {
        "details": "Make new tokens in exchangefor collateral and assign to sender\r This function has a non-reentrancy guard, so it shouldn't be called by\r another `nonReentrant` function.\r",
        "params": {
          "_amount": "amount of collateral Token to exchange\r",
          "_collateral": "collateral Token Address\r",
          "_minUCAmount": "minimum amount of UCs desired in exchange for the collateral\r"
        },
        "return": "The amount of UCs buyer received\r"
      }
    },
    "title": "UCMarketplace\r"
  },
  "userdoc": {
    "methods": {
      "acceptNewCollateral(address,uint256,bool)": {
        "notice": "Public Methods - Authorized only"
      },
      "cancelSaleOrder(bytes32)": {
        "notice": "/ instead of update, must remove and place another one."
      },
      "getCollateralsCount()": {
        "notice": "Public Methods"
      },
      "setOwner(address)": {
        "notice": "Public Methods"
      },
      "updatePath(string,address)": {
        "notice": "Public Auth Mehods"
      }
    }
  }
}