{
  "contractName": "UCMarketplace",
  "abi": [
    {
      "constant": false,
      "inputs": [
        {
          "name": "_owner",
          "type": "address"
        }
      ],
      "name": "setOwner",
      "outputs": [],
      "payable": false,
      "stateMutability": "nonpayable",
      "type": "function"
    },
    {
      "constant": true,
      "inputs": [],
      "name": "ucCrawlingBand",
      "outputs": [
        {
          "name": "",
          "type": "address"
        }
      ],
      "payable": false,
      "stateMutability": "view",
      "type": "function"
    },
    {
      "constant": true,
      "inputs": [],
      "name": "ucToken",
      "outputs": [
        {
          "name": "",
          "type": "address"
        }
      ],
      "payable": false,
      "stateMutability": "view",
      "type": "function"
    },
    {
      "constant": false,
      "inputs": [
        {
          "name": "_path",
          "type": "address"
        }
      ],
      "name": "setPath",
      "outputs": [],
      "payable": false,
      "stateMutability": "nonpayable",
      "type": "function"
    },
    {
      "constant": false,
      "inputs": [
        {
          "name": "pathName",
          "type": "string"
        },
        {
          "name": "pathAddress",
          "type": "address"
        }
      ],
      "name": "updatePath",
      "outputs": [],
      "payable": false,
      "stateMutability": "nonpayable",
      "type": "function"
    },
    {
      "constant": true,
      "inputs": [
        {
          "name": "",
          "type": "bytes32"
        }
      ],
      "name": "saleOrders",
      "outputs": [
        {
          "name": "addr",
          "type": "address"
        },
        {
          "name": "amount",
          "type": "uint256"
        },
        {
          "name": "price",
          "type": "uint256"
        },
        {
          "name": "collateral",
          "type": "address"
        },
        {
          "name": "expiration",
          "type": "uint256"
        }
      ],
      "payable": false,
      "stateMutability": "view",
      "type": "function"
    },
    {
      "constant": true,
      "inputs": [],
      "name": "owner",
      "outputs": [
        {
          "name": "",
          "type": "address"
        }
      ],
      "payable": false,
      "stateMutability": "view",
      "type": "function"
    },
    {
      "constant": true,
      "inputs": [
        {
          "name": "",
          "type": "bytes32"
        }
      ],
      "name": "purchaseOrders",
      "outputs": [
        {
          "name": "addr",
          "type": "address"
        },
        {
          "name": "amount",
          "type": "uint256"
        },
        {
          "name": "collateral",
          "type": "address"
        },
        {
          "name": "collAmount",
          "type": "uint256"
        },
        {
          "name": "expiration",
          "type": "uint256"
        }
      ],
      "payable": false,
      "stateMutability": "view",
      "type": "function"
    },
    {
      "constant": true,
      "inputs": [],
      "name": "ucPath",
      "outputs": [
        {
          "name": "",
          "type": "address"
        }
      ],
      "payable": false,
      "stateMutability": "view",
      "type": "function"
    },
    {
      "constant": true,
      "inputs": [
        {
          "name": "",
          "type": "address"
        }
      ],
      "name": "collaterals",
      "outputs": [
        {
          "name": "tokenAddr",
          "type": "address"
        },
        {
          "name": "price",
          "type": "uint256"
        },
        {
          "name": "orderbookBalance",
          "type": "uint256"
        },
        {
          "name": "paused",
          "type": "bool"
        },
        {
          "name": "token",
          "type": "address"
        }
      ],
      "payable": false,
      "stateMutability": "view",
      "type": "function"
    },
    {
      "inputs": [
        {
          "name": "pathAddress",
          "type": "address"
        }
      ],
      "payable": false,
      "stateMutability": "nonpayable",
      "type": "constructor"
    },
    {
      "anonymous": false,
      "inputs": [
        {
          "indexed": false,
          "name": "amount",
          "type": "uint256"
        },
        {
          "indexed": true,
          "name": "to",
          "type": "address"
        },
        {
          "indexed": false,
          "name": "cost",
          "type": "uint256"
        },
        {
          "indexed": true,
          "name": "collateral",
          "type": "address"
        }
      ],
      "name": "Mint",
      "type": "event"
    },
    {
      "anonymous": false,
      "inputs": [
        {
          "indexed": false,
          "name": "amount",
          "type": "uint256"
        },
        {
          "indexed": true,
          "name": "from",
          "type": "address"
        },
        {
          "indexed": false,
          "name": "returned",
          "type": "uint256"
        },
        {
          "indexed": true,
          "name": "collateral",
          "type": "address"
        }
      ],
      "name": "Burn",
      "type": "event"
    },
    {
      "anonymous": false,
      "inputs": [
        {
          "indexed": true,
          "name": "collateral",
          "type": "address"
        },
        {
          "indexed": true,
          "name": "from",
          "type": "address"
        },
        {
          "indexed": false,
          "name": "amount",
          "type": "uint256"
        }
      ],
      "name": "Deposit",
      "type": "event"
    },
    {
      "anonymous": false,
      "inputs": [
        {
          "indexed": true,
          "name": "collateral",
          "type": "address"
        },
        {
          "indexed": true,
          "name": "to",
          "type": "address"
        },
        {
          "indexed": false,
          "name": "amount",
          "type": "uint256"
        }
      ],
      "name": "Withdraw",
      "type": "event"
    },
    {
      "anonymous": false,
      "inputs": [
        {
          "indexed": true,
          "name": "tokenAddr",
          "type": "address"
        },
        {
          "indexed": false,
          "name": "price",
          "type": "uint256"
        },
        {
          "indexed": false,
          "name": "paused",
          "type": "bool"
        }
      ],
      "name": "NewCollateral",
      "type": "event"
    },
    {
      "anonymous": false,
      "inputs": [
        {
          "indexed": false,
          "name": "tokenAddr",
          "type": "address"
        },
        {
          "indexed": false,
          "name": "price",
          "type": "uint256"
        },
        {
          "indexed": false,
          "name": "paused",
          "type": "bool"
        }
      ],
      "name": "CollateralUpdated",
      "type": "event"
    },
    {
      "anonymous": false,
      "inputs": [
        {
          "indexed": false,
          "name": "addr",
          "type": "address"
        },
        {
          "indexed": false,
          "name": "key",
          "type": "bytes32"
        },
        {
          "indexed": false,
          "name": "eventType",
          "type": "string"
        },
        {
          "indexed": false,
          "name": "price",
          "type": "uint256"
        },
        {
          "indexed": false,
          "name": "collateral",
          "type": "address"
        },
        {
          "indexed": false,
          "name": "expirationInMinutes",
          "type": "uint256"
        }
      ],
      "name": "OrderBookChange",
      "type": "event"
    },
    {
      "anonymous": false,
      "inputs": [
        {
          "indexed": false,
          "name": "owner",
          "type": "address"
        }
      ],
      "name": "NewOwner",
      "type": "event"
    },
    {
      "anonymous": false,
      "inputs": [
        {
          "indexed": false,
          "name": "pathAddress",
          "type": "address"
        }
      ],
      "name": "NewPath",
      "type": "event"
    },
    {
      "anonymous": false,
      "inputs": [
        {
          "indexed": false,
          "name": "pathName",
          "type": "string"
        },
        {
          "indexed": false,
          "name": "pathAddress",
          "type": "address"
        }
      ],
      "name": "PathUpdated",
      "type": "event"
    },
    {
      "constant": false,
      "inputs": [
        {
          "name": "_tokenAddr",
          "type": "address"
        },
        {
          "name": "_price",
          "type": "uint256"
        },
        {
          "name": "_paused",
          "type": "bool"
        }
      ],
      "name": "acceptNewCollateral",
      "outputs": [],
      "payable": false,
      "stateMutability": "nonpayable",
      "type": "function"
    },
    {
      "constant": false,
      "inputs": [
        {
          "name": "_tokenAddr",
          "type": "address"
        },
        {
          "name": "_price",
          "type": "uint256"
        },
        {
          "name": "_paused",
          "type": "bool"
        }
      ],
      "name": "updateCollateral",
      "outputs": [],
      "payable": false,
      "stateMutability": "nonpayable",
      "type": "function"
    },
    {
      "constant": true,
      "inputs": [],
      "name": "getCollateralsCount",
      "outputs": [
        {
          "name": "count",
          "type": "uint256"
        }
      ],
      "payable": false,
      "stateMutability": "view",
      "type": "function"
    },
    {
      "constant": true,
      "inputs": [
        {
          "name": "_index",
          "type": "uint256"
        }
      ],
      "name": "getCollateralAddressAtIndex",
      "outputs": [
        {
          "name": "_address",
          "type": "address"
        }
      ],
      "payable": false,
      "stateMutability": "view",
      "type": "function"
    },
    {
      "constant": true,
      "inputs": [
        {
          "name": "_tokenAddr",
          "type": "address"
        },
        {
          "name": "includeOrderbook",
          "type": "bool"
        }
      ],
      "name": "getCollateralBalance",
      "outputs": [
        {
          "name": "",
          "type": "uint256"
        }
      ],
      "payable": false,
      "stateMutability": "view",
      "type": "function"
    },
    {
      "constant": false,
      "inputs": [
        {
          "name": "_tokenAddr",
          "type": "address"
        }
      ],
      "name": "getCollateralRate",
      "outputs": [
        {
          "name": "rate",
          "type": "uint256"
        }
      ],
      "payable": false,
      "stateMutability": "nonpayable",
      "type": "function"
    },
    {
      "constant": false,
      "inputs": [
        {
          "name": "_amount",
          "type": "uint256"
        },
        {
          "name": "_price",
          "type": "uint256"
        },
        {
          "name": "_collateral",
          "type": "address"
        },
        {
          "name": "_expiration",
          "type": "uint256"
        }
      ],
      "name": "addSaleOrder",
      "outputs": [],
      "payable": false,
      "stateMutability": "nonpayable",
      "type": "function"
    },
    {
      "constant": false,
      "inputs": [
        {
          "name": "_key",
          "type": "bytes32"
        }
      ],
      "name": "cancelSaleOrder",
      "outputs": [],
      "payable": false,
      "stateMutability": "nonpayable",
      "type": "function"
    },
    {
      "constant": true,
      "inputs": [],
      "name": "getSaleOrdersCount",
      "outputs": [
        {
          "name": "count",
          "type": "uint256"
        }
      ],
      "payable": false,
      "stateMutability": "view",
      "type": "function"
    },
    {
      "constant": true,
      "inputs": [
        {
          "name": "_index",
          "type": "uint256"
        }
      ],
      "name": "getSaleOrderKeyAtIndex",
      "outputs": [
        {
          "name": "key",
          "type": "bytes32"
        }
      ],
      "payable": false,
      "stateMutability": "view",
      "type": "function"
    },
    {
      "constant": false,
      "inputs": [
        {
          "name": "_key",
          "type": "bytes32"
        },
        {
          "name": "_buyer",
          "type": "address"
        },
        {
          "name": "_collateral",
          "type": "address"
        },
        {
          "name": "_amount",
          "type": "uint256"
        }
      ],
      "name": "matchSaleOrder",
      "outputs": [
        {
          "name": "",
          "type": "bool"
        }
      ],
      "payable": false,
      "stateMutability": "nonpayable",
      "type": "function"
    },
    {
      "constant": false,
      "inputs": [
        {
          "name": "_collateral",
          "type": "address"
        },
        {
          "name": "_amount",
          "type": "uint256"
        }
      ],
      "name": "addCollateral",
      "outputs": [],
      "payable": false,
      "stateMutability": "nonpayable",
      "type": "function"
    },
    {
      "constant": false,
      "inputs": [
        {
          "name": "_collateral",
          "type": "address"
        },
        {
          "name": "_amount",
          "type": "uint256"
        }
      ],
      "name": "withdraw",
      "outputs": [
        {
          "name": "success",
          "type": "bool"
        }
      ],
      "payable": false,
      "stateMutability": "nonpayable",
      "type": "function"
    },
    {
      "constant": false,
      "inputs": [
        {
          "name": "_collateral",
          "type": "address"
        },
        {
          "name": "_amount",
          "type": "uint256"
        },
        {
          "name": "_minUCAmount",
          "type": "uint256"
        }
      ],
      "name": "mint",
      "outputs": [
        {
          "name": "",
          "type": "bool"
        }
      ],
      "payable": false,
      "stateMutability": "nonpayable",
      "type": "function"
    },
    {
      "constant": false,
      "inputs": [
        {
          "name": "_amount",
          "type": "uint256"
        },
        {
          "name": "_collateral",
          "type": "address"
        }
      ],
      "name": "burn",
      "outputs": [
        {
          "name": "",
          "type": "bool"
        }
      ],
      "payable": false,
      "stateMutability": "nonpayable",
      "type": "function"
    },
    {
      "constant": false,
      "inputs": [
        {
          "name": "_collateral",
          "type": "address"
        },
        {
          "name": "_amount",
          "type": "uint256"
        },
        {
          "name": "_minUCAmount",
          "type": "uint256"
        }
      ],
      "name": "buy",
      "outputs": [
        {
          "name": "",
          "type": "bool"
        }
      ],
      "payable": false,
      "stateMutability": "nonpayable",
      "type": "function"
    },
    {
      "constant": true,
      "inputs": [],
      "name": "getReservesBalance",
      "outputs": [
        {
          "name": "",
          "type": "uint256"
        }
      ],
      "payable": false,
      "stateMutability": "view",
      "type": "function"
    }
  ],
  "bytecode": "0x60806040523480156200001157600080fd5b5060405160208062005d7a833981018060405260208110156200003357600080fd5b8101908080519060200190929190505050806040518060400160405280600d81526020017f55434d61726b6574706c61636500000000000000000000000000000000000000815250336000806101000a81548173ffffffffffffffffffffffffffffffffffffffff021916908373ffffffffffffffffffffffffffffffffffffffff1602179055507f3edd90e7770f06fafde38004653b33870066c33bfc923ff6102acd601f85dfbc33604051808273ffffffffffffffffffffffffffffffffffffffff1673ffffffffffffffffffffffffffffffffffffffff16815260200191505060405180910390a160405180807f55435061746800000000000000000000000000000000000000000000000000008152506006019050604051809103902081805190602001201415620001aa5730600160006101000a81548173ffffffffffffffffffffffffffffffffffffffff021916908373ffffffffffffffffffffffffffffffffffffffff160217905550620001ec565b81600160006101000a81548173ffffffffffffffffffffffffffffffffffffffff021916908373ffffffffffffffffffffffffffffffffffffffff1602179055505b50506001600281905550600160009054906101000a900473ffffffffffffffffffffffffffffffffffffffff1673ffffffffffffffffffffffffffffffffffffffff1663af61c6a66040518163ffffffff1660e01b81526004018080602001828103825260078152602001807f5543546f6b656e0000000000000000000000000000000000000000000000000081525060200191505060206040518083038186803b1580156200029b57600080fd5b505afa158015620002b0573d6000803e3d6000fd5b505050506040513d6020811015620002c757600080fd5b8101908080519060200190929190505050600360006101000a81548173ffffffffffffffffffffffffffffffffffffffff021916908373ffffffffffffffffffffffffffffffffffffffff160217905550600160009054906101000a900473ffffffffffffffffffffffffffffffffffffffff1673ffffffffffffffffffffffffffffffffffffffff1663af61c6a66040518163ffffffff1660e01b815260040180806020018281038252600e8152602001807f5543437261776c696e6742616e6400000000000000000000000000000000000081525060200191505060206040518083038186803b158015620003bd57600080fd5b505afa158015620003d2573d6000803e3d6000fd5b505050506040513d6020811015620003e957600080fd5b8101908080519060200190929190505050600460006101000a81548173ffffffffffffffffffffffffffffffffffffffff021916908373ffffffffffffffffffffffffffffffffffffffff1602179055505061592f806200044b6000396000f3fe608060405234801561001057600080fd5b50600436106101a95760003560e01c80637e1f1189116100f9578063a98e7faf11610097578063eeb97d3b11610071578063eeb97d3b14610a4f578063f3fef3a314610b1f578063f8d40c5e14610b85578063fcd3533c14610ba3576101a9565b8063a98e7faf14610933578063ad1ad7e914610975578063deae3b1e14610a05576101a9565b8063a331146e116100d3578063a331146e14610795578063a3e15d09146107ef578063a59ac6dd1461080d578063a7992b041461087d576101a9565b80637e1f1189146106855780638da5cb5b146106e75780639faad01f14610731576101a9565b80635071f3b3116101665780636aa1945a116101405780636aa1945a146105535780636d75b9ee146105c15780636e19b8051461060f57806377e071ad1461062d576101a9565b80635071f3b314610394578063599b4fbc146103c25780635d24c6831461049d576101a9565b80630363a161146101ae57806313af403514610208578063156e29f61461024c5780631c0b7fa1146102bc57806324aba59f146103065780633b95517714610350575b600080fd5b610206600480360360608110156101c457600080fd5b81019080803573ffffffffffffffffffffffffffffffffffffffff16906020019092919080359060200190929190803515159060200190929190505050610c09565b005b61024a6004803603602081101561021e57600080fd5b81019080803573ffffffffffffffffffffffffffffffffffffffff169060200190929190505050610def565b005b6102a26004803603606081101561026257600080fd5b81019080803573ffffffffffffffffffffffffffffffffffffffff1690602001909291908035906020019092919080359060200190929190505050610f10565b604051808215151515815260200191505060405180910390f35b6102c46116f8565b604051808273ffffffffffffffffffffffffffffffffffffffff1673ffffffffffffffffffffffffffffffffffffffff16815260200191505060405180910390f35b61030e61171e565b604051808273ffffffffffffffffffffffffffffffffffffffff1673ffffffffffffffffffffffffffffffffffffffff16815260200191505060405180910390f35b6103926004803603602081101561036657600080fd5b81019080803573ffffffffffffffffffffffffffffffffffffffff169060200190929190505050611744565b005b6103c0600480360360208110156103aa57600080fd5b8101908080359060200190929190505050611866565b005b61049b600480360360408110156103d857600080fd5b81019080803590602001906401000000008111156103f557600080fd5b82018360208201111561040757600080fd5b8035906020019184600183028401116401000000008311171561042957600080fd5b91908080601f016020809104026020016040519081016040528093929190818152602001838380828437600081840152601f19601f820116905080830192505050505050509192919290803573ffffffffffffffffffffffffffffffffffffffff169060200190929190505050611cfe565b005b6104c9600480360360208110156104b357600080fd5b8101908080359060200190929190505050611e4d565b604051808673ffffffffffffffffffffffffffffffffffffffff1673ffffffffffffffffffffffffffffffffffffffff1681526020018581526020018481526020018373ffffffffffffffffffffffffffffffffffffffff1673ffffffffffffffffffffffffffffffffffffffff1681526020018281526020019550505050505060405180910390f35b61057f6004803603602081101561056957600080fd5b8101908080359060200190929190505050611ec3565b604051808273ffffffffffffffffffffffffffffffffffffffff1673ffffffffffffffffffffffffffffffffffffffff16815260200191505060405180910390f35b61060d600480360360408110156105d757600080fd5b81019080803573ffffffffffffffffffffffffffffffffffffffff16906020019092919080359060200190929190505050611ee0565b005b61061761226f565b6040518082815260200191505060405180910390f35b61066f6004803603602081101561064357600080fd5b81019080803573ffffffffffffffffffffffffffffffffffffffff16906020019092919050505061241f565b6040518082815260200191505060405180910390f35b6106e56004803603608081101561069b57600080fd5b810190808035906020019092919080359060200190929190803573ffffffffffffffffffffffffffffffffffffffff169060200190929190803590602001909291905050506125a7565b005b6106ef612b1c565b604051808273ffffffffffffffffffffffffffffffffffffffff1673ffffffffffffffffffffffffffffffffffffffff16815260200191505060405180910390f35b61077f6004803603604081101561074757600080fd5b81019080803573ffffffffffffffffffffffffffffffffffffffff169060200190929190803515159060200190929190505050612b41565b6040518082815260200191505060405180910390f35b6107ed600480360360608110156107ab57600080fd5b81019080803573ffffffffffffffffffffffffffffffffffffffff16906020019092919080359060200190929190803515159060200190929190505050612d55565b005b6107f7612f9d565b6040518082815260200191505060405180910390f35b6108636004803603606081101561082357600080fd5b81019080803573ffffffffffffffffffffffffffffffffffffffff1690602001909291908035906020019092919080359060200190929190505050612fae565b604051808215151515815260200191505060405180910390f35b6108a96004803603602081101561089357600080fd5b810190808035906020019092919050505061366a565b604051808673ffffffffffffffffffffffffffffffffffffffff1673ffffffffffffffffffffffffffffffffffffffff1681526020018581526020018473ffffffffffffffffffffffffffffffffffffffff1673ffffffffffffffffffffffffffffffffffffffff1681526020018381526020018281526020019550505050505060405180910390f35b61095f6004803603602081101561094957600080fd5b81019080803590602001909291905050506136e0565b6040518082815260200191505060405180910390f35b6109eb6004803603608081101561098b57600080fd5b8101908080359060200190929190803573ffffffffffffffffffffffffffffffffffffffff169060200190929190803573ffffffffffffffffffffffffffffffffffffffff169060200190929190803590602001909291905050506136fd565b604051808215151515815260200191505060405180910390f35b610a0d613e1e565b604051808273ffffffffffffffffffffffffffffffffffffffff1673ffffffffffffffffffffffffffffffffffffffff16815260200191505060405180910390f35b610a9160048036036020811015610a6557600080fd5b81019080803573ffffffffffffffffffffffffffffffffffffffff169060200190929190505050613e44565b604051808673ffffffffffffffffffffffffffffffffffffffff1673ffffffffffffffffffffffffffffffffffffffff168152602001858152602001848152602001831515151581526020018273ffffffffffffffffffffffffffffffffffffffff1673ffffffffffffffffffffffffffffffffffffffff1681526020019550505050505060405180910390f35b610b6b60048036036040811015610b3557600080fd5b81019080803573ffffffffffffffffffffffffffffffffffffffff16906020019092919080359060200190929190505050613ec7565b604051808215151515815260200191505060405180910390f35b610b8d613fd7565b6040518082815260200191505060405180910390f35b610bef60048036036040811015610bb957600080fd5b8101908080359060200190929190803573ffffffffffffffffffffffffffffffffffffffff169060200190929190505050613fe8565b604051808215151515815260200191505060405180910390f35b610c1233614875565b610c84576040517f08c379a000000000000000000000000000000000000000000000000000000000815260040180806020018281038252600e8152602001807f4e6f7420617574686f72697a656400000000000000000000000000000000000081525060200191505060405180910390fd5b610c98836008614a6790919063ffffffff16565b610d0a576040517f08c379a00000000000000000000000000000000000000000000000000000000081526004018080602001828103825260188152602001807f436f6c6c61746572616c20646f65736e2774206578697374000000000000000081525060200191505060405180910390fd5b6000600560008573ffffffffffffffffffffffffffffffffffffffff1673ffffffffffffffffffffffffffffffffffffffff1681526020019081526020016000209050828160010181905550818160030160006101000a81548160ff0219169083151502179055507f1fd639a1c735f2fd00919c0fe006a9ddc66e78a5666694b1cd2367e441d9e6c4848484604051808473ffffffffffffffffffffffffffffffffffffffff1673ffffffffffffffffffffffffffffffffffffffff16815260200183815260200182151515158152602001935050505060405180910390a150505050565b610df833614875565b610e6a576040517f08c379a000000000000000000000000000000000000000000000000000000000815260040180806020018281038252600e8152602001807f4e6f7420617574686f72697a656400000000000000000000000000000000000081525060200191505060405180910390fd5b806000806101000a81548173ffffffffffffffffffffffffffffffffffffffff021916908373ffffffffffffffffffffffffffffffffffffffff1602179055507f3edd90e7770f06fafde38004653b33870066c33bfc923ff6102acd601f85dfbc81604051808273ffffffffffffffffffffffffffffffffffffffff1673ffffffffffffffffffffffffffffffffffffffff16815260200191505060405180910390a150565b600060016002600082825401925050819055506000600254905084610f3f816008614a6790919063ffffffff16565b610fb1576040517f08c379a00000000000000000000000000000000000000000000000000000000081526004018080602001828103825260188152602001807f436f6c6c61746572616c20646f65736e2774206578697374000000000000000081525060200191505060405180910390fd5b600560008273ffffffffffffffffffffffffffffffffffffffff1673ffffffffffffffffffffffffffffffffffffffff16815260200190815260200160002060030160009054906101000a900460ff1615611074576040517f08c379a000000000000000000000000000000000000000000000000000000000815260040180806020018281038252601c8152602001807f436f6c6c61746572616c2074656d706f72617279207061757365642e0000000081525060200191505060405180910390fd5b600085116110ea576040517f08c379a00000000000000000000000000000000000000000000000000000000081526004018080602001828103825260138152602001807f636f6c6c61746572616c2072657175697265640000000000000000000000000081525060200191505060405180910390fd5b6000600560008873ffffffffffffffffffffffffffffffffffffffff1673ffffffffffffffffffffffffffffffffffffffff1681526020019081526020016000209050600073ffffffffffffffffffffffffffffffffffffffff168160000160009054906101000a900473ffffffffffffffffffffffffffffffffffffffff1673ffffffffffffffffffffffffffffffffffffffff1614156111f4576040517f08c379a000000000000000000000000000000000000000000000000000000000815260040180806020018281038252601b8152602001807f436f6c6c61746572616c20746f6b656e206e6f7420666f756e642e000000000081525060200191505060405180910390fd5b6000600460009054906101000a900473ffffffffffffffffffffffffffffffffffffffff1673ffffffffffffffffffffffffffffffffffffffff16636a05b6fb6040518163ffffffff1660e01b8152600401602060405180830381600087803b15801561126057600080fd5b505af1158015611274573d6000803e3d6000fd5b505050506040513d602081101561128a57600080fd5b8101908080519060200190929190505050905060006112c8826112ba85600101548b614b3390919063ffffffff16565b614bb990919063ffffffff16565b905086811015611323576040517f08c379a00000000000000000000000000000000000000000000000000000000081526004018080602001828103825260238152602001806158136023913960400191505060405180910390fd5b8260030160019054906101000a900473ffffffffffffffffffffffffffffffffffffffff1673ffffffffffffffffffffffffffffffffffffffff166323b872dd33308b6040518463ffffffff1660e01b8152600401808473ffffffffffffffffffffffffffffffffffffffff1673ffffffffffffffffffffffffffffffffffffffff1681526020018373ffffffffffffffffffffffffffffffffffffffff1673ffffffffffffffffffffffffffffffffffffffff1681526020018281526020019350505050602060405180830381600087803b15801561140257600080fd5b505af1158015611416573d6000803e3d6000fd5b505050506040513d602081101561142c57600080fd5b81019080805190602001909291905050506114af576040517f08c379a000000000000000000000000000000000000000000000000000000000815260040180806020018281038252601e8152602001807f5472616e73666572206f6620636f6c6c61746572616c206661696c65642e000081525060200191505060405180910390fd5b600360009054906101000a900473ffffffffffffffffffffffffffffffffffffffff1673ffffffffffffffffffffffffffffffffffffffff166340c10f1933836040518363ffffffff1660e01b8152600401808373ffffffffffffffffffffffffffffffffffffffff1673ffffffffffffffffffffffffffffffffffffffff16815260200182815260200192505050602060405180830381600087803b15801561155857600080fd5b505af115801561156c573d6000803e3d6000fd5b505050506040513d602081101561158257600080fd5b8101908080519060200190929190505050611605576040517f08c379a00000000000000000000000000000000000000000000000000000000081526004018080602001828103825260178152602001807f436f756c646e2774206d696e7420554320746f6b656e2e00000000000000000081525060200191505060405180910390fd5b8873ffffffffffffffffffffffffffffffffffffffff163373ffffffffffffffffffffffffffffffffffffffff167ebaba90461dd94d87f953250c6986d342b4d21dd938f4203ef321a3ba5c43458a8b604051808381526020018281526020019250505060405180910390a3600195505050505060025481146116f0576040517f08c379a000000000000000000000000000000000000000000000000000000000815260040180806020018281038252601f8152602001807f5265656e7472616e637947756172643a207265656e7472616e742063616c6c0081525060200191505060405180910390fd5b509392505050565b600460009054906101000a900473ffffffffffffffffffffffffffffffffffffffff1681565b600360009054906101000a900473ffffffffffffffffffffffffffffffffffffffff1681565b61174d33614875565b6117bf576040517f08c379a000000000000000000000000000000000000000000000000000000000815260040180806020018281038252600e8152602001807f4e6f7420617574686f72697a656400000000000000000000000000000000000081525060200191505060405180910390fd5b80600160006101000a81548173ffffffffffffffffffffffffffffffffffffffff021916908373ffffffffffffffffffffffffffffffffffffffff1602179055507f06996b58b8ff542ff91d7a929369bb5d93940639f7849f15d0f95923d1d1705181604051808273ffffffffffffffffffffffffffffffffffffffff1673ffffffffffffffffffffffffffffffffffffffff16815260200191505060405180910390a150565b61187a81600a614c0390919063ffffffff16565b6118ec576040517f08c379a00000000000000000000000000000000000000000000000000000000081526004018080602001828103825260178152602001807f53616c654f7264657220646f65736e277420657869737400000000000000000081525060200191505060405180910390fd5b60006006600083815260200190815260200160002090503373ffffffffffffffffffffffffffffffffffffffff168160000160009054906101000a900473ffffffffffffffffffffffffffffffffffffffff1673ffffffffffffffffffffffffffffffffffffffff16146119c8576040517f08c379a000000000000000000000000000000000000000000000000000000000815260040180806020018281038252601e8152602001807f6f7264657220646f65736e27742062656c6f6e6720746f2073656e646572000081525060200191505060405180910390fd5b600360009054906101000a900473ffffffffffffffffffffffffffffffffffffffff1673ffffffffffffffffffffffffffffffffffffffff166323b872dd303384600101546040518463ffffffff1660e01b8152600401808473ffffffffffffffffffffffffffffffffffffffff1673ffffffffffffffffffffffffffffffffffffffff1681526020018373ffffffffffffffffffffffffffffffffffffffff1673ffffffffffffffffffffffffffffffffffffffff1681526020018281526020019350505050602060405180830381600087803b158015611aa957600080fd5b505af1158015611abd573d6000803e3d6000fd5b505050506040513d6020811015611ad357600080fd5b8101908080519060200190929190505050611b56576040517f08c379a000000000000000000000000000000000000000000000000000000000815260040180806020018281038252601b8152602001807f436f756c646e2774207472616e7366657220554320746f6b656e2e000000000081525060200191505060405180910390fd5b611b6a82600a614c5790919063ffffffff16565b60066000838152602001908152602001600020600080820160006101000a81549073ffffffffffffffffffffffffffffffffffffffff0219169055600182016000905560028201600090556003820160006101000a81549073ffffffffffffffffffffffffffffffffffffffff0219169055600482016000905550507f6def06a35fb814314ad1f4a805908af1ad3ee2dac75b390deb1d3e8752b54ba3338383600201548460000160009054906101000a900473ffffffffffffffffffffffffffffffffffffffff168560040154604051808673ffffffffffffffffffffffffffffffffffffffff1673ffffffffffffffffffffffffffffffffffffffff168152602001858152602001806020018581526020018473ffffffffffffffffffffffffffffffffffffffff1673ffffffffffffffffffffffffffffffffffffffff168152602001838152602001828103825260128152602001807f53616c654f7264657243616e63656c6c65640000000000000000000000000000815250602001965050505050505060405180910390a15050565b611d0733614875565b611d79576040517f08c379a000000000000000000000000000000000000000000000000000000000815260040180806020018281038252600e8152602001807f4e6f7420617574686f72697a656400000000000000000000000000000000000081525060200191505060405180910390fd5b7f0bf1be166f5b263d06191a42d6ab01a3333b6da101cf1cc7bba6f07a70dd2ff5828260405180806020018373ffffffffffffffffffffffffffffffffffffffff1673ffffffffffffffffffffffffffffffffffffffff168152602001828103825284818151815260200191508051906020019080838360005b83811015611e0e578082015181840152602081019050611df3565b50505050905090810190601f168015611e3b5780820380516001836020036101000a031916815260200191505b50935050505060405180910390a15050565b60066020528060005260406000206000915090508060000160009054906101000a900473ffffffffffffffffffffffffffffffffffffffff16908060010154908060020154908060030160009054906101000a900473ffffffffffffffffffffffffffffffffffffffff16908060040154905085565b6000611ed9826008614d6890919063ffffffff16565b9050919050565b81611ef5816008614a6790919063ffffffff16565b611f67576040517f08c379a00000000000000000000000000000000000000000000000000000000081526004018080602001828103825260188152602001807f436f6c6c61746572616c20646f65736e2774206578697374000000000000000081525060200191505060405180910390fd5b600560008273ffffffffffffffffffffffffffffffffffffffff1673ffffffffffffffffffffffffffffffffffffffff16815260200190815260200160002060030160009054906101000a900460ff161561202a576040517f08c379a000000000000000000000000000000000000000000000000000000000815260040180806020018281038252601c8152602001807f436f6c6c61746572616c2074656d706f72617279207061757365642e0000000081525060200191505060405180910390fd5b6000600560008573ffffffffffffffffffffffffffffffffffffffff1673ffffffffffffffffffffffffffffffffffffffff16815260200190815260200160002090508060030160019054906101000a900473ffffffffffffffffffffffffffffffffffffffff1673ffffffffffffffffffffffffffffffffffffffff166323b872dd3330866040518463ffffffff1660e01b8152600401808473ffffffffffffffffffffffffffffffffffffffff1673ffffffffffffffffffffffffffffffffffffffff1681526020018373ffffffffffffffffffffffffffffffffffffffff1673ffffffffffffffffffffffffffffffffffffffff1681526020018281526020019350505050602060405180830381600087803b15801561214c57600080fd5b505af1158015612160573d6000803e3d6000fd5b505050506040513d602081101561217657600080fd5b81019080805190602001909291905050506121f9576040517f08c379a000000000000000000000000000000000000000000000000000000000815260040180806020018281038252601e8152602001807f5472616e73666572206f6620636f6c6c61746572616c206661696c65642e000081525060200191505060405180910390fd5b612204813385614dac565b3373ffffffffffffffffffffffffffffffffffffffff168473ffffffffffffffffffffffffffffffffffffffff167f5548c837ab068cf56a2c2479df0882a4922fd203edb7517321831d95078c5f62856040518082815260200191505060405180910390a350505050565b600080600090506000612280612f9d565b905060008090505b8181101561241657600061229b82611ec3565b90506122a5615719565b600560008373ffffffffffffffffffffffffffffffffffffffff1673ffffffffffffffffffffffffffffffffffffffff1681526020019081526020016000206040518060a00160405290816000820160009054906101000a900473ffffffffffffffffffffffffffffffffffffffff1673ffffffffffffffffffffffffffffffffffffffff1673ffffffffffffffffffffffffffffffffffffffff16815260200160018201548152602001600282015481526020016003820160009054906101000a900460ff161515151581526020016003820160019054906101000a900473ffffffffffffffffffffffffffffffffffffffff1673ffffffffffffffffffffffffffffffffffffffff1673ffffffffffffffffffffffffffffffffffffffff1681525050905060006123d9836000612b41565b90506124046123f5836020015183614b3390919063ffffffff16565b87614e6990919063ffffffff16565b95505050508080600101915050612288565b50819250505090565b6000612435826008614a6790919063ffffffff16565b6124a7576040517f08c379a00000000000000000000000000000000000000000000000000000000081526004018080602001828103825260188152602001807f436f6c6c61746572616c20646f65736e2774206578697374000000000000000081525060200191505060405180910390fd5b6125a0600460009054906101000a900473ffffffffffffffffffffffffffffffffffffffff1673ffffffffffffffffffffffffffffffffffffffff16636a05b6fb6040518163ffffffff1660e01b8152600401602060405180830381600087803b15801561251457600080fd5b505af1158015612528573d6000803e3d6000fd5b505050506040513d602081101561253e57600080fd5b8101908080519060200190929190505050600560008573ffffffffffffffffffffffffffffffffffffffff1673ffffffffffffffffffffffffffffffffffffffff16815260200190815260200160002060010154614bb990919063ffffffff16565b9050919050565b816125bc816008614a6790919063ffffffff16565b61262e576040517f08c379a00000000000000000000000000000000000000000000000000000000081526004018080602001828103825260188152602001807f436f6c6c61746572616c20646f65736e2774206578697374000000000000000081525060200191505060405180910390fd5b600560008273ffffffffffffffffffffffffffffffffffffffff1673ffffffffffffffffffffffffffffffffffffffff16815260200190815260200160002060030160009054906101000a900460ff16156126f1576040517f08c379a000000000000000000000000000000000000000000000000000000000815260040180806020018281038252601c8152602001807f436f6c6c61746572616c2074656d706f72617279207061757365642e0000000081525060200191505060405180910390fd5b60008511612767576040517f08c379a00000000000000000000000000000000000000000000000000000000081526004018080602001828103825260128152602001807f554320616d6f756e74207265717569726564000000000000000000000000000081525060200191505060405180910390fd5b600360009054906101000a900473ffffffffffffffffffffffffffffffffffffffff1673ffffffffffffffffffffffffffffffffffffffff166323b872dd3330886040518463ffffffff1660e01b8152600401808473ffffffffffffffffffffffffffffffffffffffff1673ffffffffffffffffffffffffffffffffffffffff1681526020018373ffffffffffffffffffffffffffffffffffffffff1673ffffffffffffffffffffffffffffffffffffffff1681526020018281526020019350505050602060405180830381600087803b15801561284457600080fd5b505af1158015612858573d6000803e3d6000fd5b505050506040513d602081101561286e57600080fd5b81019080805190602001909291905050506128f1576040517f08c379a000000000000000000000000000000000000000000000000000000000815260040180806020018281038252601b8152602001807f436f756c646e2774207472616e7366657220554320746f6b656e2e000000000081525060200191505060405180910390fd5b6000338686868643604051602001808773ffffffffffffffffffffffffffffffffffffffff1673ffffffffffffffffffffffffffffffffffffffff1660601b81526014018681526020018581526020018473ffffffffffffffffffffffffffffffffffffffff1673ffffffffffffffffffffffffffffffffffffffff1660601b815260140183815260200182815260200196505050505050506040516020818303038152906040528051906020012090506129b681600a614ef190919063ffffffff16565b6000600660008381526020019081526020016000209050868160010181905550858160020181905550848160030160006101000a81548173ffffffffffffffffffffffffffffffffffffffff021916908373ffffffffffffffffffffffffffffffffffffffff1602179055508381600401819055507f6def06a35fb814314ad1f4a805908af1ad3ee2dac75b390deb1d3e8752b54ba33383888888604051808673ffffffffffffffffffffffffffffffffffffffff1673ffffffffffffffffffffffffffffffffffffffff168152602001858152602001806020018581526020018473ffffffffffffffffffffffffffffffffffffffff1673ffffffffffffffffffffffffffffffffffffffff1681526020018381526020018281038252600c8152602001807f61646453616c654f726465720000000000000000000000000000000000000000815250602001965050505050505060405180910390a150505050505050565b6000809054906101000a900473ffffffffffffffffffffffffffffffffffffffff1681565b6000612b57836008614a6790919063ffffffff16565b612bc9576040517f08c379a00000000000000000000000000000000000000000000000000000000081526004018080602001828103825260188152602001807f436f6c6c61746572616c20646f65736e2774206578697374000000000000000081525060200191505060405180910390fd5b6000600560008573ffffffffffffffffffffffffffffffffffffffff1673ffffffffffffffffffffffffffffffffffffffff16815260200190815260200160002060030160019054906101000a900473ffffffffffffffffffffffffffffffffffffffff1673ffffffffffffffffffffffffffffffffffffffff166370a08231306040518263ffffffff1660e01b8152600401808273ffffffffffffffffffffffffffffffffffffffff1673ffffffffffffffffffffffffffffffffffffffff16815260200191505060206040518083038186803b158015612caa57600080fd5b505afa158015612cbe573d6000803e3d6000fd5b505050506040513d6020811015612cd457600080fd5b810190808051906020019092919050505090508215612cf65780915050612d4f565b612d4b600560008673ffffffffffffffffffffffffffffffffffffffff1673ffffffffffffffffffffffffffffffffffffffff1681526020019081526020016000206002015482614ffa90919063ffffffff16565b9150505b92915050565b612d5e33614875565b612dd0576040517f08c379a000000000000000000000000000000000000000000000000000000000815260040180806020018281038252600e8152602001807f4e6f7420617574686f72697a656400000000000000000000000000000000000081525060200191505060405180910390fd5b612de483600861504490919063ffffffff16565b6040518060a001604052808473ffffffffffffffffffffffffffffffffffffffff1681526020018381526020016000815260200182151581526020018473ffffffffffffffffffffffffffffffffffffffff16815250600560008573ffffffffffffffffffffffffffffffffffffffff1673ffffffffffffffffffffffffffffffffffffffff16815260200190815260200160002060008201518160000160006101000a81548173ffffffffffffffffffffffffffffffffffffffff021916908373ffffffffffffffffffffffffffffffffffffffff160217905550602082015181600101556040820151816002015560608201518160030160006101000a81548160ff02191690831515021790555060808201518160030160016101000a81548173ffffffffffffffffffffffffffffffffffffffff021916908373ffffffffffffffffffffffffffffffffffffffff1602179055509050508273ffffffffffffffffffffffffffffffffffffffff167ffad4575afe29a4ea895984772a769168c6fcf0bdfb76d302e863e6258842f384838360405180838152602001821515151581526020019250505060405180910390a2505050565b6000612fa960086151dd565b905090565b60006001600260008282540192505081905550600060025490506000841161303e576040517f08c379a00000000000000000000000000000000000000000000000000000000081526004018080602001828103825260138152602001807f636f6c6c61746572616c2072657175697265640000000000000000000000000081525060200191505060405180910390fd5b6000600560008773ffffffffffffffffffffffffffffffffffffffff1673ffffffffffffffffffffffffffffffffffffffff1681526020019081526020016000209050600073ffffffffffffffffffffffffffffffffffffffff168160000160009054906101000a900473ffffffffffffffffffffffffffffffffffffffff1673ffffffffffffffffffffffffffffffffffffffff161415613148576040517f08c379a000000000000000000000000000000000000000000000000000000000815260040180806020018281038252601b8152602001807f436f6c6c61746572616c20746f6b656e206e6f7420666f756e642e000000000081525060200191505060405180910390fd5b6000600460009054906101000a900473ffffffffffffffffffffffffffffffffffffffff1673ffffffffffffffffffffffffffffffffffffffff16636a05b6fb6040518163ffffffff1660e01b8152600401602060405180830381600087803b1580156131b457600080fd5b505af11580156131c8573d6000803e3d6000fd5b505050506040513d60208110156131de57600080fd5b81019080805190602001909291905050509050600061321c8261320e85600101548a614b3390919063ffffffff16565b614bb990919063ffffffff16565b905085811015613277576040517f08c379a00000000000000000000000000000000000000000000000000000000081526004018080602001828103825260238152602001806158136023913960400191505060405180910390fd5b61328e878460020154614e6990919063ffffffff16565b83600201819055508260030160019054906101000a900473ffffffffffffffffffffffffffffffffffffffff1673ffffffffffffffffffffffffffffffffffffffff166323b872dd33308a6040518463ffffffff1660e01b8152600401808473ffffffffffffffffffffffffffffffffffffffff1673ffffffffffffffffffffffffffffffffffffffff1681526020018373ffffffffffffffffffffffffffffffffffffffff1673ffffffffffffffffffffffffffffffffffffffff1681526020018281526020019350505050602060405180830381600087803b15801561337557600080fd5b505af1158015613389573d6000803e3d6000fd5b505050506040513d602081101561339f57600080fd5b8101908080519060200190929190505050613422576040517f08c379a000000000000000000000000000000000000000000000000000000000815260040180806020018281038252601e8152602001807f5472616e73666572206f6620636f6c6c61746572616c206661696c65642e000081525060200191505060405180910390fd5b600360009054906101000a900473ffffffffffffffffffffffffffffffffffffffff1673ffffffffffffffffffffffffffffffffffffffff166340c10f1933836040518363ffffffff1660e01b8152600401808373ffffffffffffffffffffffffffffffffffffffff1673ffffffffffffffffffffffffffffffffffffffff16815260200182815260200192505050602060405180830381600087803b1580156134cb57600080fd5b505af11580156134df573d6000803e3d6000fd5b505050506040513d60208110156134f557600080fd5b8101908080519060200190929190505050613578576040517f08c379a00000000000000000000000000000000000000000000000000000000081526004018080602001828103825260178152602001807f436f756c646e2774206d696e7420554320746f6b656e2e00000000000000000081525060200191505060405180910390fd5b8773ffffffffffffffffffffffffffffffffffffffff163373ffffffffffffffffffffffffffffffffffffffff167ebaba90461dd94d87f953250c6986d342b4d21dd938f4203ef321a3ba5c4345898a604051808381526020018281526020019250505060405180910390a3600194505050506002548114613662576040517f08c379a000000000000000000000000000000000000000000000000000000000815260040180806020018281038252601f8152602001807f5265656e7472616e637947756172643a207265656e7472616e742063616c6c0081525060200191505060405180910390fd5b509392505050565b60076020528060005260406000206000915090508060000160009054906101000a900473ffffffffffffffffffffffffffffffffffffffff16908060010154908060020160009054906101000a900473ffffffffffffffffffffffffffffffffffffffff16908060030154908060040154905085565b60006136f682600a6151ee90919063ffffffff16565b9050919050565b600082613714816008614a6790919063ffffffff16565b613786576040517f08c379a00000000000000000000000000000000000000000000000000000000081526004018080602001828103825260188152602001807f436f6c6c61746572616c20646f65736e2774206578697374000000000000000081525060200191505060405180910390fd5b600560008273ffffffffffffffffffffffffffffffffffffffff1673ffffffffffffffffffffffffffffffffffffffff16815260200190815260200160002060030160009054906101000a900460ff1615613849576040517f08c379a000000000000000000000000000000000000000000000000000000000815260040180806020018281038252601c8152602001807f436f6c6c61746572616c2074656d706f72617279207061757365642e0000000081525060200191505060405180910390fd5b61385d86600a614c0390919063ffffffff16565b6138cf576040517f08c379a00000000000000000000000000000000000000000000000000000000081526004018080602001828103825260178152602001807f53616c654f7264657220646f65736e277420657869737400000000000000000081525060200191505060405180910390fd5b6138e3846008614a6790919063ffffffff16565b613955576040517f08c379a00000000000000000000000000000000000000000000000000000000081526004018080602001828103825260188152602001807f436f6c6c61746572616c20646f65736e2774206578697374000000000000000081525060200191505060405180910390fd5b6000600660008881526020019081526020016000209050428160040154116139ee5761398087611866565b6040517f08c379a00000000000000000000000000000000000000000000000000000000081526004018080602001828103825260138152602001807f53616c65206f7264657220657870697265642e0000000000000000000000000081525060200191505060405180910390fd5b6000600560008773ffffffffffffffffffffffffffffffffffffffff1673ffffffffffffffffffffffffffffffffffffffff16815260200190815260200160002090506000613a4a868360010154614b3390919063ffffffff16565b90506000613a6984600101548560020154614b3390919063ffffffff16565b905080821015613ae1576040517f08c379a00000000000000000000000000000000000000000000000000000000081526004018080602001828103825260188152602001807f61736b696e672070726963652061626f7665206f66666572000000000000000081525060200191505060405180910390fd5b60008360040160003373ffffffffffffffffffffffffffffffffffffffff1673ffffffffffffffffffffffffffffffffffffffff16815260200190815260200160002054905080881115613b4c57613b4b89613b46838b614ffa90919063ffffffff16565b611ee0565b5b613b5784338a615212565b6000600560008760030160009054906101000a900473ffffffffffffffffffffffffffffffffffffffff1673ffffffffffffffffffffffffffffffffffffffff1673ffffffffffffffffffffffffffffffffffffffff16815260200190815260200160002090506000613bd7826001015485614bb990919063ffffffff16565b9050613c2c8260030160019054906101000a900473ffffffffffffffffffffffffffffffffffffffff168860000160009054906101000a900473ffffffffffffffffffffffffffffffffffffffff1683615306565b600360009054906101000a900473ffffffffffffffffffffffffffffffffffffffff1673ffffffffffffffffffffffffffffffffffffffff1663a9059cbb8d89600101546040518363ffffffff1660e01b8152600401808373ffffffffffffffffffffffffffffffffffffffff1673ffffffffffffffffffffffffffffffffffffffff16815260200182815260200192505050602060405180830381600087803b158015613cd957600080fd5b505af1158015613ced573d6000803e3d6000fd5b505050506040513d6020811015613d0357600080fd5b810190808051906020019092919050505050613d1e8d6154a4565b7f6def06a35fb814314ad1f4a805908af1ad3ee2dac75b390deb1d3e8752b54ba38c8e878e8b60040154604051808673ffffffffffffffffffffffffffffffffffffffff1673ffffffffffffffffffffffffffffffffffffffff168152602001858152602001806020018581526020018473ffffffffffffffffffffffffffffffffffffffff1673ffffffffffffffffffffffffffffffffffffffff1681526020018381526020018281038252600e8152602001807f6d6174636853616c654f72646572000000000000000000000000000000000000815250602001965050505050505060405180910390a1600198505050505050505050949350505050565b600160009054906101000a900473ffffffffffffffffffffffffffffffffffffffff1681565b60056020528060005260406000206000915090508060000160009054906101000a900473ffffffffffffffffffffffffffffffffffffffff16908060010154908060020154908060030160009054906101000a900460ff16908060030160019054906101000a900473ffffffffffffffffffffffffffffffffffffffff16905085565b6000613edd836008614a6790919063ffffffff16565b613f4f576040517f08c379a00000000000000000000000000000000000000000000000000000000081526004018080602001828103825260188152602001807f436f6c6c61746572616c20646f65736e2774206578697374000000000000000081525060200191505060405180910390fd5b6000600560008573ffffffffffffffffffffffffffffffffffffffff1673ffffffffffffffffffffffffffffffffffffffff1681526020019081526020016000209050613f9d813385615212565b613fcc8160030160019054906101000a900473ffffffffffffffffffffffffffffffffffffffff163385615306565b600191505092915050565b6000613fe3600a615537565b905090565b600060016002600082825401925050819055506000600254905082614017816008614a6790919063ffffffff16565b614089576040517f08c379a00000000000000000000000000000000000000000000000000000000081526004018080602001828103825260188152602001807f436f6c6c61746572616c20646f65736e2774206578697374000000000000000081525060200191505060405180910390fd5b600560008273ffffffffffffffffffffffffffffffffffffffff1673ffffffffffffffffffffffffffffffffffffffff16815260200190815260200160002060030160009054906101000a900460ff161561414c576040517f08c379a000000000000000000000000000000000000000000000000000000000815260040180806020018281038252601c8152602001807f436f6c6c61746572616c2074656d706f72617279207061757365642e0000000081525060200191505060405180910390fd5b600085116141c2576040517f08c379a00000000000000000000000000000000000000000000000000000000081526004018080602001828103825260128152602001807f554320616d6f756e74207265717569726564000000000000000000000000000081525060200191505060405180910390fd5b6000600360009054906101000a900473ffffffffffffffffffffffffffffffffffffffff1673ffffffffffffffffffffffffffffffffffffffff166370a08231336040518263ffffffff1660e01b8152600401808273ffffffffffffffffffffffffffffffffffffffff1673ffffffffffffffffffffffffffffffffffffffff16815260200191505060206040518083038186803b15801561426357600080fd5b505afa158015614277573d6000803e3d6000fd5b505050506040513d602081101561428d57600080fd5b81019080805190602001909291905050509050858110156142f1576040517f08c379a0000000000000000000000000000000000000000000000000000000008152600401808060200182810382526000815260200160200191505060405180910390fd5b6000600560008773ffffffffffffffffffffffffffffffffffffffff1673ffffffffffffffffffffffffffffffffffffffff1681526020019081526020016000209050600073ffffffffffffffffffffffffffffffffffffffff168160000160009054906101000a900473ffffffffffffffffffffffffffffffffffffffff1673ffffffffffffffffffffffffffffffffffffffff1614156143fb576040517f08c379a000000000000000000000000000000000000000000000000000000000815260040180806020018281038252601b8152602001807f636f6c6c61746572616c20746f6b656e206e6f7420666f756e642e000000000081525060200191505060405180910390fd5b6000600460009054906101000a900473ffffffffffffffffffffffffffffffffffffffff1673ffffffffffffffffffffffffffffffffffffffff16632271e82a6040518163ffffffff1660e01b8152600401602060405180830381600087803b15801561446757600080fd5b505af115801561447b573d6000803e3d6000fd5b505050506040513d602081101561449157600080fd5b8101908080519060200190929190505050905060006144cf83600101546144c1848c614b3390919063ffffffff16565b614bb990919063ffffffff16565b90508260030160019054906101000a900473ffffffffffffffffffffffffffffffffffffffff1673ffffffffffffffffffffffffffffffffffffffff1663a9059cbb33836040518363ffffffff1660e01b8152600401808373ffffffffffffffffffffffffffffffffffffffff1673ffffffffffffffffffffffffffffffffffffffff16815260200182815260200192505050602060405180830381600087803b15801561457c57600080fd5b505af1158015614590573d6000803e3d6000fd5b505050506040513d60208110156145a657600080fd5b810190808051906020019092919050505061460c576040517f08c379a00000000000000000000000000000000000000000000000000000000081526004018080602001828103825260238152602001806157f06023913960400191505060405180910390fd5b614623818460020154614ffa90919063ffffffff16565b8360020181905550600360009054906101000a900473ffffffffffffffffffffffffffffffffffffffff1673ffffffffffffffffffffffffffffffffffffffff16639dc29fac338b6040518363ffffffff1660e01b8152600401808373ffffffffffffffffffffffffffffffffffffffff1673ffffffffffffffffffffffffffffffffffffffff16815260200182815260200192505050602060405180830381600087803b1580156146d457600080fd5b505af11580156146e8573d6000803e3d6000fd5b505050506040513d60208110156146fe57600080fd5b8101908080519060200190929190505050614781576040517f08c379a00000000000000000000000000000000000000000000000000000000081526004018080602001828103825260178152602001807f436f756c646e2774206275726e20554320746f6b656e2e00000000000000000081525060200191505060405180910390fd5b8773ffffffffffffffffffffffffffffffffffffffff163373ffffffffffffffffffffffffffffffffffffffff167f4b4ec05c7eec399d79cfb183d0c3f518b7c0932ad7e7c70f02c7fd086c0af2568b84604051808381526020018281526020019250505060405180910390a3600196505050505050600254811461486e576040517f08c379a000000000000000000000000000000000000000000000000000000000815260040180806020018281038252601f8152602001807f5265656e7472616e637947756172643a207265656e7472616e742063616c6c0081525060200191505060405180910390fd5b5092915050565b60003073ffffffffffffffffffffffffffffffffffffffff168273ffffffffffffffffffffffffffffffffffffffff1614156148b45760019050614a62565b6000809054906101000a900473ffffffffffffffffffffffffffffffffffffffff1673ffffffffffffffffffffffffffffffffffffffff168273ffffffffffffffffffffffffffffffffffffffff1614156149125760019050614a62565b61491b82615548565b15614a6157600073ffffffffffffffffffffffffffffffffffffffff16600160009054906101000a900473ffffffffffffffffffffffffffffffffffffffff1673ffffffffffffffffffffffffffffffffffffffff1614156149805760009050614a62565b600160009054906101000a900473ffffffffffffffffffffffffffffffffffffffff1673ffffffffffffffffffffffffffffffffffffffff16638b1b925f836040518263ffffffff1660e01b8152600401808273ffffffffffffffffffffffffffffffffffffffff1673ffffffffffffffffffffffffffffffffffffffff16815260200191505060206040518083038186803b158015614a1f57600080fd5b505afa158015614a33573d6000803e3d6000fd5b505050506040513d6020811015614a4957600080fd5b81019080805190602001909291905050509050614a62565b5b919050565b60008083600101805490501415614a815760009050614b2d565b8173ffffffffffffffffffffffffffffffffffffffff16836001018460000160008573ffffffffffffffffffffffffffffffffffffffff1673ffffffffffffffffffffffffffffffffffffffff1681526020019081526020016000205481548110614ae857fe5b9060005260206000200160009054906101000a900473ffffffffffffffffffffffffffffffffffffffff1673ffffffffffffffffffffffffffffffffffffffff161490505b92915050565b600080831415614b465760009050614bb3565b6000828402905082848281614b5757fe5b0414614bae576040517f08c379a00000000000000000000000000000000000000000000000000000000081526004018080602001828103825260218152602001806158e36021913960400191505060405180910390fd5b809150505b92915050565b6000614bfb83836040518060400160405280601a81526020017f536166654d6174683a206469766973696f6e206279207a65726f000000000000815250615593565b905092915050565b60008083600101805490501415614c1d5760009050614c51565b81836001018460000160008581526020019081526020016000205481548110614c4257fe5b90600052602060002001541490505b92915050565b614c618282614c03565b614cb6576040517f08c379a00000000000000000000000000000000000000000000000000000000081526004018080602001828103825260358152602001806158796035913960400191505060405180910390fd5b6000826001016001614cc785615537565b0381548110614cd257fe5b906000526020600020015490506000836000016000848152602001908152602001600020549050808460000160008481526020019081526020016000208190555081846001018281548110614d2357fe5b90600052602060002001819055508360000160008481526020019081526020016000206000905583600101805480919060019003614d619190615776565b5050505050565b6000826001018281548110614d7957fe5b9060005260206000200160009054906101000a900473ffffffffffffffffffffffffffffffffffffffff16905092915050565b614e00818460040160008573ffffffffffffffffffffffffffffffffffffffff1673ffffffffffffffffffffffffffffffffffffffff16815260200190815260200160002054614e6990919063ffffffff16565b8360040160008473ffffffffffffffffffffffffffffffffffffffff1673ffffffffffffffffffffffffffffffffffffffff16815260200190815260200160002081905550614e5c818460020154614e6990919063ffffffff16565b8360020181905550505050565b600080828401905083811015614ee7576040517f08c379a000000000000000000000000000000000000000000000000000000000815260040180806020018281038252601b8152602001807f536166654d6174683a206164646974696f6e206f766572666c6f77000000000081525060200191505060405180910390fd5b8091505092915050565b6000801b811415614f4d576040517f08c379a00000000000000000000000000000000000000000000000000000000081526004018080602001828103825260288152602001806157c86028913960400191505060405180910390fd5b614f578282614c03565b15614fad576040517f08c379a00000000000000000000000000000000000000000000000000000000081526004018080602001828103825260358152602001806158ae6035913960400191505060405180910390fd5b600182600101829080600181540180825580915050906001820390600052602060002001600090919290919091505503826000016000838152602001908152602001600020819055505050565b600061503c83836040518060400160405280601e81526020017f536166654d6174683a207375627472616374696f6e206f766572666c6f770000815250615659565b905092915050565b600073ffffffffffffffffffffffffffffffffffffffff168173ffffffffffffffffffffffffffffffffffffffff1614156150ca576040517f08c379a00000000000000000000000000000000000000000000000000000000081526004018080602001828103825260288152602001806157c86028913960400191505060405180910390fd5b6150d48282614a67565b1561512a576040517f08c379a00000000000000000000000000000000000000000000000000000000081526004018080602001828103825260438152602001806158366043913960600191505060405180910390fd5b6001826001018290806001815401808255809150509060018203906000526020600020016000909192909190916101000a81548173ffffffffffffffffffffffffffffffffffffffff021916908373ffffffffffffffffffffffffffffffffffffffff160217905550038260000160008373ffffffffffffffffffffffffffffffffffffffff1673ffffffffffffffffffffffffffffffffffffffff168152602001908152602001600020819055505050565b600081600101805490509050919050565b60008260010182815481106151ff57fe5b9060005260206000200154905092915050565b61529d816040518060400160405280601281526020017f4e6f7420656e6f7567682062616c616e636500000000000000000000000000008152508560040160008673ffffffffffffffffffffffffffffffffffffffff1673ffffffffffffffffffffffffffffffffffffffff168152602001908152602001600020546156599092919063ffffffff16565b8360040160008473ffffffffffffffffffffffffffffffffffffffff1673ffffffffffffffffffffffffffffffffffffffff168152602001908152602001600020819055506152f9818460020154614ffa90919063ffffffff16565b8360020181905550505050565b8273ffffffffffffffffffffffffffffffffffffffff1663a9059cbb83836040518363ffffffff1660e01b8152600401808373ffffffffffffffffffffffffffffffffffffffff1673ffffffffffffffffffffffffffffffffffffffff16815260200182815260200192505050602060405180830381600087803b15801561538d57600080fd5b505af11580156153a1573d6000803e3d6000fd5b505050506040513d60208110156153b757600080fd5b810190808051906020019092919050505061543a576040517f08c379a000000000000000000000000000000000000000000000000000000000815260040180806020018281038252601e8152602001807f5472616e73666572206f6620636f6c6c61746572616c206661696c65642e000081525060200191505060405180910390fd5b8173ffffffffffffffffffffffffffffffffffffffff168373ffffffffffffffffffffffffffffffffffffffff167f9b1bfa7fa9ee420a16e124f794c35ac9f90472acc99140eb2f6447c714cad8eb836040518082815260200191505060405180910390a3505050565b6154b881600a614c5790919063ffffffff16565b60066000828152602001908152602001600020600080820160006101000a81549073ffffffffffffffffffffffffffffffffffffffff0219169055600182016000905560028201600090556003820160006101000a81549073ffffffffffffffffffffffffffffffffffffffff02191690556004820160009055505050565b600081600101805490509050919050565b6000807fc5d2460186f7233c927e7db2dcc703c0e500b653ca82273b7bfad8045d85a47060001b90506000833f90506000801b811415801561558a5750818114155b92505050919050565b6000808311829061563f576040517f08c379a00000000000000000000000000000000000000000000000000000000081526004018080602001828103825283818151815260200191508051906020019080838360005b838110156156045780820151818401526020810190506155e9565b50505050905090810190601f1680156156315780820380516001836020036101000a031916815260200191505b509250505060405180910390fd5b50600083858161564b57fe5b049050809150509392505050565b6000838311158290615706576040517f08c379a00000000000000000000000000000000000000000000000000000000081526004018080602001828103825283818151815260200191508051906020019080838360005b838110156156cb5780820151818401526020810190506156b0565b50505050905090810190601f1680156156f85780820380516001836020036101000a031916815260200191505b509250505060405180910390fd5b5060008385039050809150509392505050565b6040518060a00160405280600073ffffffffffffffffffffffffffffffffffffffff1681526020016000815260200160008152602001600015158152602001600073ffffffffffffffffffffffffffffffffffffffff1681525090565b81548183558181111561579d5781836000526020600020918201910161579c91906157a2565b5b505050565b6157c491905b808211156157c05760008160009055506001016157a8565b5090565b9056fe556e6f7264657265644b65795365742831303029202d204b65792063616e6e6f7420626520307830436f756c646e2774207472616e7366657220636f6c6c61746572616c20746f6b656e7343616c63756c6174656420554320616d6f756e742062656c6f77206d696e696d756d2e556e6f726465726564416464726573735365742831303129202d204164647265737320286b65792920616c72656164792065786973747320696e20746865207365742e556e6f7264657265644b65795365742831303229202d204b657920646f6573206e6f7420657869737420696e20746865207365742e556e6f7264657265644b65795365742831303129202d204b657920616c72656164792065786973747320696e20746865207365742e536166654d6174683a206d756c7469706c69636174696f6e206f766572666c6f77a165627a7a723058207c4c6b8ffe8de2962d72628e6ce497e441c13c29761ed25138ff5db66f389b530029",
  "source": "pragma solidity >=0.4.21 <0.6.0;\r\n\r\nimport \"@openzeppelin/contracts/utils/ReentrancyGuard.sol\";\r\nimport \"@openzeppelin/contracts/math/SafeMath.sol\";\r\nimport \"@openzeppelin/contracts/token/ERC20/ERC20Detailed.sol\";\r\nimport \"./UCToken.sol\";\r\nimport \"./UCStorage.sol\";\r\nimport \"./UCCrawlingBand.sol\";\r\n//import \"./UCCollateralTokenInterface.sol\"; // replaced by ERC20Detailed\r\nimport \"./libraries/UnorderedKeySet.sol\"; // or import {UnorderedKeySetLib} from \"./libraries/UnorderedKeySet.sol\";\r\n\r\n/**\r\n * @title UCMarketplace\r\n * @dev Contract destination for aquiring and selling UCs.\r\n */\r\ncontract UCMarketplace is UCChangeable, ReentrancyGuard {\r\n    using SafeMath for uint256;\r\n    using UnorderedKeySetLib for UnorderedKeySetLib.Set;\r\n    using UnorderedAddressSetLib for UnorderedAddressSetLib.Set;\r\n\r\n    /// Public Properties\r\n\r\n    /// Contract Navigation Properties\r\n    UCToken public ucToken;\r\n    UCCrawlingBand public ucCrawlingBand; // The reference to UCCrawlingBand implementation.\r\n    //UCStorage public ucStorage;\r\n\r\n    /// Objects (Structs)\r\n    struct Collateral {\r\n        address tokenAddr; // acceptable ERC20 token address\r\n        uint256 price; // price in US Dollar / 1000000 (6 decimals)\r\n        uint256 orderbookBalance; // total amount of tokens on orderBooks (contract balance)\r\n        bool paused;\r\n        ERC20Detailed token;\r\n        mapping (address => uint256) balances; // maker balance for order books (user balances)\r\n    }\r\n    struct SaleOrder {\r\n    address addr; // acccount address\r\n    uint amount; // UC amount to sell\r\n    uint price;  // price is willing to sell in USD\r\n    address collateral; // the collareral seller wants in exchange\r\n    uint256 expiration; // time the order expires\r\n    }\r\n    struct PurchaseOrder {\r\n    address addr; // maker address\r\n    uint amount; // UC amount wants to purchase\r\n    //uint price;  // UC price in USD\r\n    address collateral;\r\n    uint collAmount;\r\n    uint256 expiration; // time the order expires\r\n    }\r\n\r\n    /// Public Mappings\r\n    mapping(address => Collateral) public collaterals; // mapping of collateralTokens by token address\r\n    mapping(bytes32 => SaleOrder) public saleOrders;\r\n    mapping(bytes32 => PurchaseOrder) public purchaseOrders;\r\n    //mapping (address => uint256) public usdBalances; // amount of USD available for buyers to place orders on orderBook\r\n\r\n    /// Private lists\r\n    UnorderedAddressSetLib.Set collateralsSet;\r\n    UnorderedKeySetLib.Set saleOrdersSet;\r\n    UnorderedKeySetLib.Set purchaseOrdersSet;\r\n\r\n    /// Modifiers\r\n    modifier collateralActive(address collateral) {\r\n        require(collateralsSet.exists(collateral), \"Collateral doesn't exist\");\r\n        require(!collaterals[collateral].paused, \"Collateral temporary paused.\");\r\n        _;\r\n    }\r\n\r\n    constructor(address pathAddress) UCChangeable(pathAddress, \"UCMarketplace\") public {\r\n        ucToken = UCToken(ucPath.getPath(\"UCToken\"));\r\n        ucCrawlingBand = UCCrawlingBand(ucPath.getPath(\"UCCrawlingBand\"));\r\n    }\r\n\r\n    /// Public Methods - Authorized only\r\n\r\n    function acceptNewCollateral(address _tokenAddr, uint256 _price, bool _paused) public auth {\r\n        // TODO: check if is ERC compatible token\r\n\r\n        // check if token hasn't been included yet\r\n        collateralsSet.insert(_tokenAddr); // Note that this will fail automatically if the _tokenAddr already exists.\r\n        //require (collaterals[_tokenAddr].tokenAddr == address(0), \"Collateral token already included.\");\r\n\r\n        collaterals[_tokenAddr] = Collateral({\r\n            tokenAddr: _tokenAddr,\r\n            price: _price,\r\n            orderbookBalance: 0,\r\n            paused: _paused,\r\n            token: ERC20Detailed(_tokenAddr)\r\n        });\r\n        emit NewCollateral(_tokenAddr, _price, _paused);\r\n    }\r\n    function updateCollateral(address _tokenAddr, uint256 _price, bool _paused) public auth {\r\n        require(collateralsSet.exists(_tokenAddr), \"Collateral doesn't exist\");\r\n        Collateral storage c = collaterals[_tokenAddr];\r\n        c.price = _price;\r\n        c.paused = _paused;\r\n        emit CollateralUpdated(_tokenAddr, _price, _paused);\r\n    }\r\n\r\n    /// Public Methods\r\n    function getCollateralsCount() public view returns(uint count) {\r\n        return collateralsSet.count();\r\n    }\r\n    function getCollateralAddressAtIndex(uint _index) public view returns(address _address) {\r\n        return collateralsSet.keyAtIndex(_index);\r\n    }\r\n    function getCollateralBalance(address _tokenAddr, bool includeOrderbook) public view returns (uint256) {\r\n        require(collateralsSet.exists(_tokenAddr), \"Collateral doesn't exist\");\r\n        uint256 totalAmount = collaterals[_tokenAddr].token.balanceOf(address(this));\r\n        if(includeOrderbook) {\r\n            return totalAmount;\r\n        } else {\r\n            return totalAmount.sub(collaterals[_tokenAddr].orderbookBalance);\r\n        }\r\n    }\r\n    function getCollateralRate(address _tokenAddr) public returns(uint256 rate) {\r\n        require(collateralsSet.exists(_tokenAddr), \"Collateral doesn't exist\");\r\n        return collaterals[_tokenAddr].price.div(ucCrawlingBand.getCurrentCeilingPrice());\r\n    }\r\n\r\n    function addSaleOrder(uint _amount, uint _price, address _collateral, uint _expiration) public collateralActive(_collateral) {\r\n        require(_amount > 0, \"UC amount required\");\r\n        //require(collateralsSet.exists(_collateral), \"Collateral doesn't exist\");\r\n        // check if sender has enough balance\r\n        require(ucToken.transferFrom(msg.sender, address(this), _amount), \"Couldn't transfer UC token.\");\r\n\r\n        bytes32 key = keccak256(abi.encodePacked(msg.sender, _amount, _price, _collateral, _expiration, block.number));\r\n        saleOrdersSet.insert(key); // Note that this will fail automatically if the key already exists.\r\n        SaleOrder storage o = saleOrders[key];\r\n        o.amount = _amount;\r\n        o.price = _price;\r\n        o.collateral = _collateral;\r\n        o.expiration = _expiration;\r\n        emit OrderBookChange(msg.sender, key, \"addSaleOrder\", _price, _collateral, _expiration);\r\n    }\r\n    //// instead of update, must remove and place another one.\r\n    // function updateSaleOrder(bytes32 _key, uint _amount, uint _price, uint _expirationInMinutes) public {\r\n    //     require(saleOrdersSet.exists(_key), \"SaleOrder doesn't exist\");\r\n    //     SaleOrder storage o = saleOrders[_key];\r\n    //     require(o.addr = msg.sender, \"order doesn't belong to sender\");\r\n    //     o.amount = _amount;\r\n    //     o.price = _price;\r\n    //     o.prexpirationInMinutesice = _expirationInMinutes;\r\n    //     emit OrderBookChange(msg.sender, _key, \"updateSaleOrder\", _price, _expirationInMinutes);\r\n    // }\r\n    function cancelSaleOrder(bytes32 _key) public {\r\n        require(saleOrdersSet.exists(_key), \"SaleOrder doesn't exist\");\r\n        SaleOrder storage o = saleOrders[_key];\r\n        require(o.addr == msg.sender, \"order doesn't belong to sender\");\r\n        require(ucToken.transferFrom(address(this), msg.sender, o.amount), \"Couldn't transfer UC token.\");\r\n\r\n        saleOrdersSet.remove(_key); // Note that this will fail automatically if the key doesn't exist\r\n        delete saleOrders[_key];\r\n        emit OrderBookChange(msg.sender, _key, \"SaleOrderCancelled\", o.price, o.addr, o.expiration);\r\n    }\r\n    function getSaleOrdersCount() public view returns(uint count) {\r\n        return saleOrdersSet.count();\r\n    }\r\n    function getSaleOrderKeyAtIndex(uint _index) public view returns(bytes32 key) {\r\n        return saleOrdersSet.keyAtIndex(_index);\r\n    }\r\n\r\n    function matchSaleOrder(bytes32 _key, address _buyer, address _collateral, uint256 _amount)\r\n        public collateralActive(_collateral) returns (bool) {\r\n        require(saleOrdersSet.exists(_key), \"SaleOrder doesn't exist\");\r\n        require(collateralsSet.exists(_collateral), \"Collateral doesn't exist\");\r\n\r\n        SaleOrder storage o = saleOrders[_key];\r\n        // check sale order expiration\r\n        if(o.expiration <= now) {\r\n            cancelSaleOrder(_key);\r\n            revert(\"Sale order expired.\");\r\n        }\r\n        Collateral storage c = collaterals[_collateral];\r\n        // check price match\r\n        uint256 offerTotalValue = c.price.mul(_amount);\r\n        uint256 saleTotalValue = o.price.mul(o.amount);\r\n        require(offerTotalValue >= saleTotalValue, \"asking price above offer\");\r\n        // check buyer funds\r\n        uint256 buyerBalance = c.balances[msg.sender]; // amount of collateral buyer already transfered\r\n        if(_amount > buyerBalance) {\r\n            addCollateral(_collateral, _amount.sub(buyerBalance));\r\n        }\r\n        // remove collateral from buyer\r\n        debitCollateral(c, msg.sender, _amount);\r\n        // add collateral to seller\r\n        Collateral storage sc = collaterals[o.collateral];\r\n        uint256 scAmount = saleTotalValue.div(sc.price);\r\n        transferCollateral(sc.token, o.addr, scAmount);\r\n        // transfer UCs\r\n        ucToken.transfer(_buyer, o.amount);\r\n\r\n        deleteSaleOrder(_key);\r\n\r\n        // maybe break orderBookChange into 3 events (new, removed, match)\r\n        emit OrderBookChange(_buyer, _key, \"matchSaleOrder\", offerTotalValue, _collateral, o.expiration);\r\n\r\n        return true;\r\n    }\r\n\r\n\r\n\r\n    /**\r\n     * @dev Deposit collateral for placing purchase orders.\r\n     * The equivalent amount of USD is credited for placing the orders at a later time.\r\n     * @param _collateral collateral Token Address\r\n     * @param _amount amount of collateral Token to exchange\r\n     */\r\n    function addCollateral(address _collateral, uint256 _amount) public collateralActive(_collateral) {\r\n        //require(collateralsSet.exists(_collateral), \"Collateral doesn't exist\");\r\n        Collateral storage cToken = collaterals[_collateral];\r\n        // transfer to collateral reserves\r\n        require(cToken.token.transferFrom(msg.sender, address(this), _amount), \"Transfer of collateral failed.\");\r\n        // // credit USD\r\n        // //uint256 ucCeilingPrice = ucCrawlingBand.getCurrentCeilingPrice();\r\n        // uint256 usdAmount = _amount.mul(cToken.price);\r\n        // usdBalances[msg.sender] = usdBalances[msg.sender].add(usdAmount);\r\n\r\n        // credit collateral balance to user\r\n        creditCollateral(cToken, msg.sender, _amount);\r\n\r\n        emit Deposit(_collateral, msg.sender, _amount);\r\n    }\r\n\r\n    // // sample function for Ether deposits\r\n    // function deposit() payable {\r\n    //     tokens[address(0)][msg.sender] = safeAdd(tokens[address(0)][msg.sender], msg.value);\r\n    //     lastActiveTransaction[msg.sender] = block.number;\r\n    //     Deposit(address(0), msg.sender, msg.value, tokens[address(0)][msg.sender]);\r\n    // }\r\n\r\n    function withdraw(address _collateral, uint256 _amount) public returns (bool success) {\r\n        require(collateralsSet.exists(_collateral), \"Collateral doesn't exist\");\r\n        Collateral storage cToken = collaterals[_collateral];\r\n        // remove credit collateral balance from user & check enough balance\r\n        debitCollateral(cToken, msg.sender, _amount);\r\n        // transfer from collateral reserves\r\n        transferCollateral(cToken.token, msg.sender, _amount);\r\n        return true;\r\n    }\r\n\r\n    /**\r\n     * @dev Make new tokens in exchangefor collateral and assign to sender\r\n     * This function has a non-reentrancy guard, so it shouldn't be called by\r\n     * another `nonReentrant` function.\r\n     * @param _collateral collateral Token Address\r\n     * @param _amount amount of collateral Token to exchange\r\n     * @param _minUCAmount minimum amount of UCs desired in exchange for the collateral\r\n     * @return The amount of UCs buyer received\r\n     */\r\n    function mint(address _collateral, uint256 _amount, uint256 _minUCAmount) public nonReentrant collateralActive(_collateral) returns (bool) {\r\n        require(_amount > 0, \"collateral required\");\r\n\r\n        Collateral storage cToken = collaterals[_collateral];\r\n        // make sure token is an approved token\r\n        require (cToken.tokenAddr != address(0), \"Collateral token not found.\");\r\n\r\n        // check rate\r\n        uint256 ucCeilingPrice = ucCrawlingBand.getCurrentCeilingPrice();\r\n        uint256 ucAmount = (_amount.mul(cToken.price)).div(ucCeilingPrice);\r\n        require(ucAmount >= _minUCAmount, \"Calculated UC amount below minimum.\");\r\n\r\n        // transfer to reserves // TODO: place reserves on different contract to differentiate balance from orderbook balance\r\n        //cToken.balance = cToken.balance.add(_amount); // no longer dduplicating balance. Use function to get balance from token contract.\r\n        require(cToken.token.transferFrom(msg.sender, address(this), _amount), \"Transfer of collateral failed.\");\r\n        //if (!cToken.token.transferFrom(msg.sender, address(this), _amount)) revert(\"Transfer of collateral failed.\");\r\n\r\n        // mint UC\r\n        require(ucToken.mint(msg.sender, ucAmount), \"Couldn't mint UC token.\");\r\n\r\n        emit Mint(_amount, msg.sender, _amount, _collateral);\r\n\r\n        return true;\r\n    }\r\n\r\n    /**\r\n     * @dev Exchange UCs for collateral, burMake new tokens in exchangefor collateral and assign to sender\r\n     * This function has a non-reentrancy guard, so it shouldn't be called by\r\n     * another `nonReentrant` function.\r\n     * @param _amount amount of UC okens to burn\r\n     * @param _collateral collateral Token Address\r\n     * @return The amount of Collateral seller received\r\n     */\r\n    function burn(uint256 _amount, address _collateral) public nonReentrant collateralActive(_collateral) returns (bool) {\r\n        // TODO: implement check minimum balances for each collateral (maybe also do this check when placing an order)\r\n\r\n        require(_amount > 0, \"UC amount required\");\r\n        uint256 balance = ucToken.balanceOf(msg.sender);\r\n        require(balance >= _amount, \"\");\r\n\r\n        // return default\r\n        Collateral storage cToken = collaterals[_collateral];\r\n        // make sure token is an approved token\r\n        require(cToken.tokenAddr != address(0), \"collateral token not found.\");\r\n\r\n        // check rate\r\n        uint256 ucFloorPrice = ucCrawlingBand.getCurrentFloorPrice();\r\n        uint256 cAmount = (_amount.mul(ucFloorPrice)).div(cToken.price);\r\n        //require(cAmount >= _minColAmount, \"Collateral amount to receive is below minimum.\");\r\n\r\n        // transfer from reserves\r\n        //if (!cToken.token.transfer(msg.sender, cAmount)) revert(\"Couldn't transfer collateral tokens\");\r\n        require(cToken.token.transfer(msg.sender, cAmount), \"Couldn't transfer collateral tokens\");\r\n        cToken.orderbookBalance = cToken.orderbookBalance.sub(cAmount);\r\n\r\n        // burn UC\r\n        require(ucToken.burn(msg.sender, _amount), \"Couldn't burn UC token.\");\r\n\r\n        emit Burn(_amount, msg.sender, cAmount, _collateral);\r\n\r\n        //return cAmount;\r\n        return true;\r\n\r\n    }\r\n\r\n    /**\r\n     * @dev Get UC tokens in exchangefor collateral and assign to sender\r\n     * Order is fulfilled either from OrderBook or Minted, whaever is cheaper\r\n     * This function has a non-reentrancy guard, so it shouldn't be called by\r\n     * another `nonReentrant` function.\r\n     * @param _collateral collateral Token Address\r\n     * @param _amount amount of collateral Token to exchange\r\n     * @param _minUCAmount minimum amount of UCs desired in exchange for the collateral\r\n     * @return The amount of UCs buyer received\r\n     */\r\n    function buy(address _collateral, uint256 _amount, uint256 _minUCAmount) public nonReentrant returns (bool) {\r\n        require(_amount > 0, \"collateral required\");\r\n\r\n        Collateral storage cToken = collaterals[_collateral];\r\n        // make sure token is an approved token\r\n        require (cToken.tokenAddr != address(0), \"Collateral token not found.\");\r\n\r\n        // check rate\r\n        uint256 ucCeilingPrice = ucCrawlingBand.getCurrentCeilingPrice();\r\n        uint256 ucAmount = (_amount.mul(cToken.price)).div(ucCeilingPrice);\r\n        require(ucAmount >= _minUCAmount, \"Calculated UC amount below minimum.\");\r\n\r\n        // transfer to reserves\r\n        cToken.orderbookBalance = cToken.orderbookBalance.add(_amount);\r\n        require(cToken.token.transferFrom(msg.sender, address(this), _amount), \"Transfer of collateral failed.\");\r\n        //if (!cToken.token.transferFrom(msg.sender, address(this), _amount)) revert(\"Transfer of collateral failed.\");\r\n\r\n        // mint UC\r\n        require(ucToken.mint(msg.sender, ucAmount), \"Couldn't mint UC token.\");\r\n\r\n        emit Mint(_amount, msg.sender, _amount, _collateral);\r\n\r\n        return true;\r\n    }\r\n\r\n    /**\r\n     * @dev Get Total reserves balance (amount * price) for every collateral\r\n     * @return The total reserves value in USD (6 decimals)\r\n     */\r\n    function getReservesBalance() public view returns(uint256) {\r\n        uint256 totalBalance = 0;\r\n        uint256 collateralCount = getCollateralsCount();\r\n        for (uint256 i = 0; i < collateralCount; i++) {\r\n            address collateralAddress = getCollateralAddressAtIndex(i);\r\n            Collateral memory collateral = collaterals[collateralAddress];\r\n            uint256 collateralBalance = getCollateralBalance(collateralAddress, false);\r\n            totalBalance = totalBalance.add(collateralBalance.mul(collateral.price));\r\n        }\r\n        return totalBalance;\r\n    }\r\n\r\n    /// EVENTS\r\n\r\n    /**\r\n     * @dev Emitted when UC tokens are created\r\n     *\r\n     *\r\n     * Note that `value` may be zero.\r\n     */\r\n    event Mint(uint256 amount, address indexed to, uint256 cost, address indexed collateral);\r\n\r\n    /**\r\n     * @dev Emitted UC tokens are destroied\r\n     *\r\n     */\r\n    event Burn(uint256 amount, address indexed from, uint256 returned, address indexed collateral);\r\n\r\n    /**\r\n     * @dev Emitted when collateral tokens are deposited\r\n     *\r\n     */\r\n    event Deposit(address indexed collateral, address indexed from, uint256 amount);\r\n\r\n    /**\r\n     * @dev Emitted when collateral tokens are withdrawn\r\n     *\r\n     */\r\n    event Withdraw(address indexed collateral, address indexed to, uint256 amount);\r\n\r\n    event NewCollateral(address indexed tokenAddr, uint256 price, bool paused);\r\n\r\n    event CollateralUpdated(address tokenAddr, uint256 price, bool paused);\r\n\r\n    event OrderBookChange(address addr, bytes32 key, string eventType, uint price, address collateral, uint expirationInMinutes);\r\n\r\n    /// Private Methods\r\n\r\n    /**\r\n     * @dev Credit collateral to OrderBook Balance\r\n     * It does not change collateral ownership\r\n     *\r\n     */\r\n    function creditCollateral(Collateral storage collateral, address _to, uint256 _amount) private {\r\n        // credit collateral balance to user\r\n        collateral.balances[_to] = collateral.balances[_to].add(_amount);\r\n        // add orderBook balance\r\n        collateral.orderbookBalance = collateral.orderbookBalance.add(_amount);\r\n    }\r\n    /**\r\n     * @dev Debit collateral from OrderBook\r\n     * It does not change collateral ownership\r\n     *\r\n     */\r\n    function debitCollateral(Collateral storage collateral, address _to, uint256 _amount) private {\r\n        // debit amount from user collateral balance\r\n        collateral.balances[_to] = collateral.balances[_to].sub(_amount, \"Not enough balance\");\r\n        // add orderBook balance\r\n        collateral.orderbookBalance = collateral.orderbookBalance.sub(_amount);\r\n    }\r\n    /**\r\n     * @dev Credit collateral to OrderBook\r\n     *\r\n     */\r\n    function transferCollateral(ERC20Detailed collateral, address _to, uint256 _amount) private {\r\n        require(collateral.transfer(_to, _amount), \"Transfer of collateral failed.\");\r\n        emit Withdraw(address(collateral), _to, _amount);\r\n    }\r\n    function deleteSaleOrder(bytes32 _key) private {\r\n        saleOrdersSet.remove(_key); // Note that this will fail automatically if the key doesn't exist\r\n        delete saleOrders[_key];\r\n    }\r\n}",
  "sourcePath": "E:\\JCL\\Webmaster\\GitHub\\UCToken\\UCToken\\contracts\\UCMarketplace.sol",
  "compiler": {
    "name": "solc",
    "version": "0.5.7+commit.6da8b019.Emscripten.clang"
  },
  "schemaVersion": "3.0.23",
  "updatedAt": "2020-04-09T02:59:40.912Z",
  "networkType": "ethereum",
  "devdoc": {
    "details": "Contract destination for aquiring and selling UCs.\r",
    "methods": {
      "addCollateral(address,uint256)": {
        "details": "Deposit collateral for placing purchase orders.\r The equivalent amount of USD is credited for placing the orders at a later time.\r",
        "params": {
          "_amount": "amount of collateral Token to exchange\r",
          "_collateral": "collateral Token Address\r"
        }
      },
      "burn(uint256,address)": {
        "details": "Exchange UCs for collateral, burMake new tokens in exchangefor collateral and assign to sender\r This function has a non-reentrancy guard, so it shouldn't be called by\r another `nonReentrant` function.\r",
        "params": {
          "_amount": "amount of UC okens to burn\r",
          "_collateral": "collateral Token Address\r"
        },
        "return": "The amount of Collateral seller received\r"
      },
      "buy(address,uint256,uint256)": {
        "details": "Get UC tokens in exchangefor collateral and assign to sender\r Order is fulfilled either from OrderBook or Minted, whaever is cheaper\r This function has a non-reentrancy guard, so it shouldn't be called by\r another `nonReentrant` function.\r",
        "params": {
          "_amount": "amount of collateral Token to exchange\r",
          "_collateral": "collateral Token Address\r",
          "_minUCAmount": "minimum amount of UCs desired in exchange for the collateral\r"
        },
        "return": "The amount of UCs buyer received\r"
      },
      "getReservesBalance()": {
        "details": "Get Total reserves balance (amount * price) for every collateral\r",
        "return": "The total reserves value in USD (6 decimals)\r"
      },
      "mint(address,uint256,uint256)": {
        "details": "Make new tokens in exchangefor collateral and assign to sender\r This function has a non-reentrancy guard, so it shouldn't be called by\r another `nonReentrant` function.\r",
        "params": {
          "_amount": "amount of collateral Token to exchange\r",
          "_collateral": "collateral Token Address\r",
          "_minUCAmount": "minimum amount of UCs desired in exchange for the collateral\r"
        },
        "return": "The amount of UCs buyer received\r"
      }
    },
    "title": "UCMarketplace\r"
  },
  "userdoc": {
    "methods": {
      "acceptNewCollateral(address,uint256,bool)": {
        "notice": "Public Methods - Authorized only"
      },
      "cancelSaleOrder(bytes32)": {
        "notice": "/ instead of update, must remove and place another one."
      },
      "getCollateralsCount()": {
        "notice": "Public Methods"
      },
      "setOwner(address)": {
        "notice": "Public Methods"
      },
      "updatePath(string,address)": {
        "notice": "Public Auth Mehods"
      }
    }
  }
}