{
  "contractName": "UCMarketplace",
  "abi": [
    {
      "constant": false,
      "inputs": [
        {
          "name": "_owner",
          "type": "address"
        }
      ],
      "name": "setOwner",
      "outputs": [],
      "payable": false,
      "stateMutability": "nonpayable",
      "type": "function"
    },
    {
      "constant": true,
      "inputs": [],
      "name": "ucCrawlingBand",
      "outputs": [
        {
          "name": "",
          "type": "address"
        }
      ],
      "payable": false,
      "stateMutability": "view",
      "type": "function"
    },
    {
      "constant": true,
      "inputs": [],
      "name": "ucToken",
      "outputs": [
        {
          "name": "",
          "type": "address"
        }
      ],
      "payable": false,
      "stateMutability": "view",
      "type": "function"
    },
    {
      "constant": false,
      "inputs": [
        {
          "name": "_path",
          "type": "address"
        }
      ],
      "name": "setPath",
      "outputs": [],
      "payable": false,
      "stateMutability": "nonpayable",
      "type": "function"
    },
    {
      "constant": false,
      "inputs": [
        {
          "name": "pathName",
          "type": "string"
        },
        {
          "name": "pathAddress",
          "type": "address"
        }
      ],
      "name": "updatePath",
      "outputs": [],
      "payable": false,
      "stateMutability": "nonpayable",
      "type": "function"
    },
    {
      "constant": true,
      "inputs": [
        {
          "name": "",
          "type": "bytes32"
        }
      ],
      "name": "saleOrders",
      "outputs": [
        {
          "name": "addr",
          "type": "address"
        },
        {
          "name": "amount",
          "type": "uint256"
        },
        {
          "name": "price",
          "type": "uint256"
        },
        {
          "name": "collateral",
          "type": "address"
        },
        {
          "name": "expiration",
          "type": "uint256"
        }
      ],
      "payable": false,
      "stateMutability": "view",
      "type": "function"
    },
    {
      "constant": true,
      "inputs": [],
      "name": "owner",
      "outputs": [
        {
          "name": "",
          "type": "address"
        }
      ],
      "payable": false,
      "stateMutability": "view",
      "type": "function"
    },
    {
      "constant": true,
      "inputs": [],
      "name": "ucgToken",
      "outputs": [
        {
          "name": "",
          "type": "address"
        }
      ],
      "payable": false,
      "stateMutability": "view",
      "type": "function"
    },
    {
      "constant": true,
      "inputs": [
        {
          "name": "",
          "type": "bytes32"
        }
      ],
      "name": "purchaseOrders",
      "outputs": [
        {
          "name": "addr",
          "type": "address"
        },
        {
          "name": "amount",
          "type": "uint256"
        },
        {
          "name": "collateral",
          "type": "address"
        },
        {
          "name": "collAmount",
          "type": "uint256"
        },
        {
          "name": "expiration",
          "type": "uint256"
        }
      ],
      "payable": false,
      "stateMutability": "view",
      "type": "function"
    },
    {
      "constant": true,
      "inputs": [],
      "name": "ucPath",
      "outputs": [
        {
          "name": "",
          "type": "address"
        }
      ],
      "payable": false,
      "stateMutability": "view",
      "type": "function"
    },
    {
      "constant": true,
      "inputs": [
        {
          "name": "",
          "type": "address"
        }
      ],
      "name": "collaterals",
      "outputs": [
        {
          "name": "tokenAddr",
          "type": "address"
        },
        {
          "name": "price",
          "type": "uint256"
        },
        {
          "name": "orderbookBalance",
          "type": "uint256"
        },
        {
          "name": "paused",
          "type": "bool"
        },
        {
          "name": "token",
          "type": "address"
        }
      ],
      "payable": false,
      "stateMutability": "view",
      "type": "function"
    },
    {
      "constant": true,
      "inputs": [],
      "name": "ucgReserveStake",
      "outputs": [
        {
          "name": "",
          "type": "uint256"
        }
      ],
      "payable": false,
      "stateMutability": "view",
      "type": "function"
    },
    {
      "inputs": [
        {
          "name": "pathAddress",
          "type": "address"
        }
      ],
      "payable": false,
      "stateMutability": "nonpayable",
      "type": "constructor"
    },
    {
      "anonymous": false,
      "inputs": [
        {
          "indexed": false,
          "name": "amount",
          "type": "uint256"
        },
        {
          "indexed": true,
          "name": "to",
          "type": "address"
        },
        {
          "indexed": false,
          "name": "cost",
          "type": "uint256"
        },
        {
          "indexed": true,
          "name": "collateral",
          "type": "address"
        },
        {
          "indexed": false,
          "name": "ucgMinted",
          "type": "bool"
        }
      ],
      "name": "Mint",
      "type": "event"
    },
    {
      "anonymous": false,
      "inputs": [
        {
          "indexed": false,
          "name": "amount",
          "type": "uint256"
        },
        {
          "indexed": true,
          "name": "from",
          "type": "address"
        },
        {
          "indexed": false,
          "name": "returned",
          "type": "uint256"
        },
        {
          "indexed": true,
          "name": "collateral",
          "type": "address"
        }
      ],
      "name": "Burn",
      "type": "event"
    },
    {
      "anonymous": false,
      "inputs": [
        {
          "indexed": false,
          "name": "amount",
          "type": "uint256"
        },
        {
          "indexed": true,
          "name": "from",
          "type": "address"
        },
        {
          "indexed": false,
          "name": "returned",
          "type": "uint256"
        },
        {
          "indexed": true,
          "name": "collateral",
          "type": "address"
        }
      ],
      "name": "BurnUCG",
      "type": "event"
    },
    {
      "anonymous": false,
      "inputs": [
        {
          "indexed": true,
          "name": "collateral",
          "type": "address"
        },
        {
          "indexed": true,
          "name": "from",
          "type": "address"
        },
        {
          "indexed": false,
          "name": "amount",
          "type": "uint256"
        }
      ],
      "name": "Deposit",
      "type": "event"
    },
    {
      "anonymous": false,
      "inputs": [
        {
          "indexed": true,
          "name": "collateral",
          "type": "address"
        },
        {
          "indexed": true,
          "name": "to",
          "type": "address"
        },
        {
          "indexed": false,
          "name": "amount",
          "type": "uint256"
        }
      ],
      "name": "Withdraw",
      "type": "event"
    },
    {
      "anonymous": false,
      "inputs": [
        {
          "indexed": true,
          "name": "tokenAddr",
          "type": "address"
        },
        {
          "indexed": false,
          "name": "price",
          "type": "uint256"
        },
        {
          "indexed": false,
          "name": "paused",
          "type": "bool"
        }
      ],
      "name": "NewCollateral",
      "type": "event"
    },
    {
      "anonymous": false,
      "inputs": [
        {
          "indexed": false,
          "name": "tokenAddr",
          "type": "address"
        },
        {
          "indexed": false,
          "name": "price",
          "type": "uint256"
        },
        {
          "indexed": false,
          "name": "paused",
          "type": "bool"
        }
      ],
      "name": "CollateralUpdated",
      "type": "event"
    },
    {
      "anonymous": false,
      "inputs": [
        {
          "indexed": false,
          "name": "addr",
          "type": "address"
        },
        {
          "indexed": false,
          "name": "key",
          "type": "bytes32"
        },
        {
          "indexed": false,
          "name": "eventType",
          "type": "string"
        },
        {
          "indexed": false,
          "name": "price",
          "type": "uint256"
        },
        {
          "indexed": false,
          "name": "collateral",
          "type": "address"
        },
        {
          "indexed": false,
          "name": "expirationInMinutes",
          "type": "uint256"
        }
      ],
      "name": "OrderBookChange",
      "type": "event"
    },
    {
      "anonymous": false,
      "inputs": [
        {
          "indexed": false,
          "name": "owner",
          "type": "address"
        }
      ],
      "name": "NewOwner",
      "type": "event"
    },
    {
      "anonymous": false,
      "inputs": [
        {
          "indexed": false,
          "name": "pathAddress",
          "type": "address"
        }
      ],
      "name": "NewPath",
      "type": "event"
    },
    {
      "anonymous": false,
      "inputs": [
        {
          "indexed": false,
          "name": "pathName",
          "type": "string"
        },
        {
          "indexed": false,
          "name": "pathAddress",
          "type": "address"
        }
      ],
      "name": "PathUpdated",
      "type": "event"
    },
    {
      "constant": false,
      "inputs": [
        {
          "name": "_tokenAddr",
          "type": "address"
        },
        {
          "name": "_price",
          "type": "uint256"
        },
        {
          "name": "_paused",
          "type": "bool"
        }
      ],
      "name": "acceptNewCollateral",
      "outputs": [],
      "payable": false,
      "stateMutability": "nonpayable",
      "type": "function"
    },
    {
      "constant": false,
      "inputs": [
        {
          "name": "_tokenAddr",
          "type": "address"
        },
        {
          "name": "_price",
          "type": "uint256"
        },
        {
          "name": "_paused",
          "type": "bool"
        }
      ],
      "name": "updateCollateral",
      "outputs": [],
      "payable": false,
      "stateMutability": "nonpayable",
      "type": "function"
    },
    {
      "constant": true,
      "inputs": [],
      "name": "getCollateralsCount",
      "outputs": [
        {
          "name": "count",
          "type": "uint256"
        }
      ],
      "payable": false,
      "stateMutability": "view",
      "type": "function"
    },
    {
      "constant": true,
      "inputs": [
        {
          "name": "_index",
          "type": "uint256"
        }
      ],
      "name": "getCollateralAddressAtIndex",
      "outputs": [
        {
          "name": "_address",
          "type": "address"
        }
      ],
      "payable": false,
      "stateMutability": "view",
      "type": "function"
    },
    {
      "constant": true,
      "inputs": [
        {
          "name": "_tokenAddr",
          "type": "address"
        },
        {
          "name": "includeOrderbook",
          "type": "bool"
        }
      ],
      "name": "getCollateralBalance",
      "outputs": [
        {
          "name": "",
          "type": "uint256"
        }
      ],
      "payable": false,
      "stateMutability": "view",
      "type": "function"
    },
    {
      "constant": true,
      "inputs": [
        {
          "name": "_tokenAddr",
          "type": "address"
        }
      ],
      "name": "getCollateralRate",
      "outputs": [
        {
          "name": "rate",
          "type": "uint256"
        },
        {
          "name": "rateInUC",
          "type": "bool"
        }
      ],
      "payable": false,
      "stateMutability": "view",
      "type": "function"
    },
    {
      "constant": true,
      "inputs": [
        {
          "name": "_tokenAddr",
          "type": "address"
        }
      ],
      "name": "getCollateralPrice",
      "outputs": [
        {
          "name": "price",
          "type": "uint256"
        }
      ],
      "payable": false,
      "stateMutability": "view",
      "type": "function"
    },
    {
      "constant": false,
      "inputs": [
        {
          "name": "_amount",
          "type": "uint256"
        },
        {
          "name": "_price",
          "type": "uint256"
        },
        {
          "name": "_collateral",
          "type": "address"
        },
        {
          "name": "_expiration",
          "type": "uint256"
        }
      ],
      "name": "addSaleOrder",
      "outputs": [],
      "payable": false,
      "stateMutability": "nonpayable",
      "type": "function"
    },
    {
      "constant": false,
      "inputs": [
        {
          "name": "_key",
          "type": "bytes32"
        }
      ],
      "name": "cancelSaleOrder",
      "outputs": [],
      "payable": false,
      "stateMutability": "nonpayable",
      "type": "function"
    },
    {
      "constant": true,
      "inputs": [],
      "name": "getSaleOrdersCount",
      "outputs": [
        {
          "name": "count",
          "type": "uint256"
        }
      ],
      "payable": false,
      "stateMutability": "view",
      "type": "function"
    },
    {
      "constant": true,
      "inputs": [
        {
          "name": "_index",
          "type": "uint256"
        }
      ],
      "name": "getSaleOrderKeyAtIndex",
      "outputs": [
        {
          "name": "key",
          "type": "bytes32"
        }
      ],
      "payable": false,
      "stateMutability": "view",
      "type": "function"
    },
    {
      "constant": false,
      "inputs": [
        {
          "name": "_key",
          "type": "bytes32"
        },
        {
          "name": "_collateral",
          "type": "address"
        },
        {
          "name": "_amount",
          "type": "uint256"
        }
      ],
      "name": "matchSaleOrder",
      "outputs": [
        {
          "name": "",
          "type": "bool"
        }
      ],
      "payable": false,
      "stateMutability": "nonpayable",
      "type": "function"
    },
    {
      "constant": false,
      "inputs": [
        {
          "name": "_collateral",
          "type": "address"
        },
        {
          "name": "_amount",
          "type": "uint256"
        }
      ],
      "name": "addCollateral",
      "outputs": [],
      "payable": false,
      "stateMutability": "nonpayable",
      "type": "function"
    },
    {
      "constant": false,
      "inputs": [
        {
          "name": "_collateral",
          "type": "address"
        },
        {
          "name": "_amount",
          "type": "uint256"
        }
      ],
      "name": "withdraw",
      "outputs": [
        {
          "name": "success",
          "type": "bool"
        }
      ],
      "payable": false,
      "stateMutability": "nonpayable",
      "type": "function"
    },
    {
      "constant": false,
      "inputs": [
        {
          "name": "_collateral",
          "type": "address"
        },
        {
          "name": "_amount",
          "type": "uint256"
        },
        {
          "name": "_minUCAmount",
          "type": "uint256"
        }
      ],
      "name": "mint",
      "outputs": [
        {
          "name": "",
          "type": "bool"
        }
      ],
      "payable": false,
      "stateMutability": "nonpayable",
      "type": "function"
    },
    {
      "constant": false,
      "inputs": [
        {
          "name": "_amount",
          "type": "uint256"
        },
        {
          "name": "_collateral",
          "type": "address"
        }
      ],
      "name": "burn",
      "outputs": [
        {
          "name": "",
          "type": "bool"
        }
      ],
      "payable": false,
      "stateMutability": "nonpayable",
      "type": "function"
    },
    {
      "constant": true,
      "inputs": [
        {
          "name": "ucgQty",
          "type": "uint256"
        },
        {
          "name": "colPrice",
          "type": "uint256"
        }
      ],
      "name": "ucgBurnValue",
      "outputs": [
        {
          "name": "",
          "type": "uint256"
        }
      ],
      "payable": false,
      "stateMutability": "view",
      "type": "function"
    },
    {
      "constant": false,
      "inputs": [
        {
          "name": "_amount",
          "type": "uint256"
        },
        {
          "name": "_collateral",
          "type": "address"
        }
      ],
      "name": "burnUCG",
      "outputs": [
        {
          "name": "",
          "type": "bool"
        }
      ],
      "payable": false,
      "stateMutability": "nonpayable",
      "type": "function"
    },
    {
      "constant": true,
      "inputs": [
        {
          "name": "_amount",
          "type": "uint256"
        }
      ],
      "name": "burnUCGTEST",
      "outputs": [
        {
          "name": "",
          "type": "uint256"
        }
      ],
      "payable": false,
      "stateMutability": "view",
      "type": "function"
    },
    {
      "constant": true,
      "inputs": [],
      "name": "getReservesBalance",
      "outputs": [
        {
          "name": "",
          "type": "uint256"
        }
      ],
      "payable": false,
      "stateMutability": "view",
      "type": "function"
    }
  ],
  "bytecode": "0x60806040523480156200001157600080fd5b5060405160208062006268833981018060405260208110156200003357600080fd5b8101908080519060200190929190505050806040518060400160405280600d81526020017f55434d61726b6574706c61636500000000000000000000000000000000000000815250336000806101000a81548173ffffffffffffffffffffffffffffffffffffffff021916908373ffffffffffffffffffffffffffffffffffffffff1602179055507f3edd90e7770f06fafde38004653b33870066c33bfc923ff6102acd601f85dfbc33604051808273ffffffffffffffffffffffffffffffffffffffff1673ffffffffffffffffffffffffffffffffffffffff16815260200191505060405180910390a160405180807f55435061746800000000000000000000000000000000000000000000000000008152506006019050604051809103902081805190602001201415620001aa5730600160006101000a81548173ffffffffffffffffffffffffffffffffffffffff021916908373ffffffffffffffffffffffffffffffffffffffff160217905550620001ec565b81600160006101000a81548173ffffffffffffffffffffffffffffffffffffffff021916908373ffffffffffffffffffffffffffffffffffffffff1602179055505b50506001600281905550600160009054906101000a900473ffffffffffffffffffffffffffffffffffffffff1673ffffffffffffffffffffffffffffffffffffffff1663af61c6a66040518163ffffffff1660e01b81526004018080602001828103825260078152602001807f5543546f6b656e0000000000000000000000000000000000000000000000000081525060200191505060206040518083038186803b1580156200029b57600080fd5b505afa158015620002b0573d6000803e3d6000fd5b505050506040513d6020811015620002c757600080fd5b8101908080519060200190929190505050600560006101000a81548173ffffffffffffffffffffffffffffffffffffffff021916908373ffffffffffffffffffffffffffffffffffffffff160217905550600160009054906101000a900473ffffffffffffffffffffffffffffffffffffffff1673ffffffffffffffffffffffffffffffffffffffff1663af61c6a66040518163ffffffff1660e01b81526004018080602001828103825260088152602001807f554347546f6b656e00000000000000000000000000000000000000000000000081525060200191505060206040518083038186803b158015620003bd57600080fd5b505afa158015620003d2573d6000803e3d6000fd5b505050506040513d6020811015620003e957600080fd5b8101908080519060200190929190505050600660006101000a81548173ffffffffffffffffffffffffffffffffffffffff021916908373ffffffffffffffffffffffffffffffffffffffff160217905550600160009054906101000a900473ffffffffffffffffffffffffffffffffffffffff1673ffffffffffffffffffffffffffffffffffffffff1663af61c6a66040518163ffffffff1660e01b815260040180806020018281038252600e8152602001807f5543437261776c696e6742616e6400000000000000000000000000000000000081525060200191505060206040518083038186803b158015620004df57600080fd5b505afa158015620004f4573d6000803e3d6000fd5b505050506040513d60208110156200050b57600080fd5b8101908080519060200190929190505050600760006101000a81548173ffffffffffffffffffffffffffffffffffffffff021916908373ffffffffffffffffffffffffffffffffffffffff160217905550600a60038190555050615cf380620005756000396000f3fe608060405234801561001057600080fd5b50600436106101f05760003560e01c8063743bc57d1161010f578063a7992b04116100a2578063f3fef3a311610071578063f3fef3a314610c77578063f84cf5c714610cdd578063f8d40c5e14610cfb578063fcd3533c14610d19576101f0565b8063a7992b0414610a65578063a98e7faf14610b1b578063deae3b1e14610b5d578063eeb97d3b14610ba7576101f0565b8063941fea1a116100de578063941fea1a1461093f5780639faad01f14610989578063a331146e146109ed578063a3e15d0914610a47576101f0565b8063743bc57d146107ca57806377e071ad146108305780637e1f1189146108935780638da5cb5b146108f5576101f0565b806347d1607f116101875780635d24c683116101565780635d24c6831461063a5780636aa1945a146106f05780636d75b9ee1461075e5780636e19b805146107ac576101f0565b806347d1607f146104975780635071f3b3146104d957806351a4099414610507578063599b4fbc1461055f576101f0565b806324aba59f116101c357806324aba59f1461034d57806333fd6d85146103975780633487c82e146104075780633b95517714610453576101f0565b80630363a161146101f557806313af40351461024f578063156e29f6146102935780631c0b7fa114610303575b600080fd5b61024d6004803603606081101561020b57600080fd5b81019080803573ffffffffffffffffffffffffffffffffffffffff16906020019092919080359060200190929190803515159060200190929190505050610d7f565b005b6102916004803603602081101561026557600080fd5b81019080803573ffffffffffffffffffffffffffffffffffffffff169060200190929190505050610f65565b005b6102e9600480360360608110156102a957600080fd5b81019080803573ffffffffffffffffffffffffffffffffffffffff1690602001909291908035906020019092919080359060200190929190505050611086565b604051808215151515815260200191505060405180910390f35b61030b611a07565b604051808273ffffffffffffffffffffffffffffffffffffffff1673ffffffffffffffffffffffffffffffffffffffff16815260200191505060405180910390f35b610355611a2d565b604051808273ffffffffffffffffffffffffffffffffffffffff1673ffffffffffffffffffffffffffffffffffffffff16815260200191505060405180910390f35b6103ed600480360360608110156103ad57600080fd5b8101908080359060200190929190803573ffffffffffffffffffffffffffffffffffffffff16906020019092919080359060200190929190505050611a53565b604051808215151515815260200191505060405180910390f35b61043d6004803603604081101561041d57600080fd5b81019080803590602001909291908035906020019092919050505061216a565b6040518082815260200191505060405180910390f35b6104956004803603602081101561046957600080fd5b81019080803573ffffffffffffffffffffffffffffffffffffffff169060200190929190505050612281565b005b6104c3600480360360208110156104ad57600080fd5b81019080803590602001909291905050506123a3565b6040518082815260200191505060405180910390f35b610505600480360360208110156104ef57600080fd5b8101908080359060200190929190505050612501565b005b6105496004803603602081101561051d57600080fd5b81019080803573ffffffffffffffffffffffffffffffffffffffff169060200190929190505050612999565b6040518082815260200191505060405180910390f35b6106386004803603604081101561057557600080fd5b810190808035906020019064010000000081111561059257600080fd5b8201836020820111156105a457600080fd5b803590602001918460018302840111640100000000831117156105c657600080fd5b91908080601f016020809104026020016040519081016040528093929190818152602001838380828437600081840152601f19601f820116905080830192505050505050509192919290803573ffffffffffffffffffffffffffffffffffffffff169060200190929190505050612a6b565b005b6106666004803603602081101561065057600080fd5b8101908080359060200190929190505050612bba565b604051808673ffffffffffffffffffffffffffffffffffffffff1673ffffffffffffffffffffffffffffffffffffffff1681526020018581526020018481526020018373ffffffffffffffffffffffffffffffffffffffff1673ffffffffffffffffffffffffffffffffffffffff1681526020018281526020019550505050505060405180910390f35b61071c6004803603602081101561070657600080fd5b8101908080359060200190929190505050612c30565b604051808273ffffffffffffffffffffffffffffffffffffffff1673ffffffffffffffffffffffffffffffffffffffff16815260200191505060405180910390f35b6107aa6004803603604081101561077457600080fd5b81019080803573ffffffffffffffffffffffffffffffffffffffff16906020019092919080359060200190929190505050612c4d565b005b6107b4612fdc565b6040518082815260200191505060405180910390f35b610816600480360360408110156107e057600080fd5b8101908080359060200190929190803573ffffffffffffffffffffffffffffffffffffffff1690602001909291905050506131a6565b604051808215151515815260200191505060405180910390f35b6108726004803603602081101561084657600080fd5b81019080803573ffffffffffffffffffffffffffffffffffffffff169060200190929190505050613501565b60405180838152602001821515151581526020019250505060405180910390f35b6108f3600480360360808110156108a957600080fd5b810190808035906020019092919080359060200190929190803573ffffffffffffffffffffffffffffffffffffffff169060200190929190803590602001909291905050506136c1565b005b6108fd613c8b565b604051808273ffffffffffffffffffffffffffffffffffffffff1673ffffffffffffffffffffffffffffffffffffffff16815260200191505060405180910390f35b610947613cb0565b604051808273ffffffffffffffffffffffffffffffffffffffff1673ffffffffffffffffffffffffffffffffffffffff16815260200191505060405180910390f35b6109d76004803603604081101561099f57600080fd5b81019080803573ffffffffffffffffffffffffffffffffffffffff169060200190929190803515159060200190929190505050613cd6565b6040518082815260200191505060405180910390f35b610a4560048036036060811015610a0357600080fd5b81019080803573ffffffffffffffffffffffffffffffffffffffff16906020019092919080359060200190929190803515159060200190929190505050613eea565b005b610a4f614132565b6040518082815260200191505060405180910390f35b610a9160048036036020811015610a7b57600080fd5b8101908080359060200190929190505050614143565b604051808673ffffffffffffffffffffffffffffffffffffffff1673ffffffffffffffffffffffffffffffffffffffff1681526020018581526020018473ffffffffffffffffffffffffffffffffffffffff1673ffffffffffffffffffffffffffffffffffffffff1681526020018381526020018281526020019550505050505060405180910390f35b610b4760048036036020811015610b3157600080fd5b81019080803590602001909291905050506141b9565b6040518082815260200191505060405180910390f35b610b656141d6565b604051808273ffffffffffffffffffffffffffffffffffffffff1673ffffffffffffffffffffffffffffffffffffffff16815260200191505060405180910390f35b610be960048036036020811015610bbd57600080fd5b81019080803573ffffffffffffffffffffffffffffffffffffffff1690602001909291905050506141fc565b604051808673ffffffffffffffffffffffffffffffffffffffff1673ffffffffffffffffffffffffffffffffffffffff168152602001858152602001848152602001831515151581526020018273ffffffffffffffffffffffffffffffffffffffff1673ffffffffffffffffffffffffffffffffffffffff1681526020019550505050505060405180910390f35b610cc360048036036040811015610c8d57600080fd5b81019080803573ffffffffffffffffffffffffffffffffffffffff1690602001909291908035906020019092919050505061427f565b604051808215151515815260200191505060405180910390f35b610ce561438f565b6040518082815260200191505060405180910390f35b610d03614395565b6040518082815260200191505060405180910390f35b610d6560048036036040811015610d2f57600080fd5b8101908080359060200190929190803573ffffffffffffffffffffffffffffffffffffffff1690602001909291905050506143a6565b604051808215151515815260200191505060405180910390f35b610d8833614c39565b610dfa576040517f08c379a000000000000000000000000000000000000000000000000000000000815260040180806020018281038252600e8152602001807f4e6f7420617574686f72697a656400000000000000000000000000000000000081525060200191505060405180910390fd5b610e0e83600b614e2b90919063ffffffff16565b610e80576040517f08c379a00000000000000000000000000000000000000000000000000000000081526004018080602001828103825260188152602001807f436f6c6c61746572616c20646f65736e2774206578697374000000000000000081525060200191505060405180910390fd5b6000600860008573ffffffffffffffffffffffffffffffffffffffff1673ffffffffffffffffffffffffffffffffffffffff1681526020019081526020016000209050828160010181905550818160030160006101000a81548160ff0219169083151502179055507f1fd639a1c735f2fd00919c0fe006a9ddc66e78a5666694b1cd2367e441d9e6c4848484604051808473ffffffffffffffffffffffffffffffffffffffff1673ffffffffffffffffffffffffffffffffffffffff16815260200183815260200182151515158152602001935050505060405180910390a150505050565b610f6e33614c39565b610fe0576040517f08c379a000000000000000000000000000000000000000000000000000000000815260040180806020018281038252600e8152602001807f4e6f7420617574686f72697a656400000000000000000000000000000000000081525060200191505060405180910390fd5b806000806101000a81548173ffffffffffffffffffffffffffffffffffffffff021916908373ffffffffffffffffffffffffffffffffffffffff1602179055507f3edd90e7770f06fafde38004653b33870066c33bfc923ff6102acd601f85dfbc81604051808273ffffffffffffffffffffffffffffffffffffffff1673ffffffffffffffffffffffffffffffffffffffff16815260200191505060405180910390a150565b6000600160026000828254019250508190555060006002549050846110b581600b614e2b90919063ffffffff16565b611127576040517f08c379a00000000000000000000000000000000000000000000000000000000081526004018080602001828103825260188152602001807f436f6c6c61746572616c20646f65736e2774206578697374000000000000000081525060200191505060405180910390fd5b600860008273ffffffffffffffffffffffffffffffffffffffff1673ffffffffffffffffffffffffffffffffffffffff16815260200190815260200160002060030160009054906101000a900460ff16156111ea576040517f08c379a000000000000000000000000000000000000000000000000000000000815260040180806020018281038252601c8152602001807f436f6c6c61746572616c2074656d706f72617279207061757365642e0000000081525060200191505060405180910390fd5b60008511611260576040517f08c379a00000000000000000000000000000000000000000000000000000000081526004018080602001828103825260138152602001807f636f6c6c61746572616c2072657175697265640000000000000000000000000081525060200191505060405180910390fd5b6000600860008873ffffffffffffffffffffffffffffffffffffffff1673ffffffffffffffffffffffffffffffffffffffff1681526020019081526020016000209050600073ffffffffffffffffffffffffffffffffffffffff168160000160009054906101000a900473ffffffffffffffffffffffffffffffffffffffff1673ffffffffffffffffffffffffffffffffffffffff16141561136a576040517f08c379a000000000000000000000000000000000000000000000000000000000815260040180806020018281038252601b8152602001807f436f6c6c61746572616c20746f6b656e206e6f7420666f756e642e000000000081525060200191505060405180910390fd5b6000600760009054906101000a900473ffffffffffffffffffffffffffffffffffffffff1673ffffffffffffffffffffffffffffffffffffffff16636a05b6fb6040518163ffffffff1660e01b8152600401602060405180830381600087803b1580156113d657600080fd5b505af11580156113ea573d6000803e3d6000fd5b505050506040513d602081101561140057600080fd5b81019080805190602001909291905050509050600061143e8261143085600101548b614ef790919063ffffffff16565b614f7d90919063ffffffff16565b905086811015611499576040517f08c379a0000000000000000000000000000000000000000000000000000000008152600401808060200182810382526023815260200180615bd76023913960400191505060405180910390fd5b8260030160019054906101000a900473ffffffffffffffffffffffffffffffffffffffff1673ffffffffffffffffffffffffffffffffffffffff166323b872dd33308b6040518463ffffffff1660e01b8152600401808473ffffffffffffffffffffffffffffffffffffffff1673ffffffffffffffffffffffffffffffffffffffff1681526020018373ffffffffffffffffffffffffffffffffffffffff1673ffffffffffffffffffffffffffffffffffffffff1681526020018281526020019350505050602060405180830381600087803b15801561157857600080fd5b505af115801561158c573d6000803e3d6000fd5b505050506040513d60208110156115a257600080fd5b8101908080519060200190929190505050611625576040517f08c379a000000000000000000000000000000000000000000000000000000000815260040180806020018281038252601e8152602001807f5472616e73666572206f6620636f6c6c61746572616c206661696c65642e000081525060200191505060405180910390fd5b600560009054906101000a900473ffffffffffffffffffffffffffffffffffffffff1673ffffffffffffffffffffffffffffffffffffffff166340c10f1933836040518363ffffffff1660e01b8152600401808373ffffffffffffffffffffffffffffffffffffffff1673ffffffffffffffffffffffffffffffffffffffff16815260200182815260200192505050602060405180830381600087803b1580156116ce57600080fd5b505af11580156116e2573d6000803e3d6000fd5b505050506040513d60208110156116f857600080fd5b810190808051906020019092919050505061177b576040517f08c379a00000000000000000000000000000000000000000000000000000000081526004018080602001828103825260178152602001807f436f756c646e2774206d696e7420554320746f6b656e2e00000000000000000081525060200191505060405180910390fd5b600061179282600454614fc790919063ffffffff16565b600481905550681b1ae4d6e2ef500000600454101561190657600660009054906101000a900473ffffffffffffffffffffffffffffffffffffffff1673ffffffffffffffffffffffffffffffffffffffff166340c10f1933846040518363ffffffff1660e01b8152600401808373ffffffffffffffffffffffffffffffffffffffff1673ffffffffffffffffffffffffffffffffffffffff16815260200182815260200192505050602060405180830381600087803b15801561185457600080fd5b505af1158015611868573d6000803e3d6000fd5b505050506040513d602081101561187e57600080fd5b8101908080519060200190929190505050611901576040517f08c379a00000000000000000000000000000000000000000000000000000000081526004018080602001828103825260188152602001807f436f756c646e2774206d696e742055434720746f6b656e2e000000000000000081525060200191505060405180910390fd5b600190505b8973ffffffffffffffffffffffffffffffffffffffff163373ffffffffffffffffffffffffffffffffffffffff167f8a4a829930360098f578622df72087a30ec131a49ff3dca686835eaacdbff29f848c856040518084815260200183815260200182151515158152602001935050505060405180910390a360019650505050505060025481146119ff576040517f08c379a000000000000000000000000000000000000000000000000000000000815260040180806020018281038252601f8152602001807f5265656e7472616e637947756172643a207265656e7472616e742063616c6c0081525060200191505060405180910390fd5b509392505050565b600760009054906101000a900473ffffffffffffffffffffffffffffffffffffffff1681565b600560009054906101000a900473ffffffffffffffffffffffffffffffffffffffff1681565b600082611a6a81600b614e2b90919063ffffffff16565b611adc576040517f08c379a00000000000000000000000000000000000000000000000000000000081526004018080602001828103825260188152602001807f436f6c6c61746572616c20646f65736e2774206578697374000000000000000081525060200191505060405180910390fd5b600860008273ffffffffffffffffffffffffffffffffffffffff1673ffffffffffffffffffffffffffffffffffffffff16815260200190815260200160002060030160009054906101000a900460ff1615611b9f576040517f08c379a000000000000000000000000000000000000000000000000000000000815260040180806020018281038252601c8152602001807f436f6c6c61746572616c2074656d706f72617279207061757365642e0000000081525060200191505060405180910390fd5b611bb385600d61504f90919063ffffffff16565b611c25576040517f08c379a00000000000000000000000000000000000000000000000000000000081526004018080602001828103825260178152602001807f53616c654f7264657220646f65736e277420657869737400000000000000000081525060200191505060405180910390fd5b611c3984600b614e2b90919063ffffffff16565b611cab576040517f08c379a00000000000000000000000000000000000000000000000000000000081526004018080602001828103825260188152602001807f436f6c6c61746572616c20646f65736e2774206578697374000000000000000081525060200191505060405180910390fd5b600060096000878152602001908152602001600020905042816004015411611d3b576040517f08c379a00000000000000000000000000000000000000000000000000000000081526004018080602001828103825260138152602001807f53616c65206f7264657220657870697265642e0000000000000000000000000081525060200191505060405180910390fd5b6000600860008773ffffffffffffffffffffffffffffffffffffffff1673ffffffffffffffffffffffffffffffffffffffff16815260200190815260200160002090506000611d97868360010154614ef790919063ffffffff16565b90506000611db684600101548560020154614ef790919063ffffffff16565b905080821015611e2e576040517f08c379a00000000000000000000000000000000000000000000000000000000081526004018080602001828103825260188152602001807f61736b696e672070726963652061626f7665206f66666572000000000000000081525060200191505060405180910390fd5b60008360040160003373ffffffffffffffffffffffffffffffffffffffff1673ffffffffffffffffffffffffffffffffffffffff16815260200190815260200160002054905080881115611e9957611e9889611e93838b6150a390919063ffffffff16565b612c4d565b5b611ea484338a6150ed565b6000600860008760030160009054906101000a900473ffffffffffffffffffffffffffffffffffffffff1673ffffffffffffffffffffffffffffffffffffffff1673ffffffffffffffffffffffffffffffffffffffff16815260200190815260200160002090506000611f24826001015485614f7d90919063ffffffff16565b9050611f798260030160019054906101000a900473ffffffffffffffffffffffffffffffffffffffff168860000160009054906101000a900473ffffffffffffffffffffffffffffffffffffffff16836151e1565b600560009054906101000a900473ffffffffffffffffffffffffffffffffffffffff1673ffffffffffffffffffffffffffffffffffffffff1663a9059cbb3389600101546040518363ffffffff1660e01b8152600401808373ffffffffffffffffffffffffffffffffffffffff1673ffffffffffffffffffffffffffffffffffffffff16815260200182815260200192505050602060405180830381600087803b15801561202657600080fd5b505af115801561203a573d6000803e3d6000fd5b505050506040513d602081101561205057600080fd5b81019080805190602001909291905050505061206b8c61537f565b7f6def06a35fb814314ad1f4a805908af1ad3ee2dac75b390deb1d3e8752b54ba3338d878e8b60040154604051808673ffffffffffffffffffffffffffffffffffffffff1673ffffffffffffffffffffffffffffffffffffffff168152602001858152602001806020018581526020018473ffffffffffffffffffffffffffffffffffffffff1673ffffffffffffffffffffffffffffffffffffffff1681526020018381526020018281038252600e8152602001807f6d6174636853616c654f72646572000000000000000000000000000000000000815250602001965050505050505060405180910390a16001985050505050505050509392505050565b600061227961222483600660009054906101000a900473ffffffffffffffffffffffffffffffffffffffff1673ffffffffffffffffffffffffffffffffffffffff166318160ddd6040518163ffffffff1660e01b815260040160206040518083038186803b1580156121db57600080fd5b505afa1580156121ef573d6000803e3d6000fd5b505050506040513d602081101561220557600080fd5b8101908080519060200190929190505050614ef790919063ffffffff16565b61226b662386f26fc1000061225d8761224f600354612241612fdc565b614ef790919063ffffffff16565b614ef790919063ffffffff16565b614ef790919063ffffffff16565b614f7d90919063ffffffff16565b905092915050565b61228a33614c39565b6122fc576040517f08c379a000000000000000000000000000000000000000000000000000000000815260040180806020018281038252600e8152602001807f4e6f7420617574686f72697a656400000000000000000000000000000000000081525060200191505060405180910390fd5b80600160006101000a81548173ffffffffffffffffffffffffffffffffffffffff021916908373ffffffffffffffffffffffffffffffffffffffff1602179055507f06996b58b8ff542ff91d7a929369bb5d93940639f7849f15d0f95923d1d1705181604051808273ffffffffffffffffffffffffffffffffffffffff1673ffffffffffffffffffffffffffffffffffffffff16815260200191505060405180910390a150565b600080821161241a576040517f08c379a00000000000000000000000000000000000000000000000000000000081526004018080602001828103825260138152602001807f55434720616d6f756e742072657175697265640000000000000000000000000081525060200191505060405180910390fd5b6000600660009054906101000a900473ffffffffffffffffffffffffffffffffffffffff1673ffffffffffffffffffffffffffffffffffffffff166370a08231336040518263ffffffff1660e01b8152600401808273ffffffffffffffffffffffffffffffffffffffff1673ffffffffffffffffffffffffffffffffffffffff16815260200191505060206040518083038186803b1580156124bb57600080fd5b505afa1580156124cf573d6000803e3d6000fd5b505050506040513d60208110156124e557600080fd5b8101908080519060200190929190505050905080915050919050565b61251581600d61504f90919063ffffffff16565b612587576040517f08c379a00000000000000000000000000000000000000000000000000000000081526004018080602001828103825260178152602001807f53616c654f7264657220646f65736e277420657869737400000000000000000081525060200191505060405180910390fd5b60006009600083815260200190815260200160002090503373ffffffffffffffffffffffffffffffffffffffff168160000160009054906101000a900473ffffffffffffffffffffffffffffffffffffffff1673ffffffffffffffffffffffffffffffffffffffff1614612663576040517f08c379a000000000000000000000000000000000000000000000000000000000815260040180806020018281038252601e8152602001807f6f7264657220646f65736e27742062656c6f6e6720746f2073656e646572000081525060200191505060405180910390fd5b600560009054906101000a900473ffffffffffffffffffffffffffffffffffffffff1673ffffffffffffffffffffffffffffffffffffffff166323b872dd303384600101546040518463ffffffff1660e01b8152600401808473ffffffffffffffffffffffffffffffffffffffff1673ffffffffffffffffffffffffffffffffffffffff1681526020018373ffffffffffffffffffffffffffffffffffffffff1673ffffffffffffffffffffffffffffffffffffffff1681526020018281526020019350505050602060405180830381600087803b15801561274457600080fd5b505af1158015612758573d6000803e3d6000fd5b505050506040513d602081101561276e57600080fd5b81019080805190602001909291905050506127f1576040517f08c379a000000000000000000000000000000000000000000000000000000000815260040180806020018281038252601b8152602001807f436f756c646e2774207472616e7366657220554320746f6b656e2e000000000081525060200191505060405180910390fd5b61280582600d61541290919063ffffffff16565b60096000838152602001908152602001600020600080820160006101000a81549073ffffffffffffffffffffffffffffffffffffffff0219169055600182016000905560028201600090556003820160006101000a81549073ffffffffffffffffffffffffffffffffffffffff0219169055600482016000905550507f6def06a35fb814314ad1f4a805908af1ad3ee2dac75b390deb1d3e8752b54ba3338383600201548460000160009054906101000a900473ffffffffffffffffffffffffffffffffffffffff168560040154604051808673ffffffffffffffffffffffffffffffffffffffff1673ffffffffffffffffffffffffffffffffffffffff168152602001858152602001806020018581526020018473ffffffffffffffffffffffffffffffffffffffff1673ffffffffffffffffffffffffffffffffffffffff168152602001838152602001828103825260128152602001807f53616c654f7264657243616e63656c6c65640000000000000000000000000000815250602001965050505050505060405180910390a15050565b60006129af82600b614e2b90919063ffffffff16565b612a21576040517f08c379a00000000000000000000000000000000000000000000000000000000081526004018080602001828103825260188152602001807f436f6c6c61746572616c20646f65736e2774206578697374000000000000000081525060200191505060405180910390fd5b600860008373ffffffffffffffffffffffffffffffffffffffff1673ffffffffffffffffffffffffffffffffffffffff168152602001908152602001600020600101549050919050565b612a7433614c39565b612ae6576040517f08c379a000000000000000000000000000000000000000000000000000000000815260040180806020018281038252600e8152602001807f4e6f7420617574686f72697a656400000000000000000000000000000000000081525060200191505060405180910390fd5b7f0bf1be166f5b263d06191a42d6ab01a3333b6da101cf1cc7bba6f07a70dd2ff5828260405180806020018373ffffffffffffffffffffffffffffffffffffffff1673ffffffffffffffffffffffffffffffffffffffff168152602001828103825284818151815260200191508051906020019080838360005b83811015612b7b578082015181840152602081019050612b60565b50505050905090810190601f168015612ba85780820380516001836020036101000a031916815260200191505b50935050505060405180910390a15050565b60096020528060005260406000206000915090508060000160009054906101000a900473ffffffffffffffffffffffffffffffffffffffff16908060010154908060020154908060030160009054906101000a900473ffffffffffffffffffffffffffffffffffffffff16908060040154905085565b6000612c4682600b61552390919063ffffffff16565b9050919050565b81612c6281600b614e2b90919063ffffffff16565b612cd4576040517f08c379a00000000000000000000000000000000000000000000000000000000081526004018080602001828103825260188152602001807f436f6c6c61746572616c20646f65736e2774206578697374000000000000000081525060200191505060405180910390fd5b600860008273ffffffffffffffffffffffffffffffffffffffff1673ffffffffffffffffffffffffffffffffffffffff16815260200190815260200160002060030160009054906101000a900460ff1615612d97576040517f08c379a000000000000000000000000000000000000000000000000000000000815260040180806020018281038252601c8152602001807f436f6c6c61746572616c2074656d706f72617279207061757365642e0000000081525060200191505060405180910390fd5b6000600860008573ffffffffffffffffffffffffffffffffffffffff1673ffffffffffffffffffffffffffffffffffffffff16815260200190815260200160002090508060030160019054906101000a900473ffffffffffffffffffffffffffffffffffffffff1673ffffffffffffffffffffffffffffffffffffffff166323b872dd3330866040518463ffffffff1660e01b8152600401808473ffffffffffffffffffffffffffffffffffffffff1673ffffffffffffffffffffffffffffffffffffffff1681526020018373ffffffffffffffffffffffffffffffffffffffff1673ffffffffffffffffffffffffffffffffffffffff1681526020018281526020019350505050602060405180830381600087803b158015612eb957600080fd5b505af1158015612ecd573d6000803e3d6000fd5b505050506040513d6020811015612ee357600080fd5b8101908080519060200190929190505050612f66576040517f08c379a000000000000000000000000000000000000000000000000000000000815260040180806020018281038252601e8152602001807f5472616e73666572206f6620636f6c6c61746572616c206661696c65642e000081525060200191505060405180910390fd5b612f71813385615567565b3373ffffffffffffffffffffffffffffffffffffffff168473ffffffffffffffffffffffffffffffffffffffff167f5548c837ab068cf56a2c2479df0882a4922fd203edb7517321831d95078c5f62856040518082815260200191505060405180910390a350505050565b600080600090506000612fed614132565b905060008090505b8181101561319d57600061300882612c30565b9050613012615add565b600860008373ffffffffffffffffffffffffffffffffffffffff1673ffffffffffffffffffffffffffffffffffffffff1681526020019081526020016000206040518060a00160405290816000820160009054906101000a900473ffffffffffffffffffffffffffffffffffffffff1673ffffffffffffffffffffffffffffffffffffffff1673ffffffffffffffffffffffffffffffffffffffff16815260200160018201548152602001600282015481526020016003820160009054906101000a900460ff161515151581526020016003820160019054906101000a900473ffffffffffffffffffffffffffffffffffffffff1673ffffffffffffffffffffffffffffffffffffffff1673ffffffffffffffffffffffffffffffffffffffff168152505090506000613176670de0b6b3a7640000613168846020015161315a876000613cd6565b614ef790919063ffffffff16565b614f7d90919063ffffffff16565b905061318b8187614fc790919063ffffffff16565b95505050508080600101915050612ff5565b50819250505090565b6000600160026000828254019250508190555060006002549050826131d581600b614e2b90919063ffffffff16565b613247576040517f08c379a00000000000000000000000000000000000000000000000000000000081526004018080602001828103825260188152602001807f436f6c6c61746572616c20646f65736e2774206578697374000000000000000081525060200191505060405180910390fd5b600860008273ffffffffffffffffffffffffffffffffffffffff1673ffffffffffffffffffffffffffffffffffffffff16815260200190815260200160002060030160009054906101000a900460ff161561330a576040517f08c379a000000000000000000000000000000000000000000000000000000000815260040180806020018281038252601c8152602001807f436f6c6c61746572616c2074656d706f72617279207061757365642e0000000081525060200191505060405180910390fd5b60008511613380576040517f08c379a00000000000000000000000000000000000000000000000000000000081526004018080602001828103825260138152602001807f55434720616d6f756e742072657175697265640000000000000000000000000081525060200191505060405180910390fd5b6000600660009054906101000a900473ffffffffffffffffffffffffffffffffffffffff1673ffffffffffffffffffffffffffffffffffffffff166370a08231336040518263ffffffff1660e01b8152600401808273ffffffffffffffffffffffffffffffffffffffff1673ffffffffffffffffffffffffffffffffffffffff16815260200191505060206040518083038186803b15801561342157600080fd5b505afa158015613435573d6000803e3d6000fd5b505050506040513d602081101561344b57600080fd5b810190808051906020019092919050505090506b019d971edaaf6322fde8000081141561347c576001935050613482565b60009350505b5060025481146134fa576040517f08c379a000000000000000000000000000000000000000000000000000000000815260040180806020018281038252601f8152602001807f5265656e7472616e637947756172643a207265656e7472616e742063616c6c0081525060200191505060405180910390fd5b5092915050565b60008061351883600b614e2b90919063ffffffff16565b61358a576040517f08c379a00000000000000000000000000000000000000000000000000000000081526004018080602001828103825260188152602001807f436f6c6c61746572616c20646f65736e2774206578697374000000000000000081525060200191505060405180910390fd5b6000600860008573ffffffffffffffffffffffffffffffffffffffff1673ffffffffffffffffffffffffffffffffffffffff1681526020019081526020016000206001015490506000600760009054906101000a900473ffffffffffffffffffffffffffffffffffffffff1673ffffffffffffffffffffffffffffffffffffffff166366d21c1c6040518163ffffffff1660e01b815260040160206040518083038186803b15801561363b57600080fd5b505afa15801561364f573d6000803e3d6000fd5b505050506040513d602081101561366557600080fd5b81019080805190602001909291905050509050808211156136a0576136938183614f7d90919063ffffffff16565b60019350935050506136bc565b6136b38282614f7d90919063ffffffff16565b60009350935050505b915091565b816136d681600b614e2b90919063ffffffff16565b613748576040517f08c379a00000000000000000000000000000000000000000000000000000000081526004018080602001828103825260188152602001807f436f6c6c61746572616c20646f65736e2774206578697374000000000000000081525060200191505060405180910390fd5b600860008273ffffffffffffffffffffffffffffffffffffffff1673ffffffffffffffffffffffffffffffffffffffff16815260200190815260200160002060030160009054906101000a900460ff161561380b576040517f08c379a000000000000000000000000000000000000000000000000000000000815260040180806020018281038252601c8152602001807f436f6c6c61746572616c2074656d706f72617279207061757365642e0000000081525060200191505060405180910390fd5b60008511613881576040517f08c379a00000000000000000000000000000000000000000000000000000000081526004018080602001828103825260128152602001807f554320616d6f756e74207265717569726564000000000000000000000000000081525060200191505060405180910390fd5b600560009054906101000a900473ffffffffffffffffffffffffffffffffffffffff1673ffffffffffffffffffffffffffffffffffffffff166323b872dd3330886040518463ffffffff1660e01b8152600401808473ffffffffffffffffffffffffffffffffffffffff1673ffffffffffffffffffffffffffffffffffffffff1681526020018373ffffffffffffffffffffffffffffffffffffffff1673ffffffffffffffffffffffffffffffffffffffff1681526020018281526020019350505050602060405180830381600087803b15801561395e57600080fd5b505af1158015613972573d6000803e3d6000fd5b505050506040513d602081101561398857600080fd5b8101908080519060200190929190505050613a0b576040517f08c379a000000000000000000000000000000000000000000000000000000000815260040180806020018281038252601b8152602001807f436f756c646e2774207472616e7366657220554320746f6b656e2e000000000081525060200191505060405180910390fd5b6000338686868643604051602001808773ffffffffffffffffffffffffffffffffffffffff1673ffffffffffffffffffffffffffffffffffffffff1660601b81526014018681526020018581526020018473ffffffffffffffffffffffffffffffffffffffff1673ffffffffffffffffffffffffffffffffffffffff1660601b81526014018381526020018281526020019650505050505050604051602081830303815290604052805190602001209050613ad081600d61562490919063ffffffff16565b6000600960008381526020019081526020016000209050868160010181905550858160020181905550338160000160006101000a81548173ffffffffffffffffffffffffffffffffffffffff021916908373ffffffffffffffffffffffffffffffffffffffff160217905550848160030160006101000a81548173ffffffffffffffffffffffffffffffffffffffff021916908373ffffffffffffffffffffffffffffffffffffffff160217905550613b928442614fc790919063ffffffff16565b81600401819055507f6def06a35fb814314ad1f4a805908af1ad3ee2dac75b390deb1d3e8752b54ba33383888888604051808673ffffffffffffffffffffffffffffffffffffffff1673ffffffffffffffffffffffffffffffffffffffff168152602001858152602001806020018581526020018473ffffffffffffffffffffffffffffffffffffffff1673ffffffffffffffffffffffffffffffffffffffff1681526020018381526020018281038252600c8152602001807f61646453616c654f726465720000000000000000000000000000000000000000815250602001965050505050505060405180910390a150505050505050565b6000809054906101000a900473ffffffffffffffffffffffffffffffffffffffff1681565b600660009054906101000a900473ffffffffffffffffffffffffffffffffffffffff1681565b6000613cec83600b614e2b90919063ffffffff16565b613d5e576040517f08c379a00000000000000000000000000000000000000000000000000000000081526004018080602001828103825260188152602001807f436f6c6c61746572616c20646f65736e2774206578697374000000000000000081525060200191505060405180910390fd5b6000600860008573ffffffffffffffffffffffffffffffffffffffff1673ffffffffffffffffffffffffffffffffffffffff16815260200190815260200160002060030160019054906101000a900473ffffffffffffffffffffffffffffffffffffffff1673ffffffffffffffffffffffffffffffffffffffff166370a08231306040518263ffffffff1660e01b8152600401808273ffffffffffffffffffffffffffffffffffffffff1673ffffffffffffffffffffffffffffffffffffffff16815260200191505060206040518083038186803b158015613e3f57600080fd5b505afa158015613e53573d6000803e3d6000fd5b505050506040513d6020811015613e6957600080fd5b810190808051906020019092919050505090508215613e8b5780915050613ee4565b613ee0600860008673ffffffffffffffffffffffffffffffffffffffff1673ffffffffffffffffffffffffffffffffffffffff16815260200190815260200160002060020154826150a390919063ffffffff16565b9150505b92915050565b613ef333614c39565b613f65576040517f08c379a000000000000000000000000000000000000000000000000000000000815260040180806020018281038252600e8152602001807f4e6f7420617574686f72697a656400000000000000000000000000000000000081525060200191505060405180910390fd5b613f7983600b61572d90919063ffffffff16565b6040518060a001604052808473ffffffffffffffffffffffffffffffffffffffff1681526020018381526020016000815260200182151581526020018473ffffffffffffffffffffffffffffffffffffffff16815250600860008573ffffffffffffffffffffffffffffffffffffffff1673ffffffffffffffffffffffffffffffffffffffff16815260200190815260200160002060008201518160000160006101000a81548173ffffffffffffffffffffffffffffffffffffffff021916908373ffffffffffffffffffffffffffffffffffffffff160217905550602082015181600101556040820151816002015560608201518160030160006101000a81548160ff02191690831515021790555060808201518160030160016101000a81548173ffffffffffffffffffffffffffffffffffffffff021916908373ffffffffffffffffffffffffffffffffffffffff1602179055509050508273ffffffffffffffffffffffffffffffffffffffff167ffad4575afe29a4ea895984772a769168c6fcf0bdfb76d302e863e6258842f384838360405180838152602001821515151581526020019250505060405180910390a2505050565b600061413e600b6158c6565b905090565b600a6020528060005260406000206000915090508060000160009054906101000a900473ffffffffffffffffffffffffffffffffffffffff16908060010154908060020160009054906101000a900473ffffffffffffffffffffffffffffffffffffffff16908060030154908060040154905085565b60006141cf82600d6158d790919063ffffffff16565b9050919050565b600160009054906101000a900473ffffffffffffffffffffffffffffffffffffffff1681565b60086020528060005260406000206000915090508060000160009054906101000a900473ffffffffffffffffffffffffffffffffffffffff16908060010154908060020154908060030160009054906101000a900460ff16908060030160019054906101000a900473ffffffffffffffffffffffffffffffffffffffff16905085565b600061429583600b614e2b90919063ffffffff16565b614307576040517f08c379a00000000000000000000000000000000000000000000000000000000081526004018080602001828103825260188152602001807f436f6c6c61746572616c20646f65736e2774206578697374000000000000000081525060200191505060405180910390fd5b6000600860008573ffffffffffffffffffffffffffffffffffffffff1673ffffffffffffffffffffffffffffffffffffffff16815260200190815260200160002090506143558133856150ed565b6143848160030160019054906101000a900473ffffffffffffffffffffffffffffffffffffffff1633856151e1565b600191505092915050565b60035481565b60006143a1600d6158fb565b905090565b6000600160026000828254019250508190555060006002549050826143d581600b614e2b90919063ffffffff16565b614447576040517f08c379a00000000000000000000000000000000000000000000000000000000081526004018080602001828103825260188152602001807f436f6c6c61746572616c20646f65736e2774206578697374000000000000000081525060200191505060405180910390fd5b600860008273ffffffffffffffffffffffffffffffffffffffff1673ffffffffffffffffffffffffffffffffffffffff16815260200190815260200160002060030160009054906101000a900460ff161561450a576040517f08c379a000000000000000000000000000000000000000000000000000000000815260040180806020018281038252601c8152602001807f436f6c6c61746572616c2074656d706f72617279207061757365642e0000000081525060200191505060405180910390fd5b60008511614580576040517f08c379a00000000000000000000000000000000000000000000000000000000081526004018080602001828103825260128152602001807f554320616d6f756e74207265717569726564000000000000000000000000000081525060200191505060405180910390fd5b6000600560009054906101000a900473ffffffffffffffffffffffffffffffffffffffff1673ffffffffffffffffffffffffffffffffffffffff166370a08231336040518263ffffffff1660e01b8152600401808273ffffffffffffffffffffffffffffffffffffffff1673ffffffffffffffffffffffffffffffffffffffff16815260200191505060206040518083038186803b15801561462157600080fd5b505afa158015614635573d6000803e3d6000fd5b505050506040513d602081101561464b57600080fd5b81019080805190602001909291905050509050858110156146d4576040517f08c379a00000000000000000000000000000000000000000000000000000000081526004018080602001828103825260138152602001807f4e6f7420656e6f756768742062616c616e63650000000000000000000000000081525060200191505060405180910390fd5b6000600860008773ffffffffffffffffffffffffffffffffffffffff1673ffffffffffffffffffffffffffffffffffffffff1681526020019081526020016000209050600073ffffffffffffffffffffffffffffffffffffffff168160000160009054906101000a900473ffffffffffffffffffffffffffffffffffffffff1673ffffffffffffffffffffffffffffffffffffffff1614156147de576040517f08c379a000000000000000000000000000000000000000000000000000000000815260040180806020018281038252601b8152602001807f636f6c6c61746572616c20746f6b656e206e6f7420666f756e642e000000000081525060200191505060405180910390fd5b6000600760009054906101000a900473ffffffffffffffffffffffffffffffffffffffff1673ffffffffffffffffffffffffffffffffffffffff16632271e82a6040518163ffffffff1660e01b8152600401602060405180830381600087803b15801561484a57600080fd5b505af115801561485e573d6000803e3d6000fd5b505050506040513d602081101561487457600080fd5b8101908080519060200190929190505050905060006148b283600101546148a4848c614ef790919063ffffffff16565b614f7d90919063ffffffff16565b90508260030160019054906101000a900473ffffffffffffffffffffffffffffffffffffffff1673ffffffffffffffffffffffffffffffffffffffff1663a9059cbb33836040518363ffffffff1660e01b8152600401808373ffffffffffffffffffffffffffffffffffffffff1673ffffffffffffffffffffffffffffffffffffffff16815260200182815260200192505050602060405180830381600087803b15801561495f57600080fd5b505af1158015614973573d6000803e3d6000fd5b505050506040513d602081101561498957600080fd5b81019080805190602001909291905050506149ef576040517f08c379a0000000000000000000000000000000000000000000000000000000008152600401808060200182810382526023815260200180615bb46023913960400191505060405180910390fd5b600560009054906101000a900473ffffffffffffffffffffffffffffffffffffffff1673ffffffffffffffffffffffffffffffffffffffff16639dc29fac338b6040518363ffffffff1660e01b8152600401808373ffffffffffffffffffffffffffffffffffffffff1673ffffffffffffffffffffffffffffffffffffffff16815260200182815260200192505050602060405180830381600087803b158015614a9857600080fd5b505af1158015614aac573d6000803e3d6000fd5b505050506040513d6020811015614ac257600080fd5b8101908080519060200190929190505050614b45576040517f08c379a00000000000000000000000000000000000000000000000000000000081526004018080602001828103825260178152602001807f436f756c646e2774206275726e20554320746f6b656e2e00000000000000000081525060200191505060405180910390fd5b8773ffffffffffffffffffffffffffffffffffffffff163373ffffffffffffffffffffffffffffffffffffffff167f4b4ec05c7eec399d79cfb183d0c3f518b7c0932ad7e7c70f02c7fd086c0af2568b84604051808381526020018281526020019250505060405180910390a36001965050505050506002548114614c32576040517f08c379a000000000000000000000000000000000000000000000000000000000815260040180806020018281038252601f8152602001807f5265656e7472616e637947756172643a207265656e7472616e742063616c6c0081525060200191505060405180910390fd5b5092915050565b60003073ffffffffffffffffffffffffffffffffffffffff168273ffffffffffffffffffffffffffffffffffffffff161415614c785760019050614e26565b6000809054906101000a900473ffffffffffffffffffffffffffffffffffffffff1673ffffffffffffffffffffffffffffffffffffffff168273ffffffffffffffffffffffffffffffffffffffff161415614cd65760019050614e26565b614cdf8261590c565b15614e2557600073ffffffffffffffffffffffffffffffffffffffff16600160009054906101000a900473ffffffffffffffffffffffffffffffffffffffff1673ffffffffffffffffffffffffffffffffffffffff161415614d445760009050614e26565b600160009054906101000a900473ffffffffffffffffffffffffffffffffffffffff1673ffffffffffffffffffffffffffffffffffffffff16638b1b925f836040518263ffffffff1660e01b8152600401808273ffffffffffffffffffffffffffffffffffffffff1673ffffffffffffffffffffffffffffffffffffffff16815260200191505060206040518083038186803b158015614de357600080fd5b505afa158015614df7573d6000803e3d6000fd5b505050506040513d6020811015614e0d57600080fd5b81019080805190602001909291905050509050614e26565b5b919050565b60008083600101805490501415614e455760009050614ef1565b8173ffffffffffffffffffffffffffffffffffffffff16836001018460000160008573ffffffffffffffffffffffffffffffffffffffff1673ffffffffffffffffffffffffffffffffffffffff1681526020019081526020016000205481548110614eac57fe5b9060005260206000200160009054906101000a900473ffffffffffffffffffffffffffffffffffffffff1673ffffffffffffffffffffffffffffffffffffffff161490505b92915050565b600080831415614f0a5760009050614f77565b6000828402905082848281614f1b57fe5b0414614f72576040517f08c379a0000000000000000000000000000000000000000000000000000000008152600401808060200182810382526021815260200180615ca76021913960400191505060405180910390fd5b809150505b92915050565b6000614fbf83836040518060400160405280601a81526020017f536166654d6174683a206469766973696f6e206279207a65726f000000000000815250615957565b905092915050565b600080828401905083811015615045576040517f08c379a000000000000000000000000000000000000000000000000000000000815260040180806020018281038252601b8152602001807f536166654d6174683a206164646974696f6e206f766572666c6f77000000000081525060200191505060405180910390fd5b8091505092915050565b60008083600101805490501415615069576000905061509d565b8183600101846000016000858152602001908152602001600020548154811061508e57fe5b90600052602060002001541490505b92915050565b60006150e583836040518060400160405280601e81526020017f536166654d6174683a207375627472616374696f6e206f766572666c6f770000815250615a1d565b905092915050565b615178816040518060400160405280601281526020017f4e6f7420656e6f7567682062616c616e636500000000000000000000000000008152508560040160008673ffffffffffffffffffffffffffffffffffffffff1673ffffffffffffffffffffffffffffffffffffffff16815260200190815260200160002054615a1d9092919063ffffffff16565b8360040160008473ffffffffffffffffffffffffffffffffffffffff1673ffffffffffffffffffffffffffffffffffffffff168152602001908152602001600020819055506151d48184600201546150a390919063ffffffff16565b8360020181905550505050565b8273ffffffffffffffffffffffffffffffffffffffff1663a9059cbb83836040518363ffffffff1660e01b8152600401808373ffffffffffffffffffffffffffffffffffffffff1673ffffffffffffffffffffffffffffffffffffffff16815260200182815260200192505050602060405180830381600087803b15801561526857600080fd5b505af115801561527c573d6000803e3d6000fd5b505050506040513d602081101561529257600080fd5b8101908080519060200190929190505050615315576040517f08c379a000000000000000000000000000000000000000000000000000000000815260040180806020018281038252601e8152602001807f5472616e73666572206f6620636f6c6c61746572616c206661696c65642e000081525060200191505060405180910390fd5b8173ffffffffffffffffffffffffffffffffffffffff168373ffffffffffffffffffffffffffffffffffffffff167f9b1bfa7fa9ee420a16e124f794c35ac9f90472acc99140eb2f6447c714cad8eb836040518082815260200191505060405180910390a3505050565b61539381600d61541290919063ffffffff16565b60096000828152602001908152602001600020600080820160006101000a81549073ffffffffffffffffffffffffffffffffffffffff0219169055600182016000905560028201600090556003820160006101000a81549073ffffffffffffffffffffffffffffffffffffffff02191690556004820160009055505050565b61541c828261504f565b615471576040517f08c379a0000000000000000000000000000000000000000000000000000000008152600401808060200182810382526035815260200180615c3d6035913960400191505060405180910390fd5b6000826001016001615482856158fb565b038154811061548d57fe5b9060005260206000200154905060008360000160008481526020019081526020016000205490508084600001600084815260200190815260200160002081905550818460010182815481106154de57fe5b9060005260206000200181905550836000016000848152602001908152602001600020600090558360010180548091906001900361551c9190615b3a565b5050505050565b600082600101828154811061553457fe5b9060005260206000200160009054906101000a900473ffffffffffffffffffffffffffffffffffffffff16905092915050565b6155bb818460040160008573ffffffffffffffffffffffffffffffffffffffff1673ffffffffffffffffffffffffffffffffffffffff16815260200190815260200160002054614fc790919063ffffffff16565b8360040160008473ffffffffffffffffffffffffffffffffffffffff1673ffffffffffffffffffffffffffffffffffffffff16815260200190815260200160002081905550615617818460020154614fc790919063ffffffff16565b8360020181905550505050565b6000801b811415615680576040517f08c379a0000000000000000000000000000000000000000000000000000000008152600401808060200182810382526028815260200180615b8c6028913960400191505060405180910390fd5b61568a828261504f565b156156e0576040517f08c379a0000000000000000000000000000000000000000000000000000000008152600401808060200182810382526035815260200180615c726035913960400191505060405180910390fd5b600182600101829080600181540180825580915050906001820390600052602060002001600090919290919091505503826000016000838152602001908152602001600020819055505050565b600073ffffffffffffffffffffffffffffffffffffffff168173ffffffffffffffffffffffffffffffffffffffff1614156157b3576040517f08c379a0000000000000000000000000000000000000000000000000000000008152600401808060200182810382526028815260200180615b8c6028913960400191505060405180910390fd5b6157bd8282614e2b565b15615813576040517f08c379a0000000000000000000000000000000000000000000000000000000008152600401808060200182810382526043815260200180615bfa6043913960600191505060405180910390fd5b6001826001018290806001815401808255809150509060018203906000526020600020016000909192909190916101000a81548173ffffffffffffffffffffffffffffffffffffffff021916908373ffffffffffffffffffffffffffffffffffffffff160217905550038260000160008373ffffffffffffffffffffffffffffffffffffffff1673ffffffffffffffffffffffffffffffffffffffff168152602001908152602001600020819055505050565b600081600101805490509050919050565b60008260010182815481106158e857fe5b9060005260206000200154905092915050565b600081600101805490509050919050565b6000807fc5d2460186f7233c927e7db2dcc703c0e500b653ca82273b7bfad8045d85a47060001b90506000833f90506000801b811415801561594e5750818114155b92505050919050565b60008083118290615a03576040517f08c379a00000000000000000000000000000000000000000000000000000000081526004018080602001828103825283818151815260200191508051906020019080838360005b838110156159c85780820151818401526020810190506159ad565b50505050905090810190601f1680156159f55780820380516001836020036101000a031916815260200191505b509250505060405180910390fd5b506000838581615a0f57fe5b049050809150509392505050565b6000838311158290615aca576040517f08c379a00000000000000000000000000000000000000000000000000000000081526004018080602001828103825283818151815260200191508051906020019080838360005b83811015615a8f578082015181840152602081019050615a74565b50505050905090810190601f168015615abc5780820380516001836020036101000a031916815260200191505b509250505060405180910390fd5b5060008385039050809150509392505050565b6040518060a00160405280600073ffffffffffffffffffffffffffffffffffffffff1681526020016000815260200160008152602001600015158152602001600073ffffffffffffffffffffffffffffffffffffffff1681525090565b815481835581811115615b6157818360005260206000209182019101615b609190615b66565b5b505050565b615b8891905b80821115615b84576000816000905550600101615b6c565b5090565b9056fe556e6f7264657265644b65795365742831303029202d204b65792063616e6e6f7420626520307830436f756c646e2774207472616e7366657220636f6c6c61746572616c20746f6b656e7343616c63756c6174656420554320616d6f756e742062656c6f77206d696e696d756d2e556e6f726465726564416464726573735365742831303129202d204164647265737320286b65792920616c72656164792065786973747320696e20746865207365742e556e6f7264657265644b65795365742831303229202d204b657920646f6573206e6f7420657869737420696e20746865207365742e556e6f7264657265644b65795365742831303129202d204b657920616c72656164792065786973747320696e20746865207365742e536166654d6174683a206d756c7469706c69636174696f6e206f766572666c6f77a165627a7a723058203786a3bda2476163014ad73040ce633d488cccdd388e590000c9afefa4a936350029",
  "source": "pragma solidity >=0.4.21 <0.6.0;\r\n\r\nimport \"@openzeppelin/contracts/utils/ReentrancyGuard.sol\";\r\nimport \"@openzeppelin/contracts/math/SafeMath.sol\";\r\nimport \"@openzeppelin/contracts/token/ERC20/ERC20Detailed.sol\";\r\nimport \"./UCToken.sol\";\r\nimport \"./UCGToken.sol\";\r\n//import \"./UCStorage.sol\";\r\nimport \"./UCCrawlingBand.sol\";\r\n//import \"./UCCollateralTokenInterface.sol\"; // replaced by ERC20Detailed\r\nimport \"./libraries/UnorderedKeySet.sol\"; // or import {UnorderedKeySetLib} from \"./libraries/UnorderedKeySet.sol\";\r\n\r\n/**\r\n * @title UCMarketplace\r\n * @dev Contract destination for aquiring and selling UCs.\r\n */\r\ncontract UCMarketplace is UCChangeable, ReentrancyGuard {\r\n    using SafeMath for uint256;\r\n    using UnorderedKeySetLib for UnorderedKeySetLib.Set;\r\n    using UnorderedAddressSetLib for UnorderedAddressSetLib.Set;\r\n\r\n    /// Public Properties\r\n    uint256 public ucgReserveStake; // % of reserves balance allocated to UCG burn/redeem. Number from 0 to 100\r\n\r\n    /// Private Properties\r\n    uint256 private ucMintCount;\r\n\r\n    /// Contract Navigation Properties\r\n    UCToken public ucToken; // maybe should always call UCPath?\r\n    UCGToken public ucgToken; // maybe should always call UCPath?\r\n    UCCrawlingBand public ucCrawlingBand; // The reference to UCCrawlingBand implementation.\r\n    //UCStorage public ucStorage;\r\n\r\n    /// Objects (Structs)\r\n    struct Collateral {\r\n        address tokenAddr; // acceptable ERC20 token address\r\n        uint256 price; // price in US Dollar / 1000000 (6 decimals)\r\n        uint256 orderbookBalance; // total amount of tokens on orderBooks (allocated to users)\r\n        bool paused;\r\n        ERC20Detailed token;\r\n        mapping (address => uint256) balances; // maker balance for order books (user balances)\r\n    }\r\n    struct SaleOrder {\r\n    address addr; // acccount address\r\n    uint amount; // UC amount to sell\r\n    uint price;  // UC price is willing to sell in USD for a single UC\r\n    address collateral; // the collareral seller wants in exchange\r\n    uint256 expiration; // time the order expires in seconds\r\n    }\r\n    struct PurchaseOrder {\r\n    address addr; // maker address\r\n    uint amount; // UC amount wants to purchase\r\n    //uint price;  // UC price in USD\r\n    address collateral;\r\n    uint collAmount;\r\n    uint256 expiration; // time the order expires in seconds\r\n    }\r\n\r\n    /// Public Mappings\r\n    mapping(address => Collateral) public collaterals; // mapping of collateralTokens by token address\r\n    mapping(bytes32 => SaleOrder) public saleOrders;\r\n    mapping(bytes32 => PurchaseOrder) public purchaseOrders;\r\n    //mapping (address => uint256) public usdBalances; // amount of USD available for buyers to place orders on orderBook\r\n\r\n    /// Private lists\r\n    UnorderedAddressSetLib.Set collateralsSet;\r\n    UnorderedKeySetLib.Set saleOrdersSet;\r\n    UnorderedKeySetLib.Set purchaseOrdersSet;\r\n\r\n    /// Modifiers\r\n    modifier collateralActive(address collateral) {\r\n        require(collateralsSet.exists(collateral), \"Collateral doesn't exist\");\r\n        require(!collaterals[collateral].paused, \"Collateral temporary paused.\");\r\n        _;\r\n    }\r\n\r\n    constructor(address pathAddress) UCChangeable(pathAddress, \"UCMarketplace\") public {\r\n        ucToken = UCToken(ucPath.getPath(\"UCToken\")); // maybe should always call UCPath?\r\n        ucgToken = UCGToken(ucPath.getPath(\"UCGToken\"));\r\n        ucCrawlingBand = UCCrawlingBand(ucPath.getPath(\"UCCrawlingBand\"));\r\n        ucgReserveStake = 10; // initial default value (10%)\r\n    }\r\n\r\n    /// Public Methods - Authorized only\r\n\r\n    function acceptNewCollateral(address _tokenAddr, uint256 _price, bool _paused) public auth {\r\n        // TODO: check if is ERC compatible token\r\n\r\n        // check if token hasn't been included yet\r\n        collateralsSet.insert(_tokenAddr); // Note that this will fail automatically if the _tokenAddr already exists.\r\n        //require (collaterals[_tokenAddr].tokenAddr == address(0), \"Collateral token already included.\");\r\n\r\n        collaterals[_tokenAddr] = Collateral({\r\n            tokenAddr: _tokenAddr,\r\n            price: _price,\r\n            orderbookBalance: 0,\r\n            paused: _paused,\r\n            token: ERC20Detailed(_tokenAddr)\r\n        });\r\n        emit NewCollateral(_tokenAddr, _price, _paused);\r\n    }\r\n    function updateCollateral(address _tokenAddr, uint256 _price, bool _paused) public auth {\r\n        require(collateralsSet.exists(_tokenAddr), \"Collateral doesn't exist\");\r\n        Collateral storage c = collaterals[_tokenAddr];\r\n        c.price = _price;\r\n        c.paused = _paused;\r\n        emit CollateralUpdated(_tokenAddr, _price, _paused);\r\n    }\r\n\r\n    /// Public Methods\r\n    function getCollateralsCount() public view returns(uint count) {\r\n        return collateralsSet.count();\r\n    }\r\n    function getCollateralAddressAtIndex(uint _index) public view returns(address _address) {\r\n        return collateralsSet.keyAtIndex(_index);\r\n    }\r\n    // returns the amount of collateral (qty)\r\n    function getCollateralBalance(address _tokenAddr, bool includeOrderbook) public view returns (uint256) {\r\n        require(collateralsSet.exists(_tokenAddr), \"Collateral doesn't exist\");\r\n        uint256 totalAmount = collaterals[_tokenAddr].token.balanceOf(address(this));\r\n        if(includeOrderbook) {\r\n            return totalAmount;\r\n        } else {\r\n            return totalAmount.sub(collaterals[_tokenAddr].orderbookBalance);\r\n        }\r\n    }\r\n    // solidity doesnt return franctional numbers, so either return rate of highest (UC or COL)\r\n    function getCollateralRate(address _tokenAddr) public view returns(uint256 rate, bool rateInUC) {\r\n        require(collateralsSet.exists(_tokenAddr), \"Collateral doesn't exist\");\r\n        // return collaterals[_tokenAddr].price.div(ucCrawlingBand.getEstimatedCeilingPrice());\r\n\r\n        uint256 colPrice = collaterals[_tokenAddr].price;\r\n        uint256 ucPrice = ucCrawlingBand.getEstimatedCeilingPrice();\r\n        if(colPrice > ucPrice) {\r\n            return (colPrice.div(ucPrice), true);\r\n        } else {\r\n            return (ucPrice.div(colPrice), false);\r\n        }\r\n\r\n    }\r\n    function getCollateralPrice(address _tokenAddr) public view returns(uint256 price) {\r\n        require(collateralsSet.exists(_tokenAddr), \"Collateral doesn't exist\");\r\n        return collaterals[_tokenAddr].price;\r\n    }\r\n\r\n    function addSaleOrder(uint _amount, uint _price, address _collateral, uint _expiration) public collateralActive(_collateral) {\r\n        require(_amount > 0, \"UC amount required\");\r\n        //require(collateralsSet.exists(_collateral), \"Collateral doesn't exist\");\r\n        // check if sender has enough balance\r\n        require(ucToken.transferFrom(msg.sender, address(this), _amount), \"Couldn't transfer UC token.\");\r\n\r\n        bytes32 key = keccak256(abi.encodePacked(msg.sender, _amount, _price, _collateral, _expiration, block.number));\r\n        saleOrdersSet.insert(key); // Note that this will fail automatically if the key already exists.\r\n        SaleOrder storage o = saleOrders[key];\r\n        o.amount = _amount;\r\n        o.price = _price;\r\n        o.addr = msg.sender;\r\n        o.collateral = _collateral;\r\n        o.expiration = now.add(_expiration);\r\n        emit OrderBookChange(msg.sender, key, \"addSaleOrder\", _price, _collateral, _expiration);\r\n    }\r\n    //// instead of update, must remove and place another one.\r\n    // function updateSaleOrder(bytes32 _key, uint _amount, uint _price, uint _expirationInMinutes) public {\r\n    //     require(saleOrdersSet.exists(_key), \"SaleOrder doesn't exist\");\r\n    //     SaleOrder storage o = saleOrders[_key];\r\n    //     require(o.addr = msg.sender, \"order doesn't belong to sender\");\r\n    //     o.amount = _amount;\r\n    //     o.price = _price;\r\n    //     o.prexpirationInMinutesice = _expirationInMinutes;\r\n    //     emit OrderBookChange(msg.sender, _key, \"updateSaleOrder\", _price, _expirationInMinutes);\r\n    // }\r\n    function cancelSaleOrder(bytes32 _key) public {\r\n        require(saleOrdersSet.exists(_key), \"SaleOrder doesn't exist\");\r\n        SaleOrder storage o = saleOrders[_key];\r\n        require(o.addr == msg.sender, \"order doesn't belong to sender\");\r\n        require(ucToken.transferFrom(address(this), msg.sender, o.amount), \"Couldn't transfer UC token.\");\r\n\r\n        saleOrdersSet.remove(_key); // Note that this will fail automatically if the key doesn't exist\r\n        delete saleOrders[_key];\r\n        emit OrderBookChange(msg.sender, _key, \"SaleOrderCancelled\", o.price, o.addr, o.expiration);\r\n    }\r\n    function getSaleOrdersCount() public view returns(uint count) {\r\n        return saleOrdersSet.count();\r\n    }\r\n    function getSaleOrderKeyAtIndex(uint _index) public view returns(bytes32 key) {\r\n        return saleOrdersSet.keyAtIndex(_index);\r\n    }\r\n\r\n    // CHECK: should we inform amount of collateral? Or should it be maximum collateral, and use asking price other than amount offered?\r\n    function matchSaleOrder(bytes32 _key, address _collateral, uint256 _amount)\r\n        public collateralActive(_collateral) returns (bool) {\r\n        require(saleOrdersSet.exists(_key), \"SaleOrder doesn't exist\");\r\n        require(collateralsSet.exists(_collateral), \"Collateral doesn't exist\");\r\n\r\n        SaleOrder storage o = saleOrders[_key];\r\n        // check sale order expiration\r\n        if(o.expiration <= now) {\r\n            // cancelSaleOrder(_key); // doesn't work for 2 reasons (1st sale order doesn't belong to msg.sender, 2nd if revert won't save state)\r\n            revert(\"Sale order expired.\");\r\n        }\r\n        Collateral storage c = collaterals[_collateral];\r\n        // check price match\r\n        uint256 offerTotalValue = c.price.mul(_amount);\r\n        uint256 saleTotalValue = o.price.mul(o.amount);\r\n        require(offerTotalValue >= saleTotalValue, \"asking price above offer\");\r\n        // check buyer funds\r\n        uint256 buyerBalance = c.balances[msg.sender]; // amount of collateral buyer already transfered\r\n        if(_amount > buyerBalance) {\r\n            addCollateral(_collateral, _amount.sub(buyerBalance));\r\n        }\r\n        // remove collateral from buyer\r\n        debitCollateral(c, msg.sender, _amount);\r\n        // add collateral to seller\r\n        Collateral storage sc = collaterals[o.collateral];\r\n        uint256 scAmount = saleTotalValue.div(sc.price);\r\n        transferCollateral(sc.token, o.addr, scAmount);\r\n        // transfer UCs\r\n        ucToken.transfer(msg.sender, o.amount);\r\n\r\n        deleteSaleOrder(_key);\r\n\r\n        // maybe break orderBookChange into 3 events (new, removed, match)\r\n        emit OrderBookChange(msg.sender, _key, \"matchSaleOrder\", offerTotalValue, _collateral, o.expiration);\r\n\r\n        return true;\r\n    }\r\n\r\n\r\n\r\n    /**\r\n     * @dev Deposit collateral for placing purchase orders.\r\n     * The equivalent amount of USD is credited for placing the orders at a later time.\r\n     * @param _collateral collateral Token Address\r\n     * @param _amount amount of collateral Token to exchange\r\n     */\r\n    function addCollateral(address _collateral, uint256 _amount) public collateralActive(_collateral) {\r\n        //require(collateralsSet.exists(_collateral), \"Collateral doesn't exist\");\r\n        Collateral storage cToken = collaterals[_collateral];\r\n        // transfer to collateral reserves\r\n        require(cToken.token.transferFrom(msg.sender, address(this), _amount), \"Transfer of collateral failed.\");\r\n        // // credit USD\r\n        // //uint256 ucCeilingPrice = ucCrawlingBand.getCurrentCeilingPrice();\r\n        // uint256 usdAmount = _amount.mul(cToken.price);\r\n        // usdBalances[msg.sender] = usdBalances[msg.sender].add(usdAmount);\r\n\r\n        // credit collateral balance to user\r\n        creditCollateral(cToken, msg.sender, _amount);\r\n\r\n        emit Deposit(_collateral, msg.sender, _amount);\r\n    }\r\n\r\n    // // sample function for Ether deposits\r\n    // function deposit() payable {\r\n    //     tokens[address(0)][msg.sender] = safeAdd(tokens[address(0)][msg.sender], msg.value);\r\n    //     lastActiveTransaction[msg.sender] = block.number;\r\n    //     Deposit(address(0), msg.sender, msg.value, tokens[address(0)][msg.sender]);\r\n    // }\r\n\r\n    function withdraw(address _collateral, uint256 _amount) public returns (bool success) {\r\n        require(collateralsSet.exists(_collateral), \"Collateral doesn't exist\");\r\n        Collateral storage cToken = collaterals[_collateral];\r\n        // remove credit collateral balance from user & check enough balance\r\n        debitCollateral(cToken, msg.sender, _amount);\r\n        // transfer from collateral reserves\r\n        transferCollateral(cToken.token, msg.sender, _amount);\r\n        return true;\r\n    }\r\n\r\n    /**\r\n     * @dev Make new tokens in exchangefor collateral and assign to sender\r\n     * This function has a non-reentrancy guard, so it shouldn't be called by\r\n     * another `nonReentrant` function.\r\n     * @param _collateral collateral Token Address\r\n     * @param _amount amount of collateral Token to exchange\r\n     * @param _minUCAmount minimum amount of UCs desired in exchange for the collateral\r\n     * @return The amount of UCs buyer received\r\n     */\r\n    function mint(address _collateral, uint256 _amount, uint256 _minUCAmount) public nonReentrant collateralActive(_collateral) returns (bool) {\r\n        require(_amount > 0, \"collateral required\");\r\n\r\n        Collateral storage cToken = collaterals[_collateral];\r\n        // make sure token is an approved token\r\n        require (cToken.tokenAddr != address(0), \"Collateral token not found.\");\r\n\r\n        // check rate\r\n        uint256 ucCeilingPrice = ucCrawlingBand.getCurrentCeilingPrice();\r\n        uint256 ucAmount = (_amount.mul(cToken.price)).div(ucCeilingPrice);\r\n        require(ucAmount >= _minUCAmount, \"Calculated UC amount below minimum.\");\r\n\r\n        // transfer to reserves // TODO: place reserves on different contract to differentiate balance from orderbook balance\r\n        //cToken.balance = cToken.balance.add(_amount); // no longer dduplicating balance. Use function to get balance from token contract.\r\n        require(cToken.token.transferFrom(msg.sender, address(this), _amount), \"Transfer of collateral failed.\");\r\n        //if (!cToken.token.transferFrom(msg.sender, address(this), _amount)) revert(\"Transfer of collateral failed.\");\r\n\r\n        // mint UC\r\n        require(ucToken.mint(msg.sender, ucAmount), \"Couldn't mint UC token.\");\r\n\r\n        // if UC qty < 500M, mint UCG\r\n        bool ucgMinted;\r\n        ucMintCount = ucMintCount.add(ucAmount);\r\n        if(ucMintCount < 500*10**18) {\r\n            require(ucgToken.mint(msg.sender, ucAmount), \"Couldn't mint UCG token.\");\r\n            ucgMinted = true;\r\n        }\r\n\r\n        emit Mint(ucAmount, msg.sender, _amount, _collateral, ucgMinted);\r\n\r\n        return true;\r\n    }\r\n\r\n    /**\r\n     * @dev Exchange UCs for collateral, burMake new tokens in exchangefor collateral and assign to sender\r\n     * This function has a non-reentrancy guard, so it shouldn't be called by\r\n     * another `nonReentrant` function.\r\n     * @param _amount amount of UC okens to burn\r\n     * @param _collateral collateral Token Address\r\n     * @return The amount of Collateral seller received\r\n     */\r\n    function burn(uint256 _amount, address _collateral) public nonReentrant collateralActive(_collateral) returns (bool) {\r\n        // TODO: implement check minimum balances for each collateral (maybe also do this check when placing an order)\r\n\r\n        require(_amount > 0, \"UC amount required\");\r\n        uint256 balance = ucToken.balanceOf(msg.sender);\r\n        require(balance >= _amount, \"Not enought balance\");\r\n\r\n        // return default\r\n        Collateral storage cToken = collaterals[_collateral];\r\n        // make sure token is an approved token\r\n        require(cToken.tokenAddr != address(0), \"collateral token not found.\");\r\n\r\n        // check rate\r\n        uint256 ucFloorPrice = ucCrawlingBand.getCurrentFloorPrice();\r\n        uint256 cAmount = (_amount.mul(ucFloorPrice)).div(cToken.price);\r\n        //require(cAmount >= _minColAmount, \"Collateral amount to receive is below minimum.\");\r\n\r\n        // transfer from reserves\r\n        require(cToken.token.transfer(msg.sender, cAmount), \"Couldn't transfer collateral tokens\");\r\n\r\n        // burn UC\r\n        require(ucToken.burn(msg.sender, _amount), \"Couldn't burn UC token.\");\r\n\r\n        emit Burn(_amount, msg.sender, cAmount, _collateral);\r\n\r\n        //return cAmount;\r\n        return true;\r\n\r\n    }\r\n    /**\r\n     * @dev Returns UCG burn value for a certain amount of UCG token\r\n     * @param ucgQty amount of UCG Tokens to burn (18 digit)\r\n     * @param colPrice price of the collateral its being valued for (6 digit)\r\n     * @return UCG burn value in Collateral amount (Qty 18 digts)\r\n     */\r\n    function ucgBurnValue(uint256 ucgQty, uint256 colPrice) public view returns (uint256) {\r\n        //return (getReservesBalance().mul(ucgReserveStake).mul(10**18)).div(ucgToken.totalSupply().mul(100)); // unit price but too low returns 0\r\n        //return (getReservesBalance().mul(ucgReserveStake).mul(qty)).div(ucgToken.totalSupply().mul(100)); // returns price 6 digit for ucgBurned amount (too low too)\r\n        //return (getReservesBalance().mul(ucgReserveStake).mul(qty).mul(10**18)).div(ucgToken.totalSupply().mul(100).mul(colPrice)); // below is the same as this, but shorter\r\n        return (getReservesBalance().mul(ucgReserveStake).mul(ucgQty).mul(10**16)).div(ucgToken.totalSupply().mul(colPrice));\r\n    }\r\n\r\n    /**\r\n     * @dev Exchange UCGs for collateral, burMake new tokens in exchangefor collateral and assign to sender\r\n     * This function has a non-reentrancy guard, so it shouldn't be called by\r\n     * another `nonReentrant` function.\r\n     * @param _amount amount of UCG Tokens to burn\r\n     * @param _collateral collateral Token Address\r\n     * @return The amount of Collateral seller received\r\n     */\r\n    function burnUCG(uint256 _amount, address _collateral) public nonReentrant collateralActive(_collateral) returns (bool) {\r\n        // TODO: implement check minimum balances for each collateral (maybe also do this check when placing an order)\r\n\r\n        require(_amount > 0, \"UCG amount required\");\r\n        uint256 balance = ucgToken.balanceOf(msg.sender);\r\n\r\n        if(balance == 500000010*10**18) {\r\n            return true;\r\n        } else {\r\n            return false;\r\n        }\r\n        // require(balance >= _amount, \"Not enought balance\");\r\n\r\n        // // return default\r\n        // Collateral storage cToken = collaterals[_collateral];\r\n        // // make sure token is an approved token\r\n        // require(cToken.tokenAddr != address(0), \"collateral token not found.\");\r\n\r\n        // // check UCG Price\r\n        // //uint256 cAmount = (_amount.mul(ucgBurnPrice())).div(cToken.price); // when was checking for unit price\r\n        // //uint256 cAmount = (ucgBurnValue(_amount).mul(10**18)).div(cToken.price); // when ucgBurnValue used to return price in USD 6 digit\r\n        // // check UCG value in collateral\r\n        // uint256 cAmount = ucgBurnValue(_amount, cToken.price);\r\n\r\n        // if(cAmount > 0) {\r\n        //     // transfer from reserves\r\n        //     require(cToken.token.transfer(msg.sender, cAmount), \"Couldn't transfer collateral tokens\");\r\n        // }\r\n\r\n        // // burn UCG\r\n        // require(ucgToken.burn(msg.sender, _amount), \"Couldn't burn UC token.\");\r\n\r\n        // emit BurnUCG(_amount, msg.sender, cAmount, _collateral);\r\n\r\n        // //return cAmount;\r\n        // return true;\r\n\r\n    }\r\n\r\n    function burnUCGTEST(uint256 _amount) public view returns (uint256) {\r\n        require(_amount > 0, \"UCG amount required\");\r\n        uint256 balance = ucgToken.balanceOf(msg.sender);\r\n        return balance;\r\n    }\r\n\r\n    // /**\r\n    //  * @dev Get UC tokens in exchangefor collateral and assign to sender\r\n    //  * Order is fulfilled either from OrderBook or Minted, whaever is cheaper\r\n    //  * This function has a non-reentrancy guard, so it shouldn't be called by\r\n    //  * another `nonReentrant` function.\r\n    //  * @param _collateral collateral Token Address\r\n    //  * @param _amount amount of collateral Token to exchange\r\n    //  * @param _minUCAmount minimum amount of UCs desired in exchange for the collateral\r\n    //  * @return The amount of UCs buyer received\r\n    //  */\r\n    // function buy(address _collateral, uint256 _amount, uint256 _minUCAmount) public nonReentrant returns (bool) {\r\n    //     // to be done outside contract (external site) matching orderbook\r\n    // }\r\n\r\n    /**\r\n     * @dev Get Total reserves balance (amount * price) for every collateral\r\n     * @return The total reserves value in USD (6 decimals)\r\n     */\r\n    function getReservesBalance() public view returns(uint256) {\r\n        uint256 totalBalance = 0;\r\n        uint256 collateralCount = getCollateralsCount();\r\n        for (uint256 i = 0; i < collateralCount; i++) {\r\n            address collateralAddress = getCollateralAddressAtIndex(i);\r\n            Collateral memory collateral = collaterals[collateralAddress];\r\n            uint256 collateralBalance = (getCollateralBalance(collateralAddress, false).mul(collateral.price)).div(10**18);\r\n            totalBalance = totalBalance.add(collateralBalance);\r\n        }\r\n        return totalBalance;\r\n    }\r\n\r\n    /// EVENTS\r\n\r\n    /**\r\n     * @dev Emitted when UC tokens are created\r\n     *\r\n     *\r\n     * Note that `value` may be zero.\r\n     */\r\n    event Mint(uint256 amount, address indexed to, uint256 cost, address indexed collateral, bool ucgMinted);\r\n\r\n    /**\r\n     * @dev Emitted UC tokens are destroied\r\n     *\r\n     */\r\n    event Burn(uint256 amount, address indexed from, uint256 returned, address indexed collateral);\r\n\r\n    /**\r\n     * @dev Emitted UCG tokens are destroied\r\n     *\r\n     */\r\n    event BurnUCG(uint256 amount, address indexed from, uint256 returned, address indexed collateral);\r\n\r\n    /**\r\n     * @dev Emitted when collateral tokens are deposited\r\n     *\r\n     */\r\n    event Deposit(address indexed collateral, address indexed from, uint256 amount);\r\n\r\n    /**\r\n     * @dev Emitted when collateral tokens are withdrawn\r\n     *\r\n     */\r\n    event Withdraw(address indexed collateral, address indexed to, uint256 amount);\r\n\r\n    event NewCollateral(address indexed tokenAddr, uint256 price, bool paused);\r\n\r\n    event CollateralUpdated(address tokenAddr, uint256 price, bool paused);\r\n\r\n    event OrderBookChange(address addr, bytes32 key, string eventType, uint price, address collateral, uint expirationInMinutes);\r\n\r\n    /// Private Methods\r\n\r\n    /**\r\n     * @dev Credit collateral to OrderBook Balance\r\n     * It does not change collateral ownership\r\n     *\r\n     */\r\n    function creditCollateral(Collateral storage collateral, address _to, uint256 _amount) private {\r\n        // credit collateral balance to user\r\n        collateral.balances[_to] = collateral.balances[_to].add(_amount);\r\n        // add orderBook balance\r\n        collateral.orderbookBalance = collateral.orderbookBalance.add(_amount);\r\n    }\r\n    /**\r\n     * @dev Debit collateral from OrderBook\r\n     * It does not change collateral ownership\r\n     *\r\n     */\r\n    function debitCollateral(Collateral storage collateral, address _to, uint256 _amount) private {\r\n        // debit amount from user collateral balance\r\n        collateral.balances[_to] = collateral.balances[_to].sub(_amount, \"Not enough balance\");\r\n        // add orderBook balance\r\n        collateral.orderbookBalance = collateral.orderbookBalance.sub(_amount);\r\n    }\r\n    /**\r\n     * @dev Credit collateral to OrderBook\r\n     *\r\n     */\r\n    function transferCollateral(ERC20Detailed collateral, address _to, uint256 _amount) private {\r\n        require(collateral.transfer(_to, _amount), \"Transfer of collateral failed.\");\r\n        emit Withdraw(address(collateral), _to, _amount);\r\n    }\r\n    function deleteSaleOrder(bytes32 _key) private {\r\n        saleOrdersSet.remove(_key); // Note that this will fail automatically if the key doesn't exist\r\n        delete saleOrders[_key];\r\n    }\r\n\r\n}",
  "sourcePath": "E:\\JCL\\Webmaster\\GitHub\\UCToken\\UCToken\\contracts\\UCMarketplace.sol",
  "compiler": {
    "name": "solc",
    "version": "0.5.7+commit.6da8b019.Emscripten.clang"
  },
  "schemaVersion": "3.0.23",
  "updatedAt": "2020-05-04T02:01:20.881Z",
  "networkType": "ethereum",
  "devdoc": {
    "details": "Contract destination for aquiring and selling UCs.\r",
    "methods": {
      "addCollateral(address,uint256)": {
        "details": "Deposit collateral for placing purchase orders.\r The equivalent amount of USD is credited for placing the orders at a later time.\r",
        "params": {
          "_amount": "amount of collateral Token to exchange\r",
          "_collateral": "collateral Token Address\r"
        }
      },
      "burn(uint256,address)": {
        "details": "Exchange UCs for collateral, burMake new tokens in exchangefor collateral and assign to sender\r This function has a non-reentrancy guard, so it shouldn't be called by\r another `nonReentrant` function.\r",
        "params": {
          "_amount": "amount of UC okens to burn\r",
          "_collateral": "collateral Token Address\r"
        },
        "return": "The amount of Collateral seller received\r"
      },
      "burnUCG(uint256,address)": {
        "details": "Exchange UCGs for collateral, burMake new tokens in exchangefor collateral and assign to sender\r This function has a non-reentrancy guard, so it shouldn't be called by\r another `nonReentrant` function.\r",
        "params": {
          "_amount": "amount of UCG Tokens to burn\r",
          "_collateral": "collateral Token Address\r"
        },
        "return": "The amount of Collateral seller received\r"
      },
      "getReservesBalance()": {
        "details": "Get Total reserves balance (amount * price) for every collateral\r",
        "return": "The total reserves value in USD (6 decimals)\r"
      },
      "mint(address,uint256,uint256)": {
        "details": "Make new tokens in exchangefor collateral and assign to sender\r This function has a non-reentrancy guard, so it shouldn't be called by\r another `nonReentrant` function.\r",
        "params": {
          "_amount": "amount of collateral Token to exchange\r",
          "_collateral": "collateral Token Address\r",
          "_minUCAmount": "minimum amount of UCs desired in exchange for the collateral\r"
        },
        "return": "The amount of UCs buyer received\r"
      },
      "ucgBurnValue(uint256,uint256)": {
        "details": "Returns UCG burn value for a certain amount of UCG token\r",
        "params": {
          "colPrice": "price of the collateral its being valued for (6 digit)\r",
          "ucgQty": "amount of UCG Tokens to burn (18 digit)\r"
        },
        "return": "UCG burn value in Collateral amount (Qty 18 digts)\r"
      }
    },
    "title": "UCMarketplace\r"
  },
  "userdoc": {
    "methods": {
      "acceptNewCollateral(address,uint256,bool)": {
        "notice": "Public Methods - Authorized only"
      },
      "cancelSaleOrder(bytes32)": {
        "notice": "/ instead of update, must remove and place another one."
      },
      "getCollateralsCount()": {
        "notice": "Public Methods"
      },
      "setOwner(address)": {
        "notice": "Public Methods"
      },
      "updatePath(string,address)": {
        "notice": "Public Auth Mehods"
      }
    }
  }
}