{
  "contractName": "UCPath",
  "abi": [
    {
      "constant": false,
      "inputs": [
        {
          "name": "_owner",
          "type": "address"
        }
      ],
      "name": "setOwner",
      "outputs": [],
      "payable": false,
      "stateMutability": "nonpayable",
      "type": "function"
    },
    {
      "constant": false,
      "inputs": [
        {
          "name": "pathName",
          "type": "string"
        },
        {
          "name": "pathAddress",
          "type": "address"
        }
      ],
      "name": "updatePath",
      "outputs": [],
      "payable": false,
      "stateMutability": "nonpayable",
      "type": "function"
    },
    {
      "constant": true,
      "inputs": [],
      "name": "owner",
      "outputs": [
        {
          "name": "",
          "type": "address"
        }
      ],
      "payable": false,
      "stateMutability": "view",
      "type": "function"
    },
    {
      "constant": true,
      "inputs": [],
      "name": "ucCrawlingBandAddress",
      "outputs": [
        {
          "name": "",
          "type": "address"
        }
      ],
      "payable": false,
      "stateMutability": "view",
      "type": "function"
    },
    {
      "constant": true,
      "inputs": [],
      "name": "ucPath",
      "outputs": [
        {
          "name": "",
          "type": "address"
        }
      ],
      "payable": false,
      "stateMutability": "view",
      "type": "function"
    },
    {
      "inputs": [],
      "payable": false,
      "stateMutability": "nonpayable",
      "type": "constructor"
    },
    {
      "anonymous": false,
      "inputs": [
        {
          "indexed": false,
          "name": "contractName",
          "type": "string"
        },
        {
          "indexed": false,
          "name": "contractAddress",
          "type": "address"
        }
      ],
      "name": "PathInicialized",
      "type": "event"
    },
    {
      "anonymous": false,
      "inputs": [
        {
          "indexed": false,
          "name": "contractName",
          "type": "string"
        },
        {
          "indexed": false,
          "name": "contractAddress",
          "type": "address"
        }
      ],
      "name": "PathChanged",
      "type": "event"
    },
    {
      "anonymous": false,
      "inputs": [
        {
          "indexed": false,
          "name": "owner",
          "type": "address"
        }
      ],
      "name": "NewOwner",
      "type": "event"
    },
    {
      "anonymous": false,
      "inputs": [
        {
          "indexed": false,
          "name": "pathAddress",
          "type": "address"
        }
      ],
      "name": "NewPath",
      "type": "event"
    },
    {
      "anonymous": false,
      "inputs": [
        {
          "indexed": false,
          "name": "pathName",
          "type": "string"
        },
        {
          "indexed": false,
          "name": "pathAddress",
          "type": "address"
        }
      ],
      "name": "PathUpdated",
      "type": "event"
    },
    {
      "constant": true,
      "inputs": [
        {
          "name": "_contractName",
          "type": "string"
        }
      ],
      "name": "getPath",
      "outputs": [
        {
          "name": "",
          "type": "address"
        }
      ],
      "payable": false,
      "stateMutability": "view",
      "type": "function"
    },
    {
      "constant": true,
      "inputs": [
        {
          "name": "_contractName",
          "type": "string"
        }
      ],
      "name": "hasPath",
      "outputs": [
        {
          "name": "",
          "type": "bool"
        }
      ],
      "payable": false,
      "stateMutability": "view",
      "type": "function"
    },
    {
      "constant": false,
      "inputs": [
        {
          "name": "changeRequestID",
          "type": "bytes32"
        },
        {
          "name": "pathName",
          "type": "string"
        },
        {
          "name": "newAddress",
          "type": "address"
        }
      ],
      "name": "setPath",
      "outputs": [],
      "payable": false,
      "stateMutability": "nonpayable",
      "type": "function"
    },
    {
      "constant": false,
      "inputs": [
        {
          "name": "_path",
          "type": "address"
        }
      ],
      "name": "setPath",
      "outputs": [],
      "payable": false,
      "stateMutability": "nonpayable",
      "type": "function"
    },
    {
      "constant": false,
      "inputs": [
        {
          "name": "_path",
          "type": "address"
        },
        {
          "name": "_contractName",
          "type": "string"
        }
      ],
      "name": "initializePath",
      "outputs": [],
      "payable": false,
      "stateMutability": "nonpayable",
      "type": "function"
    },
    {
      "constant": true,
      "inputs": [
        {
          "name": "_address",
          "type": "address"
        }
      ],
      "name": "isValid",
      "outputs": [
        {
          "name": "",
          "type": "bool"
        }
      ],
      "payable": false,
      "stateMutability": "view",
      "type": "function"
    }
  ],
  "bytecode": "0x60806040523480156200001157600080fd5b5060006040518060400160405280600681526020017f5543506174680000000000000000000000000000000000000000000000000000815250336000806101000a81548173ffffffffffffffffffffffffffffffffffffffff021916908373ffffffffffffffffffffffffffffffffffffffff1602179055507f3edd90e7770f06fafde38004653b33870066c33bfc923ff6102acd601f85dfbc33604051808273ffffffffffffffffffffffffffffffffffffffff1673ffffffffffffffffffffffffffffffffffffffff16815260200191505060405180910390a160405180807f55435061746800000000000000000000000000000000000000000000000000008152506006019050604051809103902081805190602001201415620001795730600160006101000a81548173ffffffffffffffffffffffffffffffffffffffff021916908373ffffffffffffffffffffffffffffffffffffffff160217905550620001bb565b81600160006101000a81548173ffffffffffffffffffffffffffffffffffffffff021916908373ffffffffffffffffffffffffffffffffffffffff1602179055505b505062000204306040518060400160405280600681526020017f55435061746800000000000000000000000000000000000000000000000000008152506200020a60201b60201c565b62000a36565b6200021b336200053260201b60201c565b6200028e576040517f08c379a000000000000000000000000000000000000000000000000000000000815260040180806020018281038252600e8152602001807f4e6f7420617574686f72697a656400000000000000000000000000000000000081525060200191505060405180910390fd5b600073ffffffffffffffffffffffffffffffffffffffff166006826040518082805190602001908083835b60208310620002de5780518252602082019150602081019050602083039250620002b9565b6001836020036101000a038019825116818451168082178552505050505050905001915050908152602001604051809103902060009054906101000a900473ffffffffffffffffffffffffffffffffffffffff1673ffffffffffffffffffffffffffffffffffffffff1614620003a0576040517f08c379a000000000000000000000000000000000000000000000000000000000815260040180806020018281038252603181526020018062002b846031913960400191505060405180910390fd5b816006826040518082805190602001908083835b60208310620003d95780518252602082019150602081019050602083039250620003b4565b6001836020036101000a038019825116818451168082178552505050505050905001915050908152602001604051809103902060006101000a81548173ffffffffffffffffffffffffffffffffffffffff021916908373ffffffffffffffffffffffffffffffffffffffff1602179055506200045b826200073760201b60201c565b7f732aa6087ce23ea35fd01051b969592687e5812b7b1f2692c600de165e96555e818360405180806020018373ffffffffffffffffffffffffffffffffffffffff1673ffffffffffffffffffffffffffffffffffffffff168152602001828103825284818151815260200191508051906020019080838360005b83811015620004f2578082015181840152602081019050620004d5565b50505050905090810190601f168015620005205780820380516001836020036101000a031916815260200191505b50935050505060405180910390a15050565b60003073ffffffffffffffffffffffffffffffffffffffff168273ffffffffffffffffffffffffffffffffffffffff16141562000573576001905062000732565b6000809054906101000a900473ffffffffffffffffffffffffffffffffffffffff1673ffffffffffffffffffffffffffffffffffffffff168273ffffffffffffffffffffffffffffffffffffffff161415620005d3576001905062000732565b620005e4826200077660201b60201c565b156200073157600073ffffffffffffffffffffffffffffffffffffffff16600160009054906101000a900473ffffffffffffffffffffffffffffffffffffffff1673ffffffffffffffffffffffffffffffffffffffff1614156200064c576000905062000732565b600160009054906101000a900473ffffffffffffffffffffffffffffffffffffffff1673ffffffffffffffffffffffffffffffffffffffff16638b1b925f836040518263ffffffff1660e01b8152600401808273ffffffffffffffffffffffffffffffffffffffff1673ffffffffffffffffffffffffffffffffffffffff16815260200191505060206040518083038186803b158015620006ec57600080fd5b505afa15801562000701573d6000803e3d6000fd5b505050506040513d60208110156200071857600080fd5b8101908080519060200190929190505050905062000732565b5b919050565b62000752816004620007c260201b62001c981790919060201c565b6200077357620007728160046200089160201b62001d641790919060201c565b5b50565b6000807fc5d2460186f7233c927e7db2dcc703c0e500b653ca82273b7bfad8045d85a47060001b90506000833f90506000801b8114158015620007b95750818114155b92505050919050565b60008083600101805490501415620007de57600090506200088b565b8173ffffffffffffffffffffffffffffffffffffffff16836001018460000160008573ffffffffffffffffffffffffffffffffffffffff1673ffffffffffffffffffffffffffffffffffffffff16815260200190815260200160002054815481106200084657fe5b9060005260206000200160009054906101000a900473ffffffffffffffffffffffffffffffffffffffff1673ffffffffffffffffffffffffffffffffffffffff161490505b92915050565b600073ffffffffffffffffffffffffffffffffffffffff168173ffffffffffffffffffffffffffffffffffffffff16141562000919576040517f08c379a000000000000000000000000000000000000000000000000000000000815260040180806020018281038252602881526020018062002b196028913960400191505060405180910390fd5b6200092b8282620007c260201b60201c565b1562000983576040517f08c379a000000000000000000000000000000000000000000000000000000000815260040180806020018281038252604381526020018062002b416043913960600191505060405180910390fd5b6001826001018290806001815401808255809150509060018203906000526020600020016000909192909190916101000a81548173ffffffffffffffffffffffffffffffffffffffff021916908373ffffffffffffffffffffffffffffffffffffffff160217905550038260000160008373ffffffffffffffffffffffffffffffffffffffff1673ffffffffffffffffffffffffffffffffffffffff168152602001908152602001600020819055505050565b6120d38062000a466000396000f3fe608060405234801561001057600080fd5b50600436106100a95760003560e01c80638da5cb5b116100715780638da5cb5b14610352578063af61c6a61461039c578063bdc8815a14610497578063deae3b1e146104e1578063e8efb5061461052b578063f3099594146105fe576100a9565b806306ce5e9c146100ae57806313af4035146101935780633b955177146101d7578063599b4fbc1461021b5780638b1b925f146102f6575b600080fd5b610191600480360360608110156100c457600080fd5b8101908080359060200190929190803590602001906401000000008111156100eb57600080fd5b8201836020820111156100fd57600080fd5b8035906020019184600183028401116401000000008311171561011f57600080fd5b91908080601f016020809104026020016040519081016040528093929190818152602001838380828437600081840152601f19601f820116905080830192505050505050509192919290803573ffffffffffffffffffffffffffffffffffffffff1690602001909291905050506106d9565b005b6101d5600480360360208110156101a957600080fd5b81019080803573ffffffffffffffffffffffffffffffffffffffff16906020019092919050505061106d565b005b610219600480360360208110156101ed57600080fd5b81019080803573ffffffffffffffffffffffffffffffffffffffff16906020019092919050505061118e565b005b6102f46004803603604081101561023157600080fd5b810190808035906020019064010000000081111561024e57600080fd5b82018360208201111561026057600080fd5b8035906020019184600183028401116401000000008311171561028257600080fd5b91908080601f016020809104026020016040519081016040528093929190818152602001838380828437600081840152601f19601f820116905080830192505050505050509192919290803573ffffffffffffffffffffffffffffffffffffffff1690602001909291905050506112b0565b005b6103386004803603602081101561030c57600080fd5b81019080803573ffffffffffffffffffffffffffffffffffffffff1690602001909291905050506113ff565b604051808215151515815260200191505060405180910390f35b61035a61141c565b604051808273ffffffffffffffffffffffffffffffffffffffff1673ffffffffffffffffffffffffffffffffffffffff16815260200191505060405180910390f35b610455600480360360208110156103b257600080fd5b81019080803590602001906401000000008111156103cf57600080fd5b8201836020820111156103e157600080fd5b8035906020019184600183028401116401000000008311171561040357600080fd5b91908080601f016020809104026020016040519081016040528093929190818152602001838380828437600081840152601f19601f820116905080830192505050505050509192919290505050611441565b604051808273ffffffffffffffffffffffffffffffffffffffff1673ffffffffffffffffffffffffffffffffffffffff16815260200191505060405180910390f35b61049f611644565b604051808273ffffffffffffffffffffffffffffffffffffffff1673ffffffffffffffffffffffffffffffffffffffff16815260200191505060405180910390f35b6104e961166a565b604051808273ffffffffffffffffffffffffffffffffffffffff1673ffffffffffffffffffffffffffffffffffffffff16815260200191505060405180910390f35b6105e46004803603602081101561054157600080fd5b810190808035906020019064010000000081111561055e57600080fd5b82018360208201111561057057600080fd5b8035906020019184600183028401116401000000008311171561059257600080fd5b91908080601f016020809104026020016040519081016040528093929190818152602001838380828437600081840152601f19601f820116905080830192505050505050509192919290505050611690565b604051808215151515815260200191505060405180910390f35b6106d76004803603604081101561061457600080fd5b81019080803573ffffffffffffffffffffffffffffffffffffffff1690602001909291908035906020019064010000000081111561065157600080fd5b82018360208201111561066357600080fd5b8035906020019184600183028401116401000000008311171561068557600080fd5b91908080601f016020809104026020016040519081016040528093929190818152602001838380828437600081840152601f19601f820116905080830192505050505050509192919290505050611768565b005b600360009054906101000a900473ffffffffffffffffffffffffffffffffffffffff1673ffffffffffffffffffffffffffffffffffffffff166377c75d10846040518263ffffffff1660e01b815260040180828152602001915050602060405180830381600087803b15801561074e57600080fd5b505af1158015610762573d6000803e3d6000fd5b505050506040513d602081101561077857600080fd5b81019080805190602001909291905050506107fb576040517f08c379a00000000000000000000000000000000000000000000000000000000081526004018080602001828103825260188152602001807f4368616e676552657175657374206e6f742077696e6e6572000000000000000081525060200191505060405180910390fd5b600080600080600360009054906101000a900473ffffffffffffffffffffffffffffffffffffffff1673ffffffffffffffffffffffffffffffffffffffff1663f41144a3886040518263ffffffff1660e01b81526004018082815260200191505060006040518083038186803b15801561087457600080fd5b505afa158015610888573d6000803e3d6000fd5b505050506040513d6000823e3d601f19601f820116820180604052506101408110156108b357600080fd5b8101908080519060200190929190805190602001909291908051906020019092919080519060200190929190805190602001909291908051906020019092919080519060200190929190805164010000000081111561091157600080fd5b8281019050602081018481111561092757600080fd5b815185600182028301116401000000008211171561094457600080fd5b505092919060200180519060200190929190805190602001909291905050505050505050509350935093509350600181600681111561097f57fe5b14156109d6576040517f08c379a00000000000000000000000000000000000000000000000000000000081526004018080602001828103825260278152602001806120086027913960400191505060405180910390fd5b30604051602001808273ffffffffffffffffffffffffffffffffffffffff1673ffffffffffffffffffffffffffffffffffffffff1660601b8152601401807f6368616e67655061746800000000000000000000000000000000000000000000815250600a01915050604051602081830303815290604052805190602001208414610aab576040517f08c379a00000000000000000000000000000000000000000000000000000000081526004018080602001828103825260238152602001806120856023913960400191505060405180910390fd5b85856040516020018083805190602001908083835b60208310610ae35780518252602082019150602081019050602083039250610ac0565b6001836020036101000a0380198251168184511680821785525050505050509050018273ffffffffffffffffffffffffffffffffffffffff1673ffffffffffffffffffffffffffffffffffffffff1660601b815260140192505050604051602081830303815290604052805190602001208314610bab576040517f08c379a0000000000000000000000000000000000000000000000000000000008152600401808060200182810382526025815260200180611fa06025913960400191505060405180910390fd5b814211610c03576040517f08c379a000000000000000000000000000000000000000000000000000000000815260040180806020018281038252602581526020018061202f6025913960400191505060405180910390fd5b60006006876040518082805190602001908083835b60208310610c3b5780518252602082019150602081019050602083039250610c18565b6001836020036101000a038019825116818451168082178552505050505050905001915050908152602001604051809103902060009054906101000a900473ffffffffffffffffffffffffffffffffffffffff169050600073ffffffffffffffffffffffffffffffffffffffff168173ffffffffffffffffffffffffffffffffffffffff1614610d4b578573ffffffffffffffffffffffffffffffffffffffff168173ffffffffffffffffffffffffffffffffffffffff161415610d4a576040517f08c379a000000000000000000000000000000000000000000000000000000000815260040180806020018281038252602f815260200180611f71602f913960400191505060405180910390fd5b5b856006886040518082805190602001908083835b60208310610d825780518252602082019150602081019050602083039250610d5f565b6001836020036101000a038019825116818451168082178552505050505050905001915050908152602001604051809103902060006101000a81548173ffffffffffffffffffffffffffffffffffffffff021916908373ffffffffffffffffffffffffffffffffffffffff160217905550610dfc86611a76565b600360009054906101000a900473ffffffffffffffffffffffffffffffffffffffff1673ffffffffffffffffffffffffffffffffffffffff1663281bfe51896040518263ffffffff1660e01b815260040180828152602001915050600060405180830381600087803b158015610e7157600080fd5b505af1158015610e85573d6000803e3d6000fd5b50505050600073ffffffffffffffffffffffffffffffffffffffff168173ffffffffffffffffffffffffffffffffffffffff1614610f92577f9071ebb7f9cdc70807798b17abdda27b1e5a787c6c3b8b8b63a3959fd90485d3878760405180806020018373ffffffffffffffffffffffffffffffffffffffff1673ffffffffffffffffffffffffffffffffffffffff168152602001828103825284818151815260200191508051906020019080838360005b83811015610f52578082015181840152602081019050610f37565b50505050905090810190601f168015610f7f5780820380516001836020036101000a031916815260200191505b50935050505060405180910390a1611063565b7f732aa6087ce23ea35fd01051b969592687e5812b7b1f2692c600de165e96555e878760405180806020018373ffffffffffffffffffffffffffffffffffffffff1673ffffffffffffffffffffffffffffffffffffffff168152602001828103825284818151815260200191508051906020019080838360005b8381101561102757808201518184015260208101905061100c565b50505050905090810190601f1680156110545780820380516001836020036101000a031916815260200191505b50935050505060405180910390a15b5050505050505050565b61107633611aa6565b6110e8576040517f08c379a000000000000000000000000000000000000000000000000000000000815260040180806020018281038252600e8152602001807f4e6f7420617574686f72697a656400000000000000000000000000000000000081525060200191505060405180910390fd5b806000806101000a81548173ffffffffffffffffffffffffffffffffffffffff021916908373ffffffffffffffffffffffffffffffffffffffff1602179055507f3edd90e7770f06fafde38004653b33870066c33bfc923ff6102acd601f85dfbc81604051808273ffffffffffffffffffffffffffffffffffffffff1673ffffffffffffffffffffffffffffffffffffffff16815260200191505060405180910390a150565b61119733611aa6565b611209576040517f08c379a000000000000000000000000000000000000000000000000000000000815260040180806020018281038252600e8152602001807f4e6f7420617574686f72697a656400000000000000000000000000000000000081525060200191505060405180910390fd5b80600160006101000a81548173ffffffffffffffffffffffffffffffffffffffff021916908373ffffffffffffffffffffffffffffffffffffffff1602179055507f06996b58b8ff542ff91d7a929369bb5d93940639f7849f15d0f95923d1d1705181604051808273ffffffffffffffffffffffffffffffffffffffff1673ffffffffffffffffffffffffffffffffffffffff16815260200191505060405180910390a150565b6112b933611aa6565b61132b576040517f08c379a000000000000000000000000000000000000000000000000000000000815260040180806020018281038252600e8152602001807f4e6f7420617574686f72697a656400000000000000000000000000000000000081525060200191505060405180910390fd5b7f0bf1be166f5b263d06191a42d6ab01a3333b6da101cf1cc7bba6f07a70dd2ff5828260405180806020018373ffffffffffffffffffffffffffffffffffffffff1673ffffffffffffffffffffffffffffffffffffffff168152602001828103825284818151815260200191508051906020019080838360005b838110156113c05780820151818401526020810190506113a5565b50505050905090810190601f1680156113ed5780820380516001836020036101000a031916815260200191505b50935050505060405180910390a15050565b6000611415826004611c9890919063ffffffff16565b9050919050565b6000809054906101000a900473ffffffffffffffffffffffffffffffffffffffff1681565b6000806006836040518082805190602001908083835b6020831061147a5780518252602082019150602081019050602083039250611457565b6001836020036101000a038019825116818451168082178552505050505050905001915050908152602001604051809103902060009054906101000a900473ffffffffffffffffffffffffffffffffffffffff169050600073ffffffffffffffffffffffffffffffffffffffff168173ffffffffffffffffffffffffffffffffffffffff1614158360405160200180807f50617468206e6f7420696e697469616c697a65643a200000000000000000000081525060160182805190602001908083835b60208310611560578051825260208201915060208101905060208303925061153d565b6001836020036101000a0380198251168184511680821785525050505050509050019150506040516020818303038152906040529061163a576040517f08c379a00000000000000000000000000000000000000000000000000000000081526004018080602001828103825283818151815260200191508051906020019080838360005b838110156115ff5780820151818401526020810190506115e4565b50505050905090810190601f16801561162c5780820380516001836020036101000a031916815260200191505b509250505060405180910390fd5b5080915050919050565b600260009054906101000a900473ffffffffffffffffffffffffffffffffffffffff1681565b600160009054906101000a900473ffffffffffffffffffffffffffffffffffffffff1681565b6000806006836040518082805190602001908083835b602083106116c957805182526020820191506020810190506020830392506116a6565b6001836020036101000a038019825116818451168082178552505050505050905001915050908152602001604051809103902060009054906101000a900473ffffffffffffffffffffffffffffffffffffffff169050600073ffffffffffffffffffffffffffffffffffffffff168173ffffffffffffffffffffffffffffffffffffffff161461175d576001915050611763565b60009150505b919050565b61177133611aa6565b6117e3576040517f08c379a000000000000000000000000000000000000000000000000000000000815260040180806020018281038252600e8152602001807f4e6f7420617574686f72697a656400000000000000000000000000000000000081525060200191505060405180910390fd5b600073ffffffffffffffffffffffffffffffffffffffff166006826040518082805190602001908083835b60208310611831578051825260208201915060208101905060208303925061180e565b6001836020036101000a038019825116818451168082178552505050505050905001915050908152602001604051809103902060009054906101000a900473ffffffffffffffffffffffffffffffffffffffff1673ffffffffffffffffffffffffffffffffffffffff16146118f1576040517f08c379a00000000000000000000000000000000000000000000000000000000081526004018080602001828103825260318152602001806120546031913960400191505060405180910390fd5b816006826040518082805190602001908083835b602083106119285780518252602082019150602081019050602083039250611905565b6001836020036101000a038019825116818451168082178552505050505050905001915050908152602001604051809103902060006101000a81548173ffffffffffffffffffffffffffffffffffffffff021916908373ffffffffffffffffffffffffffffffffffffffff1602179055506119a282611a76565b7f732aa6087ce23ea35fd01051b969592687e5812b7b1f2692c600de165e96555e818360405180806020018373ffffffffffffffffffffffffffffffffffffffff1673ffffffffffffffffffffffffffffffffffffffff168152602001828103825284818151815260200191508051906020019080838360005b83811015611a37578082015181840152602081019050611a1c565b50505050905090810190601f168015611a645780820380516001836020036101000a031916815260200191505b50935050505060405180910390a15050565b611a8a816004611c9890919063ffffffff16565b611aa357611aa2816004611d6490919063ffffffff16565b5b50565b60003073ffffffffffffffffffffffffffffffffffffffff168273ffffffffffffffffffffffffffffffffffffffff161415611ae55760019050611c93565b6000809054906101000a900473ffffffffffffffffffffffffffffffffffffffff1673ffffffffffffffffffffffffffffffffffffffff168273ffffffffffffffffffffffffffffffffffffffff161415611b435760019050611c93565b611b4c82611efd565b15611c9257600073ffffffffffffffffffffffffffffffffffffffff16600160009054906101000a900473ffffffffffffffffffffffffffffffffffffffff1673ffffffffffffffffffffffffffffffffffffffff161415611bb15760009050611c93565b600160009054906101000a900473ffffffffffffffffffffffffffffffffffffffff1673ffffffffffffffffffffffffffffffffffffffff16638b1b925f836040518263ffffffff1660e01b8152600401808273ffffffffffffffffffffffffffffffffffffffff1673ffffffffffffffffffffffffffffffffffffffff16815260200191505060206040518083038186803b158015611c5057600080fd5b505afa158015611c64573d6000803e3d6000fd5b505050506040513d6020811015611c7a57600080fd5b81019080805190602001909291905050509050611c93565b5b919050565b60008083600101805490501415611cb25760009050611d5e565b8173ffffffffffffffffffffffffffffffffffffffff16836001018460000160008573ffffffffffffffffffffffffffffffffffffffff1673ffffffffffffffffffffffffffffffffffffffff1681526020019081526020016000205481548110611d1957fe5b9060005260206000200160009054906101000a900473ffffffffffffffffffffffffffffffffffffffff1673ffffffffffffffffffffffffffffffffffffffff161490505b92915050565b600073ffffffffffffffffffffffffffffffffffffffff168173ffffffffffffffffffffffffffffffffffffffff161415611dea576040517f08c379a0000000000000000000000000000000000000000000000000000000008152600401808060200182810382526028815260200180611f496028913960400191505060405180910390fd5b611df48282611c98565b15611e4a576040517f08c379a0000000000000000000000000000000000000000000000000000000008152600401808060200182810382526043815260200180611fc56043913960600191505060405180910390fd5b6001826001018290806001815401808255809150509060018203906000526020600020016000909192909190916101000a81548173ffffffffffffffffffffffffffffffffffffffff021916908373ffffffffffffffffffffffffffffffffffffffff160217905550038260000160008373ffffffffffffffffffffffffffffffffffffffff1673ffffffffffffffffffffffffffffffffffffffff168152602001908152602001600020819055505050565b6000807fc5d2460186f7233c927e7db2dcc703c0e500b653ca82273b7bfad8045d85a47060001b90506000833f90506000801b8114158015611f3f5750818114155b9250505091905056fe556e6f7264657265644b65795365742831303029202d204b65792063616e6e6f742062652030783050726f706f7365642061646472657373206973207468652073616d652061732063757272656e7420616464726573734368616e67655265717565737420646f6573206e6f74206d617463682070726f706f73616c556e6f726465726564416464726573735365742831303129202d204164647265737320286b65792920616c72656164792065786973747320696e20746865207365742e4368616e676552657175657374206973206e6f74206f6e20417070726f7665642073746174757343616e2774206170706c7920726571756573742077697468696e20736166652064656c617943616e277420696e697469616c697a6520612050617468207468617420686173206265656e2073657420616c72656164794368616e67655265717565737420646f6573206e6f74206d6174636820546172676574a165627a7a723058205007edd071cbccbb504c02e71c16c5397292f45d077dcb603fa6b9b725e204ae0029556e6f7264657265644b65795365742831303029202d204b65792063616e6e6f7420626520307830556e6f726465726564416464726573735365742831303129202d204164647265737320286b65792920616c72656164792065786973747320696e20746865207365742e43616e277420696e697469616c697a6520612050617468207468617420686173206265656e2073657420616c7265616479",
  "source": "pragma solidity 0.5.7;\r\n\r\nimport \"./libraries/UnorderedKeySet.sol\";\r\nimport \"./UCGovernance.sol\";\r\nimport \"./UCChangeable.sol\";\r\n\r\ncontract UCPath is UCChangeable {\r\n   using UnorderedAddressSetLib for UnorderedAddressSetLib.Set;\r\n\r\n   /// Public Properties\r\n   address public ucCrawlingBandAddress;\r\n   //uint256[2] public changeUCCrawlingBandAddressReq; // requirement\r\n\r\n   /// Contract Navigation Properties\r\n   UCGovernance ucGovernance;\r\n\r\n   /// Private lists\r\n   UnorderedAddressSetLib.Set ucContracts; // list of active contracts (both current and replaced)\r\n\r\n   /// Public Mappings\r\n   mapping(string => address) private currentPath; // mapping of current paths p/contract name. May return address(0). Use getPath instead.\r\n\r\n   // /// Enums\r\n   //  enum Status {\r\n   //      Current,                    // Default value\r\n   //      Replaced,                   // Has been replaced\r\n   //      Locked                      // No longer accessible\r\n   //  }\r\n   // /// Objects (Structs)\r\n   // struct Path {\r\n   //    address contractAddress;\r\n   //    string name;\r\n   //    Status status;\r\n   // }\r\n\r\n   constructor() public UCChangeable(address(0), \"UCPath\") {\r\n      initializePath(address(this), \"UCPath\");\r\n   }\r\n\r\n   /// Public Methods\r\n   function getPath(string memory _contractName) public view returns (address) {\r\n      address path = currentPath[_contractName];\r\n      require(path != address(0), string(abi.encodePacked(\"Path not initialized: \", _contractName)));\r\n      return path;\r\n   }\r\n   function hasPath(string memory _contractName) public view returns (bool) {\r\n      address path = currentPath[_contractName];\r\n      if(path != address(0)) {\r\n         return true;\r\n      } else {\r\n         return false;\r\n      }\r\n   }\r\n   function setPath(bytes32 changeRequestID, string memory pathName, address newAddress) public {\r\n      require(ucGovernance.isWinner(changeRequestID), \"ChangeRequest not winner\");\r\n      // get request target, proposal, safe Delay and status\r\n      (bytes32 target, bytes32 proposal, uint safeDelay, UCGovernance.CRStatus status,,,,,,) = ucGovernance.changeRequests(changeRequestID);\r\n      // check if it hasn't been applyed yet\r\n      require(uint(status) != 1, \"ChangeRequest is not on Approved status\");\r\n      // check if request match target\r\n      require(target == keccak256(abi.encodePacked(address(this), \"changePath\")), \"ChangeRequest does not match Target\");\r\n      // check if request match proposal\r\n      require(proposal == keccak256(abi.encodePacked(pathName, newAddress)), \"ChangeRequest does not match proposal\");\r\n      // check if safeDelay has passed\r\n      require(now > safeDelay, \"Can't apply request within safe delay\");\r\n      // check if path exist and is different that proposed path\r\n      address currPath = currentPath[pathName];\r\n      if(currPath != address(0)) {\r\n         require(currPath != newAddress, \"Proposed address is the same as current address\");\r\n      }\r\n      // apply change\r\n      currentPath[pathName] = newAddress;\r\n      insertContractToList(newAddress);\r\n      // change CR status to Applied\r\n      ucGovernance.updateToAppliedStatus(changeRequestID);\r\n      if(currPath != address(0)) {\r\n         emit PathChanged(pathName, newAddress);\r\n      } else {\r\n         emit PathInicialized(pathName, newAddress);\r\n      }\r\n\r\n   }\r\n\r\n   /// Public Auth Methods\r\n   function initializePath(address _path, string memory _contractName) public auth {\r\n      require(currentPath[_contractName] == address(0), \"Can't initialize a Path that has been set already\");\r\n      currentPath[_contractName] = _path;\r\n      insertContractToList(_path);\r\n      emit PathInicialized(_contractName, _path);\r\n   }\r\n\r\n   // function initialize(address _ucGovernance, address _ucCrawlingBand) public auth {\r\n   //    require(ucGovernanceAddress == ucCrawlingBandAddress == address(0), \"Already initilized\");\r\n\r\n   //    ucGovernanceAddress = _ucGovernance;\r\n   //    ucCrawlingBandAddress = _ucCrawlingBand;\r\n   //    insertContractToList(_ucGovernance);\r\n   //    insertContractToList(_ucCrawlingBand);\r\n\r\n   //    emit Inicialized();\r\n\r\n   // }\r\n\r\n   /// External methods\r\n   function isValid(address _address) external view returns (bool) {\r\n      return ucContracts.exists(_address);\r\n   }\r\n\r\n\r\n\r\n   /// Private Functions\r\n   function insertContractToList(address _contract) private {\r\n      if(!ucContracts.exists(_contract)) {\r\n         ucContracts.insert(_contract);\r\n      }\r\n   }\r\n\r\n   /// Events\r\n   event PathInicialized(string contractName, address contractAddress);\r\n   event PathChanged(string contractName, address contractAddress);\r\n\r\n\r\n}",
  "sourcePath": "E:\\JCL\\Webmaster\\GitHub\\UCToken\\UCToken\\contracts\\UCPath.sol",
  "compiler": {
    "name": "solc",
    "version": "0.5.7+commit.6da8b019.Emscripten.clang"
  },
  "schemaVersion": "3.0.23",
  "updatedAt": "2020-04-11T17:13:34.290Z",
  "networkType": "ethereum",
  "devdoc": {
    "methods": {}
  },
  "userdoc": {
    "methods": {
      "getPath(string)": {
        "notice": "Public Methods"
      },
      "initializePath(address,string)": {
        "notice": "Public Auth Methods"
      },
      "isValid(address)": {
        "notice": "External methods"
      },
      "setOwner(address)": {
        "notice": "Public Methods"
      },
      "updatePath(string,address)": {
        "notice": "Public Auth Mehods"
      }
    }
  }
}