{
  "contractName": "UCPath",
  "abi": [
    {
      "constant": false,
      "inputs": [
        {
          "name": "_owner",
          "type": "address"
        }
      ],
      "name": "setOwner",
      "outputs": [],
      "payable": false,
      "stateMutability": "nonpayable",
      "type": "function"
    },
    {
      "constant": false,
      "inputs": [
        {
          "name": "pathName",
          "type": "string"
        },
        {
          "name": "pathAddress",
          "type": "address"
        }
      ],
      "name": "updatePath",
      "outputs": [],
      "payable": false,
      "stateMutability": "nonpayable",
      "type": "function"
    },
    {
      "constant": true,
      "inputs": [],
      "name": "ucGovernanceAddress",
      "outputs": [
        {
          "name": "",
          "type": "address"
        }
      ],
      "payable": false,
      "stateMutability": "view",
      "type": "function"
    },
    {
      "constant": true,
      "inputs": [],
      "name": "owner",
      "outputs": [
        {
          "name": "",
          "type": "address"
        }
      ],
      "payable": false,
      "stateMutability": "view",
      "type": "function"
    },
    {
      "constant": true,
      "inputs": [],
      "name": "ucCrawlingBandAddress",
      "outputs": [
        {
          "name": "",
          "type": "address"
        }
      ],
      "payable": false,
      "stateMutability": "view",
      "type": "function"
    },
    {
      "constant": true,
      "inputs": [],
      "name": "ucPath",
      "outputs": [
        {
          "name": "",
          "type": "address"
        }
      ],
      "payable": false,
      "stateMutability": "view",
      "type": "function"
    },
    {
      "inputs": [],
      "payable": false,
      "stateMutability": "nonpayable",
      "type": "constructor"
    },
    {
      "anonymous": false,
      "inputs": [
        {
          "indexed": false,
          "name": "contractName",
          "type": "string"
        },
        {
          "indexed": false,
          "name": "contractAddress",
          "type": "address"
        }
      ],
      "name": "PathInicialized",
      "type": "event"
    },
    {
      "anonymous": false,
      "inputs": [
        {
          "indexed": false,
          "name": "contractName",
          "type": "string"
        },
        {
          "indexed": false,
          "name": "contractAddress",
          "type": "address"
        }
      ],
      "name": "PathChanged",
      "type": "event"
    },
    {
      "anonymous": false,
      "inputs": [
        {
          "indexed": false,
          "name": "owner",
          "type": "address"
        }
      ],
      "name": "NewOwner",
      "type": "event"
    },
    {
      "anonymous": false,
      "inputs": [
        {
          "indexed": false,
          "name": "pathAddress",
          "type": "address"
        }
      ],
      "name": "NewPath",
      "type": "event"
    },
    {
      "anonymous": false,
      "inputs": [
        {
          "indexed": false,
          "name": "pathName",
          "type": "string"
        },
        {
          "indexed": false,
          "name": "pathAddress",
          "type": "address"
        }
      ],
      "name": "PathUpdated",
      "type": "event"
    },
    {
      "constant": true,
      "inputs": [
        {
          "name": "_contractName",
          "type": "string"
        }
      ],
      "name": "getPath",
      "outputs": [
        {
          "name": "",
          "type": "address"
        }
      ],
      "payable": false,
      "stateMutability": "view",
      "type": "function"
    },
    {
      "constant": false,
      "inputs": [
        {
          "name": "changeRequestID",
          "type": "bytes32"
        },
        {
          "name": "pathName",
          "type": "string"
        },
        {
          "name": "newAddress",
          "type": "address"
        }
      ],
      "name": "setPath",
      "outputs": [],
      "payable": false,
      "stateMutability": "nonpayable",
      "type": "function"
    },
    {
      "constant": false,
      "inputs": [
        {
          "name": "_path",
          "type": "address"
        }
      ],
      "name": "setPath",
      "outputs": [],
      "payable": false,
      "stateMutability": "nonpayable",
      "type": "function"
    },
    {
      "constant": false,
      "inputs": [
        {
          "name": "_path",
          "type": "address"
        },
        {
          "name": "_contractName",
          "type": "string"
        }
      ],
      "name": "initializePath",
      "outputs": [],
      "payable": false,
      "stateMutability": "nonpayable",
      "type": "function"
    },
    {
      "constant": true,
      "inputs": [
        {
          "name": "_address",
          "type": "address"
        }
      ],
      "name": "isValid",
      "outputs": [
        {
          "name": "",
          "type": "bool"
        }
      ],
      "payable": false,
      "stateMutability": "view",
      "type": "function"
    }
  ],
  "bytecode": "0x60806040523480156200001157600080fd5b5060006040805190810160405280600681526020017f5543506174680000000000000000000000000000000000000000000000000000815250336000806101000a81548173ffffffffffffffffffffffffffffffffffffffff021916908373ffffffffffffffffffffffffffffffffffffffff1602179055507f3edd90e7770f06fafde38004653b33870066c33bfc923ff6102acd601f85dfbc33604051808273ffffffffffffffffffffffffffffffffffffffff1673ffffffffffffffffffffffffffffffffffffffff16815260200191505060405180910390a160405180807f55435061746800000000000000000000000000000000000000000000000000008152506006019050604051809103902081805190602001201415620001795730600160006101000a81548173ffffffffffffffffffffffffffffffffffffffff021916908373ffffffffffffffffffffffffffffffffffffffff160217905550620001bb565b81600160006101000a81548173ffffffffffffffffffffffffffffffffffffffff021916908373ffffffffffffffffffffffffffffffffffffffff1602179055505b600073ffffffffffffffffffffffffffffffffffffffff16600160009054906101000a900473ffffffffffffffffffffffffffffffffffffffff1673ffffffffffffffffffffffffffffffffffffffff1663af61c6a6836040518263ffffffff167c01000000000000000000000000000000000000000000000000000000000281526004018080602001828103825283818151815260200191508051906020019080838360005b838110156200027f57808201518184015260208101905062000262565b50505050905090810190601f168015620002ad5780820380516001836020036101000a031916815260200191505b509250505060206040518083038186803b158015620002cb57600080fd5b505afa158015620002e0573d6000803e3d6000fd5b505050506040513d6020811015620002f757600080fd5b810190808051906020019092919050505073ffffffffffffffffffffffffffffffffffffffff1614156200046d57600160009054906101000a900473ffffffffffffffffffffffffffffffffffffffff1673ffffffffffffffffffffffffffffffffffffffff1663f309959430836040518363ffffffff167c0100000000000000000000000000000000000000000000000000000000028152600401808373ffffffffffffffffffffffffffffffffffffffff1673ffffffffffffffffffffffffffffffffffffffff16815260200180602001828103825283818151815260200191508051906020019080838360005b8381101562000404578082015181840152602081019050620003e7565b50505050905090810190601f168015620004325780820380516001836020036101000a031916815260200191505b509350505050600060405180830381600087803b1580156200045357600080fd5b505af115801562000468573d6000803e3d6000fd5b505050505b5050612068806200047f6000396000f3fe6080604052600436106100a9576000357c01000000000000000000000000000000000000000000000000000000009004806306ce5e9c146100ae57806313af4035146101a05780633b955177146101f1578063599b4fbc1461024257806382b1c8661461032a5780638b1b925f146103815780638da5cb5b146103ea578063af61c6a614610441578063bdc8815a14610549578063deae3b1e146105a0578063f3099594146105f7575b600080fd5b3480156100ba57600080fd5b5061019e600480360360608110156100d157600080fd5b8101908080359060200190929190803590602001906401000000008111156100f857600080fd5b82018360208201111561010a57600080fd5b8035906020019184600183028401116401000000008311171561012c57600080fd5b91908080601f016020809104026020016040519081016040528093929190818152602001838380828437600081840152601f19601f820116905080830192505050505050509192919290803573ffffffffffffffffffffffffffffffffffffffff1690602001909291905050506106df565b005b3480156101ac57600080fd5b506101ef600480360360208110156101c357600080fd5b81019080803573ffffffffffffffffffffffffffffffffffffffff169060200190929190505050611244565b005b3480156101fd57600080fd5b506102406004803603602081101561021457600080fd5b81019080803573ffffffffffffffffffffffffffffffffffffffff169060200190929190505050611367565b005b34801561024e57600080fd5b506103286004803603604081101561026557600080fd5b810190808035906020019064010000000081111561028257600080fd5b82018360208201111561029457600080fd5b803590602001918460018302840111640100000000831117156102b657600080fd5b91908080601f016020809104026020016040519081016040528093929190818152602001838380828437600081840152601f19601f820116905080830192505050505050509192919290803573ffffffffffffffffffffffffffffffffffffffff16906020019092919050505061148b565b005b34801561033657600080fd5b5061033f6115dc565b604051808273ffffffffffffffffffffffffffffffffffffffff1673ffffffffffffffffffffffffffffffffffffffff16815260200191505060405180910390f35b34801561038d57600080fd5b506103d0600480360360208110156103a457600080fd5b81019080803573ffffffffffffffffffffffffffffffffffffffff169060200190929190505050611602565b604051808215151515815260200191505060405180910390f35b3480156103f657600080fd5b506103ff61161f565b604051808273ffffffffffffffffffffffffffffffffffffffff1673ffffffffffffffffffffffffffffffffffffffff16815260200191505060405180910390f35b34801561044d57600080fd5b506105076004803603602081101561046457600080fd5b810190808035906020019064010000000081111561048157600080fd5b82018360208201111561049357600080fd5b803590602001918460018302840111640100000000831117156104b557600080fd5b91908080601f016020809104026020016040519081016040528093929190818152602001838380828437600081840152601f19601f820116905080830192505050505050509192919290505050611644565b604051808273ffffffffffffffffffffffffffffffffffffffff1673ffffffffffffffffffffffffffffffffffffffff16815260200191505060405180910390f35b34801561055557600080fd5b5061055e611783565b604051808273ffffffffffffffffffffffffffffffffffffffff1673ffffffffffffffffffffffffffffffffffffffff16815260200191505060405180910390f35b3480156105ac57600080fd5b506105b56117a9565b604051808273ffffffffffffffffffffffffffffffffffffffff1673ffffffffffffffffffffffffffffffffffffffff16815260200191505060405180910390f35b34801561060357600080fd5b506106dd6004803603604081101561061a57600080fd5b81019080803573ffffffffffffffffffffffffffffffffffffffff1690602001909291908035906020019064010000000081111561065757600080fd5b82018360208201111561066957600080fd5b8035906020019184600183028401116401000000008311171561068b57600080fd5b91908080601f016020809104026020016040519081016040528093929190818152602001838380828437600081840152601f19601f8201169050808301925050505050505091929192905050506117cf565b005b600460009054906101000a900473ffffffffffffffffffffffffffffffffffffffff1673ffffffffffffffffffffffffffffffffffffffff166377c75d10846040518263ffffffff167c010000000000000000000000000000000000000000000000000000000002815260040180828152602001915050602060405180830381600087803b15801561077057600080fd5b505af1158015610784573d6000803e3d6000fd5b505050506040513d602081101561079a57600080fd5b8101908080519060200190929190505050151561081f576040517f08c379a00000000000000000000000000000000000000000000000000000000081526004018080602001828103825260188152602001807f4368616e676552657175657374206e6f742077696e6e6572000000000000000081525060200191505060405180910390fd5b600080600080600460009054906101000a900473ffffffffffffffffffffffffffffffffffffffff1673ffffffffffffffffffffffffffffffffffffffff1663f41144a3886040518263ffffffff167c01000000000000000000000000000000000000000000000000000000000281526004018082815260200191505060006040518083038186803b1580156108b457600080fd5b505afa1580156108c8573d6000803e3d6000fd5b505050506040513d6000823e3d601f19601f820116820180604052506101408110156108f357600080fd5b8101908080519060200190929190805190602001909291908051906020019092919080519060200190929190805190602001909291908051906020019092919080519060200190929190805164010000000081111561095157600080fd5b8281019050602081018481111561096757600080fd5b815185600182028301116401000000008211171561098457600080fd5b50509291906020018051906020019092919080519060200190929190505050505050505050935093509350935060018160068111156109bf57fe5b14151515610a5b576040517f08c379a00000000000000000000000000000000000000000000000000000000081526004018080602001828103825260278152602001807f4368616e676552657175657374206973206e6f74206f6e20417070726f76656481526020017f207374617475730000000000000000000000000000000000000000000000000081525060400191505060405180910390fd5b30604051602001808273ffffffffffffffffffffffffffffffffffffffff1673ffffffffffffffffffffffffffffffffffffffff166c01000000000000000000000000028152601401807f6368616e67655061746800000000000000000000000000000000000000000000815250600a019150506040516020818303038152906040528051906020012084141515610b81576040517f08c379a00000000000000000000000000000000000000000000000000000000081526004018080602001828103825260238152602001807f4368616e67655265717565737420646f6573206e6f74206d617463682054617281526020017f676574000000000000000000000000000000000000000000000000000000000081525060400191505060405180910390fd5b85856040516020018083805190602001908083835b602083101515610bbb5780518252602082019150602081019050602083039250610b96565b6001836020036101000a0380198251168184511680821785525050505050509050018273ffffffffffffffffffffffffffffffffffffffff1673ffffffffffffffffffffffffffffffffffffffff166c01000000000000000000000000028152601401925050506040516020818303038152906040528051906020012083141515610cd4576040517f08c379a00000000000000000000000000000000000000000000000000000000081526004018080602001828103825260258152602001807f4368616e67655265717565737420646f6573206e6f74206d617463682070726f81526020017f706f73616c00000000000000000000000000000000000000000000000000000081525060400191505060405180910390fd5b8142111515610d71576040517f08c379a00000000000000000000000000000000000000000000000000000000081526004018080602001828103825260258152602001807f43616e2774206170706c7920726571756573742077697468696e20736166652081526020017f64656c617900000000000000000000000000000000000000000000000000000081525060400191505060405180910390fd5b60006007876040518082805190602001908083835b602083101515610dab5780518252602082019150602081019050602083039250610d86565b6001836020036101000a038019825116818451168082178552505050505050905001915050908152602001604051809103902060009054906101000a900473ffffffffffffffffffffffffffffffffffffffff169050600073ffffffffffffffffffffffffffffffffffffffff168173ffffffffffffffffffffffffffffffffffffffff16141515610f02578573ffffffffffffffffffffffffffffffffffffffff168173ffffffffffffffffffffffffffffffffffffffff1614151515610f01576040517f08c379a000000000000000000000000000000000000000000000000000000000815260040180806020018281038252602f8152602001807f50726f706f7365642061646472657373206973207468652073616d652061732081526020017f63757272656e742061646472657373000000000000000000000000000000000081525060400191505060405180910390fd5b5b856007886040518082805190602001908083835b602083101515610f3b5780518252602082019150602081019050602083039250610f16565b6001836020036101000a038019825116818451168082178552505050505050905001915050908152602001604051809103902060006101000a81548173ffffffffffffffffffffffffffffffffffffffff021916908373ffffffffffffffffffffffffffffffffffffffff160217905550610fb586611a99565b600460009054906101000a900473ffffffffffffffffffffffffffffffffffffffff1673ffffffffffffffffffffffffffffffffffffffff1663281bfe51896040518263ffffffff167c010000000000000000000000000000000000000000000000000000000002815260040180828152602001915050600060405180830381600087803b15801561104657600080fd5b505af115801561105a573d6000803e3d6000fd5b50505050600073ffffffffffffffffffffffffffffffffffffffff168173ffffffffffffffffffffffffffffffffffffffff16141515611169577f9071ebb7f9cdc70807798b17abdda27b1e5a787c6c3b8b8b63a3959fd90485d3878760405180806020018373ffffffffffffffffffffffffffffffffffffffff1673ffffffffffffffffffffffffffffffffffffffff168152602001828103825284818151815260200191508051906020019080838360005b8381101561112957808201518184015260208101905061110e565b50505050905090810190601f1680156111565780820380516001836020036101000a031916815260200191505b50935050505060405180910390a161123a565b7f732aa6087ce23ea35fd01051b969592687e5812b7b1f2692c600de165e96555e878760405180806020018373ffffffffffffffffffffffffffffffffffffffff1673ffffffffffffffffffffffffffffffffffffffff168152602001828103825284818151815260200191508051906020019080838360005b838110156111fe5780820151818401526020810190506111e3565b50505050905090810190601f16801561122b5780820380516001836020036101000a031916815260200191505b50935050505060405180910390a15b5050505050505050565b61124d33611acb565b15156112c1576040517f08c379a000000000000000000000000000000000000000000000000000000000815260040180806020018281038252600e8152602001807f4e6f7420417574686f72697a656400000000000000000000000000000000000081525060200191505060405180910390fd5b806000806101000a81548173ffffffffffffffffffffffffffffffffffffffff021916908373ffffffffffffffffffffffffffffffffffffffff1602179055507f3edd90e7770f06fafde38004653b33870066c33bfc923ff6102acd601f85dfbc81604051808273ffffffffffffffffffffffffffffffffffffffff1673ffffffffffffffffffffffffffffffffffffffff16815260200191505060405180910390a150565b61137033611acb565b15156113e4576040517f08c379a000000000000000000000000000000000000000000000000000000000815260040180806020018281038252600e8152602001807f4e6f7420417574686f72697a656400000000000000000000000000000000000081525060200191505060405180910390fd5b80600160006101000a81548173ffffffffffffffffffffffffffffffffffffffff021916908373ffffffffffffffffffffffffffffffffffffffff1602179055507f06996b58b8ff542ff91d7a929369bb5d93940639f7849f15d0f95923d1d1705181604051808273ffffffffffffffffffffffffffffffffffffffff1673ffffffffffffffffffffffffffffffffffffffff16815260200191505060405180910390a150565b61149433611acb565b1515611508576040517f08c379a000000000000000000000000000000000000000000000000000000000815260040180806020018281038252600e8152602001807f4e6f7420417574686f72697a656400000000000000000000000000000000000081525060200191505060405180910390fd5b7f0bf1be166f5b263d06191a42d6ab01a3333b6da101cf1cc7bba6f07a70dd2ff5828260405180806020018373ffffffffffffffffffffffffffffffffffffffff1673ffffffffffffffffffffffffffffffffffffffff168152602001828103825284818151815260200191508051906020019080838360005b8381101561159d578082015181840152602081019050611582565b50505050905090810190601f1680156115ca5780820380516001836020036101000a031916815260200191505b50935050505060405180910390a15050565b600260009054906101000a900473ffffffffffffffffffffffffffffffffffffffff1681565b6000611618826005611cd990919063ffffffff16565b9050919050565b6000809054906101000a900473ffffffffffffffffffffffffffffffffffffffff1681565b6000806007836040518082805190602001908083835b60208310151561167f578051825260208201915060208101905060208303925061165a565b6001836020036101000a038019825116818451168082178552505050505050905001915050908152602001604051809103902060009054906101000a900473ffffffffffffffffffffffffffffffffffffffff169050600073ffffffffffffffffffffffffffffffffffffffff168173ffffffffffffffffffffffffffffffffffffffff161415151561177a576040517f08c379a00000000000000000000000000000000000000000000000000000000081526004018080602001828103825260148152602001807f50617468206e6f7420696e697469616c697a656400000000000000000000000081525060200191505060405180910390fd5b80915050919050565b600360009054906101000a900473ffffffffffffffffffffffffffffffffffffffff1681565b600160009054906101000a900473ffffffffffffffffffffffffffffffffffffffff1681565b6117d833611acb565b151561184c576040517f08c379a000000000000000000000000000000000000000000000000000000000815260040180806020018281038252600e8152602001807f4e6f7420417574686f72697a656400000000000000000000000000000000000081525060200191505060405180910390fd5b600073ffffffffffffffffffffffffffffffffffffffff166007826040518082805190602001908083835b60208310151561189c5780518252602082019150602081019050602083039250611877565b6001836020036101000a038019825116818451168082178552505050505050905001915050908152602001604051809103902060009054906101000a900473ffffffffffffffffffffffffffffffffffffffff1673ffffffffffffffffffffffffffffffffffffffff1614151561191257600080fd5b816007826040518082805190602001908083835b60208310151561194b5780518252602082019150602081019050602083039250611926565b6001836020036101000a038019825116818451168082178552505050505050905001915050908152602001604051809103902060006101000a81548173ffffffffffffffffffffffffffffffffffffffff021916908373ffffffffffffffffffffffffffffffffffffffff1602179055506119c582611a99565b7f732aa6087ce23ea35fd01051b969592687e5812b7b1f2692c600de165e96555e818360405180806020018373ffffffffffffffffffffffffffffffffffffffff1673ffffffffffffffffffffffffffffffffffffffff168152602001828103825284818151815260200191508051906020019080838360005b83811015611a5a578082015181840152602081019050611a3f565b50505050905090810190601f168015611a875780820380516001836020036101000a031916815260200191505b50935050505060405180910390a15050565b611aad816005611cd990919063ffffffff16565b1515611ac857611ac7816005611da790919063ffffffff16565b5b50565b60003073ffffffffffffffffffffffffffffffffffffffff168273ffffffffffffffffffffffffffffffffffffffff161415611b0a5760019050611cd4565b6000809054906101000a900473ffffffffffffffffffffffffffffffffffffffff1673ffffffffffffffffffffffffffffffffffffffff168273ffffffffffffffffffffffffffffffffffffffff161415611b685760019050611cd4565b611b7182611ff0565b15611cd357600073ffffffffffffffffffffffffffffffffffffffff16600160009054906101000a900473ffffffffffffffffffffffffffffffffffffffff1673ffffffffffffffffffffffffffffffffffffffff161415611bd65760009050611cd4565b600160009054906101000a900473ffffffffffffffffffffffffffffffffffffffff1673ffffffffffffffffffffffffffffffffffffffff16638b1b925f836040518263ffffffff167c0100000000000000000000000000000000000000000000000000000000028152600401808273ffffffffffffffffffffffffffffffffffffffff1673ffffffffffffffffffffffffffffffffffffffff16815260200191505060206040518083038186803b158015611c9157600080fd5b505afa158015611ca5573d6000803e3d6000fd5b505050506040513d6020811015611cbb57600080fd5b81019080805190602001909291905050509050611cd4565b5b919050565b60008083600101805490501415611cf35760009050611da1565b8173ffffffffffffffffffffffffffffffffffffffff16836001018460000160008573ffffffffffffffffffffffffffffffffffffffff1673ffffffffffffffffffffffffffffffffffffffff16815260200190815260200160002054815481101515611d5c57fe5b9060005260206000200160009054906101000a900473ffffffffffffffffffffffffffffffffffffffff1673ffffffffffffffffffffffffffffffffffffffff161490505b92915050565b600073ffffffffffffffffffffffffffffffffffffffff168173ffffffffffffffffffffffffffffffffffffffff1614151515611e72576040517f08c379a00000000000000000000000000000000000000000000000000000000081526004018080602001828103825260288152602001807f556e6f7264657265644b65795365742831303029202d204b65792063616e6e6f81526020017f742062652030783000000000000000000000000000000000000000000000000081525060400191505060405180910390fd5b611e7c8282611cd9565b151515611f3d576040517f08c379a00000000000000000000000000000000000000000000000000000000081526004018080602001828103825260438152602001807f556e6f726465726564416464726573735365742831303129202d20416464726581526020017f737320286b65792920616c72656164792065786973747320696e20746865207381526020017f65742e000000000000000000000000000000000000000000000000000000000081525060600191505060405180910390fd5b6001826001018290806001815401808255809150509060018203906000526020600020016000909192909190916101000a81548173ffffffffffffffffffffffffffffffffffffffff021916908373ffffffffffffffffffffffffffffffffffffffff160217905550038260000160008373ffffffffffffffffffffffffffffffffffffffff1673ffffffffffffffffffffffffffffffffffffffff168152602001908152602001600020819055505050565b6000807fc5d2460186f7233c927e7db2dcc703c0e500b653ca82273b7bfad8045d85a47060010290506000833f9050600060010281141580156120335750818114155b9250505091905056fea165627a7a7230582046e16522bec26cbaebae4a2607332508d367adbc9250e5deb3f0645ffd8bc7930029",
  "source": "pragma solidity >=0.4.21 <0.6.2;\r\n\r\nimport \"./libraries/UnorderedKeySet.sol\";\r\nimport \"./UCGovernance.sol\";\r\nimport \"./UCChangeable.sol\";\r\n\r\ncontract UCPath is UCChangeable {\r\n   using UnorderedAddressSetLib for UnorderedAddressSetLib.Set;\r\n\r\n   /// Public Properties\r\n   address public ucGovernanceAddress;\r\n   address public ucCrawlingBandAddress;\r\n   //uint256[2] public changeUCCrawlingBandAddressReq; // requirement\r\n\r\n   /// Contract Navigation Properties\r\n   UCGovernance ucGovernance;\r\n\r\n   /// Private lists\r\n   UnorderedAddressSetLib.Set ucContracts; // list of active contracts (both current and replaced)\r\n\r\n   /// Public Mappings\r\n   mapping(string => address) private currentPath; // mapping of current paths por contract name\r\n\r\n   // /// Enums\r\n   //  enum Status {\r\n   //      Current,                    // Default value\r\n   //      Replaced,                   // Has been replaced\r\n   //      Locked                      // No longer accessible\r\n   //  }\r\n   // /// Objects (Structs)\r\n   // struct Path {\r\n   //    address contractAddress;\r\n   //    string name;\r\n   //    Status status;\r\n   // }\r\n\r\n   constructor() UCChangeable(address(0), \"UCPath\") public {\r\n\r\n   }\r\n\r\n   /// Public Methods\r\n   function getPath(string memory _contractName) public view returns (address) {\r\n      address path = currentPath[_contractName];\r\n      require(path != address(0), \"Path not initialized\");\r\n      return path;\r\n   }\r\n   function setPath(bytes32 changeRequestID, string memory pathName, address newAddress) public {\r\n      require(ucGovernance.isWinner(changeRequestID), \"ChangeRequest not winner\");\r\n      // get request target, proposal, safe Delay and status\r\n      (bytes32 target, bytes32 proposal, uint safeDelay, UCGovernance.CRStatus status,,,,,,) = ucGovernance.changeRequests(changeRequestID);\r\n      // check if it hasn't been applyed yet\r\n      require(uint(status) != 1, \"ChangeRequest is not on Approved status\");\r\n      // check if request match target\r\n      require(target == keccak256(abi.encodePacked(address(this), \"changePath\")), \"ChangeRequest does not match Target\");\r\n      // check if request match proposal\r\n      require(proposal == keccak256(abi.encodePacked(pathName, newAddress)), \"ChangeRequest does not match proposal\");\r\n      // check if safeDelay has passed\r\n      require(now > safeDelay, \"Can't apply request within safe delay\");\r\n      // check if path exist and is different that proposed path\r\n      address currPath = currentPath[pathName];\r\n      if(currPath != address(0)) {\r\n         require(currPath != newAddress, \"Proposed address is the same as current address\");\r\n      }\r\n      // apply change\r\n      currentPath[pathName] = newAddress;\r\n      insertContractToList(newAddress);\r\n      // change CR status to Applied\r\n      ucGovernance.updateToAppliedStatus(changeRequestID);\r\n      if(currPath != address(0)) {\r\n         emit PathChanged(pathName, newAddress);\r\n      } else {\r\n         emit PathInicialized(pathName, newAddress);\r\n      }\r\n\r\n   }\r\n\r\n   /// Public Auth Methods\r\n   function initializePath(address _path, string memory _contractName) public auth {\r\n      require(currentPath[_contractName] == address(0));\r\n      currentPath[_contractName] = _path;\r\n      insertContractToList(_path);\r\n      emit PathInicialized(_contractName, _path);\r\n   }\r\n\r\n   // function initialize(address _ucGovernance, address _ucCrawlingBand) public auth {\r\n   //    require(ucGovernanceAddress == ucCrawlingBandAddress == address(0), \"Already initilized\");\r\n\r\n   //    ucGovernanceAddress = _ucGovernance;\r\n   //    ucCrawlingBandAddress = _ucCrawlingBand;\r\n   //    insertContractToList(_ucGovernance);\r\n   //    insertContractToList(_ucCrawlingBand);\r\n\r\n   //    emit Inicialized();\r\n\r\n   // }\r\n\r\n   /// External methods\r\n   function isValid(address _address) external view returns (bool) {\r\n      return ucContracts.exists(_address);\r\n   }\r\n\r\n\r\n\r\n   /// Private Functions\r\n   function insertContractToList(address _contract) private {\r\n      if(!ucContracts.exists(_contract)) {\r\n         ucContracts.insert(_contract);\r\n      }\r\n   }\r\n\r\n   /// Events\r\n   event PathInicialized(string contractName, address contractAddress);\r\n   event PathChanged(string contractName, address contractAddress);\r\n\r\n\r\n}",
  "sourcePath": "E:\\JCL\\Webmaster\\GitHub\\UCToken\\UCToken\\contracts\\UCPath.sol",
  "compiler": {
    "name": "solc",
    "version": "0.5.1+commit.c8a2cb62.Emscripten.clang"
  },
  "schemaVersion": "3.0.19",
  "updatedAt": "2020-04-07T16:02:03.062Z",
  "devdoc": {
    "methods": {}
  },
  "userdoc": {
    "methods": {
      "getPath(string)": {
        "notice": "Public Methods"
      },
      "initializePath(address,string)": {
        "notice": "Public Auth Methods"
      },
      "isValid(address)": {
        "notice": "External methods"
      },
      "setOwner(address)": {
        "notice": "Public Methods"
      },
      "updatePath(string,address)": {
        "notice": "Public Auth Mehods"
      }
    }
  }
}