{
  "contractName": "UCStorage",
  "abi": [
    {
      "constant": true,
      "inputs": [],
      "name": "totalSupply",
      "outputs": [
        {
          "name": "",
          "type": "uint256"
        }
      ],
      "payable": false,
      "stateMutability": "view",
      "type": "function"
    },
    {
      "constant": true,
      "inputs": [
        {
          "name": "",
          "type": "address"
        }
      ],
      "name": "balanceOf",
      "outputs": [
        {
          "name": "",
          "type": "uint256"
        }
      ],
      "payable": false,
      "stateMutability": "view",
      "type": "function"
    },
    {
      "constant": true,
      "inputs": [
        {
          "name": "",
          "type": "address"
        },
        {
          "name": "",
          "type": "address"
        }
      ],
      "name": "allowance",
      "outputs": [
        {
          "name": "",
          "type": "uint256"
        }
      ],
      "payable": false,
      "stateMutability": "view",
      "type": "function"
    }
  ],
  "bytecode": "0x608060405234801561001057600080fd5b506101da806100206000396000f3fe608060405260043610610051576000357c01000000000000000000000000000000000000000000000000000000009004806318160ddd1461005657806370a0823114610081578063dd62ed3e146100e6575b600080fd5b34801561006257600080fd5b5061006b61016b565b6040518082815260200191505060405180910390f35b34801561008d57600080fd5b506100d0600480360360208110156100a457600080fd5b81019080803573ffffffffffffffffffffffffffffffffffffffff169060200190929190505050610171565b6040518082815260200191505060405180910390f35b3480156100f257600080fd5b506101556004803603604081101561010957600080fd5b81019080803573ffffffffffffffffffffffffffffffffffffffff169060200190929190803573ffffffffffffffffffffffffffffffffffffffff169060200190929190505050610189565b6040518082815260200191505060405180910390f35b60005481565b60016020528060005260406000206000915090505481565b600260205281600052604060002060205280600052604060002060009150915050548156fea165627a7a72305820690917bd428ffec52d2f9271aca90109c452ed5d4ab5bd8c0ba3670ae4648afe0029",
  "source": "pragma solidity >=0.4.21 <0.6.0;\r\n\r\ncontract UCStorage {\r\n   \r\n   uint256 public totalSupply;\r\n\r\n   mapping(address => uint256) public balanceOf;\r\n   mapping(address => mapping(address => uint256)) public allowance;\r\n\r\n    \r\n\r\n}",
  "sourcePath": "E:\\jcl\\webmaster\\github\\uctoken\\uctoken\\contracts\\UCStorage.sol",
  "compiler": {
    "name": "solc",
    "version": "0.5.1+commit.c8a2cb62.Emscripten.clang"
  },
  "schemaVersion": "3.0.19",
  "updatedAt": "2019-11-22T01:36:08.511Z",
  "devdoc": {
    "methods": {}
  },
  "userdoc": {
    "methods": {}
  }
}