{
  "contractName": "UCStorage",
  "abi": [
    {
      "constant": true,
      "inputs": [],
      "name": "totalSupply",
      "outputs": [
        {
          "name": "",
          "type": "uint256"
        }
      ],
      "payable": false,
      "stateMutability": "view",
      "type": "function"
    },
    {
      "constant": true,
      "inputs": [
        {
          "name": "",
          "type": "address"
        }
      ],
      "name": "balanceOf",
      "outputs": [
        {
          "name": "",
          "type": "uint256"
        }
      ],
      "payable": false,
      "stateMutability": "view",
      "type": "function"
    },
    {
      "constant": true,
      "inputs": [
        {
          "name": "",
          "type": "address"
        },
        {
          "name": "",
          "type": "address"
        }
      ],
      "name": "allowance",
      "outputs": [
        {
          "name": "",
          "type": "uint256"
        }
      ],
      "payable": false,
      "stateMutability": "view",
      "type": "function"
    }
  ],
  "bytecode": "0x608060405234801561001057600080fd5b506101a3806100206000396000f3fe608060405234801561001057600080fd5b50600436106100415760003560e01c806318160ddd1461004657806370a0823114610064578063dd62ed3e146100bc575b600080fd5b61004e610134565b6040518082815260200191505060405180910390f35b6100a66004803603602081101561007a57600080fd5b81019080803573ffffffffffffffffffffffffffffffffffffffff16906020019092919050505061013a565b6040518082815260200191505060405180910390f35b61011e600480360360408110156100d257600080fd5b81019080803573ffffffffffffffffffffffffffffffffffffffff169060200190929190803573ffffffffffffffffffffffffffffffffffffffff169060200190929190505050610152565b6040518082815260200191505060405180910390f35b60005481565b60016020528060005260406000206000915090505481565b600260205281600052604060002060205280600052604060002060009150915050548156fea165627a7a7230582077b6b3eabca1c4ac273e339156a75e56734791abde46d903f06143de703879ef0029",
  "source": "pragma solidity >=0.4.21 <0.6.0;\r\n\r\ncontract UCStorage {\r\n   \r\n   uint256 public totalSupply;\r\n\r\n   mapping(address => uint256) public balanceOf;\r\n   mapping(address => mapping(address => uint256)) public allowance;\r\n\r\n    \r\n\r\n}",
  "sourcePath": "E:\\JCL\\Webmaster\\GitHub\\UCToken\\UCToken\\contracts\\UCStorage.sol",
  "compiler": {
    "name": "solc",
    "version": "0.5.7+commit.6da8b019.Emscripten.clang"
  },
  "schemaVersion": "3.0.23",
  "updatedAt": "2020-04-16T01:19:43.787Z",
  "devdoc": {
    "methods": {}
  },
  "userdoc": {
    "methods": {}
  }
}