{
  "contractName": "UCTrade",
  "abi": [
    {
      "constant": true,
      "inputs": [],
      "name": "ucCrawlingBand",
      "outputs": [
        {
          "name": "",
          "type": "address"
        }
      ],
      "payable": false,
      "stateMutability": "view",
      "type": "function"
    },
    {
      "constant": true,
      "inputs": [],
      "name": "ucToken",
      "outputs": [
        {
          "name": "",
          "type": "address"
        }
      ],
      "payable": false,
      "stateMutability": "view",
      "type": "function"
    },
    {
      "constant": true,
      "inputs": [
        {
          "name": "",
          "type": "address"
        }
      ],
      "name": "collateralTokens",
      "outputs": [
        {
          "name": "tokenAddr",
          "type": "address"
        },
        {
          "name": "price",
          "type": "uint256"
        },
        {
          "name": "balance",
          "type": "uint256"
        },
        {
          "name": "token",
          "type": "address"
        }
      ],
      "payable": false,
      "stateMutability": "view",
      "type": "function"
    },
    {
      "inputs": [
        {
          "name": "_ucToken",
          "type": "address"
        },
        {
          "name": "_ucCrawlingBand",
          "type": "address"
        }
      ],
      "payable": false,
      "stateMutability": "nonpayable",
      "type": "constructor"
    },
    {
      "constant": false,
      "inputs": [
        {
          "name": "_tokenAddr",
          "type": "address"
        },
        {
          "name": "_price",
          "type": "uint256"
        }
      ],
      "name": "acceptNewCollateralToken",
      "outputs": [],
      "payable": false,
      "stateMutability": "nonpayable",
      "type": "function"
    },
    {
      "constant": false,
      "inputs": [
        {
          "name": "_collateralToken",
          "type": "address"
        },
        {
          "name": "_amount",
          "type": "uint256"
        },
        {
          "name": "_minUCAmount",
          "type": "uint256"
        }
      ],
      "name": "mint",
      "outputs": [
        {
          "name": "",
          "type": "uint256"
        }
      ],
      "payable": false,
      "stateMutability": "nonpayable",
      "type": "function"
    },
    {
      "constant": false,
      "inputs": [
        {
          "name": "_amount",
          "type": "uint256"
        },
        {
          "name": "_collateralToken",
          "type": "address"
        }
      ],
      "name": "burn",
      "outputs": [
        {
          "name": "",
          "type": "uint256"
        }
      ],
      "payable": false,
      "stateMutability": "nonpayable",
      "type": "function"
    }
  ],
  "bytecode": "0x608060405234801561001057600080fd5b50604051604080611a268339810180604052604081101561003057600080fd5b810190808051906020019092919080519060200190929190505050600160008190555033600160006101000a81548173ffffffffffffffffffffffffffffffffffffffff021916908373ffffffffffffffffffffffffffffffffffffffff16021790555081600260006101000a81548173ffffffffffffffffffffffffffffffffffffffff021916908373ffffffffffffffffffffffffffffffffffffffff16021790555080600360006101000a81548173ffffffffffffffffffffffffffffffffffffffff021916908373ffffffffffffffffffffffffffffffffffffffff16021790555050506118ff806101276000396000f3fe608060405260043610610072576000357c010000000000000000000000000000000000000000000000000000000090048063156e29f6146100775780631c0b7fa1146100f057806324aba59f14610147578063cffbc2971461019e578063f3cf946114610270578063fcd3533c146102cb575b600080fd5b34801561008357600080fd5b506100da6004803603606081101561009a57600080fd5b81019080803573ffffffffffffffffffffffffffffffffffffffff169060200190929190803590602001909291908035906020019092919050505061033a565b6040518082815260200191505060405180910390f35b3480156100fc57600080fd5b50610105610a28565b604051808273ffffffffffffffffffffffffffffffffffffffff1673ffffffffffffffffffffffffffffffffffffffff16815260200191505060405180910390f35b34801561015357600080fd5b5061015c610a4e565b604051808273ffffffffffffffffffffffffffffffffffffffff1673ffffffffffffffffffffffffffffffffffffffff16815260200191505060405180910390f35b3480156101aa57600080fd5b506101ed600480360360208110156101c157600080fd5b81019080803573ffffffffffffffffffffffffffffffffffffffff169060200190929190505050610a74565b604051808573ffffffffffffffffffffffffffffffffffffffff1673ffffffffffffffffffffffffffffffffffffffff1681526020018481526020018381526020018273ffffffffffffffffffffffffffffffffffffffff1673ffffffffffffffffffffffffffffffffffffffff16815260200194505050505060405180910390f35b34801561027c57600080fd5b506102c96004803603604081101561029357600080fd5b81019080803573ffffffffffffffffffffffffffffffffffffffff16906020019092919080359060200190929190505050610ae4565b005b3480156102d757600080fd5b50610324600480360360408110156102ee57600080fd5b8101908080359060200190929190803573ffffffffffffffffffffffffffffffffffffffff169060200190929190505050610e0c565b6040518082815260200191505060405180910390f35b6000600160008082825401925050819055506000805490506000841115156103ca576040517f08c379a00000000000000000000000000000000000000000000000000000000081526004018080602001828103825260138152602001807f636f6c6c61746572616c2072657175697265640000000000000000000000000081525060200191505060405180910390fd5b6000600460008773ffffffffffffffffffffffffffffffffffffffff1673ffffffffffffffffffffffffffffffffffffffff1681526020019081526020016000209050600073ffffffffffffffffffffffffffffffffffffffff168160000160009054906101000a900473ffffffffffffffffffffffffffffffffffffffff1673ffffffffffffffffffffffffffffffffffffffff16141515156104d6576040517f08c379a000000000000000000000000000000000000000000000000000000000815260040180806020018281038252601a8152602001807f436f6c6c61746572616c20746f6b656e206e6f20666f756e642e00000000000081525060200191505060405180910390fd5b6000600360009054906101000a900473ffffffffffffffffffffffffffffffffffffffff1673ffffffffffffffffffffffffffffffffffffffff16636a05b6fb6040518163ffffffff167c010000000000000000000000000000000000000000000000000000000002815260040160206040518083038186803b15801561055c57600080fd5b505afa158015610570573d6000803e3d6000fd5b505050506040513d602081101561058657600080fd5b8101908080519060200190929190505050905060006105c46105b583856001015461155c90919063ffffffff16565b886115a690919063ffffffff16565b9050858110151515610664576040517f08c379a00000000000000000000000000000000000000000000000000000000081526004018080602001828103825260238152602001807f43616c63756c6174656420554320616d6f756e742062656c6f77206d696e696d81526020017f756d2e000000000000000000000000000000000000000000000000000000000081525060400191505060405180910390fd5b61067b87846002015461167390919063ffffffff16565b83600201819055508260030160009054906101000a900473ffffffffffffffffffffffffffffffffffffffff1673ffffffffffffffffffffffffffffffffffffffff166323b872dd33308a6040518463ffffffff167c0100000000000000000000000000000000000000000000000000000000028152600401808473ffffffffffffffffffffffffffffffffffffffff1673ffffffffffffffffffffffffffffffffffffffff1681526020018373ffffffffffffffffffffffffffffffffffffffff1673ffffffffffffffffffffffffffffffffffffffff1681526020018281526020019350505050602060405180830381600087803b15801561077e57600080fd5b505af1158015610792573d6000803e3d6000fd5b505050506040513d60208110156107a857600080fd5b8101908080519060200190929190505050151561082d576040517f08c379a000000000000000000000000000000000000000000000000000000000815260040180806020018281038252601e8152602001807f5472616e73666572206f6620636f6c6c61746572616c206661696c65642e000081525060200191505060405180910390fd5b600260009054906101000a900473ffffffffffffffffffffffffffffffffffffffff1673ffffffffffffffffffffffffffffffffffffffff166340c10f1933836040518363ffffffff167c0100000000000000000000000000000000000000000000000000000000028152600401808373ffffffffffffffffffffffffffffffffffffffff1673ffffffffffffffffffffffffffffffffffffffff16815260200182815260200192505050602060405180830381600087803b1580156108f257600080fd5b505af1158015610906573d6000803e3d6000fd5b505050506040513d602081101561091c57600080fd5b810190808051906020019092919050505015156109a1576040517f08c379a00000000000000000000000000000000000000000000000000000000081526004018080602001828103825260178152602001807f436f756c646e2774206d696e7420554320746f6b656e2e00000000000000000081525060200191505060405180910390fd5b80945050505060005481141515610a20576040517f08c379a000000000000000000000000000000000000000000000000000000000815260040180806020018281038252601f8152602001807f5265656e7472616e637947756172643a207265656e7472616e742063616c6c0081525060200191505060405180910390fd5b509392505050565b600360009054906101000a900473ffffffffffffffffffffffffffffffffffffffff1681565b600260009054906101000a900473ffffffffffffffffffffffffffffffffffffffff1681565b60046020528060005260406000206000915090508060000160009054906101000a900473ffffffffffffffffffffffffffffffffffffffff16908060010154908060020154908060030160009054906101000a900473ffffffffffffffffffffffffffffffffffffffff16905084565b600160009054906101000a900473ffffffffffffffffffffffffffffffffffffffff1673ffffffffffffffffffffffffffffffffffffffff163373ffffffffffffffffffffffffffffffffffffffff16141515610ba9576040517f08c379a00000000000000000000000000000000000000000000000000000000081526004018080602001828103825260138152602001807f61646d696e206f6e6c792066756e6374696f6e0000000000000000000000000081525060200191505060405180910390fd5b600073ffffffffffffffffffffffffffffffffffffffff16600460008473ffffffffffffffffffffffffffffffffffffffff1673ffffffffffffffffffffffffffffffffffffffff16815260200190815260200160002060000160009054906101000a900473ffffffffffffffffffffffffffffffffffffffff1673ffffffffffffffffffffffffffffffffffffffff16141515610cd5576040517f08c379a00000000000000000000000000000000000000000000000000000000081526004018080602001828103825260228152602001807f436f6c6c61746572616c20746f6b656e20616c726561647920696e636c75646581526020017f642e00000000000000000000000000000000000000000000000000000000000081525060400191505060405180910390fd5b6080604051908101604052808373ffffffffffffffffffffffffffffffffffffffff168152602001828152602001600081526020018373ffffffffffffffffffffffffffffffffffffffff16815250600460008473ffffffffffffffffffffffffffffffffffffffff1673ffffffffffffffffffffffffffffffffffffffff16815260200190815260200160002060008201518160000160006101000a81548173ffffffffffffffffffffffffffffffffffffffff021916908373ffffffffffffffffffffffffffffffffffffffff160217905550602082015181600101556040820151816002015560608201518160030160006101000a81548173ffffffffffffffffffffffffffffffffffffffff021916908373ffffffffffffffffffffffffffffffffffffffff1602179055509050505050565b600060016000808282540192505081905550600080549050600084111515610e9c576040517f08c379a00000000000000000000000000000000000000000000000000000000081526004018080602001828103825260128152602001807f554320616d6f756e74207265717569726564000000000000000000000000000081525060200191505060405180910390fd5b6000600260009054906101000a900473ffffffffffffffffffffffffffffffffffffffff1673ffffffffffffffffffffffffffffffffffffffff166370a08231336040518263ffffffff167c0100000000000000000000000000000000000000000000000000000000028152600401808273ffffffffffffffffffffffffffffffffffffffff1673ffffffffffffffffffffffffffffffffffffffff16815260200191505060206040518083038186803b158015610f5957600080fd5b505afa158015610f6d573d6000803e3d6000fd5b505050506040513d6020811015610f8357600080fd5b81019080805190602001909291905050509050848110151515610fe9576040517f08c379a0000000000000000000000000000000000000000000000000000000008152600401808060200182810382526000815260200160200191505060405180910390fd5b6000600460008673ffffffffffffffffffffffffffffffffffffffff1673ffffffffffffffffffffffffffffffffffffffff1681526020019081526020016000209050600073ffffffffffffffffffffffffffffffffffffffff168160000160009054906101000a900473ffffffffffffffffffffffffffffffffffffffff1673ffffffffffffffffffffffffffffffffffffffff16141515156110f5576040517f08c379a000000000000000000000000000000000000000000000000000000000815260040180806020018281038252601b8152602001807f636f6c6c61746572616c20746f6b656e206e6f7420666f756e642e000000000081525060200191505060405180910390fd5b6000600360009054906101000a900473ffffffffffffffffffffffffffffffffffffffff1673ffffffffffffffffffffffffffffffffffffffff16632271e82a6040518163ffffffff167c010000000000000000000000000000000000000000000000000000000002815260040160206040518083038186803b15801561117b57600080fd5b505afa15801561118f573d6000803e3d6000fd5b505050506040513d60208110156111a557600080fd5b8101908080519060200190929190505050905060006111e36111d484600101548461155c90919063ffffffff16565b896115a690919063ffffffff16565b90508260030160009054906101000a900473ffffffffffffffffffffffffffffffffffffffff1673ffffffffffffffffffffffffffffffffffffffff166323b872dd3033846040518463ffffffff167c0100000000000000000000000000000000000000000000000000000000028152600401808473ffffffffffffffffffffffffffffffffffffffff1673ffffffffffffffffffffffffffffffffffffffff1681526020018373ffffffffffffffffffffffffffffffffffffffff1673ffffffffffffffffffffffffffffffffffffffff1681526020018281526020019350505050602060405180830381600087803b1580156112e057600080fd5b505af11580156112f4573d6000803e3d6000fd5b505050506040513d602081101561130a57600080fd5b810190808051906020019092919050505015156113b5576040517f08c379a00000000000000000000000000000000000000000000000000000000081526004018080602001828103825260238152602001807f436f756c646e2774207472616e7366657220636f6c6c61746572616c20746f6b81526020017f656e73000000000000000000000000000000000000000000000000000000000081525060400191505060405180910390fd5b6113cc8184600201546116fd90919063ffffffff16565b8360020181905550600260009054906101000a900473ffffffffffffffffffffffffffffffffffffffff1673ffffffffffffffffffffffffffffffffffffffff16639dc29fac338a6040518363ffffffff167c0100000000000000000000000000000000000000000000000000000000028152600401808373ffffffffffffffffffffffffffffffffffffffff1673ffffffffffffffffffffffffffffffffffffffff16815260200182815260200192505050602060405180830381600087803b15801561149957600080fd5b505af11580156114ad573d6000803e3d6000fd5b505050506040513d60208110156114c357600080fd5b8101908080519060200190929190505050508095505050505060005481141515611555576040517f08c379a000000000000000000000000000000000000000000000000000000000815260040180806020018281038252601f8152602001807f5265656e7472616e637947756172643a207265656e7472616e742063616c6c0081525060200191505060405180910390fd5b5092915050565b600061159e83836040805190810160405280601a81526020017f536166654d6174683a206469766973696f6e206279207a65726f000000000000815250611747565b905092915050565b6000808314156115b9576000905061166d565b600082840290508284828115156115cc57fe5b04141515611668576040517f08c379a00000000000000000000000000000000000000000000000000000000081526004018080602001828103825260218152602001807f536166654d6174683a206d756c7469706c69636174696f6e206f766572666c6f81526020017f770000000000000000000000000000000000000000000000000000000000000081525060400191505060405180910390fd5b809150505b92915050565b60008082840190508381101515156116f3576040517f08c379a000000000000000000000000000000000000000000000000000000000815260040180806020018281038252601b8152602001807f536166654d6174683a206164646974696f6e206f766572666c6f77000000000081525060200191505060405180910390fd5b8091505092915050565b600061173f83836040805190810160405280601e81526020017f536166654d6174683a207375627472616374696f6e206f766572666c6f770000815250611811565b905092915050565b6000808311829015156117f5576040517f08c379a00000000000000000000000000000000000000000000000000000000081526004018080602001828103825283818151815260200191508051906020019080838360005b838110156117ba57808201518184015260208101905061179f565b50505050905090810190601f1680156117e75780820380516001836020036101000a031916815260200191505b509250505060405180910390fd5b506000838581151561180357fe5b049050809150509392505050565b600083831115829015156118c0576040517f08c379a00000000000000000000000000000000000000000000000000000000081526004018080602001828103825283818151815260200191508051906020019080838360005b8381101561188557808201518184015260208101905061186a565b50505050905090810190601f1680156118b25780820380516001836020036101000a031916815260200191505b509250505060405180910390fd5b506000838503905080915050939250505056fea165627a7a72305820a4198c78eb6d4ae44c50746a67aa1b9c6df9b05a2971fabb4f232afc7387cf570029",
  "source": "pragma solidity >=0.4.21 <0.6.0;\r\n\r\nimport \"@openzeppelin/contracts/utils/ReentrancyGuard.sol\";\r\nimport \"@openzeppelin/contracts/math/SafeMath.sol\";\r\nimport \"./UCToken.sol\";\r\nimport \"./UCStorage.sol\";\r\nimport \"./UCCrawlingBand.sol\";\r\nimport \"./UCCollateralTokenInterface.sol\";\r\n\r\n/**\r\n * @title UCTrade\r\n * @dev Contract destination for aquiring and selling UCs.\r\n */\r\ncontract UCTrade is ReentrancyGuard {\r\n    using SafeMath for uint256;\r\n\r\n    address admin;\r\n    UCToken public ucToken;\r\n    //UCStorage public ucStorage;\r\n    UCCrawlingBand public ucCrawlingBand; // The reference to UCCrawlingBand implementation.\r\n\r\n    //uint256 private _currentRate; // simple test as if there was only one acceptable stablecoin\r\n\r\n    constructor(UCToken _ucToken, UCCrawlingBand _ucCrawlingBand) public {\r\n        admin = msg.sender;\r\n        ucToken = _ucToken;\r\n        //ucStorage = _ucStorage;\r\n        ucCrawlingBand = _ucCrawlingBand;\r\n    }\r\n\r\n    // MODIFIERS\r\n    modifier onlyAdmin() {\r\n        require(msg.sender == address(admin), \"admin only function\");\r\n        _;\r\n    }\r\n\r\n    struct CollateralToken {\r\n        address tokenAddr; // acceptable ERC20 token address\r\n        uint256 price; // price in US Dollar / 10000000 (7 decimals)\r\n        uint256 balance; // total amount of tokens\r\n        UCCollateralTokenInterface token;\r\n    }\r\n    mapping (address => CollateralToken) public collateralTokens; //mapping of accepted token addresses balances\r\n\r\n    function acceptNewCollateralToken(address _tokenAddr, uint256 _price) public onlyAdmin {\r\n        // TODO: check if is ERC compatible token\r\n\r\n        // check if token hasn't been included yet\r\n        require (collateralTokens[_tokenAddr].tokenAddr == address(0), \"Collateral token already included.\");\r\n\r\n        collateralTokens[_tokenAddr] = CollateralToken({\r\n            tokenAddr: _tokenAddr,\r\n            price: _price,\r\n            balance: 0,\r\n            token: UCCollateralTokenInterface(_tokenAddr)\r\n        });\r\n    }\r\n\r\n    struct SaleOrder {\r\n    address addr; // acccount address\r\n    uint amount; // UC amount to sell\r\n    uint price;  // price is willing to sell\r\n    uint expirationInMinutes; // how long the order should valid, in minutes, before expiring\r\n    }\r\n\r\n    struct PurchaseOrder {\r\n    address addr;\r\n    uint amount; // UC amount wants to purchase\r\n    uint price;  // UC price\r\n    uint expirationInMinutes; // how long the order should valid, in minutes, before expiring\r\n    }\r\n\r\n    \r\n    /**\r\n     * @dev Make new tokens in exchangefor collateral and assign to sender\r\n     * This function has a non-reentrancy guard, so it shouldn't be called by\r\n     * another `nonReentrant` function.\r\n     * @param _collateralToken collateral Token Address\r\n     * @param _amount amount of collateral Token to exchange\r\n     * @param _minUCAmount minimum amount of UCs desired in exchange for the collateral\r\n     * @return The amount of UCs buyer received\r\n     */\r\n    function mint(address _collateralToken, uint256 _amount, uint256 _minUCAmount) public nonReentrant returns (uint256) {\r\n        require(_amount > 0, \"collateral required\");\r\n\r\n        CollateralToken storage cToken = collateralTokens[_collateralToken];\r\n        // make sure token is an approved token\r\n        require (cToken.tokenAddr != address(0), \"Collateral token no found.\");\r\n\r\n        // check rate\r\n        uint256 ucCeilingPrice = ucCrawlingBand.getCurrentCeilingPrice();\r\n        uint256 ucAmount = _amount.mul((cToken.price.div(ucCeilingPrice)));\r\n        require(ucAmount >= _minUCAmount, \"Calculated UC amount below minimum.\");\r\n\r\n        // transfer to reserves\r\n        cToken.balance = cToken.balance.add(_amount);\r\n        require(cToken.token.transferFrom(msg.sender, address(this), _amount), \"Transfer of collateral failed.\");\r\n        //if (!cToken.token.transferFrom(msg.sender, address(this), _amount)) revert(\"Transfer of collateral failed.\");\r\n\r\n        // mint UC\r\n        require(ucToken.mint(msg.sender, ucAmount), \"Couldn't mint UC token.\");\r\n\r\n        return ucAmount;\r\n    }\r\n\r\n    /**\r\n     * @dev Exchange UCs for collateral, burMake new tokens in exchangefor collateral and assign to sender\r\n     * This function has a non-reentrancy guard, so it shouldn't be called by\r\n     * another `nonReentrant` function.\r\n     * @param _collateralToken collateral Token Address\r\n     * @param _amount amount of UC okens to burn\r\n     * @return The amount of Collateral seller received\r\n     */\r\n    function burn(uint256 _amount, address _collateralToken) public nonReentrant returns (uint256) {\r\n        require(_amount > 0, \"UC amount required\");\r\n        uint256 balance = ucToken.balanceOf(msg.sender);\r\n        require(balance >= _amount, \"\");\r\n\r\n        // return default\r\n        CollateralToken storage cToken = collateralTokens[_collateralToken];\r\n        // make sure token is an approved token\r\n        require (cToken.tokenAddr != address(0), \"collateral token not found.\");\r\n\r\n        // check rate\r\n        uint256 ucFloorPrice = ucCrawlingBand.getCurrentFloorPrice();\r\n        uint256 cAmount = _amount.mul((ucFloorPrice.div(cToken.price)));\r\n        //require(cAmount >= _minColAmount);\r\n\r\n        // transfer from reserves\r\n        if (!cToken.token.transferFrom(address(this), msg.sender, cAmount)) revert(\"Couldn't transfer collateral tokens\");\r\n        cToken.balance = cToken.balance.sub(cAmount);\r\n\r\n        // burn UC\r\n        ucToken.burn(msg.sender, _amount);\r\n\r\n        return cAmount;\r\n\r\n    }\r\n\r\n\r\n}",
  "sourcePath": "E:/jcl/webmaster/github/uctoken/uctoken/contracts/UCTrade.sol",
  "compiler": {
    "name": "solc",
    "version": "0.5.1+commit.c8a2cb62.Emscripten.clang"
  },
  "schemaVersion": "3.0.19",
  "updatedAt": "2019-11-22T01:36:12.564Z",
  "networkType": "ethereum",
  "devdoc": {
    "details": "Contract destination for aquiring and selling UCs.\r",
    "methods": {
      "burn(uint256,address)": {
        "details": "Exchange UCs for collateral, burMake new tokens in exchangefor collateral and assign to sender\r This function has a non-reentrancy guard, so it shouldn't be called by\r another `nonReentrant` function.\r",
        "params": {
          "_amount": "amount of UC okens to burn\r",
          "_collateralToken": "collateral Token Address\r"
        },
        "return": "The amount of Collateral seller received\r"
      },
      "mint(address,uint256,uint256)": {
        "details": "Make new tokens in exchangefor collateral and assign to sender\r This function has a non-reentrancy guard, so it shouldn't be called by\r another `nonReentrant` function.\r",
        "params": {
          "_amount": "amount of collateral Token to exchange\r",
          "_collateralToken": "collateral Token Address\r",
          "_minUCAmount": "minimum amount of UCs desired in exchange for the collateral\r"
        },
        "return": "The amount of UCs buyer received\r"
      }
    },
    "title": "UCTrade\r"
  },
  "userdoc": {
    "methods": {}
  }
}