{
  "contractName": "UCTrade",
  "abi": [
    {
      "constant": true,
      "inputs": [],
      "name": "ucCrawlingBand",
      "outputs": [
        {
          "name": "",
          "type": "address"
        }
      ],
      "payable": false,
      "stateMutability": "view",
      "type": "function"
    },
    {
      "constant": true,
      "inputs": [],
      "name": "ucToken",
      "outputs": [
        {
          "name": "",
          "type": "address"
        }
      ],
      "payable": false,
      "stateMutability": "view",
      "type": "function"
    },
    {
      "constant": true,
      "inputs": [
        {
          "name": "",
          "type": "address"
        }
      ],
      "name": "collateralTokens",
      "outputs": [
        {
          "name": "tokenAddr",
          "type": "address"
        },
        {
          "name": "price",
          "type": "uint256"
        },
        {
          "name": "balance",
          "type": "uint256"
        },
        {
          "name": "token",
          "type": "address"
        }
      ],
      "payable": false,
      "stateMutability": "view",
      "type": "function"
    },
    {
      "constant": true,
      "inputs": [],
      "name": "admin",
      "outputs": [
        {
          "name": "",
          "type": "address"
        }
      ],
      "payable": false,
      "stateMutability": "view",
      "type": "function"
    },
    {
      "inputs": [
        {
          "name": "_ucToken",
          "type": "address"
        },
        {
          "name": "_ucCrawlingBand",
          "type": "address"
        }
      ],
      "payable": false,
      "stateMutability": "nonpayable",
      "type": "constructor"
    },
    {
      "constant": false,
      "inputs": [
        {
          "name": "_tokenAddr",
          "type": "address"
        },
        {
          "name": "_price",
          "type": "uint256"
        }
      ],
      "name": "acceptNewCollateralToken",
      "outputs": [],
      "payable": false,
      "stateMutability": "nonpayable",
      "type": "function"
    },
    {
      "constant": false,
      "inputs": [
        {
          "name": "_collateralToken",
          "type": "address"
        },
        {
          "name": "_amount",
          "type": "uint256"
        },
        {
          "name": "_minUCAmount",
          "type": "uint256"
        }
      ],
      "name": "mint",
      "outputs": [
        {
          "name": "",
          "type": "uint256"
        }
      ],
      "payable": false,
      "stateMutability": "nonpayable",
      "type": "function"
    },
    {
      "constant": false,
      "inputs": [
        {
          "name": "_amount",
          "type": "uint256"
        },
        {
          "name": "_collateralToken",
          "type": "address"
        }
      ],
      "name": "burn",
      "outputs": [
        {
          "name": "",
          "type": "uint256"
        }
      ],
      "payable": false,
      "stateMutability": "nonpayable",
      "type": "function"
    }
  ],
  "bytecode": "0x608060405234801561001057600080fd5b50604051604080611aae8339810180604052604081101561003057600080fd5b810190808051906020019092919080519060200190929190505050600160008190555033600160006101000a81548173ffffffffffffffffffffffffffffffffffffffff021916908373ffffffffffffffffffffffffffffffffffffffff16021790555081600260006101000a81548173ffffffffffffffffffffffffffffffffffffffff021916908373ffffffffffffffffffffffffffffffffffffffff16021790555080600360006101000a81548173ffffffffffffffffffffffffffffffffffffffff021916908373ffffffffffffffffffffffffffffffffffffffff1602179055505050611987806101276000396000f3fe60806040526004361061007d576000357c010000000000000000000000000000000000000000000000000000000090048063156e29f6146100825780631c0b7fa1146100fb57806324aba59f14610152578063cffbc297146101a9578063f3cf94611461027b578063f851a440146102d6578063fcd3533c1461032d575b600080fd5b34801561008e57600080fd5b506100e5600480360360608110156100a557600080fd5b81019080803573ffffffffffffffffffffffffffffffffffffffff169060200190929190803590602001909291908035906020019092919050505061039c565b6040518082815260200191505060405180910390f35b34801561010757600080fd5b50610110610a8a565b604051808273ffffffffffffffffffffffffffffffffffffffff1673ffffffffffffffffffffffffffffffffffffffff16815260200191505060405180910390f35b34801561015e57600080fd5b50610167610ab0565b604051808273ffffffffffffffffffffffffffffffffffffffff1673ffffffffffffffffffffffffffffffffffffffff16815260200191505060405180910390f35b3480156101b557600080fd5b506101f8600480360360208110156101cc57600080fd5b81019080803573ffffffffffffffffffffffffffffffffffffffff169060200190929190505050610ad6565b604051808573ffffffffffffffffffffffffffffffffffffffff1673ffffffffffffffffffffffffffffffffffffffff1681526020018481526020018381526020018273ffffffffffffffffffffffffffffffffffffffff1673ffffffffffffffffffffffffffffffffffffffff16815260200194505050505060405180910390f35b34801561028757600080fd5b506102d46004803603604081101561029e57600080fd5b81019080803573ffffffffffffffffffffffffffffffffffffffff16906020019092919080359060200190929190505050610b46565b005b3480156102e257600080fd5b506102eb610e6e565b604051808273ffffffffffffffffffffffffffffffffffffffff1673ffffffffffffffffffffffffffffffffffffffff16815260200191505060405180910390f35b34801561033957600080fd5b506103866004803603604081101561035057600080fd5b8101908080359060200190929190803573ffffffffffffffffffffffffffffffffffffffff169060200190929190505050610e94565b6040518082815260200191505060405180910390f35b60006001600080828254019250508190555060008054905060008411151561042c576040517f08c379a00000000000000000000000000000000000000000000000000000000081526004018080602001828103825260138152602001807f636f6c6c61746572616c2072657175697265640000000000000000000000000081525060200191505060405180910390fd5b6000600460008773ffffffffffffffffffffffffffffffffffffffff1673ffffffffffffffffffffffffffffffffffffffff1681526020019081526020016000209050600073ffffffffffffffffffffffffffffffffffffffff168160000160009054906101000a900473ffffffffffffffffffffffffffffffffffffffff1673ffffffffffffffffffffffffffffffffffffffff1614151515610538576040517f08c379a000000000000000000000000000000000000000000000000000000000815260040180806020018281038252601a8152602001807f436f6c6c61746572616c20746f6b656e206e6f20666f756e642e00000000000081525060200191505060405180910390fd5b6000600360009054906101000a900473ffffffffffffffffffffffffffffffffffffffff1673ffffffffffffffffffffffffffffffffffffffff16636a05b6fb6040518163ffffffff167c010000000000000000000000000000000000000000000000000000000002815260040160206040518083038186803b1580156105be57600080fd5b505afa1580156105d2573d6000803e3d6000fd5b505050506040513d60208110156105e857600080fd5b8101908080519060200190929190505050905060006106268261061885600101548a6115e490919063ffffffff16565b6116b190919063ffffffff16565b90508581101515156106c6576040517f08c379a00000000000000000000000000000000000000000000000000000000081526004018080602001828103825260238152602001807f43616c63756c6174656420554320616d6f756e742062656c6f77206d696e696d81526020017f756d2e000000000000000000000000000000000000000000000000000000000081525060400191505060405180910390fd5b6106dd8784600201546116fb90919063ffffffff16565b83600201819055508260030160009054906101000a900473ffffffffffffffffffffffffffffffffffffffff1673ffffffffffffffffffffffffffffffffffffffff166323b872dd33308a6040518463ffffffff167c0100000000000000000000000000000000000000000000000000000000028152600401808473ffffffffffffffffffffffffffffffffffffffff1673ffffffffffffffffffffffffffffffffffffffff1681526020018373ffffffffffffffffffffffffffffffffffffffff1673ffffffffffffffffffffffffffffffffffffffff1681526020018281526020019350505050602060405180830381600087803b1580156107e057600080fd5b505af11580156107f4573d6000803e3d6000fd5b505050506040513d602081101561080a57600080fd5b8101908080519060200190929190505050151561088f576040517f08c379a000000000000000000000000000000000000000000000000000000000815260040180806020018281038252601e8152602001807f5472616e73666572206f6620636f6c6c61746572616c206661696c65642e000081525060200191505060405180910390fd5b600260009054906101000a900473ffffffffffffffffffffffffffffffffffffffff1673ffffffffffffffffffffffffffffffffffffffff166340c10f1933836040518363ffffffff167c0100000000000000000000000000000000000000000000000000000000028152600401808373ffffffffffffffffffffffffffffffffffffffff1673ffffffffffffffffffffffffffffffffffffffff16815260200182815260200192505050602060405180830381600087803b15801561095457600080fd5b505af1158015610968573d6000803e3d6000fd5b505050506040513d602081101561097e57600080fd5b81019080805190602001909291905050501515610a03576040517f08c379a00000000000000000000000000000000000000000000000000000000081526004018080602001828103825260178152602001807f436f756c646e2774206d696e7420554320746f6b656e2e00000000000000000081525060200191505060405180910390fd5b80945050505060005481141515610a82576040517f08c379a000000000000000000000000000000000000000000000000000000000815260040180806020018281038252601f8152602001807f5265656e7472616e637947756172643a207265656e7472616e742063616c6c0081525060200191505060405180910390fd5b509392505050565b600360009054906101000a900473ffffffffffffffffffffffffffffffffffffffff1681565b600260009054906101000a900473ffffffffffffffffffffffffffffffffffffffff1681565b60046020528060005260406000206000915090508060000160009054906101000a900473ffffffffffffffffffffffffffffffffffffffff16908060010154908060020154908060030160009054906101000a900473ffffffffffffffffffffffffffffffffffffffff16905084565b600160009054906101000a900473ffffffffffffffffffffffffffffffffffffffff1673ffffffffffffffffffffffffffffffffffffffff163373ffffffffffffffffffffffffffffffffffffffff16141515610c0b576040517f08c379a00000000000000000000000000000000000000000000000000000000081526004018080602001828103825260138152602001807f61646d696e206f6e6c792066756e6374696f6e0000000000000000000000000081525060200191505060405180910390fd5b600073ffffffffffffffffffffffffffffffffffffffff16600460008473ffffffffffffffffffffffffffffffffffffffff1673ffffffffffffffffffffffffffffffffffffffff16815260200190815260200160002060000160009054906101000a900473ffffffffffffffffffffffffffffffffffffffff1673ffffffffffffffffffffffffffffffffffffffff16141515610d37576040517f08c379a00000000000000000000000000000000000000000000000000000000081526004018080602001828103825260228152602001807f436f6c6c61746572616c20746f6b656e20616c726561647920696e636c75646581526020017f642e00000000000000000000000000000000000000000000000000000000000081525060400191505060405180910390fd5b6080604051908101604052808373ffffffffffffffffffffffffffffffffffffffff168152602001828152602001600081526020018373ffffffffffffffffffffffffffffffffffffffff16815250600460008473ffffffffffffffffffffffffffffffffffffffff1673ffffffffffffffffffffffffffffffffffffffff16815260200190815260200160002060008201518160000160006101000a81548173ffffffffffffffffffffffffffffffffffffffff021916908373ffffffffffffffffffffffffffffffffffffffff160217905550602082015181600101556040820151816002015560608201518160030160006101000a81548173ffffffffffffffffffffffffffffffffffffffff021916908373ffffffffffffffffffffffffffffffffffffffff1602179055509050505050565b600160009054906101000a900473ffffffffffffffffffffffffffffffffffffffff1681565b600060016000808282540192505081905550600080549050600084111515610f24576040517f08c379a00000000000000000000000000000000000000000000000000000000081526004018080602001828103825260128152602001807f554320616d6f756e74207265717569726564000000000000000000000000000081525060200191505060405180910390fd5b6000600260009054906101000a900473ffffffffffffffffffffffffffffffffffffffff1673ffffffffffffffffffffffffffffffffffffffff166370a08231336040518263ffffffff167c0100000000000000000000000000000000000000000000000000000000028152600401808273ffffffffffffffffffffffffffffffffffffffff1673ffffffffffffffffffffffffffffffffffffffff16815260200191505060206040518083038186803b158015610fe157600080fd5b505afa158015610ff5573d6000803e3d6000fd5b505050506040513d602081101561100b57600080fd5b81019080805190602001909291905050509050848110151515611071576040517f08c379a0000000000000000000000000000000000000000000000000000000008152600401808060200182810382526000815260200160200191505060405180910390fd5b6000600460008673ffffffffffffffffffffffffffffffffffffffff1673ffffffffffffffffffffffffffffffffffffffff1681526020019081526020016000209050600073ffffffffffffffffffffffffffffffffffffffff168160000160009054906101000a900473ffffffffffffffffffffffffffffffffffffffff1673ffffffffffffffffffffffffffffffffffffffff161415151561117d576040517f08c379a000000000000000000000000000000000000000000000000000000000815260040180806020018281038252601b8152602001807f636f6c6c61746572616c20746f6b656e206e6f7420666f756e642e000000000081525060200191505060405180910390fd5b6000600360009054906101000a900473ffffffffffffffffffffffffffffffffffffffff1673ffffffffffffffffffffffffffffffffffffffff16632271e82a6040518163ffffffff167c010000000000000000000000000000000000000000000000000000000002815260040160206040518083038186803b15801561120357600080fd5b505afa158015611217573d6000803e3d6000fd5b505050506040513d602081101561122d57600080fd5b81019080805190602001909291905050509050600061126b836001015461125d848b6115e490919063ffffffff16565b6116b190919063ffffffff16565b90508260030160009054906101000a900473ffffffffffffffffffffffffffffffffffffffff1673ffffffffffffffffffffffffffffffffffffffff166323b872dd3033846040518463ffffffff167c0100000000000000000000000000000000000000000000000000000000028152600401808473ffffffffffffffffffffffffffffffffffffffff1673ffffffffffffffffffffffffffffffffffffffff1681526020018373ffffffffffffffffffffffffffffffffffffffff1673ffffffffffffffffffffffffffffffffffffffff1681526020018281526020019350505050602060405180830381600087803b15801561136857600080fd5b505af115801561137c573d6000803e3d6000fd5b505050506040513d602081101561139257600080fd5b8101908080519060200190929190505050151561143d576040517f08c379a00000000000000000000000000000000000000000000000000000000081526004018080602001828103825260238152602001807f436f756c646e2774207472616e7366657220636f6c6c61746572616c20746f6b81526020017f656e73000000000000000000000000000000000000000000000000000000000081525060400191505060405180910390fd5b61145481846002015461178590919063ffffffff16565b8360020181905550600260009054906101000a900473ffffffffffffffffffffffffffffffffffffffff1673ffffffffffffffffffffffffffffffffffffffff16639dc29fac338a6040518363ffffffff167c0100000000000000000000000000000000000000000000000000000000028152600401808373ffffffffffffffffffffffffffffffffffffffff1673ffffffffffffffffffffffffffffffffffffffff16815260200182815260200192505050602060405180830381600087803b15801561152157600080fd5b505af1158015611535573d6000803e3d6000fd5b505050506040513d602081101561154b57600080fd5b81019080805190602001909291905050505080955050505050600054811415156115dd576040517f08c379a000000000000000000000000000000000000000000000000000000000815260040180806020018281038252601f8152602001807f5265656e7472616e637947756172643a207265656e7472616e742063616c6c0081525060200191505060405180910390fd5b5092915050565b6000808314156115f757600090506116ab565b6000828402905082848281151561160a57fe5b041415156116a6576040517f08c379a00000000000000000000000000000000000000000000000000000000081526004018080602001828103825260218152602001807f536166654d6174683a206d756c7469706c69636174696f6e206f766572666c6f81526020017f770000000000000000000000000000000000000000000000000000000000000081525060400191505060405180910390fd5b809150505b92915050565b60006116f383836040805190810160405280601a81526020017f536166654d6174683a206469766973696f6e206279207a65726f0000000000008152506117cf565b905092915050565b600080828401905083811015151561177b576040517f08c379a000000000000000000000000000000000000000000000000000000000815260040180806020018281038252601b8152602001807f536166654d6174683a206164646974696f6e206f766572666c6f77000000000081525060200191505060405180910390fd5b8091505092915050565b60006117c783836040805190810160405280601e81526020017f536166654d6174683a207375627472616374696f6e206f766572666c6f770000815250611899565b905092915050565b60008083118290151561187d576040517f08c379a00000000000000000000000000000000000000000000000000000000081526004018080602001828103825283818151815260200191508051906020019080838360005b83811015611842578082015181840152602081019050611827565b50505050905090810190601f16801561186f5780820380516001836020036101000a031916815260200191505b509250505060405180910390fd5b506000838581151561188b57fe5b049050809150509392505050565b60008383111582901515611948576040517f08c379a00000000000000000000000000000000000000000000000000000000081526004018080602001828103825283818151815260200191508051906020019080838360005b8381101561190d5780820151818401526020810190506118f2565b50505050905090810190601f16801561193a5780820380516001836020036101000a031916815260200191505b509250505060405180910390fd5b506000838503905080915050939250505056fea165627a7a72305820312494437f7bc1576442b41b106bdf5be1d0afd1373410fdee0ebf8e71298bff0029",
  "source": "pragma solidity >=0.4.21 <0.6.0;\r\n\r\nimport \"@openzeppelin/contracts/utils/ReentrancyGuard.sol\";\r\nimport \"@openzeppelin/contracts/math/SafeMath.sol\";\r\nimport \"./UCToken.sol\";\r\nimport \"./UCStorage.sol\";\r\nimport \"./UCCrawlingBand.sol\";\r\nimport \"./UCCollateralTokenInterface.sol\";\r\n\r\n/**\r\n * @title UCTrade\r\n * @dev Contract destination for aquiring and selling UCs.\r\n */\r\ncontract UCTrade is ReentrancyGuard {\r\n    using SafeMath for uint256;\r\n\r\n    address public admin;\r\n    UCToken public ucToken;\r\n    //UCStorage public ucStorage;\r\n    UCCrawlingBand public ucCrawlingBand; // The reference to UCCrawlingBand implementation.\r\n\r\n    //uint256 private _currentRate; // simple test as if there was only one acceptable stablecoin\r\n\r\n    constructor(UCToken _ucToken, UCCrawlingBand _ucCrawlingBand) public {\r\n        admin = msg.sender;\r\n        ucToken = _ucToken;\r\n        //ucStorage = _ucStorage;\r\n        ucCrawlingBand = _ucCrawlingBand;\r\n    }\r\n\r\n    // MODIFIERS\r\n    modifier onlyAdmin() {\r\n        require(msg.sender == address(admin), \"admin only function\");\r\n        _;\r\n    }\r\n\r\n    struct CollateralToken {\r\n        address tokenAddr; // acceptable ERC20 token address\r\n        uint256 price; // price in US Dollar / 10000000 (7 decimals)\r\n        uint256 balance; // total amount of tokens\r\n        UCCollateralTokenInterface token;\r\n    }\r\n    mapping (address => CollateralToken) public collateralTokens; //mapping of accepted token addresses balances\r\n\r\n    function acceptNewCollateralToken(address _tokenAddr, uint256 _price) public onlyAdmin {\r\n        // TODO: check if is ERC compatible token\r\n\r\n        // check if token hasn't been included yet\r\n        require (collateralTokens[_tokenAddr].tokenAddr == address(0), \"Collateral token already included.\");\r\n\r\n        collateralTokens[_tokenAddr] = CollateralToken({\r\n            tokenAddr: _tokenAddr,\r\n            price: _price,\r\n            balance: 0,\r\n            token: UCCollateralTokenInterface(_tokenAddr)\r\n        });\r\n    }\r\n\r\n    struct SaleOrder {\r\n    address addr; // acccount address\r\n    uint amount; // UC amount to sell\r\n    uint price;  // price is willing to sell\r\n    uint expirationInMinutes; // how long the order should valid, in minutes, before expiring\r\n    }\r\n\r\n    struct PurchaseOrder {\r\n    address addr;\r\n    uint amount; // UC amount wants to purchase\r\n    uint price;  // UC price\r\n    uint expirationInMinutes; // how long the order should valid, in minutes, before expiring\r\n    }\r\n\r\n    \r\n    /**\r\n     * @dev Make new tokens in exchangefor collateral and assign to sender\r\n     * This function has a non-reentrancy guard, so it shouldn't be called by\r\n     * another `nonReentrant` function.\r\n     * @param _collateralToken collateral Token Address\r\n     * @param _amount amount of collateral Token to exchange\r\n     * @param _minUCAmount minimum amount of UCs desired in exchange for the collateral\r\n     * @return The amount of UCs buyer received\r\n     */\r\n    function mint(address _collateralToken, uint256 _amount, uint256 _minUCAmount) public nonReentrant returns (uint256) {\r\n        require(_amount > 0, \"collateral required\");\r\n\r\n        CollateralToken storage cToken = collateralTokens[_collateralToken];\r\n        // make sure token is an approved token\r\n        require (cToken.tokenAddr != address(0), \"Collateral token no found.\");\r\n\r\n        // check rate\r\n        uint256 ucCeilingPrice = ucCrawlingBand.getCurrentCeilingPrice();\r\n        uint256 ucAmount = (_amount.mul(cToken.price)).div(ucCeilingPrice);\r\n        require(ucAmount >= _minUCAmount, \"Calculated UC amount below minimum.\");\r\n\r\n        // transfer to reserves\r\n        cToken.balance = cToken.balance.add(_amount);\r\n        require(cToken.token.transferFrom(msg.sender, address(this), _amount), \"Transfer of collateral failed.\");\r\n        //if (!cToken.token.transferFrom(msg.sender, address(this), _amount)) revert(\"Transfer of collateral failed.\");\r\n\r\n        // mint UC\r\n        require(ucToken.mint(msg.sender, ucAmount), \"Couldn't mint UC token.\");\r\n\r\n        return ucAmount;\r\n    }\r\n\r\n    /**\r\n     * @dev Exchange UCs for collateral, burMake new tokens in exchangefor collateral and assign to sender\r\n     * This function has a non-reentrancy guard, so it shouldn't be called by\r\n     * another `nonReentrant` function.\r\n     * @param _collateralToken collateral Token Address\r\n     * @param _amount amount of UC okens to burn\r\n     * @return The amount of Collateral seller received\r\n     */\r\n    function burn(uint256 _amount, address _collateralToken) public nonReentrant returns (uint256) {\r\n        require(_amount > 0, \"UC amount required\");\r\n        uint256 balance = ucToken.balanceOf(msg.sender);\r\n        require(balance >= _amount, \"\");\r\n\r\n        // return default\r\n        CollateralToken storage cToken = collateralTokens[_collateralToken];\r\n        // make sure token is an approved token\r\n        require (cToken.tokenAddr != address(0), \"collateral token not found.\");\r\n\r\n        // check rate\r\n        uint256 ucFloorPrice = ucCrawlingBand.getCurrentFloorPrice();\r\n        uint256 cAmount = (_amount.mul(ucFloorPrice)).div(cToken.price);\r\n        //require(cAmount >= _minColAmount, \"Collateral amount to receive is below minimum.\");\r\n\r\n        // transfer from reserves\r\n        if (!cToken.token.transferFrom(address(this), msg.sender, cAmount)) revert(\"Couldn't transfer collateral tokens\");\r\n        cToken.balance = cToken.balance.sub(cAmount);\r\n\r\n        // burn UC\r\n        ucToken.burn(msg.sender, _amount);\r\n\r\n        return cAmount;\r\n\r\n    }\r\n\r\n\r\n}",
  "sourcePath": "E:/jcl/webmaster/github/uctoken/uctoken/contracts/UCTrade.sol",
  "compiler": {
    "name": "solc",
    "version": "0.5.1+commit.c8a2cb62.Emscripten.clang"
  },
  "schemaVersion": "3.0.19",
  "updatedAt": "2019-11-27T01:28:02.857Z",
  "networkType": "ethereum",
  "devdoc": {
    "details": "Contract destination for aquiring and selling UCs.\r",
    "methods": {
      "burn(uint256,address)": {
        "details": "Exchange UCs for collateral, burMake new tokens in exchangefor collateral and assign to sender\r This function has a non-reentrancy guard, so it shouldn't be called by\r another `nonReentrant` function.\r",
        "params": {
          "_amount": "amount of UC okens to burn\r",
          "_collateralToken": "collateral Token Address\r"
        },
        "return": "The amount of Collateral seller received\r"
      },
      "mint(address,uint256,uint256)": {
        "details": "Make new tokens in exchangefor collateral and assign to sender\r This function has a non-reentrancy guard, so it shouldn't be called by\r another `nonReentrant` function.\r",
        "params": {
          "_amount": "amount of collateral Token to exchange\r",
          "_collateralToken": "collateral Token Address\r",
          "_minUCAmount": "minimum amount of UCs desired in exchange for the collateral\r"
        },
        "return": "The amount of UCs buyer received\r"
      }
    },
    "title": "UCTrade\r"
  },
  "userdoc": {
    "methods": {}
  }
}